:020000040800F2
:1000000060A90020D58600084501000847010008C6
:10001000490100084B0100084D01000800000000E4
:100020000000000000000000000000004F01000878
:1000300051010008000000005301000855010008AC
:10004000EF860008EF860008EF860008EF860008BC
:10005000EF860008EF860008EF860008EF860008AC
:10006000EF860008EF860008EF860008EF8600089C
:10007000EF860008EF860008EF860008EF8600088C
:10008000EF860008EF860008EF860008EF8600087C
:10009000EF860008EF860008EF860008EF8600086C
:1000A000EF860008EF860008EF860008EF8600085C
:1000B000437900084B780008EF860008EF860008B7
:1000C000EF860008EF860008EF860008EF8600083C
:1000D000EF8600086D860008EF860008EF860008AE
:1000E000EF860008EF860008EF860008EF8600081C
:1000F000EF860008EF860008EF860008EF8600080C
:10010000EF860008EF860008EF860008EF860008FB
:10011000EF860008EF860008C7780008EF86000821
:10012000EF860008EF860008EF860008EF860008DB
:10013000DFF80CD00AF0A0FF00480047BD19000806
:1001400060A900207047FEE7FEE7FEE7FEE7704784
:1001500070477047704700000CB500224C48009271
:100160000192016841F4803101604FF4A06301689D
:1001700001F4003101910099491C0091019911B9D4
:1001800000999942F3D10168890333D50121019186
:1001900040490A6842F010020A600A6822F003022D
:1001A0000A600A6842F002020A60416841604168E0
:1001B0004160416841F480614160416821F47C11F3
:1001C0004160416841F4E8114160016841F080718B
:1001D000016001688901FCD5416821F0030141609B
:1001E000416841F0020141604168C1F38101022987
:1001F000FAD10CBD01920CBD254810B5016841F043
:10020000010101604168244A114041600168234AAC
:1002100011400160016821F480210160416821F4EE
:10022000FE0141604FF41F018160FFF795FF1C49FB
:100230004FF00060086010BD154A10B55068194BAA
:1002400010F00C01184803D0042901D0082901D06E
:10025000036012E05168536801F470114FF002041A
:1002600013F4803F04EB914102D053689B0301D506
:100270000E4B00E00B4B5943016051680A4AC1F331
:100280000311121D515C0268CA40026010BD0000DB
:1002900000100240002002400000FFF8FFFFF6FEC1
:1002A00008ED00E000127A000000002000093D0087
:1002B0002DE9FF47FA4C8146266806F11E050A36ED
:1002C00014F082FA804611F07DFC21684C4200EB6C
:1002D0004407283F11F06AFC00EB4402002302248B
:1002E000CDE90293CDE900843B4629463046143AD5
:1002F00014F0A0F8EB49086004B0BDE8F0871FB522
:1003000040F205400090E748006814F051FA694651
:1003100014F09EFF1FBD3EB5144614F06BFA05465F
:1003200014F029FAE049884204D1214628460BF00E
:10033000A7FD3EBDDD49884209D12246DCA16846C1
:100340001EF0A4FF694628460BF0D6FF3EBDD949F2
:100350008842FBD12146284613F0D6F83EBD3EB573
:1003600014F048FA044614F006FAD249884203D140
:10037000204613F071F811E0CB49884203D12046A2
:100380000BF02FFD0AE0C949884208D10A226946CC
:1003900020460BF015FF68460AF093FAC0B23EBD46
:1003A00070B505464FF4A871FFF7D9FFC24C4FF462
:1003B000807160702846FFF7D2FF207140F2011172
:1003C0002846FFF7CCFF60714FF481712846FFF794
:1003D000C6FFA07140F203112846FFF7C0FFE0718D
:1003E00070BD70B5B44C05464FF4A8716278FFF744
:1003F00092FF22794FF480712846FFF78CFF6279D3
:1004000040F201112846FFF786FFA2794FF481716F
:100410002846FFF780FFE2792846BDE8704040F2A9
:10042000031178E770B505464FF48071FFF797FF29
:10043000A14C4FF4A87120722846FFF790FF60721C
:10044000627840F20111012A12D0022A0FD1284607
:10045000FFF785FFA0724FF481712846FFF77FFFF9
:10046000E07240F251112846FFF779FF207370BD0A
:100470002846FFF774FFA07270BD70B58E4C05461C
:100480004FF48071227AFFF746FF627A4FF4A87129
:100490002846FFF740FF627840F20111012A12D08E
:1004A000022A12D1A27A2846FFF735FFE27A4FF4EA
:1004B00081712846FFF72FFF227B40F25111284619
:1004C000BDE8704027E7A27AF9E770BD70B57A4CB5
:1004D000744B054662781B1D40F2671101F062F90A
:1004E00022794FF480712846FFF715FF627940F2B8
:1004F00001112846FFF70FFFA2794FF481712846BA
:10050000FFF709FFE27940F203112846FFF703FFE6
:10051000227A4FF482712846FFF7FDFE614B627A22
:1005200036334FF4B471284601F03CF9A27A40F218
:1005300005112846FFF7EFFEE27A4FF48371284653
:10054000FFF7E9FE227B2846BDE87040554B40F29C
:100550006911223301F026B92DE9FF470DF1340866
:100560000C9F98E850024FF0000C4FF00208109DCD
:1005700003948DE880110AF08FFE04469DB30A2093
:10058000034600904A46002120460BF005F84B49EF
:1005900020460BF03BF84A4A002120460BF00CF8AD
:1005A000484A012120460BF007F8474A022120461D
:1005B0000BF002F80022114620460BF067F80022EB
:1005C000012120460BF062F80022022120460BF0A8
:1005D0005DF83349204613F0D3FC012120460BF08F
:1005E0000DF8204688E6FFE731460BF027F8CEE706
:1005F000F0B585B00AAF4FF0020C97E87000CDE976
:10060000004C00270297CDE9035613F044FB05B0D8
:100610002A49BDE8F04013F0BBBBF0B585B00DF141
:100620002C0C0E469CE832000A9F0097CDE903147B
:100630004FF0000C4FF0020ECDE901EC31460BF00B
:1006400067FD044621490BF047FE022120460BF0CE
:10065000B3FE1349204613F093FC294620460BF0C5
:1006600033FE05B02046F0BD2DE9F04387B081464A
:10067000DDE90F060024119D0DF10C0E1E27DDF89B
:10068000388002948EE8A1000220CDE9008048461F
:1006900012F008FE0746094912F0FCFE21E00000B6
:1006A00044AA030814000020CDB8000843C0000885
:1006B00025750000F3310108DC0800203C710308B7
:1006C000B8B8B800E0E0E000C0C0C0007C96030805
:1006D00004EB840006EB40012246384612F0F0FE9F
:1006E000641CAC42F4DB07B03846BDE8F0831CB5AF
:1006F00001680F2903D0BDE81C4013F049BFFE4834
:100700000FF0C2F800200FF0C1F8FC480FF0DEF83F
:100710000DF084FC00221146F9A00DF0ABFE11F0A3
:1007200045FAA0F1140411F04DFAA0F10B0104F107
:100730000900ADF804000A22ADF80610ADF800205B
:10074000F5491E22ADF802200969684688471CBD9C
:1007500010B5D0E9001401290BD00E2922D00F29A1
:100760001CD0A1F5807113390FD0BDE8104013F0F3
:100770000FBF204614F016FE20460023BDE81040AF
:100780004FF4FA62194613F02BBE07F009FBE34859
:1007900007F0EAFABDE8104000F0E7BFBDE81040FE
:1007A00000F0ECBF10BD2DE9F041D0E90014DB4FA3
:1007B00086B001290AD00E297AD00F2979D02629AE
:1007C00078D006B0BDE8F04113F0E2BE204614F048
:1007D000E9FD11F0EBF9D04900264FF4B872096831
:1007E000CDE900424D42CEA1CDE9021600EB450015
:1007F0006FF05908143808EB600028230496502243
:10080000E621FFF7A9FE11F0D1F9C7A140F271125C
:10081000CDE90216CDE9004200EB45001438401046
:10082000282304965022E621FFF796FE11F0BEF928
:10083000BFA14FF4B972CDE90216CDE9004200EB39
:100840004500143808EB60002823049646221E2138
:10085000FFF782FE11F0AAF9B9A140F27312CDE9B7
:100860000216CDE9004200EB450014384010282361
:10087000049646221E21FFF76FFE11F097F9B4A1EE
:100880004FF4BA72CDE90216CDE9004200EB450003
:10089000143808EB60002823049646225021FFF705
:1008A0005BFE11F083F900EB45001438401002E0C4
:1008B0003AE043E047E0AAA140F27512CDE9021602
:1008C000CDE900422823049646225021FFF744FE3A
:1008D00011F06CF9A6A14FF4BB72CDE90216CDE977
:1008E000004200EB4500143808EB60002823049612
:1008F00046228221FFF730FE11F058F9A0A140F204
:100900007712CDE90216CDE9004200EB450014381C
:1009100040102823049646228221FFF71DFE042062
:10092000387006B0BDE8F081C06800680928F8D1C9
:1009300006B02046BDE8F04114F082BD06B0BDE827
:10094000F04100F01BBFC1680229EAD1806813F0B2
:1009500082FF01210222A0F5B870082813D2DFE837
:1009600000F0040407090B0D0F1100F0FEFE0AE071
:10097000797308E07A7306E0B97304E0BA7302E0B1
:10098000F97300E0FA7307F032FA06B06348BDE885
:10099000F04107F0BEB92DE9F043054685B0D5E931
:1009A00000044FF4FA764FF4B8790F287ED004DCB7
:1009B00001280ED00E2806D1EEE1262877D0A0F52A
:1009C0008070133874D005B02846BDE8F04313F0AA
:1009D000DFBD204614F0E6FC0023324619462046CF
:1009E00013F0FEFC11F0E2F84B494FF4B0726FF0D7
:1009F0006307096800944D4265A1CDE9012100EB30
:100A00004500143807EB6000142341220A21FFF748
:100A1000EFFD11F0CBF862A140F261120094CDE934
:100A2000012100EB450014384010142341220A2113
:100A3000FFF7DEFD11F0BAF85DA14FF4B17200943A
:100A4000CDE9012100EB4500143807EB60001423C9
:100A500041223C21FFF7CCFD11F0A8F858A140F24B
:100A600063120094CDE9012100EB450014384010D9
:100A7000142341223C21FFF7BBFD11F097F854A14C
:100A80004FF4B2720094CDE9012100EB4500143817
:100A900007EB6000142341226E21FFF7A9FD11F03E
:100AA00085F800EB45001438401002E07EE191E14A
:100AB00081E149A140F265120094CDE9012114239E
:100AC00041226E21FFF794FD11F070F83CA14FF424
:100AD000B3720094CDE9012100EB4500143807EB17
:100AE000600014234122A021FFF782FD11F05EF87F
:100AF00000EB4500143877E0D0D0D0001C76030816
:100B0000E6898BE68C81E992BBE5BA8AE68EA7E599
:100B100088B6E599A800000044AA0308DC08002074
:100B2000E7A1AEE8AEA40000E58F96E6B688000027
:100B3000E5B7A5E4BBB6E5B7A6E8BDAC000000008C
:100B4000E5B7A5E4BBB6E58FB3E8BDAC0000000097
:100B5000E58FB3E8BDACE7BB86E8B08300000000DA
:100B6000E58FB3E8BDACE7B297E8B08300000000C2
:100B7000E8BDACE9809FE5878FE5B09100000000FB
:100B8000E8BDACE9809FE5A29EE58AA000000000D8
:100B9000E8BDACE58AA8E9809FE5BAA600000000A0
:100BA000E992BBE5AD94E9809FE5BAA6000000009C
:100BB000E68993E5AD94E6ACA1E695B000000000AF
:100BC000E992BBE5AD94E6B7B1E5BAA60000000036
:100BD000E5AD94E695B00000E689A9E5AD94E6B7E9
:100BE000B1E5BAA600000000FEA140F26712009431
:100BF000CDE90121401014234122A021FFF7F8FC88
:100C000010F0D4FFF9A14FF4B4720094CDE90121A2
:100C100000EB4500143807EB600014234122D22179
:100C2000FFF7E6FC10F0C2FFF4A140F26912009455
:100C3000CDE9012100EB4500143840101423412276
:100C4000D221FFF7D5FC10F0B1FF4FF480720026DF
:100C50004FF00308CDE9004200EB4500CDE90286E4
:100C6000143807EB6000142341221E21FFF7D5FC46
:100C700010F09CFF40F20112CDE9004200EB45006C
:100C8000CDE9028614384010142341221E21FFF7BB
:100C9000C4FC10F08BFF4FF48172CDE9004200EBF1
:100CA0004500CDE90286143807EB60001423412289
:100CB0005021FFF7B2FC10F079FF40F20312CDE9AA
:100CC000004200EB4500CDE90286143840101423A1
:100CD00041225021FFF7A1FC10F068FF4FF482720F
:100CE000CDE9004200EB4500CDE90286143807EB60
:100CF0006000142341228221FFF78FFC10F056FF81
:100D000040F20512CDE9004200EB4500CDE9028634
:100D100014384010142341228221FFF77EFC10F08A
:100D200045FF4FF48372CDE9004200EB4500CDE969
:100D30000286143807EB600014234122B421FFF728
:100D40006CFC10F033FF00EB45006FF059011438D4
:100D500001EB6000AFF23822CDE90226CDE900496F
:100D600014235022FA210496FFF7F6FB10F01EFF21
:100D700000EB450014384010AFF2542140F27112DC
:100D8000CDE90216CDE90042142304965022FA213F
:100D9000FFF7E2FB05B0A8E4E86800680928F9D18C
:100DA00005B02046BDE8F04314F04ABB05B0BDE8ED
:100DB000F04300F0E3BC06F0F3FF944806F0D4FFE4
:100DC0002046FFF783FBE86805B03146BDE8F043F5
:100DD00014F006BAE8680228DCD1A86813F03BFDDD
:100DE000484503D0A0F580707138D3D105B0BDE877
:100DF000F04300F0BABC2DE9F041D0E9001486B010
:100E00004FF4B87801290AD00E2964D00F296CD08C
:100E100026296FD006B0BDE8F04113F0B9BB2046DB
:100E200014F0C0FA10F0C2FE79496FF05907096852
:100E30004E4200EB4600143807EB60000025AFF28D
:100E40002032CDE90225CDE9004828235022E621B1
:100E50000495FFF781FB10F0A9FE00EB4600143863
:100E60004010AFF23C3140F27112CDE90215CDE9EC
:100E70000042282304955022E621FFF76DFB10F075
:100E800095FE64A14FF4B972CDE90215CDE9004297
:100E900000EB4600143807EB600028230495782205
:100EA0001E21FFF759FB10F081FE5EA140F2731284
:100EB000CDE90215CDE9004200EB4600143807EBFE
:100EC00060002823049578225021FFF745FB4F4905
:100ED0000220087025E5C06800680928FAD106B02C
:100EE0002046BDE8F04114F0ABBA06B0BDE8F041D1
:100EF00000F044BCC1680229ECD1806813F0ABFC5F
:100F0000404517D0A0F58070713813D001281AD051
:100F10000228DFD106F06BFF3C4806F0FAFE2028DD
:100F20004FF0020218D044A145A006B0BDE8F04140
:100F30000EF07ABB06B0BDE8F04100F016BC3EA151
:100F400044A00EF071FB06F09FFE4FF00002002857
:100F5000F5D144A145A0E8E749A14BA0E5E72DE97B
:100F6000F047D0E90014294E86B04FF002094FF443
:100F7000C07701290AD00E2930D00F292FD0262979
:100F80002ED006B0BDE8F04713F002BB204614F0A7
:100F900009FA10F00BFE1E49BA4600270968CDE990
:100FA00000494D4200EB4500CDE9027A6FF0590847
:100FB0001438502308EB60001A4639460AF054FDF5
:100FC000814637A10AF069FC36A148460AF065FC63
:100FD00035A148460AF061FC344969E0ECE0F5E0EF
:100FE000F9E00000E6A8A1E5BC8F0000E5A587E5D3
:100FF00081B6E695B0E68E9200000000E5A4A7E574
:10100000B08FE992BBE5A4B400000000DC0800202A
:1010100044AA0308E6A8A1E59D97E6A380E6B58B60
:1010200000000000E695B0E68DAEE4BCA0E8BE93FB
:10103000E6A380E6B58B00004572726F7200000077
:1010400053656E642044617461206661696C6564F7
:10105000000000004E524632344C3031206572722E
:101060006F7221004E6F726D616C00004E524632FD
:10107000344C3031204E6F726D616C2100000000E5
:101080004E6F726D6F6C000053656E642044617426
:1010900061205375636365737366756C00000000AF
:1010A0004D3100004D3200004D3300007CA9030893
:1010B00048460AF0BBFE10F079FDFAA14FF4B97270
:1010C000CDE90217CDE9004200EB4500143808EBEA
:1010D00060002823049750225A21FFF73DFA10F0B0
:1010E00065FDF2A140F27312CDE90217CDE900428D
:1010F00000EB4500143840102823049750225A2151
:10110000FFF72AFA10F052FDEAA14FF4BA72CDE9C6
:101110000217CDE9004200EB4500143808EB6000EF
:10112000282304975022A021FFF716FA10F03EFD65
:10113000E2A140F27512CDE90217CDE9004200EBC1
:10114000450014384010282304975022A021FFF7AF
:1011500003FA10F02BFD00EB4500143808EB60009B
:10116000AFF244614FF4B872CDE90217CDE9004205
:10117000282304975022E621FFF7EEF910F016FD20
:1011800000EB450014384010AFF2646140F2711278
:10119000CDE90217CDE90042282304975022E62129
:1011A000FFF7DAF903203070B27806B051462046D6
:1011B000BDE8F047FFF7AFB8C0680068092819D14B
:1011C00006B02046BDE8F04714F03AB906B0BDE8D5
:1011D000F04700F0D3BAC16802290ED0042909D122
:1011E000806813F038FB3946884203D12046FFF768
:1011F000B6F8B07006B0BDE8F087806813F02BFB3E
:101200000121A0F5B870062810D2DFE800F00F0326
:1012100006080B0D00F0A9FA08E0317406E086F824
:10122000109003E0717401E086F8119006F0DFFD84
:1012300006B0A448BDE8F04706F06BBD7FB5054693
:1012400010F0B4FCA0496FF0630609684C4200EB53
:101250004400143806EB6000AFF2846140F2611282
:101260000095CDE90121142350224621FFF7C0F952
:1012700010F09CFC01210391032240F20113009520
:10128000CDE9013200EB4400143806EB600019236D
:1012900050226421FFF7C1F97FBD2DE9F043D0E969
:1012A000001485B04FF4B87901290AD00E297DD0F9
:1012B0000F297CD026297BD005B0BDE8F04313F080
:1012C00067B9204614F06EF810F070FC7E496FF09C
:1012D000630609684D4200EB4500143806EB6000D8
:1012E000AFF254714FF4B0720094CDE90121142390
:1012F00050220A21FFF77CF910F058FC00EB450062
:10130000143806EB6000AFF2687140F2611200948D
:10131000CDE90121142350224621FFF769F910F08D
:1013200045FC00EB4500143806EB6000AFF280711D
:101330004FF4B1720094CDE901211423502282218F
:10134000FFF756F910F032FC00EB4500143806EBBD
:101350006000AFF2947140F263120094CDE9012174
:1013600014235022BE21FFF743F910F01FFC57A1B0
:101370004FF4B2720094CDE9012100EB450014381E
:101380004010142350220A21FFF732F910F00EFC0E
:1013900000EB45001438032706EB60004FF001080E
:1013A0004FF48072192301A9009402E09CE0A5E0AB
:1013B000A9E081E8840150222821FFF72EF910F0DE
:1013C000F5FB01A940F20112009481E8840100EBD1
:1013D0004500143806EB6000192350226421FFF702
:1013E0001CF910F0E3FB01A94FF48172009481E82D
:1013F000840100EB4500143806EB600019235022ED
:10140000A021FFF70AF910F0D1FB01A940F2031265
:10141000009481E8840100EB4500143806EB60007D
:1014200019235022DC21FFF7F8F810F0BFFB2B49FD
:101430004FF4A87203970094CDE9012100EB450019
:101440001438502340101A463221FFF70DF9204678
:10145000FEF7C7FF10F0AAFB002621A2CDE9022665
:1014600000EB4500CDE900491438401028235022F4
:10147000A0210496FFF770F810F098FB00EB4500F0
:1014800014384010AFF6601140F27112CDE9021627
:10149000CDE90042282304965022D221FFF75CF8C0
:1014A00078E40000E5AE9AE4BD8D0000E689A9E588
:1014B000AD940000E4B88AE58D870000E4B88BE9BC
:1014C000998D0000DC08002044AA0308E6A8A1E5E5
:1014D000BC8FE98089E68BA900000000180000207D
:1014E000E8AEBEE7BDAE0000C06800680928D7D1ED
:1014F00005B02046BDE8F04313F0A2BF05B0BDE83B
:10150000F04300F03BB9C1680229C9D1806813F0EB
:10151000A2F9484508D0A0F580707138C0D105B057
:10152000BDE8F04300F021B92046FEF739FF00F096
:101530001CF905B0FD48BDE8F043FEF7B9BEF0B5B3
:10154000D0E9001485B04FF4B87501290AD00E29EE
:1015500051D00F2959D026295CD005B0BDE8F04004
:1015600013F016B8204613F01DFF10F01FFBF049D2
:1015700000262823096850224F4200EB47006FF0F5
:101580005901143801EB6000EAA1CDE90216E62109
:101590000496CDE90045FEF7DFFF10F007FB00EBF6
:1015A000470014384010AFF6802140F27112CDE9A7
:1015B0000216CDE90042282304965022E621FEF7C8
:1015C000CBFF204600F07AF9DC4D6878012802D084
:1015D000022804D009E02046FFF730FE05E020464F
:1015E000FFF72CFE204600F027F92046FEF745FFC6
:1015F0002E7005B0F0BDC06800680928F9D105B0AB
:101600002046BDE8F04013F01BBF05B0BDE8F04038
:1016100000F0B4B8C1680229EBD1806813F01BF95F
:10162000A84207D0A0F580707138E2D100F09DF893
:10163000C34818E02046FEF7F5FE06F0D8FBBF4889
:1016400006F067FB20280BD000F08FF80222AFF2E3
:101650001861AFF2146005B0BDE8F0400DF0E4BFD2
:1016600000F083F8B74805B0BDE8F040FEF720BEB3
:101670002DE9FC4104464FF41476D4E90005012815
:101680000AD00E2821D00F2828D026282AD020467C
:10169000BDE8FC4112F07CBF284613F083FE10F039
:1016A00091FAA34909684C4200EB4407283F10F027
:1016B0007DFA00EB4402CDE900563B4600211420A0
:1016C000143A00F084F8BDE8FC81E068006809285D
:1016D000F9D12846BDE8FC4113F0B2BEBDE8FC419B
:1016E00000F04CB8E0680228EDD1A06813F0B3F820
:1016F000B042E8D1A0680FF085FF0628E3D29249F6
:1017000051F82000BDE8FC41FEF7D2BD10B5042021
:1017100013F036FE8D4811F0E3FC8D480BF06AFAA9
:101720008A4811F0DDFC8B4809F05AFF8A480AF01C
:1017300053F88A480AF06CFB894812F071F989481D
:1017400012F068FA88480FF033FE884811F094FED2
:1017500000F0A6F913F038F8854913F08FFD85489D
:10176000FEF7A6FD0EF07EFB10BD10B5764C4C3C8E
:10177000206812F041FF0020206010BD1CB56846B3
:1017800013F006F87C480EF07FF800200EF07EF88B
:101790007A480EF09BF802200EF0DAF868460CF05A
:1017A0007BFC1CBD70B51E46144613F023F805469D
:1017B00012F0E1FF7249884208D104EB840006EB85
:1017C00040012846BDE8704012F0F4BA70BDF0B593
:1017D00087B00227DDE90C5650240297CDE9036457
:1017E00005940324CDE900540FF0B4FE0646654984
:1017F0000FF02CFF644A012130460FF010FF0A223F
:10180000012130460FF050FF0A22012130460FF02F
:101810002FFF5E4D002405EBC40055F834104268DC
:1018200030460FF0D3FD641C062CF4D3304613F081
:10183000B9FD07B03046F0BD7FB5044610F0B6F9EB
:101840003B49414A40F2511309682A3A4D4202216C
:1018500003910094CDE9013200EB450014384010AB
:10186000462350226421FEF7FFFE10F09FF948A1A5
:101870004FF4B1720094CDE9012100EB45006FF007
:101880006306143806EB6000142350228221FEF711
:10189000AFFE10F08BF90121039103224FF4817305
:1018A0000094CDE9013200EB4500143806EB6000EE
:1018B00019235022A021FEF7B0FE7FBD7FB504465C
:1018C00010F074F91A494FF4B0726FF063060968AA
:1018D00000944D4232A1CDE9012100EB45001438BE
:1018E00006EB6000142350220A21FEF781FE10F05F
:1018F0005DF901210B02039103220094CDE901322D
:1019000000EB4500143806EB600019235022282113
:10191000FEF783FE10F04AF900EB450014380A4A3E
:1019200040100221163A4FF4A8733DE03F1500081D
:1019300044AA0308E689A7E8A18C0000DC0800207F
:101940009B12000851070008600000205D3001086C
:101950003DC7000861B30008E9B6000839BB0008BC
:1019600045380108E93A010871130108A13301085B
:10197000EF06000871160008B0B0B0003C71030813
:10198000313C0108348603084050D480D0A00208BE
:10199000E992BBE5AD94E6B7B1E5BAA60000000058
:1019A000E5AD94E695B0000003910094CDE90132D5
:1019B000462350221421FEF757FE7FBD06F0B2FDEC
:1019C0004FF4A06006F040FF4FF4E13006F000FE57
:1019D00005F0E5FF06F09AF801F093FA05F09EFE97
:1019E00040F2E7344721204605F002FF40F2CF21C4
:1019F000204605F03BFF06F08DFE0121402007F058
:101A0000B1F9042013F0BCFC002000F048FF06F000
:101A1000A7F80DF083F906F037F90028FBD1FFF79E
:101A200075FE06F047F814200CF08EFCF9E7000074
:101A30002DE9FC41006814260F282FD110F0C2F8C0
:101A4000441E10F0B3F8421E26496FF07F40CDE9E6
:101A500000010021234608460CF070FE002410F01F
:101A6000A5F800EBD070401028381F4F85B24FF01A
:101A7000A0083868A04201D11C4801E01B48143876
:101A800042880188A8EB5202A5EB51010CF0AAFD97
:101A9000641CA819A4B285B2052CEAD3BDE8FC8168
:101AA0007CB5124810241C38D0E90010CDE9001094
:101AB00012F08AFE0E4913F0E1FB05250A4E0CE0F8
:101AC000C4F1100090FBF5F105FB11003060684691
:101AD00013F008FAC8200CF037FC641EE4B2EFD211
:101AE0007CBD00008080800078000020A84A0308A8
:101AF000311A000870B506464FF48071FE4C20463E
:101B000006F0BDFF65152946204606F0B8FF3146B0
:101B1000FA4806F0BBFF8021204606F0B0FF802186
:101B2000204606F0AAFF29462046BDE8704006F090
:101B3000A4BF70B5F04C06464FF48071204606F005
:101B40009CFF65152946204606F099FF3146EB4873
:101B500006F09CFF8021204606F091FF8021204660
:101B600006F08BFF29462046BDE8704006F085BF91
:101B70002DE9F047E14F4FF0883038603D1D286077
:101B8000DE4E00200C363060DB4CA915204606F0F6
:101B900074FF4FF400794946204606F070FF40215B
:101BA000204606F06CFFD6488088A0F509418939A7
:101BB00002D1022006F0CDFC384606F051FF8046E7
:101BC0004021204606F059FF4946204606F055FFC1
:101BD0004FF03330386028604FF6FF703060404679
:101BE000BDE8F08770B50E46FFF784FFC24C4FF496
:101BF0008071204606F041FF65152946204606F013
:101C00003EFF3146BD4806F041FF8021204606F0E8
:101C100036FF8021204606F030FF29462046BDE8E9
:101C2000704006F02ABF10B5FFF764FFBDE8104012
:101C30009EE7B34800895DE770B5AF4C06464FF4A8
:101C40008071204606F019FF65152946204606F0EA
:101C500016FF3146A94806F019FF8021204606F0FC
:101C60000EFF8021204606F008FF29462046BDE8E9
:101C7000704006F002BFC0F34511C20AC00200EB7B
:101C80004110104480B270472DE9F84F9C4E0D462C
:101C90000446B188280A00903046DFF85C82DFF8FD
:101CA0005CA24089A1F513424FF480774FF400798C
:101CB0004FEA142B413A15D0A1F5A642103A11D0A3
:101CC0003346A1F5D04C9A791B881B1B5B1EBCF1D7
:101CD000040C75D0A1F5A04CBCF5A26C6ED0012A05
:101CE0006DD03FE1FFF706FF4FF480714646404656
:101CF00006F0C3FE4946304606F0C1FE5946574637
:101D0000504606F0C3FE8021304606F0B8FE802122
:101D1000304606F0B2FE4946304606F0AEFE4FF4BD
:101D20008071304606F0A9FE4946304606F0A7FE0F
:101D3000E1B2384606F0AAFE8021304606F09FFE4A
:101D40008021304606F099FE4946304606F095FE61
:101D50006B488089FFF7CEFE4FF48071304606F065
:101D60008CFE4946304606F08AFE3846009906F059
:101D70008DFE8021304606F082FE8021304606F03E
:101D80007CFE4946304606F078FE4FF480713046BE
:101D900006F073FE4946304606F071FEE9B2384659
:101DA00006F074FE8021304606F069FE8021304640
:101DB00006F063FE49463046CFE001E054E0D0E053
:101DC000012A00D19CB2FFF795FEBB46394640463A
:101DD00006F053FE4946404606F051FE210A57469A
:101DE000504606F053FE8021404606F048FE802112
:101DF000404606F042FE4946404606F03EFE594641
:101E0000404606F03AFE4946404606F038FEE1B24A
:101E1000384606F03BFE8021404606F030FE802129
:101E2000404606F02AFE4946404606F026FEB089A6
:101E3000FFF760FE5946404606F01FFE4946404601
:101E400006F01DFE3846009906F020FE802140462F
:101E500006F015FE8021404606F00FFE494640463A
:101E600006F00BFE594663E0FFF744FE4FF4807125
:101E7000404606F002FE4946404606F000FE59463E
:101E80005746504606F002FE8021404606F0F7FD18
:101E90008021404606F0F1FD4946404606F0EDFD42
:101EA0007089401C80B2FFF725FE4FF480714046D8
:101EB00006F0E3FD4946404606F0E1FDE1B2384652
:101EC00006F0E4FD8021404606F0D9FD8021404621
:101ED00006F0D3FD4946404606F0CFFDB089FFF736
:101EE00009FE4FF48071404606F0C7FD4946404662
:101EF00006F0C5FD384605E000100140000C014029
:101F0000FC080020009906F0C1FD8021404606F043
:101F1000B6FD8021404606F0B0FD4946404606F039
:101F2000ACFDB089401C80B2FFF7E4FD4FF4807136
:101F3000404606F0A2FD4946404606F0A0FDE9B243
:101F4000384606F0A3FD8021404606F098FD80212A
:101F5000404606F092FD49464046BDE8F84F06F07F
:101F60008CBD9CB22146FFF73DFEB0892946BDE8F5
:101F7000F84F37E62DE9F84FFE4D2A88824202D904
:101F80006A888A4202D80020BDE8F88FFFF77CFEFD
:101F9000A888AA4649F2413B45F2103545F2105651
:101FA000584505D0A0F5D041043901D0A84201D14F
:101FB0002E2005E0B04202D14FF4385000E022203C
:101FC000FFF798FDDFF8B0934FF08830C9F80000B4
:101FD00009F104010860E8494FF6FF780C31C1F8B7
:101FE0000080E64F8915384606F047FD79153846DA
:101FF00006F045FD4021384606F041FD012006F07F
:10200000A8FA4021384606F038FD4021384606F04F
:1020100036FD012006F09DFA484606F021FD814676
:102020004021384606F029FDBAF80400584503D08F
:10203000A84201D0B04210D14021384606F01FFD21
:10204000CD4806F00DFD00904021384606F015FD04
:1020500009F0FF0008EA00240FE0A0F5D0410439A0
:102060000BD14021384606F00AFD4021384606F0E3
:1020700004FDC14806F0F4FC81464FF40071384677
:1020800006F0FBFCBC494FF033300860091D0860C6
:10209000B9490C31C1F80080BAF80400A0F5134129
:1020A00025391ED0A0F58A4135391AD0091D18D01E
:1020B000A0F50941893914D0A0F53541053910D072
:1020C000584503D0A84201D0B0420CD14FEAD920E4
:1020D0004FEAC020A10A40EA4111009841EAD0200D
:1020E00052E7484650E74846BDE8F84FC3E5A148E7
:1020F0008088A0F5134141390ED0A0F5D0410439B4
:102100000AD0A0F5A641103906D0B1F5007105D06E
:1021100040F27311072065E5292001E04FF42450B7
:10212000E8E494488088A0F5134141390DD0A0F52A
:10213000D041043909D0A0F5A641103905D0B1F538
:10214000007104D0002107204CE5282001E04FF465
:102150002050CFE42DE9F047864C00252146A37995
:10216000898846F60402012B18D1914216D008281E
:1021700014D2DFE800F00406080A0C0E1012062044
:102180000CE007200AE0042008E0052006E001201A
:1021900004E0002002E0032000E00220A1F5134645
:1021A00045F2103345F21058413E05D0914203D01C
:1021B000994201D041457DD1082812D2DFE800F0D4
:1021C000110406080A0C0E1080250AE0402508E0DC
:1021D000C02506E0202504E0602502E0A02500E0FF
:1021E000E025414502D14FF4585000E03620994295
:1021F00003D0414501D045F00805914201D145F099
:1022000002052946FFF7EEFCA8062088618802D562
:10221000884202D303E0884201D921806080A088EF
:102220004FF480756E004045544FDFF84C91608943
:102230007ED1FFF75FFC2946B846384606F01DFC04
:102240003146404606F01BFC00214F46484606F04A
:102250001DFC8021404606F012FC8021404606F01D
:102260000CFC3146404606F008FC6089401C80B2F8
:10227000FFF740FC2946404606F0FFFB314640464A
:1022800006F0FDFB0021384606F000FC80214046A8
:1022900006F0F5FB8021404606F0EFFB3146404654
:1022A00006F0EBFB6089801C80B2FFF723FC294617
:1022B000404600E071E106F0E0FB3146404606F0A2
:1022C000DEFB2088401EC0F30F21384606F0DEFBFF
:1022D0008021404606F0D3FB8021404606F0CDFB2E
:1022E0003146404606F0C9FB6089C01C80B2FFF74A
:1022F00001FC2946404606F0C0FB3146404606F048
:10230000BEFB2078401EC1B2384606F0BFFB8021DC
:10231000404606F0B4FB8021404606F0AEFB314655
:10232000404606F0AAFBA089FFF7E4FB294600E03F
:1023300060E0404606F0A1FB3146404606F09FFBB8
:102340000021384606F0A2FB8021404606F097FBAC
:102350008021404606F091FB3146404606F08DFB59
:10236000A089401C80B2FFF7C5FB2946404606F015
:1023700084FB05E0FC080020000C01400010014037
:102380003146404606F07BFB0021384606F07EFBD6
:102390008021404606F073FB8021404606F06DFB2D
:1023A0003146404606F069FBA089801C80B2FFF7E9
:1023B000A1FB2946404606F060FB3146404606F048
:1023C0005EFB6088401EC0F30F21384606F05EFBBE
:1023D0008021404606F053FB8021404606F04DFB2D
:1023E0003146404606F049FBA089C01C80B2FFF789
:1023F00081FBB6E0FFF77EFB2946B846384606F07B
:102400003CFB3146404606F03AFB00214F46484629
:1024100006F03CFB8021404606F031FB802140461F
:1024200006F02BFB3146404606F027FB2946404686
:1024300006F023FB3146404606F021FB00213846DA
:1024400006F024FB8021404606F019FB802140461F
:1024500006F013FB3146404606F00FFB2946404686
:1024600006F00BFB3146404606F009FB2088401E73
:10247000C0F30F21384606F009FB8021404606F0E4
:10248000FEFA8021404606F0F8FA3146404606F052
:10249000F4FA2946404606F0F0FA3146404606F086
:1024A000EEFA2078401EC1B2384606F0EFFA8021DD
:1024B000404606F0E4FA8021404606F0DEFA314656
:1024C000404606F0DAFAA089FFF714FB2946404699
:1024D00006F0D3FA3146404606F0D1FA00213846DC
:1024E00006F0D4FA8021404606F0C9FA8021404621
:1024F00006F0C3FA3146404606F0BFFA2946404688
:1025000006F0BBFA3146404606F0B9FA00213846DB
:1025100006F0BCFA8021404606F0B1FA8021404620
:1025200006F0ABFA3146404606F0A7FA2946404687
:1025300006F0A3FA3146404606F0A1FA6088401E34
:10254000C0F30F21384606F0A1FA8021404606F07C
:1025500096FA8021404606F090FA3146404606F051
:102560008CFA2946404606F088FA3146404606F085
:1025700086FAA078401EC1B2384606F087FA80215C
:10258000404606F07CFA8021404606F076FA314655
:102590004046BDE8F04706F070BA082812D2DFE8DE
:1025A00000F0040608110A0C0E1030250AE0102570
:1025B00008E0202506E0382504E0282502E018255B
:1025C00000E00825A1F50940893806D0032045F42C
:1025D0008051BDE8F047FFF705BB112046F24001EE
:1025E0002943F6E770B5FFF74FFBFFF722FBFE4CE0
:1025F0004FF48071204606F040FA651529462046C2
:1026000006F03DFAF94AFA48118806F03FFA8021AF
:10261000204606F034FA8021204606F02EFA29469C
:102620002046BDE8704006F028BA2DE9F74FF14E7C
:10263000044682B0B388080A009030460D46DFF8A1
:10264000A883DFF8ACA34089A3F513414FF480774A
:102650004FF400794FEA142B413913D0A3F5A6416A
:1026600010390FD0B1F5007118D03246A3F5D04C17
:1026700091791288121B521EBCF1040C66D00129FC
:102680007ED0CFE0FFF736FA3946404606F0F5F93E
:102690004946404606F0F3F9594665E0FFF72AFA45
:1026A0003946404606F0E9F94946404606F0E7F962
:1026B0005946504606F0EAF98021404606F0DFF917
:1026C0008021404606F0D9F94946404606F0D5F942
:1026D0007089401C80B2FFF70DFA3946404606F07B
:1026E000CCF94946404606F0CAF9E1B2504606F038
:1026F000CDF98021404606F0C2F98021404606F01F
:10270000BCF94946404606F0B8F9B089FFF7F2F93E
:102710003946404606F0B1F94946404606F0AFF961
:102720005046009906F0B2F98021404606F0A7F91C
:102730008021404606F0A1F94946404606F09DF941
:10274000B089401C80B2FFF7D5F951E0012900D1D2
:1027500094B2FFF7CFF93946404606F08EF9494664
:10276000404606F08CF9210A504606F08FF9802188
:10277000404606F084F98021404606F07EF900E0EC
:102780004FE04946404606F078F93946404606F0A3
:1027900074F94946404606F072F9E1B2504606F037
:1027A00075F98021404606F06AF98021404606F01E
:1027B00064F94946404606F060F9B089FFF79AF996
:1027C0003946404606F059F94946404606F057F961
:1027D0005046009906F05AF98021404606F04FF91C
:1027E0008021404606F049F94946404606F045F941
:1027F0003946404606F041F94946404606F03FF961
:10280000E9B2504606F042F98021404606F037F919
:102810008021404606F031F94946404606F02DF940
:1028200007E094B22146FFF7DDF9B0892946FFF7AA
:10283000D9F939464446404606F021F94D46494605
:10284000204606F01CF931895646504606F01EF91E
:102850008021204606F013F98021204606F00DF96C
:102860002946204606F009F93946204606F005F9C2
:102870002946204606F003F93046049906F006F989
:102880008021204606F0FBF88021204606F0F5F86E
:1028900005B029462046BDE8F04F06F0EEB82DE918
:1028A000F05F54492C232A242B25222221268988B3
:1028B00048F689194FF04E0A4FF04F0B45F2105E63
:1028C000F02749F24138F8B14A484FF0010C414530
:1028D00080F806C04FF4A07CA0F800C047800FD05D
:1028E000A1F5A647103F0BD0A1F5D047043F4ED02D
:1028F000494550D10281A0F80AB0A0F80CA060E0D0
:102900000381448185815CE03A484FF0000C4145E9
:1029100080F806C007804FF4A077478011D0A1F55A
:10292000D04CBCF1040C0CD0A1F5A04CBCF5447CFF
:1029300007D0494514D10281A0F80AA0A0F80CB034
:102940004CE003814481A1F5D0428581043A03D053
:10295000A1F5A642103A41D107804FF4F0710FE083
:1029600071450FD14FF4305101814FF4285141810D
:102970004FF42C5181814FF4F07101804FF4487174
:1029800041802BE0028120214181868126E0038164
:102990004581848115E071450FD14FF43052028199
:1029A0004FF4285242814FF42C5282814FF44872E6
:1029B00002804FF4F072428003E0028146812022BF
:1029C0008281A1F5D042043A03D0A1F5A642103A83
:1029D00004D14FF4F0710180A0F802C0BDE8F05FAF
:1029E0000020FFF7B7BB0000001001407C00002072
:1029F000000C0140FC0800202DE9F05F0746104460
:102A0000401E85B2C818401E0E4684B2FE4A4FEAE8
:102A1000112A114690884989A0F513434FF4807B11
:102A20004FEA1729413B30D0A0F5A643103B2CD0EC
:102A3000A0F5D043043B28D0A0F5AA43103B7DD09D
:102A4000917901297BD0A84639463546A0F509423F
:102A5000893A75D050204FF0510B4FF0520A532253
:102A60009146FFF7BFF841465846FFF7BBF82946A5
:102A70005046FFF7B7F821464846FFF7B3F831460E
:102A80003846BDE8F05FFFF7FFB80846FFF732F8B9
:102A90004FF48071DD4805F0F0FF4FF4007B59469C
:102AA000DA4805F0ECFFDFF868834946404605F058
:102AB000EDFF8021D54805F0E2FF8021D34805F0E5
:102AC000DCFF5946D14805F0D8FF4FF48071CF485C
:102AD00005F0D3FF5946CD4805F0D1FFF9B2404685
:102AE00005F0D4FF8021C94805F0C9FF8021C748FF
:102AF00005F0C3FF5946C54805F0BFFF4FF480718C
:102B0000C24805F0BAFF5946C04805F0B8FF290A87
:102B1000404605F0BBFF8021BC4805F0B0FF802196
:102B2000BA4805F0AAFF5946B84805F0A6FF4FF489
:102B30008071B64805F0A1FF594602E07AE08BE1CA
:102B400080E1B24805F09BFFE9B2404605F09EFFE8
:102B50008021AE4805F093FF8021AC4805F08DFF41
:102B60005946AA4805F089FFA7488089FEF7C2FFA9
:102B70004FF48071A54805F080FF5946A34805F041
:102B80007EFF5146404605F081FF80219F4805F0B9
:102B900076FF80219D4805F070FF59469B4805F05F
:102BA0006CFF4FF48071994805F067FF59469748CC
:102BB00005F065FFF1B2404605F068FF80219348BB
:102BC00005F05DFF8021914805F057FF59468F4879
:102BD00005F053FF4FF480718C4805F04EFF5946C5
:102BE0008A4805F04CFF210A404605F04FFF80213E
:102BF000864805F044FF8021844805F03EFF594691
:102C0000824805F03AFF4FF48071804805F035FFA7
:102C100059467E4805F033FFE1B2404605F036FFE5
:102C200080217A4805F02BFF8021784805F025FFA8
:102C3000594602E190460846FEF75CFF5946734844
:102C400005F01BFF4FF40071704805F018FF49466E
:102C5000DFF8BC91484605F019FF80216B4805F06C
:102C60000EFF8021694805F008FF4FF400716748A6
:102C700005F003FFB8F80A00401C80B2FEF73AFFE7
:102C80005946624805F0F9FE4FF400715F4805F0BF
:102C9000F6FEF9B2484605F0F9FE80215B4805F0E2
:102CA000EEFE8021594805F0E8FE4FF400715748C8
:102CB00005F0E3FEB8F80A00801C80B2FEF71AFFA8
:102CC0005946524805F0D9FE4FF400714F4805F0BF
:102CD000D6FE290A484605F0D9FE80214B4805F06A
:102CE000CEFE8021494805F0C8FE4FF400714748E8
:102CF00005F0C3FEB8F80A00C01C80B2FEF7FAFE69
:102D00005946424805F0B9FE4FF400713F4805F0BE
:102D1000B6FEE9B2484605F0B9FE80213B4805F011
:102D2000AEFE8021394805F0A8FE4FF40071374807
:102D300005F0A3FEB8F80C00FEF7DCFE5946334858
:102D400005F09BFE4FF40071304805F098FE5146A7
:102D5000484605F09BFE80212C4805F090FE80211E
:102D60002A4805F08AFE4FF40071284805F085FED8
:102D7000B8F80C00401C80B2FEF7BCFE5946234850
:102D800005F07BFE4FF40071204805F078FEF1B2AB
:102D9000484605F07BFE80211C4805F070FE80212E
:102DA0001A4805F06AFE4FF40071184805F065FEF8
:102DB000B8F80C00801C80B2FEF79CFE5946134800
:102DC00005F05BFE4FF40071104805F058FE210A33
:102DD000484605F05BFE80210C4805F050FE80213E
:102DE0000A4805F04AFE4FF40071084805F045FE18
:102DF000B8F80C00C01C80B2FEF77CFE59460348B0
:102E000005F03BFE06E00000FC0800200010014039
:102E1000000C01404FF40071FE4805F030FEE1B2B5
:102E2000484605F033FE8021FA4805F028FE80214F
:102E3000F84805F022FE4FF40071BDE8F05FF54858
:102E400005F01BBE442041EA082189B2834688462A
:102E50004FF0450A462203E61288A046531B5B1E2C
:102E6000D21B521E31469DB294B2EFE52DE9F047D8
:102E7000E94E82460024308875884543B088A0F525
:102E8000D041043902D1B07901280CD00021084684
:102E9000FEF7FAFEFEF7CDFEDE4E4FF48078771592
:102EA000DFF8789329E00020B0712A2777814FF06E
:102EB0002B08A6F80C800146FEF7E6FE0120B07153
:102EC000A6F80A80B781E5E74146304605F0D5FD12
:102ED0003946304605F0D3FD5146484605F0D6FD4B
:102EE0008021304605F0CBFD8021304605F0C5FD40
:102EF0003946304605F0C1FD641CAC42E4D3BDE860
:102F0000F0872DE9F84F0121192005F034FF012148
:102F1000C34805F0D3FD4FF4F864ADF8004010202D
:102F20008DF803000320BB4D8DF80200694628464A
:102F300005F039FD2146284605F09FFDB74C4FF6B8
:102F4000FF75ADF800506946204605F02CFD294676
:102F5000204605F092FD322005F012FB01210020F1
:102F6000FEF740FE322005F00BFB0020FEF75BFE73
:102F7000A94C49F2413646F60408A08045F21039C2
:102F800045F21057FF2804D3A84202D0B0F5134FE2
:102F900056D1D320FEF7AEFDFEF7EAFDFEF7E8FDC1
:102FA000FEF7E6FD05EA0020A080FEF7E1FDA1881E
:102FB0000843A080B04243D0BF20FEF79BFDFEF740
:102FC000D7FDFEF7D5FDFEF7D3FDFEF7D1FD05EAEF
:102FD0000020A080FEF7CCFDA1880843A0804045DA
:102FE0002ED0D420FEF786FDFEF7C2FDFEF7C0FD11
:102FF000FEF7BEFD05EA0020A080FEF7B9FDA1881E
:103000000843A08048451BD04FF45A40FEF772FD9C
:10301000FEF7AEFD4FF45B40FEF76CFDFEF7A8FD3A
:1030200005EA0020A0804FF45C40FEF763FDFEF748
:103030009FFDA1880843A080B0F5004F00D1A78074
:10304000A18878A01CF012F9A088B0427ED1CF20D0
:10305000FEF750FD0020FEF76CFDC120FEF769FD74
:103060003020FEF766FDED20FEF744FD6420FEF7FC
:1030700060FD0320FEF75DFD1220FEF75AFD812062
:10308000FEF757FDE820FEF735FD8520FEF751FDE0
:103090001020FEF74EFD7A20FEF74BFDCB20FEF709
:1030A00029FD3920FEF745FD2C20FEF742FD0020CA
:1030B000FEF73FFD3420FEF73CFD0220FEF739FD10
:1030C000F720FEF717FD2020FEF733FDEA20FEF77C
:1030D00011FD0020FEF72DFD0020FEF72AFDC02087
:1030E000FEF708FD1B20FEF724FDC120FEF702FDC0
:1030F0000120FEF71EFDC520FEF7FCFC3020FEF788
:1031000018FD3020FEF715FDC720FEF7F3FCB720B1
:10311000FEF70FFD3620FEF7EDFC4820FEF709FD17
:103120003A20FEF7E7FC5520FEF703FDB120FEF73D
:10313000E1FC0020FEF7FDFC1A20FEF7FAFCB620A9
:10314000FEF7D8FC0A20FEF7F4FC00E0A2E0A22083
:10315000FEF7EFFCF220FEF7CDFC0020FEF7E9FCC5
:103160002620FEF7C7FC0120FEF7E3FCE020FEF777
:10317000C1FC0F20FEF7DDFC2A20FEF7DAFC282038
:10318000FEF7D7FC0820FEF7D4FC0E20FEF7D1FC9A
:103190000820FEF7CEFC5420FEF7CBFCA920FEF75A
:1031A000C8FC4320FEF7C5FC0A20FEF7C2FC0F2036
:1031B000FEF7BFFC0020FEF7BCFC0020FEF7B9FCC8
:1031C0000020FEF7B6FC0020FEF7B3FCE120FEF77E
:1031D00091FC0020FEF7ADFC1520FEF7AAFC17209D
:1031E000FEF7A7FC0720FEF7A4FC1120FEF7A1FCC8
:1031F0000620FEF79EFC2B20FEF79BFC5620FEF7D8
:1032000098FC3C20FEF795FC0520FEF792FC102070
:1032100010E0000000100140FC080020000C0140FC
:1032200000023000204C43442049443A25780D0ADE
:1032300000000000FEF77DFC0F20FEF77AFC3F2027
:10324000FEF777FC3F20FEF774FC0F20FEF771FCC1
:103250002B20FEF74FFC0020FEF76BFC0020FEF752
:1032600068FC0120FEF765FC3F20FEF762FC2A2087
:10327000FEF740FC0020FEF75CFC0020FEF759FC46
:103280000020FEF756FCEF20FEF753FC1120FEF75E
:1032900031FCA5E040457CD11120FEF72BFC142029
:1032A00005F06EF9D020FEF725FC0720FEF741FC63
:1032B0004220FEF73EFC1D20FEF73BFCD120FEF72E
:1032C00019FC0020FEF735FC1A20FEF732FC09201D
:1032D000FEF72FFCD220FEF70DFC0120FEF729FCA3
:1032E0002220FEF726FCC020FEF704FC1020FEF78B
:1032F00020FC3B20FEF71DFC0020FEF71AFC0220FC
:10330000FEF717FC1120FEF714FCC520FEF7F2FBB8
:103310000320FEF70EFCC820FEF7ECFB0020FEF7B2
:1033200008FC2520FEF705FC2120FEF702FC052005
:10333000FEF7FFFB0020FEF7FCFB0A20FEF7F9FB7F
:103340006520FEF7F6FB2520FEF7F3FB7720FEF75E
:10335000F0FB5020FEF7EDFB0F20FEF7EAFB00200C
:10336000FEF7E7FBF820FEF7C5FB0120FEF7E1FBC7
:10337000FE20FEF7BFFB0020FEF7DBFB0220FEF77E
:10338000D8FB2020FEF7B6FB3620FEF7B3FB082063
:1033900000E02BE0FEF7CDFB3A20FEF7ABFB55201B
:1033A000FEF7C7FB2B20FEF7A5FB0020FEF7C1FBB5
:1033B0000020FEF7BEFB0120FEF7BBFB3F20FEF71F
:1033C000B8FB2A20FEF796FB0020FEF7B2FB002098
:1033D000FEF7AFFB0120FEF7ACFBDF20FEF7A9FBF9
:1033E000782005F0CDF8292001F0FCBE48457CD1BD
:1033F000ED20FEF77FFB0120FEF79BFBFE20FEF792
:1034000098FBEE20FEF776FBDE20FEF792FB2120F4
:10341000FEF78FFBF120FEF76DFB0120FEF789FB25
:10342000DF20FEF767FB1020FEF783FBC420FEF7CA
:1034300061FB8F20FEF77DFBC620FEF75BFB0020C3
:10344000FEF777FBE220FEF774FBE220FEF771FB4C
:10345000E220FEF76EFBBF20FEF74CFBAA20FEF732
:1034600068FBB020FEF746FB0D20FEF762FB002054
:10347000FEF75FFB0D20FEF75CFB0020FEF759FB1B
:103480001120FEF756FB0020FEF753FB1920FEF734
:1034900050FB0020FEF74DFB2120FEF74AFB0020E9
:1034A000FEF747FB2D20FEF744FB0020FEF741FB13
:1034B0003D20FEF73EFB0020FEF73BFB5D20FEF7C4
:1034C00038FB0020FEF735FB5D20FEF732FB0020C5
:1034D000FEF72FFBB120FEF70DFB8020FEF729FB46
:1034E0000020FEF726FB8B2000E0FCE3FEF721FB2B
:1034F0000020FEF71EFB9620FEF71BFB0020FEF7C8
:1035000018FBB220FEF7F6FA0020FEF712FB0020AF
:10351000FEF70FFB0220FEF70CFB0020FEF709FB75
:103520000320FEF706FB0020FEF703FBB320FEF7A7
:10353000E1FA0020FEF7FDFA0020FEF7FAFA00207B
:10354000FEF7F7FA0020FEF7F4FA0020FEF7F1FA92
:103550000020FEF7EEFA0020FEF7EBFA0020FEF75F
:10356000E8FA0020FEF7E5FA0020FEF7E2FA002074
:10357000FEF7DFFA0020FEF7DCFA0020FEF7D9FAAA
:103580000020FEF7D6FA0020FEF7D3FA0020FEF75F
:10359000D0FA0020FEF7CDFA0020FEF7CAFA00208C
:1035A000FEF7C7FA0020FEF7C4FA0020FEF7C1FAC2
:1035B0000020FEF7BEFA0020FEF7BBFA0020FEF75F
:1035C000B8FAB420FEF796FA8B20FEF7B2FA002084
:1035D000FEF7AFFA9620FEF7ACFA0020FEF7A9FA44
:1035E000A120FEF7A6FA0020FEF7A3FAB520FEF709
:1035F00081FA0220FEF79DFA0020FEF79AFA0320D6
:10360000FEF797FA0020FEF794FA0420FEF791FAED
:103610000020FEF78EFAB620FEF76CFA0020FEF7C7
:1036200088FA0020FEF785FAB720FEF763FA00203B
:10363000FEF77FFA0020FEF77CFA3F20FEF779FACA
:103640000020FEF776FA5E20FEF773FA0020FEF700
:1036500070FA6420FEF76DFA0020FEF76AFA8C20FB
:10366000FEF767FA0020FEF764FAAC20FEF761FA75
:103670000020FEF75EFADC20FEF75BFA0020FEF782
:1036800058FA7020FEF755FA0020FEF752FA902003
:10369000FEF74FFA0020FEF74CFAEB20FEF749FA4E
:1036A0000020FEF746FADC20FEF743FA0020FEF782
:1036B00040FAB820FEF71EFA0020FEF73AFA002082
:1036C000FEF737FA0020FEF734FA0020FEF731FA51
:1036D0000020FEF72EFA0020FEF72BFA0020FEF75E
:1036E00028FA0020FEF725FABA20FEF703FA242074
:1036F000FEF71FFA0020FEF71CFA0020FEF719FA69
:103700000020FEF716FAC120FEF7F4F92020FEF79C
:1037100010FA0020FEF70DFA5420FEF70AFA0020F6
:10372000FEF707FAFF20FEF704FA0020FEF701FA81
:10373000C220FEF7DFF90A20FEF7FBF90020FEF7B2
:10374000F8F90420FEF7F5F90020FEF7F2F9C3209E
:10375000FEF7D0F93C20FEF7ECF90020FEF7E9F97E
:103760003A20FEF7E6F90020FEF7E3F93920FEF7EC
:10377000E0F90020FEF7DDF93720FEF7DAF9002046
:10378000FEF7D7F93C20FEF7D4F90020FEF7D1F977
:103790003620FEF7CEF90020FEF7CBF93220FEF7F7
:1037A000C8F90020FEF7C5F92F20FEF7C2F9002066
:1037B000FEF7BFF92C20FEF7BCF90020FEF7B9F99F
:1037C0002920FEF7B6F90020FEF7B3F92620FEF710
:1037D000B0F90020FEF7ADF92420FEF7AAF9002089
:1037E000FEF7A7F92420FEF7A4F90020FEF7A1F9BF
:1037F0002320FEF79EF90020FEF79BF93C20FEF700
:1038000098F90020FEF795F93620FEF792F900208E
:10381000FEF78FF93220FEF78CF90020FEF789F9C8
:103820002F20FEF786F90020FEF783F92C20FEF703
:1038300080F90020FEF77DF92920FEF77AF90020B3
:10384000FEF777F92620FEF774F90020FEF771F9EC
:103850002420FEF76EF90020FEF76BF92420FEF716
:1038600068F90020FEF765F92320FEF762F90020D1
:10387000FEF75FF9C420FEF73DF96220FEF759F923
:103880000020FEF756F90520FEF753F90020FEF759
:1038900050F98420FEF74DF90020FEF74AF9F02098
:1038A000FEF747F90020FEF744F91820FEF741F92A
:1038B0000020FEF73EF9A420FEF73BF90020FEF7BA
:1038C00038F91820FEF735F90020FEF732F95020BC
:1038D000FEF72FF90020FEF72CF90C20FEF729F94E
:1038E0000020FEF726F91720FEF723F90020FEF747
:1038F00020F99520FEF71DF90020FEF71AF9F320B4
:10390000FEF717F90020FEF714F9E620FEF711F98B
:103910000020FEF70EF9C520FEF7ECF83220FEF786
:1039200008F90020FEF705F94420FEF702F900200F
:10393000FEF7FFF86520FEF7FCF80020FEF7F9F827
:103940007620FEF7F6F80020FEF7F3F88820FEF761
:10395000F0F80020FEF7EDF8C620FEF7CBF82020A7
:10396000FEF7E7F80020FEF7E4F81720FEF7E1F88D
:103970000020FEF7DEF80120FEF7DBF80020FEF75E
:10398000D8F8C720FEF7B6F80020FEF7D2F80020DE
:10399000FEF7CFF80020FEF7CCF80020FEF7C9F8BC
:1039A000C820FEF7A7F80020FEF7C3F80020FEF7B6
:1039B000C0F80020FEF7BDF80020FEF7BAF8C920D5
:1039C000FEF798F80020FEF7B4F80020FEF7B1F8F3
:1039D0000020FEF7AEF80020FEF7ABF80020FEF75F
:1039E000A8F80020FEF7A5F80020FEF7A2F80020B6
:1039F000FEF79FF80020FEF79CF80020FEF799F8EC
:103A00000020FEF796F80020FEF793F80020FEF75E
:103A100090F80020FEF78DF80020FEF78AF80020CD
:103A2000FEF787F8E020FEF765F81620FEF781F82C
:103A30000020FEF77EF81C20FEF77BF80020FEF742
:103A400078F82120FEF775F80020FEF772F836208E
:103A5000FEF76FF80020FEF76CF84620FEF769F8D5
:103A60000020FEF766F85220FEF763F80020FEF70C
:103A700060F86420FEF75DF80020FEF75AF87A201F
:103A8000FEF757F80020FEF754F88B20FEF751F8A8
:103A90000020FEF74EF89920FEF74BF80020FEF7C5
:103AA00048F8A820FEF745F80020FEF742F8B920B4
:103AB000FEF73FF80020FEF73CF8C420FEF739F887
:103AC0000020FEF736F8CA20FEF733F80020FEF794
:103AD00030F8D220FEF72DF80020FEF72AF8D92082
:103AE000FEF727F80020FEF724F8E020FEF721F883
:103AF0000020FEF71EF8F320FEF71BF80020FEF76B
:103B000018F8E120FDF7F6FF1620FEF712F8002066
:103B1000FEF70FF81C20FEF70CF80020FEF709F85E
:103B20002220FEF706F80020FEF703F83620FEF705
:103B300000F80020FDF7FDFF4520FDF7FAFF00200B
:103B4000FDF7F7FF5220FDF7F4FF0020FDF7F1FF2E
:103B50006420FDF7EEFF0020FDF7EBFF7A20FDF774
:103B6000E8FF0020FDF7E5FF8B20FDF7E2FF0020D6
:103B7000FDF7DFFF9920FDF7DCFF0020FDF7D9FFFF
:103B8000A820FDF7D6FF0020FDF7D3FFB920FDF7F1
:103B9000D0FF0020FDF7CDFFC420FDF7CAFF0020B5
:103BA000FDF7C7FFCA20FDF7C4FF0020FDF7C1FFE6
:103BB000D220FDF7BEFF0020FDF7BBFFD820FDF7A8
:103BC000B8FF0020FDF7B5FFE020FDF7B2FF0020B1
:103BD000FDF7AFFFF320FDF7ACFF0020FDF7A9FFD5
:103BE000E220FDF787FF0520FDF7A3FF0020FDF78A
:103BF000A0FF0B20FDF79DFF0020FDF79AFF1B2083
:103C0000FDF797FF0020FDF794FF3420FDF791FFAB
:103C10000020FDF78EFF4420FDF78BFF0020FDF70D
:103C200088FF4F20FDF785FF0020FDF782FF612010
:103C3000FDF77FFF0020FDF77CFF7920FDF779FF7E
:103C40000020FDF776FF8820FDF773FF0020FDF7C9
:103C500070FF9720FDF76DFF0020FDF76AFFA6209B
:103C6000FDF767FF0020FDF764FFB720FDF761FF58
:103C70000020FDF75EFFC220FDF75BFF0020FDF78F
:103C800058FFC720FDF755FF0020FDF752FFD12058
:103C9000FDF74FFF0020FDF74CFFD620FDF749FF51
:103CA0000020FDF746FFDD20FDF743FF0020FDF774
:103CB00040FFF320FDF73DFF0020FDF73AFFE32032
:103CC000FDF718FF0520FDF734FF0020FDF731FF59
:103CD0000A20FDF72EFF0020FDF72BFF1C20FDF72B
:103CE00028FF002000E0FDE2FDF723FF3320FDF771
:103CF00020FF0020FDF71DFF4420FDF71AFF0020E4
:103D0000FDF717FF5020FDF714FF0020FDF711FF0E
:103D10006220FDF70EFF0020FDF70BFF7820FDF776
:103D200008FF0020FDF705FF8820FDF702FF0020B7
:103D3000FDF7FFFE9720FDF7FCFE0020FDF7F9FEE2
:103D4000A620FDF7F6FE0020FDF7F3FEB720FDF7F5
:103D5000F0FE0020FDF7EDFEC220FDF7EAFE002098
:103D6000FDF7E7FEC720FDF7E4FE0020FDF7E1FECA
:103D7000D120FDF7DEFE0020FDF7DBFED520FDF7AC
:103D8000D8FE0020FDF7D5FEDD20FDF7D2FE002095
:103D9000FDF7CFFEF320FDF7CCFE0020FDF7C9FEB6
:103DA000E420FDF7A7FE0120FDF7C3FE0020FDF78C
:103DB000C0FE0120FDF7BDFE0020FDF7BAFE022087
:103DC000FDF7B7FE0020FDF7B4FE2A20FDF7B1FE97
:103DD0000020FDF7AEFE3C20FDF7ABFE0020FDF716
:103DE000A8FE4B20FDF7A5FE0020FDF7A2FE5D20FA
:103DF000FDF79FFE0020FDF79CFE7420FDF799FE65
:103E00000020FDF796FE8420FDF793FE0020FDF7CD
:103E100090FE9320FDF78DFE0020FDF78AFEA22084
:103E2000FDF787FE0020FDF784FEB320FDF781FE3D
:103E30000020FDF77EFEBE20FDF77BFE0020FDF793
:103E400078FEC420FDF775FE0020FDF772FECD2040
:103E5000FDF76FFE0020FDF76CFED320FDF769FE35
:103E60000020FDF766FEDD20FDF763FE0020FDF774
:103E700060FEF320FDF75DFE0020FDF75AFEE52011
:103E8000FDF738FE0020FDF754FE0020FDF751FE3F
:103E90000020FDF74EFE0020FDF74BFE0220FDF74F
:103EA00048FE0020FDF745FE2920FDF742FE0020D8
:103EB000FDF73FFE3C20FDF73CFE0020FDF739FEFC
:103EC0004B20FDF736FE0020FDF733FE5D20FDF7A9
:103ED00030FE0020FDF72DFE7420FDF72AFE0020A5
:103EE000FDF727FE8420FDF724FE0020FDF721FECC
:103EF0009320FDF71EFE0020FDF71BFEA220FDF71C
:103F000018FE0020FDF715FEB320FDF712FE00207D
:103F1000FDF70FFEBE20FDF70CFE0020FDF709FEA9
:103F2000C420FDF706FE0020FDF703FECD20FDF7BF
:103F300000FE0020FDF7FDFDD320FDF7FAFD002077
:103F4000FDF7F7FDDC20FDF7F4FD0020FDF7F1FDA6
:103F5000F320FDF7EEFD0020FDF7EBFDE620FDF779
:103F6000C9FD1120FDF7E5FD0020FDF7E2FD34203D
:103F7000FDF7DFFD0020FDF7DCFD5620FDF7D9FD44
:103F80000020FDF7D6FD7620FDF7D3FD0020FDF7DC
:103F9000D0FD7720FDF7CDFD0020FDF7CAFD66209E
:103FA000FDF7C7FD0020FDF7C4FD8820FDF7C1FD2A
:103FB0000020FDF7BEFD9920FDF7BBFD0020FDF7B9
:103FC000B8FDBB20FDF7B5FD0020FDF7B2FD99203F
:103FD000FDF7AFFD0020FDF7ACFD6620FDF7A9FD64
:103FE0000020FDF7A6FD5520FDF7A3FD0020FDF7FD
:103FF000A0FD5520FDF79DFD0020FDF79AFD452011
:10400000FDF797FD0020FDF794FD4320FDF791FD9E
:104010000020FDF78EFD4420FDF78BFD0020FDF70D
:1040200088FDE720FDF766FD3220FDF782FD0020C8
:10403000FDF77FFD5520FDF77CFD0020FDF779FDA4
:104040007620FDF776FD0020FDF773FD6620FDF775
:1040500070FD0020FDF76DFD6720FDF76AFD002073
:10406000FDF767FD6720FDF764FD0020FDF761FDAA
:104070008720FDF75EFD0020FDF75BFD9920FDF731
:1040800058FD0020FDF755FDBB20FDF752FD002037
:10409000FDF74FFD9920FDF74CFD0020FDF749FD90
:1040A0007720FDF746FD0020FDF743FD4420FDF796
:1040B00040FD0020FDF73DFD5620FDF73AFD0020B4
:1040C000FDF737FD2320FDF734FD0020FDF731FD1E
:1040D0003320FDF72EFD0020FDF72BFD4520FDF7D9
:1040E00028FD0020FDF725FDE820FDF703FD002059
:1040F000FDF71FFD0020FDF71CFD9920FDF719FDC0
:104100000020FDF716FD8720FDF713FD0020FDF7C9
:1041100010FD8820FDF70DFD0020FDF70AFD77203A
:10412000FDF707FD0020FDF704FD6620FDF701FD0A
:104130000020FDF7FEFC8820FDF7FBFC0020FDF7CA
:10414000F8FCAA20FDF7F5FC0020FDF7F2FCBB20EF
:10415000FDF7EFFC0020FDF7ECFC9920FDF7E9FCF2
:104160000020FDF7E6FC6620FDF7E3FC0020FDF7EC
:10417000E0FC5520FDF7DDFC0020FDF7DAFC5520C2
:10418000FDF7D7FC0020FDF7D4FC4420FDF7D1FC5F
:104190000020FDF7CEFC4420FDF7CBFC0020FDF70E
:1041A000C8FC5520FDF7C5FC0020FDF7C2FCE92046
:1041B000FDF7A0FCAA20FDF7BCFC0020FDF7B9FC30
:1041C0000020FDF7B6FC0020FDF7B3FC0020FDF752
:1041D00091FCAA20FDF7ADFCCF20FDF78BFC002061
:1041E000FDF7A7FC0020FDF7A4FC0020FDF7A1FCD3
:1041F0000020FDF79EFC0020FDF79BFC0020FDF752
:1042000098FC0020FDF795FC0020FDF792FC0020B3
:10421000FDF78FFC0020FDF78CFC0020FDF789FCEA
:104220000020FDF786FC0020FDF783FC0020FDF751
:1042300080FC0020FDF77DFC0020FDF77AFC0020CB
:10424000FDF777FCF020FDF755FC0020FDF771FC31
:104250005020FDF76EFC0020FDF76BFC0020FDF701
:1042600068FC0020FDF765FCF320FDF743FC00200F
:10427000FDF75FFCF920FDF73DFC0620FDF759FC3A
:104280001020FDF756FC2920FDF753FC0020FDF718
:1042900050FC3A20FDF72EFC5520FDF74AFC11207A
:1042A000FDF728FC642004F06BF92920FDF722FCBF
:1042B0003520FDF71FFC0020FDF73BFC5120FDF7EA
:1042C00019FCFF20FDF735FC5320FDF713FC2C20D3
:1042D000FDF72FFC5520FDF70DFC8220FDF729FC92
:1042E0002C20FCE3B8427DD14FF470445521204688
:1042F000FDF778FC661CAA213046FDF773FCA71C6D
:1043000052213846FDF76EFC4FF203080821404663
:10431000FDF768FC4FF2040901214846FDF762FCF5
:104320000D214FF43040FDF75DFC0D214BF20100F3
:10433000FDF758FC0D214BF20200FDF753FC4FF442
:10434000364A34215046FDF74DFC34214BF20160D2
:10435000FDF748FC34214BF20260FDF743FC4FF4BB
:10436000314B0D215846FDF73DFC0D214BF201105C
:10437000FDF738FC0D214BF20210FDF733FC342120
:104380004FF43740FDF72EFC34214BF20170FDF75E
:1043900029FC34214BF20270FDF724FC00214FF47C
:1043A0003240FDF71FFC00214BF20120FDF71AFC03
:1043B00000214BF20220FDF715FC24214FF4384078
:1043C000FDF710FC24214BF60100FDF70BFC242126
:1043D0004BF60200FDF706FC01214FF43F40FDF7CC
:1043E00001FC00E0FEE30F214FF43340FDF7FAFB40
:1043F0000F214BF20130FDF7F5FB0F214BF202309C
:10440000FDF7F0FB34214FF43940FDF7EBFB34218D
:104410004BF60110FDF7E6FB34214BF60210FDF7D9
:10442000E1FB08214FF43540FDF7DCFB08214BF29E
:104430000150FDF7D7FB08214BF20250FDF7D2FBEC
:1044400003214FF44240FDF7CDFB24214FF43A40C5
:10445000FDF7C8FB24214BF60120FDF7C3FB242107
:104460004BF60220FDF7BEFB00214FF43C40FDF768
:10447000B9FB78214BF60140FDF7B4FB00214BF668
:104480000240FDF7AFFB00214FF43D40FDF7AAFBD2
:1044900078214BF60150FDF7A5FB00214BF60250A9
:1044A000FDF7A0FB00214FF43E40FDF79BFB64218C
:1044B0004BF60160FDF796FB00214FF45140FDF7EC
:1044C00091FB33214DF20110FDF78CFB00214DF2E1
:1044D0000210FDF787FB34214DF20310FDF782FB3C
:1044E00000214DF20410FDF77DFB3A214DF205103D
:1044F000FDF778FB00214DF20610FDF773FB4A2112
:104500004DF20710FDF76EFB00214DF20810FDF78C
:1045100069FB5C214DF20910FDF764FB00214DF2AF
:104520000A10FDF75FFB81214DF20B10FDF75AFBDE
:1045300000214DF20C10FDF755FBA6214DF20D1098
:10454000FDF750FB00214DF20E10FDF74BFBE5216E
:104550004DF20F10FDF746FB01214DF21010FDF753
:1045600041FB13214DF21110FDF73CFB01214DF2EF
:104570001210FDF737FB54214DF21310FDF732FBFB
:1045800001214DF21410FDF72DFB82214DF2151083
:10459000FDF728FB01214DF21610FDF723FBCA2180
:1045A0004DF21710FDF71EFB02214DF21810FDF71A
:1045B00019FB00214DF21910FDF714FB02214DF2F9
:1045C0001A10FDF70FFB01214DF21B10FDF70AFB3E
:1045D00002214DF21C10FDF705FB34214DF21D1098
:1045E000FDF700FB02214DF21E10FDF7FBFA6721DB
:1045F0004DF21F10FDF7F6FA02214DF22010FDF7E3
:10460000F1FA84214DF22110FDF7ECFA02214DF26E
:104610002210FDF7E7FAA4214DF22310FDF7E2FA8C
:1046200002214DF22410FDF7DDFAB7214DF22510DD
:10463000FDF7D8FA02214DF22610FDF7D3FACF216B
:104640004DF22710FDF7CEFA02214DF22810FDF7AA
:10465000C9FADE214DF22910FDF7C4FA02214DF20C
:104660002A10FDF7BFFAF2214DF22B10FDF7BAFA2E
:1046700002214DF22C10FDF7B5FAFE214DF22D105E
:10468000FDF7B0FA03214DF22E10FDF7ABFA102121
:104690004DF22F10FDF7A6FA03214DF23010FDF771
:1046A000A1FA33214DF23110FDF79CFA03214DF2AE
:1046B0003210FDF797FA6D214DF23310FDF792FAA3
:1046C00000214FF45240FDF78DFA33214DF20120C5
:1046D000FDF788FA00214DF20220FDF783FA34211C
:1046E0004DF20320FDF77EFA00214DF20420FDF784
:1046F00079FA3A214DF20520FDF774FA00214DF2C6
:104700000620FDF76FFA4A214DF20720FDF76AFAFD
:1047100000214DF20820FDF765FA5C214DF20920D9
:10472000FDF760FA00214DF20A20FDF75BFA8121C6
:104730004DF20B20FDF756FA00214DF20C20FDF74B
:1047400051FAA6214DF20D20FDF74CFA00214DF251
:104750000E20FDF747FAE5214DF20F20FDF742FA52
:1047600001214DF21020FDF73DFA13214DF21120E9
:10477000FDF738FA01214DF21220FDF733FA5421EA
:104780004DF21320FDF72EFA01214DF21420FDF712
:1047900029FA82214DF21520FDF724FA01214DF26C
:1047A0001620FDF71FFACA214DF21720FDF71AFA5D
:1047B00002214DF21820FDF715FA00214DF21920C3
:1047C000FDF710FA02214DF21A20FDF70BFA012134
:1047D0004DF21B20FDF706FA02214DF21C20FDF7D9
:1047E00001FA34214DF21D20FDF7FCF902214DF2B2
:1047F0001E20FDF7F7F967214DF21F20FDF7F2F9B2
:1048000002214DF22020FDF7EDF984214DF2212007
:10481000FDF7E8F902214DF22220FDF7E3F9A4218A
:104820004DF22320FDF7DEF902214DF22420FDF7A1
:10483000D9F9B7214DF22520FDF7D4F902214DF227
:104840002620FDF7CFF9CF214DF22720FDF7CAF939
:1048500002214DF22820FDF7C5F9DE214DF2292075
:10486000FDF7C0F902214DF22A20FDF7BBF9F22134
:104870004DF22B20FDF7B6F902214DF22C20FDF769
:10488000B1F9FE214DF22D20FDF7ACF903214DF2D7
:104890002E20FDF7A7F910214DF22F20FDF7A2F9E8
:1048A00003214DF23020FDF79DF933214DF23120E7
:1048B000FDF798F903214DF23220FDF793F96D21B0
:1048C0004DF23320FDF78EF900214FF45340FDF7F0
:1048D00089F933214DF20130FDF784F900214DF2C1
:1048E0000230FDF77FF934214DF20330FDF77AF9FC
:1048F00000214DF20430FDF775F93A214DF20530F3
:10490000FDF770F900214DF20630FDF76BF94A21F1
:104910004DF20730FDF766F900214DF20830FDF742
:1049200061F95C214DF20930FDF75CF900214DF28F
:104930000A30FDF757F981214DF20B30FDF752F99E
:1049400000214DF20C30FDF74DF9A6214DF20D304E
:10495000FDF748F900214DF20E30FDF743F9E5214E
:104960004DF20F30FDF73EF901214DF21030FDF709
:1049700039F913214DF21130FDF734F901214DF2CF
:104980001230FDF72FF954214DF21330FDF72AF9BB
:1049900001214DF21430FDF725F982214DF2153039
:1049A000FDF720F901214DF21630FDF71BF9CA2160
:1049B0004DF21730FDF716F902214DF21830FDF7D0
:1049C00011F900214DF21930FDF70CF902214DF2D9
:1049D0001A30FDF707F901214DF21B30FDF702F9FE
:1049E00002214DF21C30FDF7FDF834214DF21D304F
:1049F000FDF7F8F802214DF21E30FDF7F3F86721BC
:104A00004DF21F30FDF7EEF802214DF22030FDF798
:104A1000E9F884214DF22130FDF7E4F802214DF24E
:104A20002230FDF7DFF8A4214DF22330FDF7DAF84C
:104A300002214DF22430FDF7D5F8B7214DF2253093
:104A4000FDF7D0F802214DF22630FDF7CBF8CF214B
:104A50004DF22730FDF7C6F802214DF22830FDF760
:104A6000C1F8DE214DF22930FDF7BCF802214DF2EC
:104A70002A30FDF7B7F8F2214DF22B30FDF7B2F8EE
:104A800002214DF22C30FDF7ADF8FE214DF22D3014
:104A9000FDF7A8F803214DF22E30FDF7A3F8102101
:104AA0004DF22F30FDF79EF803214DF23030FDF727
:104AB00099F833214DF23130FDF794F803214DF28E
:104AC0003230FDF78FF86D214DF23330FDF78AF863
:104AD00000214FF45440FDF785F8332100E081E3D5
:104AE0004DF20140FDF77EF800214DF20240FDF746
:104AF00079F834214DF20340FDF774F800214DF2AE
:104B00000440FDF76FF83A214DF20540FDF76AF8D1
:104B100000214DF20640FDF765F84A214DF20740AD
:104B2000FDF760F800214DF20840FDF75BF85C21CD
:104B30004DF20940FDF756F800214DF20A40FDF70D
:104B400051F881214DF20B40FDF74CF800214DF258
:104B50000C40FDF747F8A6214DF20D40FDF742F855
:104B600000214DF20E40FDF73DF8E5214DF20F40DA
:104B7000FDF738F801214DF21040FDF733F813210D
:104B80004DF21140FDF72EF801214DF21240FDF7D4
:104B900029F854214DF21340FDF724F801214DF27C
:104BA0001440FDF71FF882214DF21540FDF71AF869
:104BB00001214DF21640FDF715F8CA214DF21740BC
:104BC000FDF710F802214DF21840FDF70BF8002117
:104BD0004DF21940FDF706F802214DF21A40FDF79B
:104BE00001F800E001E301214DF21B40FCF7FAFF60
:104BF00002214DF21C40FCF7F5FF34214DF21D401F
:104C0000FCF7F0FF02214DF21E40FCF7EBFF67219D
:104C10004DF21F40FCF7E6FF02214DF22040FCF769
:104C2000E1FF84214DF22140FCF7DCFF02214DF22F
:104C30002240FCF7D7FFA4214DF22340FCF7D2FF1E
:104C400002214DF22440FCF7CDFFB7214DF2254063
:104C5000FCF7C8FF02214DF22640FCF7C3FFCF212D
:104C60004DF22740FCF7BEFF02214DF22840FCF731
:104C7000B9FFDE214DF22940FCF7B4FF02214DF2CD
:104C80002A40FCF7AFFFF2214DF22B40FCF7AAFFC0
:104C900002214DF22C40FCF7A5FFFE214DF22D40E4
:104CA000FCF7A0FF03214DF22E40FCF79BFF1021E3
:104CB0004DF22F40FCF796FF03214DF23040FCF7F8
:104CC00091FF33214DF23140FCF78CFF03214DF26F
:104CD0003240FCF787FF6D214DF23340FCF782FF35
:104CE00000214FF45540FCF77DFF33214DF2015078
:104CF000FCF778FF00214DF20250FCF773FF3421DE
:104D00004DF20350FCF76EFF00214DF20450FCF70A
:104D100069FF3A214DF20550FCF764FF00214DF286
:104D20000650FCF75FFF4A214DF20750FCF75AFF8F
:104D300000214DF20850FCF755FF5C214DF209505F
:104D4000FCF750FF00214DF20A50FCF74BFF812188
:104D50004DF20B50FCF746FF00214DF20C50FCF7D2
:104D600041FFA6214DF20D50FCF73CFF00214DF212
:104D70000E50FCF737FFE5214DF20F50FCF732FFE4
:104D800001214DF21050FCF72DFF13214DF211506F
:104D9000FCF728FF01214DF21250FCF723FF5421AC
:104DA0004DF21350FCF71EFF01214DF21450FCF799
:104DB00019FF82214DF21550FCF714FF01214DF22D
:104DC0001650FCF70FFFCA214DF21750FCF70AFFEF
:104DD00002214DF21850FCF705FF00214DF2195049
:104DE000FCF700FF02214DF21A50FCF7FBFE0121F7
:104DF0004DF21B50FCF7F6FE02214DF21C50FCF761
:104E0000F1FE34214DF21D50FCF7ECFE02214DF273
:104E10001E50FCF7E7FE67214DF21F50FCF7E2FE43
:104E200002214DF22050FCF7DDFE84214DF221508D
:104E3000FCF7D8FE02214DF22250FCF7D3FEA4214C
:104E40004DF22350FCF7CEFE02214DF22450FCF728
:104E5000C9FEB7214DF22550FCF7C4FE02214DF2E8
:104E60002650FCF7BFFECF214DF22750FCF7BAFECB
:104E700002214DF22850FCF7B5FEDE214DF22950FB
:104E8000FCF7B0FE02214DF22A50FCF7ABFEF221F6
:104E90004DF22B50FCF7A6FE02214DF22C50FCF7F0
:104EA000A1FEFE214DF22D50FCF79CFE03214DF298
:104EB0002E50FCF797FE10214DF22F50FCF792FE7A
:104EC00003214DF23050FCF78DFE33214DF231506D
:104ED000FCF788FE03214DF23250FCF783FE6D2172
:104EE0004DF23350FCF77EFE00214FF45640FCF7A4
:104EF00079FE33214DF20160FCF774FE00214DF282
:104F00000260FCF76FFE34214DF20360FCF76AFE8D
:104F100000214DF20460FCF765FE3A214DF2056078
:104F2000FCF760FE00214DF20660FCF75BFE4A21B3
:104F30004DF20760FCF756FE00214DF20860FCF7C9
:104F400051FE5C214DF20960FCF74CFE00214DF250
:104F50000A60FCF747FE81214DF20B60FCF742FE30
:104F600000214DF20C60FCF73DFEA6214DF20D60D4
:104F7000FCF738FE00214DF20E60FCF733FEE52110
:104F80004DF20F60FCF72EFE01214DF21060FCF790
:104F900029FE13214DF21160FCF724FE01214DF290
:104FA0001260FCF71FFE54214DF21360FCF71AFE4D
:104FB00001214DF21460FCF715FE82214DF21560BF
:104FC000FCF710FE01214DF21660FCF70BFECA2122
:104FD0004DF21760FCF706FE02214DF21860FCF757
:104FE00001FE00214DF21960FCF7FCFD02214DF29B
:104FF0001A60FCF7F7FD01214DF21B60FCF7F2FD92
:1050000002214DF21C60FCF7EDFD34214DF21D60D4
:10501000FCF7E8FD02214DF21E60FCF7E3FD67217D
:105020004DF21F60FCF7DEFD02214DF22060FCF71F
:10503000D9FD84214DF22160FCF7D4FD02214DF20F
:105040002260FCF7CFFDA4214DF22360FCF7CAFDDE
:1050500002214DF22460FCF7C5FDB7214DF2256019
:10506000FCF7C0FD02214DF22660FCF7BBFDCF210D
:105070004DF22760FCF7B6FD02214DF22860FCF7E7
:10508000B1FDDE214DF22960FCF7ACFD02214DF2AD
:105090002A60FCF7A7FDF2214DF22B60FCF7A2FD80
:1050A00002214DF22C60FCF79DFDFE214DF22D609A
:1050B000FCF798FD03214DF22E60FCF793FD1021C3
:1050C0004DF22F60FCF78EFD03214DF23060FCF7AE
:1050D00089FD33214DF23160FCF784FD03214DF24F
:1050E0003260FCF77FFD6D214DF23360FCF77AFDF5
:1050F00055212046FCF776FDAA213046FCF772FDCB
:1051000052213846FCF76EFD08214046FCF76AFD47
:1051100000214846FCF766FDCC215846FCF762FDAD
:1051200000214BF20110FCF75DFD05215046FCF714
:1051300059FD70214FF43740FCF754FD70214BF2BC
:105140000170FCF74FFD01214FF43840FCF74AFD98
:1051500003214BF60100FCF745FD03214BF602004D
:10516000FCF740FD03214BF60300FCF73BFD022159
:105170004FF43C40FCF736FD00214BF60140FCF7B4
:1051800031FD00214BF60240FCF72CFDD0214FF4FD
:105190004940FCF727FD02214CF60110FCF722FDE7
:1051A00050214CF60210FCF71DFD50214CF6031067
:1051B000FCF718FD50214CF60410FCF713FD0021FC
:1051C0004FF45450FCF70EFD55214FF46850FCF796
:1051D00009FD4FF48850FCF78DFC782003F0B9F9F5
:1051E0004FF42450FCF786FCFEE3A0F513414FF486
:1051F00080744FF4E06840F2022940F23F164FF409
:10520000274B253924D04FF4017A40F20777C91E85
:105210007ED04FF41C5B08317BD011397AD0A0F5D9
:10522000A841083977D0A0F5A851053974D0B1F557
:10523000204172D0B1F5805170D0A0F50941893973
:105240006DD0A0F58A4131396AD0091F69D0CBE70A
:1052500047F6F001E520FCF7C5FC21460120FCF7EC
:10526000C1FC41460220FCF7BDFC41F230010320A5
:10527000FCF7B8FC00210420FCF7B4FC49460820E8
:10528000FCF7B0FC00210920FCF7ACFC00210A204F
:10529000FCF7A8FC00210C20FCF7A4FC00210D2049
:1052A000FCF7A0FC00210F20FCF79CFC0021102043
:1052B000FCF798FC07211120FCF794FC0021122038
:1052C000FCF790FC00211320FCF78CFC0021072048
:1052D000FCF788FC41F290611020FCF783FC40F25F
:1052E00027211120FCF77EFC9D211220FCF77AFC7F
:1052F0004FF4C8511320FCF775FC25212920FCF739
:1053000071FC0D212B20FCF76DFC0721302009E0FA
:1053100074E01DE1C1E193E22EE3FDE3FDE3FDE373
:10532000FDE3FDE3FCF75EFC40F203313120FCF7C6
:1053300059FC03213220FCF755FC40F206213520B0
:10534000FCF750FC08213620FCF74CFC40F20641EB
:105350003720FCF747FC4FF441713820FCF742FC42
:1053600007213920FCF73EFC40F202613C20FCF7AB
:1053700039FC08213D20FCF735FC00215020FCF7CA
:1053800031FCEF215120FCF72DFC00215220FCF7CD
:1053900029FC31465320FCF725FC59466020FCF7D8
:1053A00021FC01216120FCF71DFC00216A20FCF793
:1053B00019FC00218020FCF715FC00218120FCF75E
:1053C00011FC00218220FCF70DFC00218320FCF75A
:1053D00009FC00218420FCF705FC00218520FCF756
:1053E00001FC10219020FCF7FDFB4FF4C0619220DE
:1053F000FCF7F8FB40F233110720FCE341F28F0188
:10540000EC20FCF7EFFB41F23421EF20FCF7EAFB44
:1054100021460120FCF7E6FB41460220FCF7E2FBB7
:1054200041F230010320FCF7DDFB00210420FCF7F2
:10543000D9FB49460820FCF7D5FB00210920FCF7E1
:10544000D1FB00210A20FCF7CDFB01210C20FCF749
:10545000C9FB00210D20FCF7C5FB00210F20FCF744
:10546000C1FB00211020FCF7BDFB07211120FCF738
:10547000B9FB00211220FCF7B5FB00211320FCF73B
:10548000B1FB01210720FCF7ADFB322003F078F8D7
:1054900041F290411020FCF7A5FB40F2272111209A
:1054A000FCF7A0FB322003F06BF88A211220FCF7F6
:1054B00099FB322003F064F84FF4D0511320FCF72D
:1054C00091FB06212920FCF78DFB0D212B20FCF7F9
:1054D00089FB322003F054F800212020FCF782FBE6
:1054E00000212120FCF77EFB322003F049F8002147
:1054F0003020FCF777FB40F204613120FCF772FBAF
:1055000040F205313220FCF76DFB00213520FCF71D
:1055100069FB40F609413620FCF764FB5146372011
:10552000FCF760FB40F201313820FCF75BFB3946A9
:105530003920FCF757FB00213C20FCF753FB40F6D9
:105540000A213D20FCF74EFB322003F019F83BE125
:1055500000210846FCF746FB21460120FCF742FBF0
:1055600041460220FCF73EFB41F230010320FCF7EC
:1055700039FB00210420FCF735FB49460820FCF7E5
:1055800031FB00210920FCF72DFB00210A20FCF74C
:1055900029FB01210C20FCF725FB00210D20FCF745
:1055A00021FB00210F20FCF71DFB322002F0E8FF59
:1055B00040F201110720FCF715FB322002F0E0FF5A
:1055C0004FF486511020FCF70DFB07211120FCF74A
:1055D00009FB4FF4887421461220FCF703FB4FF4BB
:1055E00030611320FCF7FEFA00212920FCF7FAFABB
:1055F00044F210012B20FCF7F5FA00215020FCF7B3
:10560000F1FAEF215120FCF7EDFA00215220FCF7CE
:10561000E9FA31465320FCF7E5FA59466020FCF7D9
:10562000E1FA01216120FCF7DDFA00216A20FCF794
:10563000D9FA00218020FCF7D5FA00218120FCF75F
:10564000D1FA00218220FCF7CDFA00218320FCF75B
:10565000C9FA00218420FCF7C5FA00218520FCF757
:10566000C1FA10219020FCF7BDFA00219220FCF72E
:10567000B9FA01219320FCF7B5FA21469520FCF7F1
:10568000B1FA00219720FCF7ADFA00219820FCF731
:10569000A9FA40F2731107207DE341F21401E720DB
:1056A000FCF7A0FA21460120FCF79CFA4FF40071A8
:1056B0000220FCF797FA41F238010320FCF792FA36
:1056C00049460820FCF78EFA00210920FCF78AFAE7
:1056D00000210A20FCF786FA00210C20FCF782FA50
:1056E00000210D20FCF77EFA00210F20FCF77AFA4A
:1056F00000211020FCF776FA07211120FCF772FA3E
:1057000000211220FCF76EFA00211320FCF76AFA40
:10571000C82002F035FF41F290611020FCF762FAD8
:1057200040F227211120FCF75DFA322002F028FF19
:105730000C211220FCF756FA322002F021FF4FF420
:1057400000611320FCF74EFA11212920FCF74AFAD8
:105750000B212B20FCF746FA322002F011FF00212A
:105760002020FCF73FFA31462120FCF73BFA0021CC
:105770003020FCF737FA4FF4837421463120FCF7D0
:1057800031FA00213220FCF72DFA51463520FCF782
:1057900029FA41F20A613620FCF724FA394637200B
:1057A000FCF720FA21463820FCF71CFA394639204C
:1057B000FCF718FA40F202413C20FCF713FA40F6DD
:1057C0000F413D20FCF70EFA00215020FCF70AFAA9
:1057D000EF215120FCF706FA00215220FCF702FAD3
:1057E00031465320FCF7FEF959466020FCF7FAF9E0
:1057F00001216120FCF7F6F900216A20FCF7F2F99B
:1058000000218020FCF7EEF900218120FCF7EAF965
:1058100000218220FCF7E6F900218320FCF7E2F961
:1058200000218420FCF7DEF900218520FCF7DAF95D
:1058300010219020FCF7D6F94FF4C0619220FDE3CF
:1058400021460120FCF7CEF941460220FCF7CAF9B7
:1058500041F230010320FCF7C5F900210420FCF7D8
:10586000C1F940F207210820FCF7BCF9002109200A
:10587000FCF7B8F900210A20FCF7B4F900210C204C
:10588000FCF7B0F900210D20FCF7ACF900210F2046
:10589000FCF7A8F9142002F073FE41F2B061102069
:1058A000FCF7A0F901211120FCF79CF90121172038
:1058B000FCF798F94FF49C711220FCF793F94FF420
:1058C00000611320FCF78EF909212920FCF78AF9E1
:1058D00009212A20FCF786F90021A420FCF782F98F
:1058E00000215020FCF77EF9EF215120FCF77AF9D6
:1058F00000215220FCF776F931465320FCF772F96B
:1059000059466020FCF76EF901216120FCF76AF925
:1059100000216A20FCF766F900218020FCF762F97B
:1059200000218120FCF75EF900218220FCF75AF962
:1059300000218320FCF756F900218420FCF752F95E
:1059400000218520FCF74EF913219020FCF74AF93D
:1059500000219220FCF746F903219320FCF742F93D
:105960004FF488719520FCF73DF940F27311072040
:10597000FCF738F9322010E100210720FCF732F95A
:10598000322002F0FDFD4FF48E711220FCF72AF94F
:105990000121A420FCF726F90F210820FCF722F9A9
:1059A00008210A20FCF71EF908210D20FCF71AF93E
:1059B000BA4639463020FCF715F907213120FCF7AB
:1059C00011F940F203613220FCF70CF947464146D9
:1059D0003320FCF707F949463420FCF703F902218C
:1059E0003520FCF7FFF800E0FDE341F60F713620AB
:1059F000FCF7F8F851463720FCF7F4F8002138207E
:105A0000FCF7F0F800213920FCF7ECF851463A2079
:105A1000FCF7E8F800213B20FCF7E4F807213C20E4
:105A2000FCF7E0F800213D20FCF7DCF8322002F022
:105A3000A7FD01210720FCF7D5F801211720FCF76D
:105A4000D1F8322002F09CFD4FF4BD511020FCF73C
:105A5000C9F840F217211120FCF7C4F84FF48F71F8
:105A60001220FCF7BFF84FF470611320FCF7BAF86E
:105A700000212A20FCF7B6F80A212920FCF7B2F809
:105A80004FF49F711220FCF7ADF800215020FCF775
:105A9000A9F8EF215120FCF7A5F800215220FCF7CE
:105AA000A1F831465320FCF79DF859466020FCF7D9
:105AB00099F801216120FCF795F800216A20FCF794
:105AC00091F800218020FCF78DF800218120FCF75F
:105AD00089F800218220FCF785F800218320FCF75B
