:020000040800F2
:1000000060BA00203D7C0008190200081B020008AD
:100010001D0200081F020008210200080000000065
:1000200000000000000000000000000023020008A3
:10003000250200080000000027020008290200082D
:10004000577C0008577C0008577C0008577C000844
:10005000577C0008577C0008577C0008577C000834
:10006000577C0008577C0008577C0008577C000824
:10007000577C0008577C0008577C0008577C000814
:10008000577C0008577C0008577C0008577C000804
:10009000577C0008577C0008577C0008577C0008F4
:1000A000577C0008577C0008577C0008577C0008E4
:1000B000436A00084B690008577C0008577C000819
:1000C000577C0008577C0008577C0008577C0008C4
:1000D000577C0008D57B0008577C0008577C000837
:1000E000577C0008577C0008577C0008577C0008A4
:1000F000577C0008577C0008577C0008577C000894
:10010000577C0008577C0008577C0008577C000883
:10011000577C0008577C0008C7690008577C000816
:10012000577C0008577C0008577C0008577C000863
:10013000DFF80CD00DF010FB004800474501000827
:1001400060BA002007F0A2FC4FF4A06007F030FE78
:100150004FF4E13007F0F0FC01F09FFD06F09FFC4A
:1001600006F054FD06F05AFB40F2E73447212046E2
:1001700006F0BEFB40F2CF21204606F0F7FB4721F8
:1001800041F2873006F02EFC07F078FD0121402077
:1001900008F09CF8042015F069FA002001F04BFAF1
:1001A0000CF098FC1748012217A140680AF004FFE0
:1001B0000CF045FE06F054FD10F022F94FF6FF74E6
:1001C0004FF47A7512E0002010F04CFE204610F03B
:1001D0004BFE0E4810F05CFE0FF0ECFB3222782153
:1001E0000BA00FF0E7FD28460FF046FD06F0CCFD12
:1001F0000028E8D100F025FB06F0DCFC14200FF00D
:100200003BFDF9E7C40000203100000044830208F0
:10021000C1ACBDD3D6D000007047FEE7FEE7FEE7D5
:10022000FEE7704770477047704700000CB500222A
:100230004C4800920192016841F4803101604FF412
:10024000A063016801F4003101910099491C0091FB
:10025000019911B900999942F3D10168890333D505
:100260000121019140490A6842F010020A600A68BF
:1002700022F003020A600A6842F002020A60416842
:10028000416041684160416841F48061416041687A
:1002900021F47C114160416841F4E811416001683A
:1002A00041F08071016001688901FCD5416821F04D
:1002B00003014160416841F0020141604168C1F3BE
:1002C00081010229FAD10CBD01920CBD254810B55F
:1002D000016841F0010101604168244A1140416018
:1002E0000168234A11400160016821F48021016006
:1002F000416821F4FE0141604FF41F018160FFF766
:1003000095FF1C494FF00060086010BD154A10B5FC
:100310005068194B10F00C01184803D0042901D083
:10032000082901D0036012E05168536801F470118C
:100330004FF0020413F4803F04EB914102D0536864
:100340009B0301D50E4B00E00B4B594301605168F4
:100350000A4AC1F30311121D515C0268CA400260CF
:1003600010BD000000100240002002400000FFF815
:10037000FFFFF6FE08ED00E000127A00000000200A
:1003800000093D001FB540F205400090FA480068A2
:1003900014F0A6FB694615F0D1F81FBD3EB5144612
:1003A00014F0C0FB054614F07FFBF449884204D1E9
:1003B000214628460DF0B7FF3EBDF1498842FBD1EA
:1003C0002246F0A168461BF0EBFA694628460EF07B
:1003D00019FA3EBD3EB514F0A5FB044614F064FBCB
:1003E000E649884203D120460DF039FF0AE0E4498E
:1003F000884208D10A22694620460EF04BF9684629
:100400000CF0C5FDC0B23EBD70B5DF4C0021054605
:100410006170A17040F60101FFF7DCFFE07040F66B
:1004200006012846FFF7D6FF207140F60B0128464B
:10043000FFF7D0FF607140F60C012846FFF7CAFFB6
:10044000A07140F60D012846FFF7C4FFE0714FF49C
:1004500001612846FFF7BEFF207240F611012846D1
:10046000FFF7B8FF607270BD70B5C74C054640F627
:100470000101E278FFF792FF227940F60601284653
:10048000FFF78CFF627940F60B012846FFF786FFE5
:10049000A27940F60C012846FFF780FFE27940F68A
:1004A0000D012846FFF77AFF227A4FF401612846B2
:1004B000FFF774FF627A2846BDE8704040F61101EC
:1004C0006CE710B500680F2806D1B04810F0CAFCE0
:1004D000BDE810400FF06EBA10BDF8B50446406894
:1004E00000210EF03FFC40F60201606814F01AFB98
:1004F000A7490DF0C9FB40F60401606814F012FB37
:10050000A3490DF0C1FB40F61201606814F00AFB2C
:1005100006469F490DF0B8FB00252B469D4A29460B
:10052000304600950DF096FB40F61301606814F01C
:10053000F9FA064696490DF0A7FB0023964A19469C
:10054000304600950DF086FB40F61401606814F00B
:10055000E9FA06468E490DF097FB00238F4A1946AB
:10056000304600950DF076FB40F60501606814F00A
:10057000D9FA8B4913F02CFE40F60301606814F0A1
:10058000D1FA884913F024FE40F60701606814F0A0
:10059000C9FA844913F01CFE40F60801606814F0A3
:1005A000C1FA804913F014FE40F60901606814F0A6
:1005B000B9FA7C4913F00CFE40F60A01606814F0A9
:1005C000B1FA784913F004FE40F60E01606814F0A9
:1005D000A9FA744913F0FCFD40F60F01606814F0AD
:1005E000A1FA704913F0F4FD40F60601606814F0BA
:1005F00099FA05466CA10EF005F9032128460EF084
:10060000CDF8022128460EF05DF9284615F040F895
:1006100040F60B01606814F085FA054663A10EF000
:10062000F1F8032128460EF0B9F8022128460EF011
:1006300049F940F60C01606814F074FA05465CA1B3
:100640000EF0E0F8032128460EF0A8F80221284613
:100650000EF038F940F60D01606814F063FA0546B3
:1006600054A10EF0CFF8032128460EF097F802218E
:1006700028460EF027F94FF40161606814F052FA31
:1006800005464DA10EF0BEF8032128460EF086F86F
:10069000022128460EF016F940F61101606814F0A8
:1006A00041FA054645A10EF0ADF8032128460EF0AB
:1006B00075F8022128460EF005F940F60101606840
:1006C00014F030FA04463E490DF003FE01212046A5
:1006D0000DF0DCFD3BA120460DF065FB3AA1204664
:1006E0000DF061FB39A120460DF05DFB38A12046DD
:1006F0000DF059FB37A120460DF055FB2046BDE813
:10070000F84035A10DF04FBB70B5044600681D28B8
:1007100010D004DC0E2811D00F2806D15EE0262868
:1007200063D0A0F5806005381AD02046BDE870403F
:1007300014F0D4B82046BDE87040CEE60E4840F62E
:100740000201006814F0EEF9E16809680D2966D12C
:1007500014F09EFFBDE8704001210D2010F074BB25
:1007600006F09EFB084806F07FFB002857D1606822
:10077000BDE8704078E6000014000020D9DD0008D4
:10078000E9E4000825750000D4050020D3D3D30088
:100790001DDA0008F0F801084431020898690208DF
:1007A000F8820208AC8202083330000032320000C6
:1007B000313000003230000035000000340000000D
:1007C00078B502084D3100004D3200004D33000075
:1007D0004D3400004D3500004D360000244810F027
:1007E00041FBBDE870400FF0E5B8A06814F0CBF90C
:1007F0000146204A204DE068A1F5006102390FD082
:1008000002290CD101280AD10124147006F06FFBD3
:10081000184806F0FEFA202801D1C5F8A04170BDA5
:100820000128FCD1002616706068FFF7EDFD06F088
:100830005EFB104806F0EDFA2028F0D1C5F8A06163
:1008400070BD1CB514F058F90346002000900190CB
:100850000A4A15210A480FF0F5F80A4904460860CB
:1008600014F04AF9084914F07FFE20461CBD000030
:10087000D3D3D300D405002000002142090700088B
:1008800064BE010814000020C304000870B50646C9
:100890004FF48071FE4C204607F0A5FB65152946F4
:1008A000204607F0A0FB3146FA4807F0A3FB802161
:1008B000204607F098FB8021204607F092FB29464E
:1008C0002046BDE8704007F08CBB70B5F04C064682
:1008D0004FF48071204607F084FB651529462046B9
:1008E00007F081FB3146EB4807F084FB802120466E
:1008F00007F079FB8021204607F073FB294620464C
:10090000BDE8704007F06DBB2DE9F047E14F4FF0B7
:10091000883038603D1D2860DE4E00200C36306087
:10092000DB4CA915204607F05CFB4FF400794946E3
:10093000204607F058FB4021204607F054FBD648DC
:100940008088A0F50941893902D1022007F0B5F865
:10095000384607F039FB80464021204607F041FB2E
:100960004946204607F03DFB4FF0333038602860A1
:100970004FF6FF7030604046BDE8F08770B50E4618
:10098000FFF784FFC24C4FF48071204607F029FB2B
:1009900065152946204607F026FB3146BD4807F07D
:1009A00029FB8021204607F01EFB8021204607F00E
:1009B00018FB29462046BDE8704007F012BB10B571
:1009C000FFF764FFBDE810409EE7B34800895DE78C
:1009D00070B5AF4C06464FF48071204607F001FB1E
:1009E00065152946204607F0FEFA3146A94807F06A
:1009F00001FB8021204607F0F6FA8021204607F00F
:100A0000F0FA29462046BDE8704007F0EABAC0F384
:100A10004511C20AC00200EB4110104480B2704779
:100A20002DE9F84F9C4E0D460446B188280A0090E7
:100A30003046DFF85C82DFF85CA24089A1F5134202
:100A40004FF480774FF400794FEA142B413A15D0D8
:100A5000A1F5A642103A11D03346A1F5D04C9A79AF
:100A60001B881B1B5B1EBCF1040C75D0A1F5A04CB0
:100A7000BCF5A26C6ED0012A6DD03FE1FFF706FFF6
:100A80004FF480714646404607F0ABFA494630467F
:100A900007F0A9FA59465746504607F0ABFA8021AD
:100AA000304607F0A0FA8021304607F09AFA49460E
:100AB000304607F096FA4FF48071304607F091FA0D
:100AC0004946304607F08FFAE1B2384607F092FA0D
:100AD0008021304607F087FA8021304607F081FAFE
:100AE0004946304607F07DFA6B488089FFF7CEFE15
:100AF0004FF48071304607F074FA4946304607F0EB
:100B000072FA3846009907F075FA8021304607F0EE
:100B10006AFA8021304607F064FA4946304607F009
:100B200060FA4FF48071304607F05BFA4946304670
:100B300007F059FAE9B2384607F05CFA80213046EE
:100B400007F051FA8021304607F04BFA494630460B
:100B5000CFE001E054E0D0E0012A00D19CB2FFF7E1
:100B600095FEBB463946404607F03BFA49464046AB
:100B700007F039FA210A5746504607F03BFA802120
:100B8000404607F030FA8021404607F02AFA4946ED
:100B9000404607F026FA5946404607F022FA4946F1
:100BA000404607F020FAE1B2384607F023FA8021E8
:100BB000404607F018FA8021404607F012FA4946ED
:100BC000404607F00EFAB089FFF760FE59464046EE
:100BD00007F007FA4946404607F005FA38460099FB
:100BE00007F008FA8021404607F0FDF980214046D1
:100BF00007F0F7F94946404607F0F3F9594663E034
:100C0000FFF744FE4FF48071404607F0EAF9494689
:100C1000404607F0E8F959465746504607F0EAF9CA
:100C20008021404607F0DFF98021404607F0D9F9DE
:100C30004946404607F0D5F97089401C80B2FFF75D
:100C400025FE4FF48071404607F0CBF949464046F7
:100C500007F0C9F9E1B2384607F0CCF980214046E7
:100C600007F0C1F98021404607F0BBF949464046EC
:100C700007F0B7F9B089FFF709FE4FF480714046DD
:100C800007F0AFF94946404607F0ADF9384605E0B0
:100C900000100140000C0140F4050020009907F00D
:100CA000A9F98021404607F09EF98021404607F0CF
:100CB00098F94946404607F094F9B089401C80B243
:100CC000FFF7E4FD4FF48071404607F08AF949468A
:100CD000404607F088F9E9B2384607F08BF98021E1
:100CE000404607F080F98021404607F07AF94946EE
:100CF0004046BDE8F84F07F074B99CB22146FFF7B3
:100D00003DFEB0892946BDE8F84F37E62DE9F84F9A
:100D1000FE4D2A88824202D96A888A4202D800207F
:100D2000BDE8F88FFFF77CFEA888AA4649F2413B50
:100D300045F2103545F21056584505D0A0F5D04182
:100D4000043901D0A84201D12E2005E0B04202D1E1
:100D50004FF4385000E02220FFF798FDDFF8B09301
:100D60004FF08830C9F8000009F104010860E84933
:100D70004FF6FF780C31C1F80080E64F89153846F0
:100D800007F02FF97915384607F02DF9402138463C
:100D900007F029F9012006F090FE4021384607F0BF
:100DA00020F94021384607F01EF9012006F085FEA3
:100DB000484607F009F981464021384607F011F905
:100DC000BAF80400584503D0A84201D0B04210D16F
:100DD0004021384607F007F9CD4807F0F5F80090B4
:100DE0004021384607F0FDF809F0FF0008EA00242A
:100DF0000FE0A0F5D04104390BD14021384607F06F
:100E0000F2F84021384607F0ECF8C14807F0DCF86A
:100E100081464FF40071384607F0E3F8BC494FF0C3
:100E200033300860091D0860B9490C31C1F80080F1
:100E3000BAF80400A0F5134125391ED0A0F58A4167
:100E400035391AD0091D18D0A0F50941893914D0B7
:100E5000A0F53541053910D0584503D0A84201D03E
:100E6000B0420CD14FEAD9204FEAC020A10A40EA93
:100E70004111009841EAD02052E7484650E74846E1
:100E8000BDE8F84FC3E5A1488088A0F5134141397A
:100E90000ED0A0F5D04104390AD0A0F5A6411039F2
:100EA00006D0B1F5007105D040F27311072065E559
:100EB000292001E04FF42450E8E494488088A0F50C
:100EC000134141390DD0A0F5D041043909D0A0F526
:100ED000A641103905D0B1F5007104D000210720DA
:100EE0004CE5282001E04FF42050CFE42DE9F047F5
:100EF000864C00252146A379898846F60402012BF9
:100F000018D1914216D0082814D2DFE800F0040668
:100F1000080A0C0E101206200CE007200AE004203C
:100F200008E0052006E0012004E0002002E00320A4
:100F300000E00220A1F5134645F2103345F21058A7
:100F4000413E05D0914203D0994201D041457DD127
:100F5000082812D2DFE800F0110406080A0C0E106F
:100F600080250AE0402508E0C02506E0202504E0B1
:100F7000602502E0A02500E0E025414502D14FF4C4
:100F8000585000E03620994203D0414501D045F049
:100F90000805914201D145F002052946FFF7EEFC14
:100FA000A8062088618802D5884202D303E08842DF
:100FB00001D921806080A0884FF480756E00404583
:100FC000544FDFF84C9160897ED1FFF75FFC2946D2
:100FD000B846384607F005F83146404607F003F8B2
:100FE00000214F46484607F005F88021404606F0AC
:100FF000FAFF8021404606F0F4FF3146404606F0F5
:10100000F0FF6089401C80B2FFF740FC2946404653
:1010100006F0E7FF3146404606F0E5FF002138467E
:1010200006F0E8FF8021404606F0DDFF80214046C3
:1010300006F0D7FF3146404606F0D3FF6089801C9A
:1010400080B2FFF723FC2946404600E071E106F03C
:10105000C8FF3146404606F0C6FF2088401EC0F358
:101060000F21384606F0C6FF8021404606F0BBFF40
:101070008021404606F0B5FF3146404606F0B1FFFC
:101080006089C01C80B2FFF701FC2946404606F08B
:10109000A8FF3146404606F0A6FF2078401EC1B2A8
:1010A000384606F0A7FF8021404606F09CFF8021CD
:1010B000404606F096FF3146404606F092FFA08972
:1010C000FFF7E4FB294600E060E0404606F089FFB8
:1010D0003146404606F087FF0021384606F08AFF79
:1010E0008021404606F07FFF8021404606F079FFD0
:1010F0003146404606F075FFA089401C80B2FFF7DC
:10110000C5FB2946404606F06CFF05E0F4050020CB
:10111000000C0140001001403146404606F063FFDC
:101120000021384606F066FF8021404606F05BFF4E
:101130008021404606F055FF3146404606F051FFFB
:10114000A089801C80B2FFF7A1FB2946404606F02B
:1011500048FF3146404606F046FF6088401EC0F317
:101160000F21384606F046FF8021404606F03BFF3F
:101170008021404606F035FF3146404606F031FFFB
:10118000A089C01C80B2FFF781FBB6E0FFF77EFBB1
:101190002946B846384606F024FF3146404606F058
:1011A00022FF00214F46484606F024FF802140469A
:1011B00006F019FF8021404606F013FF31464046F5
:1011C00006F00FFF2946404606F00BFF3146404629
:1011D00006F009FF0021384606F00CFF802140464A
:1011E00006F001FF8021404606F0FBFE31464046F6
:1011F00006F0F7FE2946404606F0F3FE314640462B
:1012000006F0F1FE2088401EC0F30F21384606F09C
:10121000F1FE8021404606F0E6FE8021404606F0C1
:10122000E0FE3146404606F0DCFE2946404606F028
:10123000D8FE3146404606F0D6FE2078401EC1B2A8
:10124000384606F0D7FE8021404606F0CCFE8021CD
:10125000404606F0C6FE3146404606F0C2FEA08972
:10126000FFF714FB2946404606F0BBFE31464046D8
:1012700006F0B9FE0021384606F0BCFE802140464B
:1012800006F0B1FE8021404606F0ABFE31464046F6
:1012900006F0A7FE2946404606F0A3FE314640462A
:1012A00006F0A1FE0021384606F0A4FE802140464B
:1012B00006F099FE8021404606F093FE31464046F6
:1012C00006F08FFE2946404606F08BFE314640462A
:1012D00006F089FE6088401EC0F30F21384606F0F4
:1012E00089FE8021404606F07EFE8021404606F0C1
:1012F00078FE3146404606F074FE2946404606F028
:1013000070FE3146404606F06EFEA078401EC1B227
:10131000384606F06FFE8021404606F064FE8021CC
:10132000404606F05EFE31464046BDE8F04706F016
:1013300058BE082812D2DFE800F0040608110A0C93
:101340000E1030250AE0102508E0202506E038259B
:1013500004E0282502E0182500E00825A1F5094051
:10136000893806D0032045F48051BDE8F047FFF7E7
:1013700005BB112046F240012943F6E770B5FFF79F
:101380004FFBFFF722FBFE4C4FF48071204606F026
:1013900028FE65152946204606F025FEF94AFA483A
:1013A000118806F027FE8021204606F01CFE8021D1
:1013B000204606F016FE29462046BDE8704006F09D
:1013C00010BE2DE9F74FF14E044682B0B388080AEB
:1013D000009030460D46DFF8A883DFF8ACA34089C3
:1013E000A3F513414FF480774FF400794FEA142BA3
:1013F000413913D0A3F5A64110390FD0B1F50071D2
:1014000018D03246A3F5D04C91791288121B521E87
:10141000BCF1040C66D001297ED0CFE0FFF736FA8C
:101420003946404606F0DDFD4946404606F0DBFD04
:10143000594665E0FFF72AFA3946404606F0D1FDE5
:101440004946404606F0CFFD5946504606F0D2FDCB
:101450008021404606F0C7FD8021404606F0C1FDD0
:101460004946404606F0BDFD7089401C80B2FFF73A
:101470000DFA3946404606F0B4FD4946404606F0AE
:10148000B2FDE1B2504606F0B5FD8021404606F0BF
:10149000AAFD8021404606F0A4FD4946404606F0DC
:1014A000A0FDB089FFF7F2F93946404606F099FDF4
:1014B0004946404606F097FD5046009906F09AFDD1
:1014C0008021404606F08FFD8021404606F089FDD0
:1014D0004946404606F085FDB089401C80B2FFF7C2
:1014E000D5F951E0012900D194B2FFF7CFF939467F
:1014F000404606F076FD4946404606F074FD210A56
:10150000504606F077FD8021404606F06CFD8021B4
:10151000404606F066FD00E04FE04946404606F0D2
:1015200060FD3946404606F05CFD4946404606F0FF
:101530005AFDE1B2504606F05DFD8021404606F0BE
:1015400052FD8021404606F04CFD4946404606F0DB
:1015500048FDB089FFF79AF93946404606F041FD4B
:101560004946404606F03FFD5046009906F042FDD0
:101570008021404606F037FD8021404606F031FDCF
:101580004946404606F02DFD3946404606F029FD05
:101590004946404606F027FDE9B2504606F02AFDCE
:1015A0008021404606F01FFD8021404606F019FDCF
:1015B0004946404606F015FD07E094B22146FFF784
:1015C000DDF9B0892946FFF7D9F939464446404646
:1015D00006F009FD4D464946204606F004FD3189D6
:1015E0005646504606F006FD8021204606F0FBFCDC
:1015F0008021204606F0F5FC2946204606F0F1FC45
:101600003946204606F0EDFC2946204606F0EBFC64
:101610003046049906F0EEFC8021204606F0E3FCFB
:101620008021204606F0DDFC05B029462046BDE8B5
:10163000F04F06F0D6BC2DE9F05F54492C232A2444
:101640002B2522222126898848F689194FF04E0A37
:101650004FF04F0B45F2105EF02749F24138F8B1D8
:101660004A484FF0010C414580F806C04FF4A07C79
:10167000A0F800C047800FD0A1F5A647103F0BD0BF
:10168000A1F5D047043F4ED0494550D10281A0F882
:101690000AB0A0F80CA060E00381448185815CE081
:1016A0003A484FF0000C414580F806C007804FF4DF
:1016B000A077478011D0A1F5D04CBCF1040C0CD020
:1016C000A1F5A04CBCF5447C07D0494514D102815A
:1016D000A0F80AA0A0F80CB04CE003814481A1F569
:1016E000D0428581043A03D0A1F5A642103A41D1F7
:1016F00007804FF4F0710FE071450FD14FF4305176
:1017000001814FF4285141814FF42C5181814FF4D4
:10171000F07101804FF4487141802BE0028120215B
:101720004181868126E003814581848115E07145F0
:101730000FD14FF4305202814FF4285242814FF4BE
:101740002C5282814FF4487202804FF4F072428032
:1017500003E00281468120228281A1F5D042043A31
:1017600003D0A1F5A642103A04D14FF4F0710180E4
:10177000A0F802C0BDE8F05F0020FFF7B7BB000093
:101780000010014018000020000C0140F40500206A
:101790002DE9F05F07461044401E85B2C818401E70
:1017A0000E4684B2FE4A4FEA112A114690884989B2
:1017B000A0F513434FF4807B4FEA1729413B30D00B
:1017C000A0F5A643103B2CD0A0F5D043043B28D075
:1017D000A0F5AA43103B7DD0917901297BD0A84682
:1017E00039463546A0F50942893A75D050204FF068
:1017F000510B4FF0520A53229146FFF7BFF8414672
:101800005846FFF7BBF829465046FFF7B7F8214680
:101810004846FFF7B3F831463846BDE8F05FFFF7BA
:10182000FFB80846FFF732F84FF48071DD4806F044
:10183000D8FB4FF4007B5946DA4806F0D4FBDFF8BA
:1018400068834946404606F0D5FB8021D54806F01E
:10185000CAFB8021D34806F0C4FB5946D14806F0A4
:10186000C0FB4FF48071CF4806F0BBFB5946CD4812
:1018700006F0B9FBF9B2404606F0BCFB8021C9482E
:1018800006F0B1FB8021C74806F0ABFB5946C548BE
:1018900006F0A7FB4FF48071C24806F0A2FB594640
:1018A000C04806F0A0FB290A404606F0A3FB8021B1
:1018B000BC4806F098FB8021BA4806F092FB5946D6
:1018C000B84806F08EFB4FF48071B64806F089FBED
:1018D000594602E07AE08BE180E1B24806F083FBF2
:1018E000E9B2404606F086FB8021AE4806F07BFB5D
:1018F0008021AC4806F075FB5946AA4806F071FBFA
:10190000A7488089FEF7C2FF4FF48071A54806F012
:1019100068FB5946A34806F066FB5146404606F070
:1019200069FB80219F4806F05EFB80219D4806F000
:1019300058FB59469B4806F054FB4FF48071994878
:1019400006F04FFB5946974806F04DFBF1B2404672
:1019500006F050FB8021934806F045FB802191481A
:1019600006F03FFB59468F4806F03BFB4FF4807171
:101970008C4806F036FB59468A4806F034FB210AAB
:10198000404606F037FB8021864806F02CFB80217C
:10199000844806F026FB5946824806F022FB4FF4A5
:1019A0008071804806F01DFB59467E4806F01BFBFF
:1019B000E1B2404606F01EFB80217A4806F013FB98
:1019C0008021784806F00DFB594602E19046084612
:1019D000FEF75CFF5946734806F003FB4FF40071B5
:1019E000704806F000FB4946DFF8BC91484606F017
:1019F00001FB80216B4806F0F6FA8021694806F069
:101A0000F0FA4FF40071674806F0EBFAB8F80A00F4
:101A1000401C80B2FEF73AFF5946624806F0E1FAF0
:101A20004FF400715F4806F0DEFAF9B2484606F05E
:101A3000E1FA80215B4806F0D6FA8021594806F089
:101A4000D0FA4FF40071574806F0CBFAB8F80A0004
:101A5000801C80B2FEF71AFF5946524806F0C1FAC0
:101A60004FF400714F4806F0BEFA290A484606F0C6
:101A7000C1FA80214B4806F0B6FA8021494806F0A9
:101A8000B0FA4FF40071474806F0ABFAB8F80A0014
:101A9000C01C80B2FEF7FAFE5946424806F0A1FA91
:101AA0004FF400713F4806F09EFAE9B2484606F04E
:101AB000A1FA80213B4806F096FA8021394806F0C9
:101AC00090FA4FF40071374806F08BFAB8F80C0022
:101AD000FEF7DCFE5946334806F083FA4FF40071F6
:101AE000304806F080FA5146484606F083FA8021D5
:101AF0002C4806F078FA80212A4806F072FA4FF452
:101B00000071284806F06DFAB8F80C00401C80B24D
:101B1000FEF7BCFE5946234806F063FA4FF4007105
:101B2000204806F060FAF1B2484606F063FA8021D8
:101B30001C4806F058FA80211A4806F052FA4FF471
:101B40000071184806F04DFAB8F80C00801C80B2FD
:101B5000FEF79CFE5946134806F043FA4FF4007115
:101B6000104806F040FA210A484606F043FA802160
:101B70000C4806F038FA80210A4806F032FA4FF491
:101B80000071084806F02DFAB8F80C00C01C80B2AD
:101B9000FEF77CFE5946034806F023FA06E00000F3
:101BA000F405002000100140000C01404FF40071CA
:101BB000FE4806F018FAE1B2484606F01BFA80210A
:101BC000FA4806F010FA8021F84806F00AFA4FF4B5
:101BD0000071BDE8F05FF54806F003BA442041EA21
:101BE000082189B2834688464FF0450A462203E61B
:101BF0001288A046531B5B1ED21B521E31469DB25B
:101C000094B2EFE52DE9F047E94E82460024308892
:101C100075884543B088A0F5D041043902D1B07928
:101C200001280CD000210846FEF7FAFEFEF7CDFE93
:101C3000DE4E4FF480787715DFF8789329E00020A6
:101C4000B0712A2777814FF02B08A6F80C80014647
:101C5000FEF7E6FE0120B071A6F80A80B781E5E73D
:101C60004146304606F0BDF93946304606F0BBF92C
:101C70005146484606F0BEF98021304606F0B3F9D9
:101C80008021304606F0ADF93946304606F0A9F914
:101C9000641CAC42E4D3BDE8F0872DE9F84F012184
:101CA000192006F01CFB0121C34806F0BBF94FF4D4
:101CB000F864ADF8004010208DF803000320BB4D00
:101CC0008DF802006946284606F021F9214628468B
:101CD00006F087F9B74C4FF6FF75ADF8005069462E
:101CE000204606F014F92946204606F07AF93220FB
:101CF00005F0FAFE01210020FEF740FE322005F03B
:101D0000F3FE0020FEF75BFEA94C49F2413646F691
:101D10000408A08045F2103945F21057FF2804D37B
:101D2000A84202D0B0F5134F56D1D320FEF7AEFD36
:101D3000FEF7EAFDFEF7E8FDFEF7E6FD05EA002006
:101D4000A080FEF7E1FDA1880843A080B04243D007
:101D5000BF20FEF79BFDFEF7D7FDFEF7D5FDFEF792
:101D6000D3FDFEF7D1FD05EA0020A080FEF7CCFDF3
:101D7000A1880843A08040452ED0D420FEF786FDE0
:101D8000FEF7C2FDFEF7C0FDFEF7BEFD05EA00202E
:101D9000A080FEF7B9FDA1880843A08048451BD06C
:101DA0004FF45A40FEF772FDFEF7AEFD4FF45B4074
:101DB000FEF76CFDFEF7A8FD05EA0020A0804FF4B9
:101DC0005C40FEF763FDFEF79FFDA1880843A080FD
:101DD000B0F5004F00D1A780A18878A019F0D0FD00
:101DE000A088B0427ED1CF20FEF750FD0020FEF744
:101DF0006CFDC120FEF769FD3020FEF766FDED2089
:101E0000FEF744FD6420FEF760FD0320FEF75DFD54
:101E10001220FEF75AFD8120FEF757FDE820FEF75D
:101E200035FD8520FEF751FD1020FEF74EFD7A208E
:101E3000FEF74BFDCB20FEF729FD3920FEF745FDCF
:101E40002C20FEF742FD0020FEF73FFD3420FEF778
:101E50003CFD0220FEF739FDF720FEF717FD20209C
:101E6000FEF733FDEA20FEF711FD0020FEF72DFD01
:101E70000020FEF72AFDC020FEF708FD1B20FEF71C
:101E800024FDC120FEF702FD0120FEF71EFDC52046
:101E9000FEF7FCFC3020FEF718FD3020FEF715FDA4
:101EA000C720FEF7F3FCB720FEF70FFD3620FEF744
:101EB000EDFC4820FEF709FD3A20FEF7E7FC55202F
:101EC000FEF703FDB120FEF7E1FC0020FEF7FDFC6C
:101ED0001A20FEF7FAFCB620FEF7D8FC0A20FEF71F
:101EE000F4FC00E0A2E0A220FEF7EFFCF220FEF7F7
:101EF000CDFC0020FEF7E9FC2620FEF7C7FC012000
:101F0000FEF7E3FCE020FEF7C1FC0F20FEF7DDFC4E
:101F10002A20FEF7DAFC2820FEF7D7FC0820FEF77F
:101F2000D4FC0E20FEF7D1FC0820FEF7CEFC542096
:101F3000FEF7CBFCA920FEF7C8FC4320FEF7C5FC4A
:101F40000A20FEF7C2FC0F20FEF7BFFC0020FEF7C0
:101F5000BCFC0020FEF7B9FC0020FEF7B6FC002018
:101F6000FEF7B3FCE120FEF791FC0020FEF7ADFC8C
:101F70001520FEF7AAFC1720FEF7A7FC0720FEF7A6
:101F8000A4FC1120FEF7A1FC0620FEF79EFC2B20EE
:101F9000FEF79BFC5620FEF798FC3C20FEF795FCD4
:101FA0000520FEF792FC102010E000000010014018
:101FB000F4050020000C014000023000204C434496
:101FC0002049443A25780D0A00000000FEF77DFC08
:101FD0000F20FEF77AFC3F20FEF777FC3F20FEF74C
:101FE00074FC0F20FEF771FC2B20FEF74FFC002045
:101FF000FEF76BFC0020FEF768FC0120FEF765FC95
:102000003F20FEF762FC2A20FEF740FC0020FEF78E
:102010005CFC0020FEF759FC0020FEF756FCEF2088
:10202000FEF753FC1120FEF731FCA5E040457CD1C2
:102030001120FEF72BFC142005F056FDD020FEF7F2
:1020400025FC0720FEF741FC4220FEF73EFC1D2048
:10205000FEF73BFCD120FEF719FC0020FEF735FC13
:102060001A20FEF732FC0920FEF72FFCD220FEF7E3
:102070000DFC0120FEF729FC2220FEF726FCC020E3
:10208000FEF704FC1020FEF720FC3B20FEF71DFCB1
:102090000020FEF71AFC0220FEF717FC1120FEF7C5
:1020A00014FCC520FEF7F2FB0320FEF70EFCC8204F
:1020B000FEF7ECFB0020FEF708FC2520FEF705FCF0
:1020C0002120FEF702FC0520FEF7FFFB0020FEF7B3
:1020D000FCFB0A20FEF7F9FB6520FEF7F6FB252046
:1020E000FEF7F3FB7720FEF7F0FB5020FEF7EDFB49
:1020F0000F20FEF7EAFB0020FEF7E7FBF820FEF7D3
:10210000C5FB0120FEF7E1FBFE20FEF7BFFB002030
:10211000FEF7DBFB0220FEF7D8FB2020FEF7B6FB24
:102120003620FEF7B3FB082000E02BE0FEF7CDFBE6
:102130003A20FEF7ABFB5520FEF7C7FB2B20FEF73E
:10214000A5FB0020FEF7C1FB0020FEF7BEFB01202F
:10215000FEF7BBFB3F20FEF7B8FB2A20FEF796FBFD
:102160000020FEF7B2FB0020FEF7AFFB0120FEF7D8
:10217000ACFBDF20FEF7A9FB782005F0B5FC292099
:1021800001F0FCBE48457CD1ED20FEF77FFB01202D
:10219000FEF79BFBFE20FEF798FBEE20FEF776FB9A
:1021A000DE20FEF792FB2120FEF78FFBF120FEF7E9
:1021B0006DFB0120FEF789FBDF20FEF767FB102097
:1021C000FEF783FBC420FEF761FB8F20FEF77DFB4B
:1021D000C620FEF75BFB0020FEF777FBE220FEF750
:1021E00074FBE220FEF771FBE220FEF76EFBBF20DE
:1021F000FEF74CFBAA20FEF768FBB020FEF746FB7B
:102200000D20FEF762FB0020FEF75FFB0D20FEF7BE
:102210005CFB0020FEF759FB1120FEF756FB002067
:10222000FEF753FB1920FEF750FB0020FEF74DFB95
:102230002120FEF74AFB0020FEF747FB2D20FEF78A
:1022400044FB0020FEF741FB3D20FEF73EFB002053
:10225000FEF73BFB5D20FEF738FB0020FEF735FB69
:102260005D20FEF732FB0020FEF72FFBB120FEF7CA
:102270000DFB8020FEF729FB0020FEF726FB8B20BC
:1022800000E0FCE3FEF721FB0020FEF71EFB96209A
:10229000FEF71BFB0020FEF718FBB220FEF7F6FA54
:1022A0000020FEF712FB0020FEF70FFB0220FEF7D6
:1022B0000CFB0020FEF709FB0320FEF706FB0020C5
:1022C000FEF703FBB320FEF7E1FA0020FEF7FDFA6C
:1022D0000020FEF7FAFA0020FEF7F7FA0020FEF7DA
:1022E000F4FA0020FEF7F1FA0020FEF7EEFA0020E3
:1022F000FEF7EBFA0020FEF7E8FA0020FEF7E5FA19
:102300000020FEF7E2FA0020FEF7DFFA0020FEF7D9
:10231000DCFA0020FEF7D9FA0020FEF7D6FA0020FA
:10232000FEF7D3FA0020FEF7D0FA0020FEF7CDFA30
:102330000020FEF7CAFA0020FEF7C7FA0020FEF7D9
:10234000C4FA0020FEF7C1FA0020FEF7BEFA002012
:10235000FEF7BBFA0020FEF7B8FAB420FEF796FAB3
:102360008B20FEF7B2FA0020FEF7AFFA9620FEF7B8
:10237000ACFA0020FEF7A9FAA120FEF7A6FA002089
:10238000FEF7A3FAB520FEF781FA0220FEF79DFAC8
:102390000020FEF79AFA0320FEF797FA0020FEF7D6
:1023A00094FA0420FEF791FA0020FEF78EFAB62088
:1023B000FEF76CFA0020FEF788FA0020FEF785FA97
:1023C000B720FEF763FA0020FEF77FFA0020FEF741
:1023D0007CFA3F20FEF779FA0020FEF776FA5E20BD
:1023E000FEF773FA0020FEF770FA6420FEF76DFA2C
:1023F0000020FEF76AFA8C20FEF767FA0020FEF74D
:1024000064FAAC20FEF761FA0020FEF75EFADC20E9
:10241000FEF75BFA0020FEF758FA7020FEF755FA37
:102420000020FEF752FA9020FEF74FFA0020FEF748
:102430004CFAEB20FEF749FA0020FEF746FADC20C2
:10244000FEF743FA0020FEF740FAB820FEF71EFA26
:102450000020FEF73AFA0020FEF737FA0020FEF7D8
:1024600034FA0020FEF731FA0020FEF72EFA0020A1
:10247000FEF72BFA0020FEF728FA0020FEF725FAD7
:10248000BA20FEF703FA2420FEF71FFA0020FEF719
:102490001CFA0020FEF719FA0020FEF716FAC120F8
:1024A000FEF7F4F92020FEF710FA0020FEF70DFAEF
:1024B0005420FEF70AFA0020FEF707FAFF20FEF785
:1024C00004FA0020FEF701FAC220FEF7DFF90A2025
:1024D000FEF7FBF90020FEF7F8F90420FEF7F5F906
:1024E0000020FEF7F2F9C320FEF7D0F93C20FEF7FA
:1024F000ECF90020FEF7E9F93A20FEF7E6F90020B2
:10250000FEF7E3F93920FEF7E0F90020FEF7DDF9E8
:102510003720FEF7DAF90020FEF7D7F93C20FEF766
:10252000D4F90020FEF7D1F93620FEF7CEF90020CD
:10253000FEF7CBF93220FEF7C8F90020FEF7C5F907
:102540002F20FEF7C2F90020FEF7BFF92C20FEF77E
:10255000BCF90020FEF7B9F92920FEF7B6F90020F2
:10256000FEF7B3F92620FEF7B0F90020FEF7ADF92B
:102570002420FEF7AAF90020FEF7A7F92420FEF791
:10258000A4F90020FEF7A1F92320FEF79EF9002010
:10259000FEF79BF93C20FEF798F90020FEF795F92D
:1025A0003620FEF792F90020FEF78FF93220FEF771
:1025B0008CF90020FEF789F92F20FEF786F900201C
:1025C000FEF783F92C20FEF780F90020FEF77DF955
:1025D0002920FEF77AF90020FEF777F92620FEF78A
:1025E00074F90020FEF771F92420FEF76EF900203F
:1025F000FEF76BF92420FEF768F90020FEF765F975
:102600002320FEF762F90020FEF75FF9C420FEF7F1
:102610003DF96220FEF759F90020FEF756F9052032
:10262000FEF753F90020FEF750F98420FEF74DF92C
:102630000020FEF74AF9F020FEF747F90020FEF7E8
:1026400044F91820FEF741F90020FEF73EF9A420D6
:10265000FEF73BF90020FEF738F91820FEF735F9B0
:102660000020FEF732F95020FEF72FF90020FEF788
:102670002CF90C20FEF729F90020FEF726F9172087
:10268000FEF723F90020FEF720F99520FEF71DF94B
:102690000020FEF71AF9F320FEF717F90020FEF7E5
:1026A00014F9E620FEF711F90020FEF70EF9C52017
:1026B000FEF7ECF83220FEF708F90020FEF705F9E6
:1026C0004420FEF702F90020FEF7FFF86520FEF730
:1026D000FCF80020FEF7F9F87620FEF7F6F8002067
:1026E000FEF7F3F88820FEF7F0F80020FEF7EDF88B
:1026F000C620FEF7CBF82020FEF7E7F80020FEF713
:10270000E4F81720FEF7E1F80020FEF7DEF80120DC
:10271000FEF7DBF80020FEF7D8F8C720FEF7B6F882
:102720000020FEF7D2F80020FEF7CFF80020FEF7D9
:10273000CCF80020FEF7C9F8C820FEF7A7F8002063
:10274000FEF7C3F80020FEF7C0F80020FEF7BDF842
:102750000020FEF7BAF8C920FEF798F80020FEF72F
:10276000B4F80020FEF7B1F80020FEF7AEF8002024
:10277000FEF7ABF80020FEF7A8F80020FEF7A5F85A
:102780000020FEF7A2F80020FEF79FF80020FEF7D9
:102790009CF80020FEF799F80020FEF796F800203C
:1027A000FEF793F80020FEF790F80020FEF78DF872
:1027B0000020FEF78AF80020FEF787F8E020FEF7F9
:1027C00065F81620FEF781F80020FEF77EF81C2041
:1027D000FEF77BF80020FEF778F82120FEF775F869
:1027E0000020FEF772F83620FEF76FF80020FEF7A3
:1027F0006CF84620FEF769F80020FEF766F85220D4
:10280000FEF763F80020FEF760F86420FEF75DF83D
:102810000020FEF75AF87A20FEF757F80020FEF75E
:1028200054F88B20FEF751F80020FEF74EF899205F
:10283000FEF74BF80020FEF748F8A820FEF745F811
:102840000020FEF742F8B920FEF73FF80020FEF71F
:102850003CF8C420FEF739F80020FEF736F8CA200D
:10286000FEF733F80020FEF730F8D220FEF72DF8FF
:102870000020FEF72AF8D920FEF727F80020FEF7FF
:1028800024F8E020FEF721F80020FEF71EF8F320E0
:10289000FEF71BF80020FEF718F8E120FDF7F6FF21
:1028A0001620FEF712F80020FEF70FF81C20FEF7A6
:1028B0000CF80020FEF709F82220FEF706F80020A9
:1028C000FEF703F83620FEF700F80020FDF7FDFFC5
:1028D0004520FDF7FAFF0020FDF7F7FF5220FDF736
:1028E000F4FF0020FDF7F1FF6420FDF7EEFF00206C
:1028F000FDF7EBFF7A20FDF7E8FF0020FDF7E5FF8D
:102900008B20FDF7E2FF0020FDF7DFFF9920FDF7A8
:10291000DCFF0020FDF7D9FFA820FDF7D6FF00203F
:10292000FDF7D3FFB920FDF7D0FF0020FDF7CDFF65
:10293000C420FDF7CAFF0020FDF7C7FFCA20FDF73E
:10294000C4FF0020FDF7C1FFD220FDF7BEFF00202D
:10295000FDF7BBFFD820FDF7B8FF0020FDF7B5FF5E
:10296000E020FDF7B2FF0020FDF7AFFFF320FDF7F9
:10297000ACFF0020FDF7A9FFE220FDF787FF05204F
:10298000FDF7A3FF0020FDF7A0FF0B20FDF79DFF43
:102990000020FDF79AFF1B20FDF797FF0020FDF7B1
:1029A00094FF3420FDF791FF0020FDF78EFF4420B7
:1029B000FDF78BFF0020FDF788FF4F20FDF785FF17
:1029C0000020FDF782FF6120FDF77FFF0020FDF76B
:1029D0007CFF7920FDF779FF0020FDF776FF882046
:1029E000FDF773FF0020FDF770FF9720FDF76DFFE7
:1029F0000020FDF76AFFA620FDF767FF0020FDF726
:102A000064FFB720FDF761FF0020FDF75EFFC220E5
:102A1000FDF75BFF0020FDF758FFC720FDF755FFCE
:102A20000020FDF752FFD120FDF74FFF0020FDF7FA
:102A30004CFFD620FDF749FF0020FDF746FFDD20C3
:102A4000FDF743FF0020FDF740FFF320FDF73DFFBA
:102A50000020FDF73AFFE320FDF718FF0520FDF702
:102A600034FF0020FDF731FF0A20FDF72EFF002084
:102A7000FDF72BFF1C20FDF728FF002000E0FDE202
:102A8000FDF723FF3320FDF720FF0020FDF71DFF9A
:102A90004420FDF71AFF0020FDF717FF5020FDF737
:102AA00014FF0020FDF711FF6220FDF70EFF00204C
:102AB000FDF70BFF7820FDF708FF0020FDF705FF6D
:102AC0008820FDF702FF0020FDF7FFFE9720FDF7AD
:102AD000FCFE0020FDF7F9FEA620FDF7F6FE002023
:102AE000FDF7F3FEB720FDF7F0FE0020FDF7EDFE49
:102AF000C220FDF7EAFE0020FDF7E7FEC720FDF744
:102B0000E4FE0020FDF7E1FED120FDF7DEFE00200F
:102B1000FDF7DBFED520FDF7D8FE0020FDF7D5FE42
:102B2000DD20FDF7D2FE0020FDF7CFFEF320FDF7FC
:102B3000CCFE0020FDF7C9FEE420FDF7A7FE012032
:102B4000FDF7C3FE0020FDF7C0FE0120FDF7BDFE2E
:102B50000020FDF7BAFE0220FDF7B7FE0020FDF7CA
:102B6000B4FE2A20FDF7B1FE0020FDF7AEFE3C20AA
:102B7000FDF7ABFE0020FDF7A8FE4B20FDF7A5FEFC
:102B80000020FDF7A2FE5D20FDF79FFE0020FDF76F
:102B90009CFE7420FDF799FE0020FDF796FE842030
:102BA000FDF793FE0020FDF790FE9320FDF78DFECC
:102BB0000020FDF78AFEA220FDF787FE0020FDF72A
:102BC00084FEB320FDF781FE0020FDF77EFEBE20CF
:102BD000FDF77BFE0020FDF778FEC420FDF775FEB3
:102BE0000020FDF772FECD20FDF76FFE0020FDF7FF
:102BF0006CFED320FDF769FE0020FDF766FEDD20A8
:102C0000FDF763FE0020FDF760FEF320FDF75DFE9B
:102C10000020FDF75AFEE520FDF738FE0020FDF705
:102C200054FE0020FDF751FE0020FDF74EFE00206F
:102C3000FDF74BFE0220FDF748FE0020FDF745FEA4
:102C40002920FDF742FE0020FDF73FFE3C20FDF766
:102C50003CFE0020FDF739FE4B20FDF736FE00203C
:102C6000FDF733FE5D20FDF730FE0020FDF72DFE61
:102C70007420FDF72AFE0020FDF727FE8420FDF7D3
:102C800024FE0020FDF721FE9320FDF71EFE00200C
:102C9000FDF71BFEA220FDF718FE0020FDF715FE34
:102CA000B320FDF712FE0020FDF70FFEBE20FDF75A
:102CB0000CFE0020FDF709FEC420FDF706FE0020F3
:102CC000FDF703FECD20FDF700FE0020FDF7FDFD22
:102CD000D320FDF7FAFD0020FDF7F7FDDC20FDF71E
:102CE000F4FD0020FDF7F1FDF320FDF7EEFD0020DF
:102CF000FDF7EBFDE620FDF7C9FD1120FDF7E5FD31
:102D00000020FDF7E2FD3420FDF7DFFD0020FDF798
:102D1000DCFD5620FDF7D9FD0020FDF7D6FD76201D
:102D2000FDF7D3FD0020FDF7D0FD7720FDF7CDFDA9
:102D30000020FDF7CAFD6620FDF7C7FD0020FDF766
:102D4000C4FD8820FDF7C1FD0020FDF7BEFD9920E0
:102D5000FDF7BBFD0020FDF7B8FDBB20FDF7B5FD7D
:102D60000020FDF7B2FD9920FDF7AFFD0020FDF733
:102D7000ACFD6620FDF7A9FD0020FDF7A6FD55205E
:102D8000FDF7A3FD0020FDF7A0FD5520FDF79DFDFB
:102D90000020FDF79AFD4520FDF797FD0020FDF787
:102DA00094FD4320FDF791FD0020FDF78EFD4420AA
:102DB000FDF78BFD0020FDF788FDE720FDF766FDA0
:102DC0003220FDF782FD0020FDF77FFD5520FDF745
:102DD0007CFD0020FDF779FD7620FDF776FD0020D3
:102DE000FDF773FD6620FDF770FD0020FDF76DFD1A
:102DF0006720FDF76AFD0020FDF767FD6720FDF7FE
:102E000064FD0020FDF761FD8720FDF75EFD0020D9
:102E1000FDF75BFD9920FDF758FD0020FDF755FDFE
:102E2000BB20FDF752FD0020FDF74FFD9920FDF777
:102E30004CFD0020FDF749FD7720FDF746FD002001
:102E4000FDF743FD4420FDF740FD0020FDF73DFD6B
:102E50005620FDF73AFD0020FDF737FD2320FDF752
:102E600034FD0020FDF731FD3320FDF72EFD00205D
:102E7000FDF72BFD4520FDF728FD0020FDF725FD82
:102E8000E820FDF703FD0020FDF71FFD0020FDF702
:102E90001CFD9920FDF719FD0020FDF716FD872088
:102EA000FDF713FD0020FDF710FD8820FDF70DFD57
:102EB0000020FDF70AFD7720FDF707FD0020FDF754
:102EC00004FD6620FDF701FD0020FDF7FEFC8820D3
:102ED000FDF7FBFC0020FDF7F8FCAA20FDF7F5FC50
:102EE0000020FDF7F2FCBB20FDF7EFFC0020FDF712
:102EF000ECFC9920FDF7E9FC0020FDF7E6FC6620DC
:102F0000FDF7E3FC0020FDF7E0FC5520FDF7DDFCBC
:102F10000020FDF7DAFC5520FDF7D7FC0020FDF777
:102F2000D4FC4420FDF7D1FC0020FDF7CEFC44206A
:102F3000FDF7CBFC0020FDF7C8FC5520FDF7C5FCD4
:102F40000020FDF7C2FCE920FDF7A0FCAA20FDF758
:102F5000BCFC0020FDF7B9FC0020FDF7B6FC00200A
:102F6000FDF7B3FC0020FDF791FCAA20FDF7ADFCB6
:102F7000CF20FDF78BFC0020FDF7A7FC0020FDF71C
:102F8000A4FC0020FDF7A1FC0020FDF79EFC002022
:102F9000FDF79BFC0020FDF798FC0020FDF795FC59
:102FA0000020FDF792FC0020FDF78FFC0020FDF7CC
:102FB0008CFC0020FDF789FC0020FDF786FC00203A
:102FC000FDF783FC0020FDF780FC0020FDF77DFC71
:102FD0000020FDF77AFC0020FDF777FCF020FDF7DC
:102FE00055FC0020FDF771FC5020FDF76EFC002021
:102FF000FDF76BFC0020FDF768FC0020FDF765FC89
:10300000F320FDF743FC0020FDF75FFCF920FDF7FE
:103010003DFC0620FDF759FC1020FDF756FC292049
:10302000FDF753FC0020FDF750FC3A20FDF72EFC85
:103030005520FDF74AFC1120FDF728FC642004F020
:1030400053FD2920FDF722FC3520FDF71FFC002051
:10305000FDF73BFC5120FDF719FCFF20FDF735FC87
:103060005320FDF713FC2C20FDF72FFC5520FDF716
:103070000DFC8220FDF729FC2C20FCE3B8427DD119
:103080004FF4704455212046FDF778FC661CAA21B8
:103090003046FDF773FCA71C52213846FDF76EFC45
:1030A0004FF2030808214046FDF768FC4FF204097F
:1030B00001214846FDF762FC0D214FF43040FDF739
:1030C0005DFC0D214BF20100FDF758FC0D214BF288
:1030D0000200FDF753FC4FF4364A34215046FDF709
:1030E0004DFC34214BF20160FDF748FC34214BF2DA
:1030F0000260FDF743FC4FF4314B0D215846FDF7BC
:103100003DFC0D214BF20110FDF738FC0D214BF277
:103110000210FDF733FC34214FF43740FDF72EFC4D
:1031200034214BF20170FDF729FC34214BF202707F
:10313000FDF724FC00214FF43240FDF71FFC002175
:103140004BF20120FDF71AFC00214BF20220FDF7A3
:1031500015FC24214FF43840FDF710FC24214BF6D8
:103160000100FDF70BFC24214BF60200FDF706FCE5
:1031700001214FF43F40FDF701FC00E0FEE30F2189
:103180004FF43340FDF7FAFB0F214BF20130FDF70E
:10319000F5FB0F214BF20230FDF7F0FB34214FF429
:1031A0003940FDF7EBFB34214BF60110FDF7E6FB50
:1031B00034214BF60210FDF7E1FB08214FF43540B6
:1031C000FDF7DCFB08214BF20150FDF7D7FB08218E
:1031D0004BF20250FDF7D2FB03214FF44240FDF7C2
:1031E000CDFB24214FF43A40FDF7C8FB24214BF6D8
:1031F0000120FDF7C3FB24214BF60220FDF7BEFBA7
:1032000000214FF43C40FDF7B9FB78214BF601401B
:10321000FDF7B4FB00214BF60240FDF7AFFB0021A8
:103220004FF43D40FDF7AAFB78214BF60150FDF726
:10323000A5FB00214BF60250FDF7A0FB00214FF447
:103240003E40FDF79BFB64214BF60160FDF796FBCA
:1032500000214FF45140FDF791FB33214DF2011055
:10326000FDF78CFB00214DF20210FDF787FB3421A6
:103270004DF20310FDF782FB00214DF20410FDF723
:103280007DFB3A214DF20510FDF778FB00214DF250
:103290000610FDF773FB4A214DF20710FDF76EFB98
:1032A00000214DF20810FDF769FB5C214DF2091079
:1032B000FDF764FB00214DF20A10FDF75FFB812151
:1032C0004DF20B10FDF75AFB00214DF20C10FDF7EB
:1032D00055FBA6214DF20D10FDF750FB00214DF2DC
:1032E0000E10FDF74BFBE5214DF20F10FDF746FBED
:1032F00001214DF21010FDF741FB13214DF2111089
:10330000FDF73CFB01214DF21210FDF737FB542174
:103310004DF21310FDF732FB01214DF21410FDF7B1
:103320002DFB82214DF21510FDF728FB01214DF2F6
:103330001610FDF723FBCA214DF21710FDF71EFBF7
:1033400002214DF21810FDF719FB00214DF2191062
:10335000FDF714FB02214DF21A10FDF70FFB0121BE
:103360004DF21B10FDF70AFB02214DF21C10FDF778
:1033700005FB34214DF21D10FDF700FB02214DF23B
:103380001E10FDF7FBFA67214DF21F10FDF7F6FA4C
:1033900002214DF22010FDF7F1FA84214DF22110A7
:1033A000FDF7ECFA02214DF22210FDF7E7FAA42115
:1033B0004DF22310FDF7E2FA02214DF22410FDF741
:1033C000DDFAB7214DF22510FDF7D8FA02214DF2B2
:1033D0002610FDF7D3FACF214DF22710FDF7CEFAD4
:1033E00002214DF22810FDF7C9FADE214DF2291015
:1033F000FDF7C4FA02214DF22A10FDF7BFFAF221BF
:103400004DF22B10FDF7BAFA02214DF22C10FDF708
:10341000B5FAFE214DF22D10FDF7B0FA03214DF261
:103420002E10FDF7ABFA10214DF22F10FDF7A6FA82
:1034300003214DF23010FDF7A1FA33214DF2311086
:10344000FDF79CFA03214DF23210FDF797FA6D213A
:103450004DF23310FDF792FA00214FF45240FDF780
:103460008DFA33214DF20120FDF788FA00214DF24B
:103470000220FDF783FA34214DF20320FDF77EFA96
:1034800000214DF20420FDF779FA3A214DF2052092
:10349000FDF774FA00214DF20620FDF76FFA4A217C
:1034A0004DF20720FDF76AFA00214DF20820FDF7E2
:1034B00065FA5C214DF20920FDF760FA00214DF21A
:1034C0000A20FDF75BFA81214DF20B20FDF756FA39
:1034D00000214DF20C20FDF751FAA6214DF20D20EE
:1034E000FDF74CFA00214DF20E20FDF747FAE521D9
:1034F0004DF20F20FDF742FA01214DF21020FDF7A9
:103500003DFA13214DF21120FDF738FA01214DF259
:103510001220FDF733FA54214DF21320FDF72EFA55
:1035200001214DF21420FDF729FA82214DF21520D8
:10353000FDF724FA01214DF21620FDF71FFACA21EA
:103540004DF21720FDF71AFA02214DF21820FDF76F
:1035500015FA00214DF21920FDF710FA02214DF263
:103560001A20FDF70BFA01214DF21B20FDF706FA98
:1035700002214DF21C20FDF701FA34214DF21D20ED
:10358000FDF7FCF902214DF21E20FDF7F7F9672146
:103590004DF21F20FDF7F2F902214DF22020FDF738
:1035A000EDF984214DF22120FDF7E8F902214DF2D9
:1035B0002220FDF7E3F9A4214DF22320FDF7DEF9E7
:1035C00002214DF22420FDF7D9F9B7214DF2252033
:1035D000FDF7D4F902214DF22620FDF7CFF9CF21D6
:1035E0004DF22720FDF7CAF902214DF22820FDF700
:1035F000C5F9DE214DF22920FDF7C0F902214DF277
:103600002A20FDF7BBF9F2214DF22B20FDF7B6F988
:1036100002214DF22C20FDF7B1F9FE214DF22D20B3
:10362000FDF7ACF903214DF22E20FDF7A7F910218B
:103630004DF22F20FDF7A2F903214DF23020FDF7C6
:103640009DF933214DF23120FDF798F903214DF218
:103650003220FDF793F96D214DF23320FDF78EF9FD
:1036600000214FF45340FDF789F933214DF2013029
:10367000FDF784F900214DF20230FDF77FF9342186
:103680004DF20330FDF77AF900214DF20430FDF7D9
:1036900075F93A214DF20530FDF770F900214DF230
:1036A0000630FDF76BF94A214DF20730FDF766F958
:1036B00000214DF20830FDF761F95C214DF209302F
:1036C000FDF75CF900214DF20A30FDF757F9812131
:1036D0004DF20B30FDF752F900214DF20C30FDF7A1
:1036E0004DF9A6214DF20D30FDF748F900214DF2BC
:1036F0000E30FDF743F9E5214DF20F30FDF73EF9AD
:1037000001214DF21030FDF739F913214DF211303E
:10371000FDF734F901214DF21230FDF72FF9542154
:103720004DF21330FDF72AF901214DF21430FDF767
:1037300025F982214DF21530FDF720F901214DF2D6
:103740001630FDF71BF9CA214DF21730FDF716F9B7
:1037500002214DF21830FDF711F900214DF2193018
:10376000FDF70CF902214DF21A30FDF707F901219E
:103770004DF21B30FDF702F902214DF21C30FDF72E
:10378000FDF834214DF21D30FDF7F8F802214DF21D
:103790001E30FDF7F3F867214DF21F30FDF7EEF80C
:1037A00002214DF22030FDF7E9F884214DF221305D
:1037B000FDF7E4F802214DF22230FDF7DFF8A421F5
:1037C0004DF22330FDF7DAF802214DF22430FDF7F7
:1037D000D5F8B7214DF22530FDF7D0F802214DF292
:1037E0002630FDF7CBF8CF214DF22730FDF7C6F894
:1037F00002214DF22830FDF7C1F8DE214DF22930CB
:10380000FDF7BCF802214DF22A30FDF7B7F8F2219E
:103810004DF22B30FDF7B2F802214DF22C30FDF7BE
:10382000ADF8FE214DF22D30FDF7A8F803214DF241
:103830002E30FDF7A3F810214DF22F30FDF79EF842
:1038400003214DF23030FDF799F833214DF231303C
:10385000FDF794F803214DF23230FDF78FF86D211A
:103860004DF23330FDF78AF800214FF45440FDF754
:1038700085F8332100E081E34DF20140FDF77EF849
:1038800000214DF20240FDF779F834214DF203405A
:10389000FDF774F800214DF20440FDF76FF83A216E
:1038A0004DF20540FDF76AF800214DF20640FDF7A4
:1038B00065F84A214DF20740FDF760F800214DF20E
:1038C0000840FDF75BF85C214DF20940FDF756F822
:1038D00000214DF20A40FDF751F881214DF20B40D5
:1038E000FDF74CF800214DF20C40FDF747F8A621FA
:1038F0004DF20D40FDF742F800214DF20E40FDF76C
:103900003DF8E5214DF20F40FDF738F801214DF269
:103910001040FDF733F813214DF21140FDF72EF85A
:1039200001214DF21240FDF729F854214DF21340C8
:10393000FDF724F801214DF21440FDF71FF8822114
:103940004DF21540FDF71AF801214DF21640FDF732
:1039500015F8CA214DF21740FDF710F802214DF27B
:103960001840FDF70BF800214DF21940FDF706F85D
:1039700002214DF21A40FDF701F800E001E30121B8
:103980004DF21B40FCF7FAFF02214DF21C40FCF700
:10399000F5FF34214DF21D40FCF7F0FF02214DF2FE
:1039A0001E40FCF7EBFF67214DF21F40FCF7E6FFDE
:1039B00002214DF22040FCF7E1FF84214DF221402D
:1039C000FCF7DCFF02214DF22240FCF7D7FFA421D7
:1039D0004DF22340FCF7D2FF02214DF22440FCF7C8
:1039E000CDFFB7214DF22540FCF7C8FF02214DF273
:1039F0002640FCF7C3FFCF214DF22740FCF7BEFF66
:103A000002214DF22840FCF7B9FFDE214DF229409A
:103A1000FCF7B4FF02214DF22A40FCF7AFFFF22180
:103A20004DF22B40FCF7AAFF02214DF22C40FCF78F
:103A3000A5FFFE214DF22D40FCF7A0FF03214DF222
:103A40002E40FCF79BFF10214DF22F40FCF796FF14
:103A500003214DF23040FCF791FF33214DF231400C
:103A6000FCF78CFF03214DF23240FCF787FF6D21FC
:103A70004DF23340FCF782FF00214FF45540FCF734
:103A80007DFF33214DF20150FCF778FF00214DF20C
:103A90000250FCF773FF34214DF20350FCF76EFF28
:103AA00000214DF20450FCF769FF3A214DF2055018
:103AB000FCF764FF00214DF20650FCF75FFF4A213E
:103AC0004DF20750FCF75AFF00214DF20850FCF769
:103AD00055FF5C214DF20950FCF750FF00214DF2DB
:103AE0000A50FCF74BFF81214DF20B50FCF746FFCB
:103AF00000214DF20C50FCF741FFA6214DF20D5074
:103B0000FCF73CFF00214DF20E50FCF737FFE5219A
:103B10004DF20F50FCF732FF01214DF21050FCF72F
:103B20002DFF13214DF21150FCF728FF01214DF21A
:103B30001250FCF723FF54214DF21350FCF71EFFE7
:103B400001214DF21450FCF719FF82214DF215505E
:103B5000FCF714FF01214DF21650FCF70FFFCA21AC
:103B60004DF21750FCF70AFF02214DF21850FCF7F6
:103B700005FF00214DF21950FCF700FF02214DF224
:103B80001A50FCF7FBFE01214DF21B50FCF7F6FE2C
:103B900002214DF21C50FCF7F1FE34214DF21D5074
:103BA000FCF7ECFE02214DF21E50FCF7E7FE672108
:103BB0004DF21F50FCF7E2FE02214DF22050FCF7BF
:103BC000DDFE84214DF22150FCF7D8FE02214DF29A
:103BD0002250FCF7D3FEA4214DF22350FCF7CEFE79
:103BE00002214DF22450FCF7C9FEB7214DF22550B9
:103BF000FCF7C4FE02214DF22650FCF7BFFECF2198
:103C00004DF22750FCF7BAFE02214DF22850FCF786
:103C1000B5FEDE214DF22950FCF7B0FE02214DF237
:103C20002A50FCF7ABFEF2214DF22B50FCF7A6FE1A
:103C300002214DF22C50FCF7A1FEFE214DF22D5039
:103C4000FCF79CFE03214DF22E50FCF797FE10214D
:103C50004DF22F50FCF792FE03214DF23050FCF74D
:103C60008DFE33214DF23150FCF788FE03214DF2D9
:103C70003250FCF783FE6D214DF23350FCF77EFE8F
:103C800000214FF45640FCF779FE33214DF20160DC
:103C9000FCF774FE00214DF20260FCF76FFE342148
:103CA0004DF20360FCF76AFE00214DF20460FCF760
:103CB00065FE3A214DF20560FCF760FE00214DF2F1
:103CC0000660FCF75BFE4A214DF20760FCF756FEEA
:103CD00000214DF20860FCF751FE5C214DF20960B5
:103CE000FCF74CFE00214DF20A60FCF747FE8121F3
:103CF0004DF20B60FCF742FE00214DF20C60FCF728
:103D00003DFEA6214DF20D60FCF738FE00214DF27C
:103D10000E60FCF733FEE5214DF20F60FCF72EFE3E
:103D200001214DF21060FCF729FE13214DF21160C4
:103D3000FCF724FE01214DF21260FCF71FFE542116
:103D40004DF21360FCF71AFE01214DF21460FCF7EE
:103D500015FE82214DF21560FCF710FE01214DF297
:103D60001660FCF70BFECA214DF21760FCF706FE49
:103D700002214DF21860FCF701FE00214DF219609E
:103D8000FCF7FCFD02214DF21A60FCF7F7FD012162
:103D90004DF21B60FCF7F2FD02214DF21C60FCF7B6
:103DA000EDFD34214DF21D60FCF7E8FD02214DF2DE
:103DB0001E60FCF7E3FD67214DF21F60FCF7DEFD9E
:103DC00002214DF22060FCF7D9FD84214DF22160E3
:103DD000FCF7D4FD02214DF22260FCF7CFFDA421B7
:103DE0004DF22360FCF7CAFD02214DF22460FCF77E
:103DF000C5FDB7214DF22560FCF7C0FD02214DF253
:103E00002660FCF7BBFDCF214DF22760FCF7B6FD25
:103E100002214DF22860FCF7B1FDDE214DF2296050
:103E2000FCF7ACFD02214DF22A60FCF7A7FDF22160
:103E30004DF22B60FCF7A2FD02214DF22C60FCF745
:103E40009DFDFE214DF22D60FCF798FD03214DF202
:103E50002E60FCF793FD10214DF22F60FCF78EFDD4
:103E600003214DF23060FCF789FD33214DF23160C2
:103E7000FCF784FD03214DF23260FCF77FFD6D21DC
:103E80004DF23360FCF77AFD55212046FCF776FDB4
:103E9000AA213046FCF772FD52213846FCF76EFD30
:103EA00008214046FCF76AFD00214846FCF766FD04
:103EB000CC215846FCF762FD00214BF20110FCF7C3
:103EC0005DFD05215046FCF759FD70214FF4374048
:103ED000FCF754FD70214BF20170FCF74FFD0121FE
:103EE0004FF43840FCF74AFD03214BF60100FCF784
:103EF00045FD03214BF60200FCF740FD03214BF684
:103F00000300FCF73BFD02214FF43C40FCF736FD7B
:103F100000214BF60140FCF731FD00214BF6024039
:103F2000FCF72CFDD0214FF44940FCF727FD02217E
:103F30004CF60110FCF722FD50214CF60210FCF764
:103F40001DFD50214CF60310FCF718FD50214CF6D6
:103F50000410FCF713FD00214FF45450FCF70EFD44
:103F600055214FF46850FCF709FD4FF48850FCF7D9
:103F70008DFC782003F0A1FD4FF42450FCF786FC63
:103F8000FEE3A0F513414FF480744FF4E06840F273
:103F9000022940F23F164FF4274B253924D04FF425
:103FA000017A40F20777C91E7ED04FF41C5B0831BE
:103FB0007BD011397AD0A0F5A841083977D0A0F587
:103FC000A851053974D0B1F5204172D0B1F58051B6
:103FD00070D0A0F5094189396DD0A0F58A413139F9
:103FE0006AD0091F69D0CBE747F6F001E520FCF75E
:103FF000C5FC21460120FCF7C1FC41460220FCF72C
:10400000BDFC41F230010320FCF7B8FC0021042084
:10401000FCF7B4FC49460820FCF7B0FC002109205D
:10402000FCF7ACFC00210A20FCF7A8FC00210C20C6
:10403000FCF7A4FC00210D20FCF7A0FC00210F20C0
:10404000FCF79CFC00211020FCF798FC07211120B4
:10405000FCF794FC00211220FCF790FC00211320B7
:10406000FCF78CFC00210720FCF788FC41F29061F2
:104070001020FCF783FC40F227211120FCF77EFC86
:104080009D211220FCF77AFC4FF4C8511320FCF755
:1040900075FC25212920FCF771FC0D212B20FCF754
:1040A0006DFC0721302009E074E01DE1C1E193E2DD
:1040B0002EE3FDE3FDE3FDE3FDE3FDE3FCF75EFC42
:1040C00040F203313120FCF759FC03213220FCF788
:1040D00055FC40F206213520FCF750FC0821362023
:1040E000FCF74CFC40F206413720FCF747FC4FF44C
:1040F00041713820FCF742FC07213920FCF73EFCD7
:1041000040F202613C20FCF739FC08213D20FCF71D
:1041100035FC00215020FCF731FCEF215120FCF749
:104120002DFC00215220FCF729FC31465320FCF7DE
:1041300025FC59466020FCF721FC01216120FCF799
:104140001DFC00216A20FCF719FC00218020FCF7EF
:1041500015FC00218120FCF711FC00218220FCF7D6
:104160000DFC00218320FCF709FC00218420FCF7D2
:1041700005FC00218520FCF701FC10219020FCF7B4
:10418000FDFB4FF4C0619220FCF7F8FB40F23311C5
:104190000720FCE341F28F01EC20FCF7EFFB41F23A
:1041A0003421EF20FCF7EAFB21460120FCF7E6FB77
:1041B00041460220FCF7E2FB41F230010320FCF70C
:1041C000DDFB00210420FCF7D9FB49460820FCF761
:1041D000D5FB00210920FCF7D1FB00210A20FCF7C8
:1041E000CDFB01210C20FCF7C9FB00210D20FCF7C1
:1041F000C5FB00210F20FCF7C1FB00211020FCF7BC
:10420000BDFB07211120FCF7B9FB00211220FCF7B0
:10421000B5FB00211320FCF7B1FB01210720FCF7BF
:10422000ADFB322003F060FC41F290411020FCF71E
:10423000A5FB40F227211120FCF7A0FB322003F060
:1042400053FC8A211220FCF799FB322003F04CFC2E
:104250004FF4D0511320FCF791FB06212920FCF7E5
:104260008DFB0D212B20FCF789FB322003F03CFC59
:1042700000212020FCF782FB00212120FCF77EFB9F
:10428000322003F031FC00213020FCF777FB40F2B4
:1042900004613120FCF772FB40F205313220FCF75B
:1042A0006DFB00213520FCF769FB40F60941362003
:1042B000FCF764FB51463720FCF760FB40F201310C
:1042C0003820FCF75BFB39463920FCF757FB00210F
:1042D0003C20FCF753FB40F60A213D20FCF74EFB47
:1042E000322003F001FC3BE100210846FCF746FBCD
:1042F00021460120FCF742FB41460220FCF73EFB31
:1043000041F230010320FCF739FB00210420FCF7C7
:1043100035FB49460820FCF731FB00210920FCF75A
:104320002DFB00210A20FCF729FB01210C20FCF7C2
:1043300025FB00210D20FCF721FB00210F20FCF7BD
:104340001DFB322003F0D0FB40F201110720FCF7E7
:1043500015FB322003F0C8FB4FF486511020FCF708
:104360000DFB07211120FCF709FB4FF4887421464F
:104370001220FCF703FB4FF430611320FCF7FEFA28
:1043800000212920FCF7FAFA44F210012B20FCF757
:10439000F5FA00215020FCF7F1FAEF215120FCF74B
:1043A000EDFA00215220FCF7E9FA31465320FCF7E0
:1043B000E5FA59466020FCF7E1FA01216120FCF79B
:1043C000DDFA00216A20FCF7D9FA00218020FCF7F1
:1043D000D5FA00218120FCF7D1FA00218220FCF7D8
:1043E000CDFA00218320FCF7C9FA00218420FCF7D4
:1043F000C5FA00218520FCF7C1FA10219020FCF7B6
:10440000BDFA00219220FCF7B9FA01219320FCF7B4
:10441000B5FA21469520FCF7B1FA00219720FCF768
:10442000ADFA00219820FCF7A9FA40F27311072099
:104430007DE341F21401E720FCF7A0FA21460120B8
:10444000FCF79CFA4FF400710220FCF797FA41F256
:1044500038010320FCF792FA49460820FCF78EFA4F
:1044600000210920FCF78AFA00210A20FCF786FACD
:1044700000210C20FCF782FA00210D20FCF77EFAC7
:1044800000210F20FCF77AFA00211020FCF776FAC1
:1044900007211120FCF772FA00211220FCF76EFAB6
:1044A00000211320FCF76AFAC82003F01DFB41F23B
:1044B00090611020FCF762FA40F227211120FCF7EE
:1044C0005DFA322003F010FB0C211220FCF756FAA3
:1044D000322003F009FB4FF400611320FCF74EFA81
:1044E00011212920FCF74AFA0B212B20FCF746FA70
:1044F000322003F0F9FA00212020FCF73FFA314680
:104500002120FCF73BFA00213020FCF737FA4FF46A
:10451000837421463120FCF731FA00213220FCF768
:104520002DFA51463520FCF729FA41F20A6136206E
:10453000FCF724FA39463720FCF720FA21463820C8
:10454000FCF71CFA39463920FCF718FA40F2024110
:104550003C20FCF713FA40F60F413D20FCF70EFA21
:1045600000215020FCF70AFAEF215120FCF706FA4F
:1045700000215220FCF702FA31465320FCF7FEF9E5
:1045800059466020FCF7FAF901216120FCF7F6F9A1
:1045900000216A20FCF7F2F900218020FCF7EEF9F7
:1045A00000218120FCF7EAF900218220FCF7E6F9DE
:1045B00000218320FCF7E2F900218420FCF7DEF9DA
:1045C00000218520FCF7DAF910219020FCF7D6F9BC
:1045D0004FF4C0619220FDE321460120FCF7CEF9A3
:1045E00041460220FCF7CAF941F230010320FCF7F2
:1045F000C5F900210420FCF7C1F940F20721082089
:10460000FCF7BCF900210920FCF7B8F900210A20C9
:10461000FCF7B4F900210C20FCF7B0F900210D20C3
:10462000FCF7ACF900210F20FCF7A8F9142003F0E7
:104630005BFA41F2B0611020FCF7A0F901211120D2
:10464000FCF79CF901211720FCF798F94FF49C71B5
:104650001220FCF793F94FF400611320FCF78EF958
:1046600009212920FCF78AF909212A20FCF786F97B
:104670000021A420FCF782F900215020FCF77EF9EC
:10468000EF215120FCF77AF900215220FCF776F94E
:1046900031465320FCF772F959466020FCF76EF959
:1046A00001216120FCF76AF900216A20FCF766F914
:1046B00000218020FCF762F900218120FCF75EF9DF
:1046C00000218220FCF75AF900218320FCF756F9DB
:1046D00000218420FCF752F900218520FCF74EF9D7
:1046E00013219020FCF74AF900219220FCF746F9AB
:1046F00003219320FCF742F94FF488719520FCF7D1
:104700003DF940F273110720FCF738F9322010E12F
:1047100000210720FCF732F9322003F0E5F94FF4CD
:104720008E711220FCF72AF90121A420FCF726F94A
:104730000F210820FCF722F908210A20FCF71EF9B6
:1047400008210D20FCF71AF9BA4639463020FCF74B
:1047500015F907213120FCF711F940F203613220ED
:10476000FCF70CF9474641463320FCF707F9494668
:104770003420FCF703F902213520FCF7FFF800E0B4
:10478000FDE341F60F713620FCF7F8F8514637206B
:10479000FCF7F4F800213820FCF7F0F8002139206C
:1047A000FCF7ECF851463A20FCF7E8F800213B20F2
:1047B000FCF7E4F807213C20FCF7E0F800213D205D
:1047C000FCF7DCF8322003F08FF901210720FCF719
:1047D000D5F801211720FCF7D1F8322003F084F935
:1047E0004FF4BD511020FCF7C9F840F217211120F9
:1047F000FCF7C4F84FF48F711220FCF7BFF84FF4A8
:1048000070611320FCF7BAF800212A20FCF7B6F8F3
:104810000A212920FCF7B2F84FF49F711220FCF70F
:10482000ADF800215020FCF7A9F8EF215120FCF74A
:10483000A5F800215220FCF7A1F831465320FCF7DF
:104840009DF859466020FCF799F801216120FCF79A
:1048500095F800216A20FCF791F800218020FCF7F0
:104860008DF800218120FCF789F800218220FCF7D7
:1048700085F800218320FCF781F800218420FCF7D3
:104880007DF800218520FCF779F813219020FCF7B2
:1048900075F84FF440719220FCF770F805219320D1
:1048A000FCF76CF800219520FCF768F8002104E083
:1048B00042E03DE105E2B8E279E39720FCF75EF8DB
:1048C00000219820FCF75AF821460120FCF756F801
:1048D00039460220FCF752F841F238010320FCF778
:1048E0004DF800210420FCF749F800210C20FCF7CA
:1048F00045F800210F20FCF741F800212020FCF7AB
:104900003DF800212120FCF739F821210720FCF790
:1049100035F8142003F0E8F861210720FCF72EF8A1
:10492000142003F0E1F840F273110720FCF726F899
:10493000142003F0D9F82EE300210846FCF71EF8F6
:1049400000210846FCF71AF800210846FCF716F883
:1049500000210846FCF712F80121A420FCF70EF80C
:10496000142003F0C1F859466020FCF707F84F46C1
:1049700049460820FCF702F84FF405713020FBF798
:10498000FDFF43F215713120FBF7F8FF00E0CAE0AC
:1049900040F204613220FBF7F1FF40F6166133204C
:1049A000FBF7ECFF42F211213420FBF7E7FF4FF455
:1049B000A8513520FBF7E2FF48F207513620FBF7FC
:1049C000DDFF41F207413720FBF7D8FF41F20341F9
:1049D0003820FBF7D3FF20213920FBF7CFFF1A2126
:1049E0009020FBF7CBFF00211020FBF7C7FF07212A
:1049F0001120FBF7C3FF00211220FBF7BFFF0021AE
:104A00001320FBF7BBFF142003F06EF84FF4E661B0
:104A10001020FBF7B3FF40F237111120FBF7AEFF78
:104A2000142003F061F84FF4DC711220FBF7A6FFAD
:104A3000142003F059F84FF470611320FBF79EFF28
:104A400080212A20FBF79AFF48212920FBF796FFB7
:104A5000142003F049F821460120FBF78FFF41465F
:104A60000220FBF78BFF41F238010320FBF786FFA2
:104A700039460820FBF782FF00210A20FBF77EFF62
:104A800000210C20FBF77AFF00210D20FBF776FFB9
:104A900030210E20FBF772FF00215020FBF76EFF44
:104AA000EF215120FBF76AFF00215220FBF766FF40
:104AB00031465320FBF762FF59466020FBF75EFF4B
:104AC00001216120FBF75AFF00216A20FBF756FF06
:104AD00011219020FBF752FF4FF4C0619220FBF7A9
:104AE0004DFF40F202419320FBF748FF0221942042
:104AF000FBF744FF142002F0F7FF01210720FBF72A
:104B00003DFF142002F0F0FF61210720FBF736FF84
:104B100040F273110720FBF731FF00212020FBF743
:104B20002DFF00212120FBF729FF2221002030E268
:104B300000210846FBF722FF00210846FBF71EFF75
:104B4000142002F0D1FF00210846FBF717FF0021D7
:104B50000846FBF713FF00210846FBF70FFF002173
:104B60000846FBF70BFF0121A420FBF707FF1420E9
:104B700002F0BAFF59466020FBF700FF40F606013D
:104B80000820FBF7FBFE40F2037841463020FBF79C
:104B9000F5FE01213120FBF7F1FE04213220FBF765
:104BA000EDFE4FF481713320FBF7E8FE4FF44077C0
:104BB00039463420FBF7E2FE40F203113520FBF7C3
:104BC000DDFE1F213620FBF7D9FE41463720FBF7DB
:104BD000D5FE01213820FBF7D1FE04213920FBF757
:104BE000CDFE15219020FBF7C9FE4FF48261102005
:104BF000FBF7C4FE40F247211120FBF7BFFE4FF444
:104C0000DE711220FBF7BAFE4FF460611320FBF750
:104C1000B5FE782002F068FF21460120FBF7AEFECA
:104C20004FF400710220FBF7A9FE41F2300103208E
:104C3000FBF7A4FE08210A20FBF7A0FE00210C20B0
:104C4000FBF79CFE20210E20FBF798FE00210F2091
:104C5000FBF794FE00212020FBF790FE002121208D
:104C6000FBF78CFE3D212A20FBF788FE142002F082
:104C70003BFF2D212920FBF781FE00215020FBF76F
:104C80007DFE4DF2EF015120FBF778FE002152200E
:104C9000FBF774FE31465320FBF770FE00216120C4
:104CA000FBF76CFE00216A20FBF768FE3946922074
:104CB000FBF764FE05219320FBF760FE2146FFF71A
:104CC000B6BB01210020FBF759FE4AF6A4010320E0
:104CD000FBF754FE00210C20FBF750FE40F60C01C0
:104CE0000D20FBF74BFE4FF42C510E20FBF746FE38
:104CF000B0211E20FBF742FE42F63F310120FBF7B8
:104D00003DFE4FF4C0610220FBF738FE0021102069
:104D1000FBF734FE46F278011120FBF72FFE00214D
:104D20000520FBF72BFE00210620FBF727FE4EF6A1
:104D30001C711620FBF722FE03211720FBF71EFE35
:104D400040F233210720FBF719FE00210B20FBF76F
:104D500015FE00210F20FBF711FE00214120FBF77B
:104D60000DFE00214220FBF709FE00214820FBF741
:104D700005FE31464920FBF701FE00214A20FBF7E2
:104D8000FDFD00214B20FBF7F9FD4FF46F4144205E
:104D9000FBF7F4FD00214520FBF7F0FD31464620EE
:104DA000FBF7ECFD39463020FBF7E8FD5446514651
:104DB0003120FBF7E3FD21463220FBF7DFFD40F217
:104DC000025631463320FBF7D9FD711D3420FBF725
:104DD000D5FD00E08EE121463520FBF7CFFD2146D1
:104DE0003620FBF7CBFD31463720FBF7C7FD40F2FD
:104DF000023421463A20FBF7C1FD21463B20FBF758
:104E0000BDFD00212320FBF7B9FD00212420FBF785
:104E1000B5FD4FF400412520FBF7B0FD00214F20E8
:104E2000FBF7ACFD00214E20B3E001210020FBF791
:104E3000A5FD0A2002F058FE41F228611020FBF780
:104E40009DFD0E211220FBF799FD40F6392113201C
:104E5000FBF794FD0A2002F047FE40211120FBF7EA
:104E60008DFD50211520FBF789FD0A2002F03CFE44
:104E70001E211220FBF782FD0A2002F035FE4FF4BE
:104E8000B1511020FBF77AFD42F639211320FBF7D0
:104E900075FD0A2002F028FE21460120FBF76EFD79
:104EA0004FF440710220FBF769FD41F23801032005
:104EB000FBF764FD49460820FBF760FD08210A2046
:104EC000FBF75CFD00213020FBF758FD40F202416A
:104ED0003120FBF753FD4FF483713220FBF74EFD79
:104EE00040F203513320FBF749FD4FF48271342027
:104EF000FBF744FD40F201313520FBF73FFD394619
:104F00003620FBF73BFD40F205313720FBF736FD3D
:104F10004FF402713820FBF731FD40F60B71392058
:104F2000FBF72CFD02214120FBF728FD59466020AC
:104F3000FBF724FD01216120FBF720FD4FF40471F4
:104F40009020FBF71BFD4FF485719220FBF716FDB7
:104F500004219320FBF712FD2146A020FBF70EFD54
:104F600001210720FBF70AFD21210720FBF706FDA1
:104F700023210720FBF702FD3321072000E00AE090
:104F8000FBF7FCFC40F233110720FBF7F7FC002194
:104F9000A020FBF7F3FC0120FCF74DFBFE490120AC
:104FA000C1F8A8012846FCF72DFEBDE8F88F302196
:104FB0001520FBF7E3FC10219A20FBF7DFFC2021F2
:104FC0001120FBF7DBFC43F228411020FBF7D6FC55
:104FD00002211220FBF7D2FC41F238011320FBF72B
:104FE000CDFC282002F080FD12210846FBF7C6FC0C
:104FF000282002F079FD43F220411020FBF7BEFC8F
:1050000043F238011320FBF7B9FC462002F06CFD97
:1050100000213020FBF7B2FC40F202413120FBF7C7
:10502000ADFC40F207313220FBF7A8FC4FF4417190
:105030003320FBF7A3FC04213420FBF79FFC40F254
:1050400001413520FBF79AFC39463620FBF796FCE8
:1050500040F205313720FBF791FC4FF4C266314630
:105060003820FBF78BFC31463920FBF787FC2146C3
:105070000120FBF783FC4FF440710220FBF77EFC1C
:1050800041F230010320FBF779FC40F608010820CB
:10509000FBF774FC08210A20FBF770FC59466020DE
:1050A000FBF76CFC01216120FBF768FC4FF49F715A
:1050B0009020FBF763FC21469220FBF75FFC214622
:1050C0009320FBF75BFC4FF44051A020FBF756FC0C
:1050D0001021A320FBF752FC01210720FBF74EFC17
:1050E00021210720FBF74AFC23210720FBF746FC80
:1050F00033210720FBF742FC40F23311DFE52DE9B5
:10510000F84FA64C99468246A388A3F5D0400438B0
:1051100002D1A07901280AD0A2EB0A00401CA04EBF
:105120001FFA80F80D464FF4807B77153EE0238808
:105130000846991A0025A5712A2565812B26A3EB1F
:105140000A03A681491E5B1E0A9F89B24A469BB28A
:105150000097FFF7D4FF0120A0716681A58124E7A5
:1051600029465046FBF75CFCFBF72FFC002419E0B6
:105170005946304602F035FF3946304602F033FFDB
:1051800088480A9902F036FF8021304602F02BFF52
:105190008021304602F025FF3946304602F021FFDB
:1051A000641CA4B24445E3D36D1CADB24D45D7D9C0
:1051B000FBE62DE9FF5F89460098DDF838B0101A4C
:1051C000401C86B2A3EB0900401C1FFA80FA0025A0
:1051D0002EE009EB050081B20098FBF721FCFBF7FC
:1051E000F4FB00246E4F4FF400781DE04FF4807103
:1051F000384602F0F6FE4146384602F0F4FE05FB62
:10520000064168483BF8111002F0F4FE8021384650
:1052100002F0E9FE8021384602F0E3FE41463846BE
:1052200002F0DFFE641CA4B2B442DFD36D1CADB249
:105230005545CED3BDE8FF9F2DE9FE4F0026A2EBDA
:10524000000882465F1A701E35468946B8F1000F85
:1052500002DD4FF0010102E003D14FF000010191A6
:1052600002E0C8F100080190002F02DD4FF00100BC
:1052700002E003D14FF00000009002E0C7F1000708
:1052800000904046B84501DD044600E03C46601C05
:105290004FF0000B029015E01FFA89F11FFA8AF017
:1052A000FCF76CF846443D44A64202DD0199361BEA
:1052B0008A44A54202DD00992D1B89440BF10100AF
:1052C0001FFA80FB02998B45E6DDBDE8FE8F2DE9D4
:1052D000F0411C4615460E4607460B46FFF7ACFF4D
:1052E0003A46234631461046FFF7A6FF23462A4694
:1052F00019463846FFF7A0FF2A4623463146BDE847
:10530000F041104698E72DE9FC5F804600241546E1
:1053100003200F46A0EB450661E0A7EB0409A8EBCC
:10532000050A1FFA89F11FFA8AF0FCF727F808EB43
:10533000050001901FFA89F180B2FCF71FF8781977
:1053400081B2A8EB040B00901FFA8BF0FCF716F863
:105350001FFA89F11FFA8AF0FCF710F8A7EB05098C
:105360001FFA89F11FFA8BF0FCF708F8019807EB98
:10537000040B1FFA8BF180B2FCF700F81FFA89F1D9
:1053800008EB04091FFA89F0FBF7F8FF009881B2D7
:105390001FFA89F008E0000000002242F405002016
:1053A00000100140000C0140FBF7E8FF1FFA8BF1F1
:1053B0001FFA8AF0FBF7E2FF641C002E03DA06EB0B
:1053C0008406B61D04E0601B06EB80066D1E0A36DF
:1053D000781981B208EB040080B2FBF7CFFFAC4232
:1053E0009BDDBDE8FC9F2DE9F84F81461E460F4628
:1053F0008B46580700D0012000EBD60071084843C7
:10540000203AC0B202F0FF0A0025009041E00C2EC5
:1054100010D0102E12D0182E3ED176490AEBCA00B9
:1054200001EB80004FF00008445D20060AD5724869
:1054300002880BE00AEB4A007049F1E7704901EB82
:105440000A10EFE70A9828B96B484288394648465F
:10545000FBF7B7FF6006040E6A487F1CBFB20188E5
:10546000494519D9A7EB0B00B04209D109F1010058
:105470001FFA80F963485F46018849450CD906E068
:1054800008F1010000F0FF08B8F1080FCDD36D1C42
:10549000EDB200988542BAD387E50346012000E0CB
:1054A0005843491EC9B2FBD270472DE9FF4F81B066
:1054B0000027DDF838B01D46924680463C46B94686
:1054C0004FEA5B0627E0281B401EC1B20A20FFF707
:1054D000E4FFBAFBF0F00A21B0FBF1F201FB12008D
:1054E00027B9691E8C4201DA48B101273030C2B2B7
:1054F00006FB048080B25B46CDF8009006E006FB18
:10550000048080B25B462022CDF800900299FFF71C
:105510006AFF641CE4B2AC42D5D305B0BDE8F08F9D
:105520002DE9FF4F81B08046DDF83CA00E984FF08A
:1055300000091F4693464C460AF0010546082BE039
:10554000381B401EC1B20A20FFF7A7FFBBFBF0F0DB
:105550000A21B0FBF1F201FB1200B9F1000F05D1F5
:10556000791E8C4202DA48B14FF001093030C2B2E4
:1055700006FB048080B200950E9B08E05FEA0A609B
:1055800006FB04800E9B80B2009508D5302202995C
:10559000FFF729FF641CE4B2BC42D1D3BDE720224F
:1055A000F5E72DE9F84F044600F0FF0810190D4605
:1055B000DDE90A761FFA80FA58191FFA80F94FF0D0
:1055C000000B11E0544502D3E819444685B24D451D
:1055D0000FD23B4629462046CDF800B0FFF703FF27
:1055E00004EB570084B2761C3278A2F120005E28CA
:1055F000E8D9DAE41074020818000020AC69020847
:10560000206E0208F405002008B50121102002F0E8
:1056100066FE4FF4C050ADF8000010208DF8030076
:1056200003208DF8020069467F4802F070FC7F4835
:105630000121C0F8B011C0F8AC1108BD70B57A48AE
:10564000416821F470414160416841F4405141603A
:10565000764C0120C4F8AC01C4F8B001042004F574
:10566000D67402F02AFA00252560042002F025FAFB
:10567000656070BD6C4810B5416821F470414160AF
:10568000416841F440514160684C0020C4F8B001C9
:10569000C4F8AC01042004F5D67402F00EFA01201F
:1056A00060602060BDE81040042002F006BA70B5CA
:1056B0005D480024416821F470414160416841F433
:1056C00000414160594D0126C5F8AC61304602F0F9
:1056D000F4F9C5F8B061012002F0EFF907E0641CAD
:1056E000E4B2FA2C03D9FFF7C5FF012070BDD5F84D
:1056F0002C010028F3D1C5F8B00170BD70B54B4C3A
:105700000025C4F8B0514848416821F47041416017
:10571000416841F440514160C4F8AC51022004F5A5
:10572000D67402F0CAF901206060022002F0C5F9C7
:10573000656070BD70B53D4C0026C4F8B0613A4854
:10574000416821F470414160416841F44051416039
:105750000125C4F8AC51022004F5D67402F0ADF96D
:105760006560022002F0A9F9666070BD2DE9F04184
:1057700005462D48416821F470414160416841F47B
:1057800040514160294E0027C6F8B0713C464FF0A9
:105790000108E809C6F8AC016806050E022002F00F
:1057A0008CF9C6F8B081022002F087F9C6F8B07112
:1057B000022002F082F9641CE4B2082CE9D3BDE8AF
:1057C000F0812DE9F047814617480024416821F413
:1057D00070414160416841F400414160134E2546EB
:1057E00027464FF00108C6F8B071022002F065F9B3
:1057F000C6F8B0816006040ED6F82C0108B1641C0E
:10580000E4B2012002F059F96D1CEDB2082DEAD383
:10581000B9F1000F04D0FFF771FF2046BDE8F08713
:10582000FFF788FFF9E70000001001400000224266
:10583000FFF7EABE10B50446FFF700FF200AA021DB
:1058400001EB4000C0B2FFF791FFFFF730FFE0B27D
:10585000FFF78CFFFFF72BFFFFF7F0FEA120FFF70C
:1058600085FFFFF724FF0020FFF7ABFF0446FFF79B
:1058700001FF204610BD70B50D460446FFF7DEFE61
:10588000200AA02101EB4000C0B2FFF76FFFFFF735
:105890000EFFE0B2FFF76AFFFFF709FF2846FFF7A8
:1058A00065FFFFF704FFFFF7E5FEBDE870400A2043
:1058B00002F01AB92DE9F04116460D4607460024BC
:1058C00009E0E00025FA00F0C1B2381980B2FFF714
:1058D000D2FF641CE4B2B442F3D3BDE8F0812DE9F9
:1058E000F0410D460146002004464E1908E007022B
:1058F000301B401E80B2FFF79DFF641C3844E4B2A9
:10590000AC42F4D3E9E710B5FF20FFF793FF552829
:105910000AD05521FF20FFF7AEFFFF20FFF78AFFD7
:10592000552801D0012010BD002010BD70B51546CE
:105930000E46044608E02046641CA4B2FFF77AFF36
:105940006D1E06F8010BADB2002DF4D170BD70B51F
:1059500014460D46064606E029783046FFF78BFFD1
:10596000761CB6B26D1C641EA4B2F5D270BD0000E8
:1059700070B506460024334D03E0641CE4B2C82C25
:105980000FD80221284602F005FE0028F5D0314646
:10599000284602F0BBFD002405E0641CE4B2C82CDC
:1059A00001D9002070BD0121284602F0F3FD002836
:1059B000F3D0284602F0ACFDC0B270BD38B501216D
:1059C00041F2040002F08BFCE020ADF8000018204A
:1059D0008DF8030003201C4C8DF802006946204618
:1059E00002F095FAE021204602F0FBFA1748002168
:1059F0004FF482720180428081800222C2800122A3
:105A000002815202428138228281C18107210182B2
:105A10000C4C0146204602F0D5FC0121204602F044
:105A20004DFDFF20FFF7A4FF38BD06490A8822F08C
:105A300038020A800A8802430A80088840F0400041
:105A40000880704700300140000801400206002035
:105A50000A2002F032B88348816941F01001816167
:105A6000814801684FF20F0291430160016843F2DF
:105A7000030211430160C16841F00201C160C168C5
:105A800041F00801C160704770B57748016821F4A2
:105A900070410160016841F440510160734C012084
:105AA000C4F88C01C4F880010A2004F5C07402F027
:105AB00004F80025E5600A2001F0FFFF256070BDB5
:105AC00070B56948016821F470410160016841F4D2
:105AD00040510160654C0020C4F88001C4F88C017D
