:020000040800F2
:10000000F8A70020B17D000845010008470100085D
:10001000490100084B0100084D01000800000000E4
:100020000000000000000000000000004F01000878
:1000300051010008000000005301000855010008AC
:1000400011620008CB7D0008CB7D0008CB7D000845
:10005000CB7D0008CB7D00089B610008CB7D0008AC
:10006000BF600008CB7D0008CB7D0008CB7D000879
:10007000CB7D0008CB7D0008CB7D0008CB7D000840
:10008000CB7D0008CB7D0008CB7D0008CB7D000830
:10009000CB7D0008CB7D0008CB7D0008CB7D000820
:1000A000CB7D0008CB7D0008CB7D0008CB7D000810
:1000B000FB58000803580008CB7D0008CB7D0008E2
:1000C000CB7D0008CB7D0008CB7D0008CB7D0008F0
:1000D000CB7D0008497D0008CB7D0008CB7D000862
:1000E000CB7D0008CB7D0008CB7D0008CB7D0008D0
:1000F000CB7D0008CB7D0008CB7D0008CB7D0008C0
:10010000CB7D0008CB7D0008CB7D0008CB7D0008AF
:10011000CB7D0008CB7D00087F580008CB7D000810
:10012000CB7D0008CB7D0008CB7D0008CB7D00088F
:10013000DFF80CD008F0E6FD00480047A11F0008DA
:10014000F8A700207047FEE7FEE7FEE7FEE77047EE
:1001500070477047704700000CB500214B48019173
:100160000091026842F4803202604FF4A06302689A
:1001700002F400320092019A521C0192009A12B9C4
:10018000019A9A42F3D10268920333D5012100917A
:100190003F490A6842F010020A600A6822F003022E
:1001A0000A600A6842F002020A60416841604168E0
:1001B0004160416841F480614160416821F47C11F3
:1001C0004160416841F4E8114160016841F080718B
:1001D000016001688901FCD5416821F0030141609B
:1001E000416841F0020141604168C1F38101022987
:1001F000FAD10CBD00910CBD244810B5016841F046
:10020000010101604168234A114041600168224AAE
:1002100011400160016821F480210160416821F4EE
:10022000FE0141604FF41F018160FFF795FF1B49FC
:100230004FF00060086010BD144910B54868184AB6
:1002400010F00C03174803D0042B01D0082B0AD060
:1002500002604968134AC1F30311121D515C026820
:10026000CA40026010BD4A684B6802F470124FF039
:10027000020413F4803F04EB924202D04B689B03CC
:1002800001D5094B00E0064B5A43E1E7001002405C
:10029000002002400000FFF8FFFFF6FE08ED00E03E
:1002A00000127A000000002000093D002DE9FF4700
:1002B000FE4C81462668354611F04CFD80460EF016
:1002C0006DFF21684F4200EB47040EF05BFF00EB2F
:1002D000470200230227CDE90293CDE90087234698
:1002E0002946304611F06CFBF149486104B0BDE885
:1002F000F0873EB5144611F043FD054611F001FDAF
:10030000EC49884204D12146284609F06BFB3EBDEA
:10031000E94988420AD14CB12246E8A168461AF060
:10032000A1FE6946284609F0A9FD3EBDE449884280
:10033000FBD12146284610F063FD3EBD38B511F0D3
:100340001FFD044611F0DDFCDD49884203D1204643
:1003500010F0DAFC11E0D749884203D1204609F0B9
:10036000E6FA0AE0D449884208D1042269462046C8
:1003700009F0E8FC684608F024FAC0B238BD10B5B0
:100380004FF4A871FFF7DAFFCE49487010BDCD4990
:100390004A784FF4A871ACE770B505464FF4807108
:1003A000FFF7CCFFC74C4FF4A87120712846FFF728
:1003B000C5FF60710026A671E6712672607840F272
:1003C0000111012812D002280FD12846FFF7B6FFED
:1003D000A0714FF481712846FFF7B0FFE07140F241
:1003E00051112846FFF7AAFF207270BD2846FFF77B
:1003F000A5FFA071E671267270BD70B5B14C0546BF
:100400004FF480712279FFF774FF62794FF4A8717D
:100410002846FFF76EFF607840F20111012812D0E4
:10042000022812D1A2792846FFF763FFE2794FF440
:1004300081712846FFF75DFF227A40F2511128466C
:10044000BDE8704055E7A279F9E770BD70B59D4CE5
:10045000974B054662781C3340F2651101F07AFC37
:1004600022794FF481712846FFF743FF904B627960
:100470004E334FF4B371284601F06CFCA27940F280
:1004800003112846FFF735FFE2794FF482712846C1
:10049000FFF72FFF864B227A3A3340F26711284646
:1004A00001F058FC627A4FF480712846FFF721FF73
:1004B000A27A2846BDE8704040F2011119E72DE903
:1004C000F0410C460546FFF767FF2146284611F02C
:1004D00057FC774D07467B4C0020E860607801268A
:1004E000A8B101280AD002281AD1E07908B114284D
:1004F00004D975A1384609F0C1FCEE60A07908B1B5
:10050000142804D970A1384609F0B8FCEE602079AF
:1005100008B1322804D96CA1384609F0AFFCEE606E
:10052000BDE8F0817FB5D0E900140F2902D008F0B2
:1005300097FC7FBD01A811F0F1FB042203A920461E
:1005400008F088FE204608F088FE05246FF07F45FD
:1005500008B15E4E00E05E4E30460CF0F9FC0094AF
:10056000BDF90A30BDF90820BDF90610BDF9040037
:100570000BF078FD30460CF0E9FC28460CF0E8FC66
:1005800054480CF005FD0E2201A903A80BF08AFACD
:100590007FBD2DE9F04385B04FF0000CDDE90F463B
:1005A000DDE90C754FF00208DDF838908DE8801118
:1005B000CDE9035408F0F2FC05462246494608F00E
:1005C000D3FE284612F02AFA3146284612F01CF9CA
:1005D0000021284608F05EFE284605B0BDE8F083FD
:1005E0002DE9F043D0E9001485B04FF4BB7940F217
:1005F000791701290CD000252D4C0E297AD00F290E
:1006000079D0262978D005B0BDE8F04311F086BA3C
:1006100032A04FF4B8710094CDE901102E4D02269E
:10062000CDE903651E23282205210020FFF7B1FF35
:100630002BA040F271110094CDE90110CDE90365C2
:1006400028221E2305211046FFF7A3FF25A04FF403
:10065000B9710094CDE90110CDE903651E2328226C
:1006600005215020FFF795FF1FA040F27311009461
:10067000CDE90110CDE903651E232822052178204C
:10068000FFF787FF19A04FF4BA710094CDE901106C
:10069000CDE903651E2328220521A020FFF779FF5D
:1006A000B2024FF0040812A11E2326E00CA7030893
:1006B0001400002017940008C59B00082575000051
:1006C0008B0A010808070020657272004040400054
:1006D0008080FF00507003082505000830000000EE
:1006E0003100000032000000330000003400000040
:1006F000596573005DE063E06AE00094CDE9012193
:10070000CDE9038528220521C820FFF742FF0DF11E
:10071000040CFDA140F27510049500948CE8430090
:1007200028221E2311460020FFF733FFF7A1CDE951
:1007300002162822CDE900491E23049511461046D1
:10074000FFF727FFF2A040F277110094CDE90110E6
:10075000CDE9036528221E2311465020FFF719FF1B
:10076000ECA04FF4BC710094CDE90110CDE9036514
:1007700028221E2311467820FFF70BFFE6A0CDE9C3
:100780000206CDE9004728221E2311460495A02029
:10079000FFF7FFFEE1A140F601020094CDE901213F
:1007A000CDE9038528221E231146C820FFF7F1FE5C
:1007B00013E7C06800681728FAD101F0C2FA53E0C5
:1007C000D7480CF0C3FB05B0BDE8F0430AF05ABFB0
:1007D000C1680229ECD1806811F003FB484533D091
:1007E00008DCA0F5B8700628E2D2DFE800F01B1E96
:1007F0002124272AA0F27911B8422BD006DC881CCC
:1008000025D00128D4D10121382006E0A1F5C0610E
:10081000873922D00129CBD1082005B0BDE8F043AB
:100820000CF04ABB01213020F7E701213120F4E729
:1008300001213220F1E701213320EEE701213420AC
:10084000EBE701213520E8E701213620E5E701212A
:100850003720E2E701213920DFE7A1686069FFF76F
:100860002EFEA06911F08EF9A561B6E6F0B585B04F
:100870000E46054611F084FAAA4C0746042204A944
:10088000A66009F05FFAAFF2C01104A807F075FF87
:1008900018B9A5A1384609F0F1FA0EF073FCA34986
:1008A000A34A022309680095494200EB41006FF01A
:1008B0007C0101EB600000210391CDE90132462368
:1008C000F022AA2111F07CF8A06111F075FE05B0AC
:1008D000F0BD70B50D4606460221964808F0AEFC04
:1008E000944C0221204626606660A6606661A6617F
:1008F000E660266108F0EEFC0121204608F0EAFCE3
:1009000025606560A5606561A561E560204625619B
:10091000BDE87040002108F0DDBC70B50646854892
:100920000D460221203009F00FF8824C02212034BC
:10093000204626606660A6606661A661E660266164
:1009400009F074F80121204609F070F8256065600F
:10095000A5606561A561E56020462561BDE8704040
:10096000002109F063B870B5054672480C460021B5
:100970004C300FF031FF6F4A4C3200219560D5604A
:1009800015609461D461146155605461BDE8704094
:1009900010460FF053BF2DE9F041054665480E465D
:1009A00017460021743010F0A3F9624C0021743412
:1009B000204625606560C4E902560C26266110F0C9
:1009C000D7F9256026616560C4E902572046BDE875
:1009D000F041012110F0CCB910B5D0E9001486B077
:1009E0000F2903D008F03CFA06B010BD1422694666
:1009F000204608F02FFC204608F02FFC78B16FF05D
:100A00007F400CF0A3FAB0200CF064FA00221146EB
:100A100068460BF0F7F800200CF05CFAE4E70022DF
:100A2000114668460BF0EEF8DEE72DE9FF4100279E
:100A3000DDE90BC50A9C02268DE8D01008F07EFA8D
:100A400004463D4908F02EFC2946204608F050FC9B
:100A5000344800210269204608F072FC002120463B
:100A600008F018FC204604B05AE5F0B585B00AAF8E
:100A70004FF0020C97E87000CDE9004C0027029778
:100A8000CDE9035610F006FC04462B4910F07EFC1D
:100A90002448016905B02046BDE8F04010F0ADBC27
:100AA000F0B585B00027DDE90CE5DDE90A4C02264A
:100AB0008DE8D05009F0EDF80446204909F0CEF950
:100AC0000221204609F03AFA1849204610F061FD4B
:100AD0002946204609F0BAF92046F8E62DE9F04308
:100AE00087B00024DDE91095DDE90E764FF01E0C8D
:100AF000CDF814C00294CDE903650226CDE9007655
:100B000010F01CF806461BE035000000360000001F
:100B100037000000380000003900000044656C0018
:100B2000D3D3D30014000020000000000CA703085A
:100B3000E105000828070020904E0308988003086C
:100B4000FD4910F0FFF8FD480169304610F042F908
:100B500009E000BF04EB840109EB41012246304665
:100B600010F014F9641CAC42F4DB304607B035E5F4
:100B700001680F2901D010F0D1BF70472DE9FC4763
:100B8000EE48EF4EEF4F0078EF4DF04C4FF47F48BA
:100B90006FF07F4918B101280DD002284FD00EF018
:100BA000FDFA82460EF0EEFA421ECDE900760021F3
:100BB0005346084608E00EF0F1FA06460EF0E2FA57
:100BC000421EE349E34842E00BF094F829462046F0
:100BD000FFF77FFE29462046FFF79FFE214640464D
:100BE000FFF7C1FE4A4600212046FFF7D4FE20460B
:100BF0000CF0AEF905208201002100901E2308466A
:100C00000BF030FAD4480CF0A3F9D4480CF0C0F93A
:100C100002200CF0FFF907220021D1A00AF020FFEA
:100C200007224FF48771D4480AF0ECFF02B0072284
:100C3000BDE8F0474FF49171D0480AF0E3BF0EF0E1
:100C4000ADFA06460EF09EFA421ECD49CD48CDE9DA
:100C50000001002133460846B6E72DE9F04F07466C
:100C6000406839680026B54C85B005464FF4047AD3
:100C70004FF47A7B01290DD00E2977D00F2979D036
:100C8000A1F58071133944D005B03846BDE8F04F66
:100C900010F044BF11F04CFE0EF074FABA49BBA23A
:100CA0004FF4B07309680296CDE903324F424FF01A
:100CB000020800EB47016FF04509CDE9005809EB48
:100CC00061001423C822782110F0E4FAB24910F030
:100CD0005DFB0EF057FA00EB4701CDE90058CDE976
:100CE000026A09EB61002823822296210FF0CDFCD5
:100CF000064600235A461946284610F037FEA748F4
:100D000000210279627005B03046BDE8F04F0FF067
:100D10007BBD514611F034F8A14D80462878FF285C
:100D200003D02878102804D009E000229DA19FA0BC
:100D300002E000229BA1A0A00BF0D8FF2E7004F0CF
:100D40007BFF607870B1401E60706168481C606015
:100D500040460FF07FFDF86805B05946BDE8F04FFA
:100D600011F004BD00F0EDFF0120606005B0BDE8AA
:100D7000F08FFFE705B0BDE8F04FFFE670B5D0E9B2
:100D8000001486B04FF4B87601290AD00E2968D035
:100D90000F296BD026296DD006B0BDE8704010F049
:100DA000BDBE204611F0C4FD0EF0ECF976491422C8
:100DB000884B0968CDE902324D4200EB45007821AD
:100DC00001EB60008249CDE9004604911E231A46DA
:100DD000C821FFF7DEFB0EF0D5F97FA14FF4B97201
:100DE0000094CDE9012100EB45006FF0590606EBB8
:100DF0006000282346223C21FFF717FE0EF0C2F9BF
:100E000079A140F273120094CDE9012100EB450075
:100E10004010282346223C21FFF707FE0EF0B2F9CE
:100E200075A14FF4BA720094CDE9012100EB4500A1
:100E300006EB6000282346226E21FFF7F6FD0EF038
:100E4000A1F971A140F275120094CDE9012100EBE6
:100E500045004010282346226E21FFF7E6FD06B02C
:100E600070BDC06800681728F9D123E006B0BDE85E
:100E7000704083E6C1680229F1D1806810F0B1FFAB
:100E8000B04217D02D4CA0F580706FF07F417338C1
:100E900015D00128E3D108460CF058F80AF0F2FB0F
:100EA00004F041FA04F035F9606906B0BDE870401D
:100EB00011F02BBB06B0BDE8704000F042BF2078B7
:100EC000401CC2B200202270022A00D92070227871
:100ED0001AB1012A01D0022A01D0206100E021616B
:100EE00000F02FFF06B04C48BDE87040FFF7DEB9B8
:100EF0002DE9F041D0E90014284D86B04FF00408E8
:100F000001290AD00E2914D00F2913D0262912D076
:100F100006B0BDE8F04110F001BE204611F008FD1A
:100F20000EF030F9184909684E4200EB460078216E
:100F300074E0F4E0FCE0FFE0904E030814000020B1
:100F400048556300B7BABE008080FF00D3D3D300FA
:100F50009191F70091B6F70040404000CC5D030846
:100F6000E6898BE68C81E992BBE5BA8AE68EA7E535
:100F700088B6E599A8000000303C0308B8270308AC
:100F80005941E100DDA0DD000CA703084472696C43
:100F90006C696E672E2E2E009880030808070020CB
:100FA000DD0000206572726F7200000053656E6490
:100FB000206572726F72210053656E6420657272D3
:100FC0006F72204D617820726573656E6421000038
:100FD000D9090008DC350308E8838CE58589E8B089
:100FE00083E695B400000000E69BB4E68DA2E9A379
:100FF0008EE6A0BC00000000E5B18FE5B995E6A043
:10100000A1E5878600000000E695ACE8AFB7E69C56
:101010009FE5BE85000000007D0D00081422FD4BF9
:10102000CDE9023201EB60004FF4B877F849CDE921
:10103000004704911E231A46C821FFF7AAFA0EF0B2
:10104000A1F8F5A14FF4B9720094CDE9012100EBAC
:1010500046006FF0810707EB6000282346223C2101
:10106000FFF7E3FC0EF08EF8EFA140F2731200944C
:10107000CDE9012100EB460007EB60002823462262
:101080006E21FFF7D2FC0EF07DF8EBA14FF4BA729F
:101090000094CDE9012100EB46006FF0270707EB34
:1010A0006000282346223C21FFF7BFFC0EF06AF8BF
:1010B000E5A140F275120094CDE9012100EB460054
:1010C00007EB6000282346226E21FFF7AEFC0EF0EE
:1010D00059F8E1A14FF4BB720094CDE9012100EB76
:1010E0004600322707EB6000282346223C21FFF709
:1010F0009CFC0EF047F8DCA140F277120094CDE999
:10110000012100EB460007EB6000282346226E21F8
:10111000FFF78BFC85F8008006B0BDE8F081C06861
:1011200000681728F8D106B0BDE8F04100F009BE0C
:1011300006B0BDE8F04121E5C16802291DD18068F3
:1011400010F04FFEA0F5B870082811D2DFE800F0CB
:10115000041007090C0E181A00F0F3FD08E0012036
:1011600000E00220687303E00320FBE785F80D80B0
:1011700004F08DFDC04804F04FFD00206873CBE7FC
:101180000520EFE70620EDE72DE9F04FBB490646C5
:1011900085B0D6E9000509684FF0000B4C424FF4CA
:1011A000FA786FF08B070F287DD004DC01280ED071
:1011B0000E2806D1A0E1262876D0A0F5807013383D
:1011C00073D005B03046BDE8F04F10F0A7BC2846FC
:1011D00011F0AEFB002342461946284610F0C6FB2C
:1011E0000DF0D0FF00EB440107EB6100A4A14FF428
:1011F000B0720095CDE90121B8461423412228217F
:10120000FFF733FC0DF0BEFF00EB44016FF0270940
:1012100009EB61009EA140F261120095CDE9012128
:10122000142341222821FFF720FC0DF0ABFF00EB37
:10123000440108EB61009AA14FF4B1720095CDE929
:101240000121142341225A21FFF70FFC0DF09AFFD0
:1012500000EB440109EB610093A140F26312009599
:10126000CDE90121142341225A21FFF7FEFB0DF0A5
:1012700089FF00EB44014FF03C0A0AEB61008EA2AB
:101280004FF4B2710095CDE90112142341222821B7
:10129000FFF7EBFB0DF076FF00EB44016FF07700FA
:1012A00000EB610002E030E15FE149E186A240F23B
:1012B00065110095CDE9011214234122D221FFF7D7
:1012C000D4FB0DF05FFF00EB44016FF0450000EB35
:1012D00061007FA24FF4B3710095CDE90112142390
:1012E0004122D221FFF7C1FB0DF04CFF00EB44007F
:1012F0000A2101EB60007AA140F267120095CDE966
:10130000012114234122D221FFF7AFFB0DF03AFF58
:1013100000EB440108EB61004FF480710327CDE935
:101320000051CDE9027B5E46142341223C21FFF7A8
:10133000B7FB0DF027FF00EB440109EB610040F221
:101340000111CDE90051CDE90276142341223C215F
:10135000FFF7A6FB0DF016FF00EB440108EB610060
:101360004FF48171CDE90051CDE902761423412279
:101370006E21FFF795FB0DF005FF00EB440109EB33
:10138000610040F20311CDE90051CDE9027614234A
:1013900041226E21FFF784FB0DF0F4FE00EB4401C7
:1013A0000AEB61004FF48271CDE90051CDE902767C
:1013B000142341223C21FFF773FB0DF0E3FE00EB09
:1013C00044010AEB61004AA140F271120095CDE997
:1013D0000121282341225A21FFF727FB0DF0D2FEDD
:1013E0000B4A14230095CDE9033200EB4400782129
:1013F00001EB6000074C4FF4B871CDE901141E23D6
:101400001A46C821FFF7C5F81B4905200870ADE44E
:10141000D9090008DC350308E5B7A5E4BBB6E5B794
:10142000A6E8BDAC00000000E5B7A5E4BBB6E58FBB
:10143000B3E8BDAC00000000E58FB3E8BDACE7BB8E
:1014400086E8B08300000000E58FB3E8BDACE7B2EA
:1014500097E8B08300000000E8BDACE9809FE58715
:101460008FE5B09100000000E8BDACE9809FE5A2E7
:101470009EE58AA000000000080700200CA70308D2
:10148000E8BDACE58AA8E9809FE5BAA600000000A7
:10149000E992BBE5AD94E9809FE5BAA600000000A3
:1014A000E5AD94E695B00000E689A9E5AD94E6B710
:1014B000B1E5BAA600000000E992BBE5AD94E6B73D
:1014C000B1E5BAA600000000E6A8A1E5BC8F0000C7
:1014D000E5A587E581B6E695B0E68E9200000000AE
:1014E000E5A4A7E5B08FE992BBE5A4B40000000035
:1014F000E6A380E6B58B0000F0680068172886D167
:1015000005B0BDE8F04F00F01CBCFFF737FB6FF0F3
:101510007F400BF01DFD0DF035FE00EB4400502127
:1015200001EB60050DF02EFE052100EB440000915B
:1015300007EB6000E6232A46D2210AF0C7FC15E437
:10154000FE4C2078202802D02078402806D104F0D4
:1015500073FB2846FEF77AFF84F800B0F06805B008
:101560004146BDE8F04F11F001B9F0680228E6D11C
:10157000B06810F036FCB0F5B87F0BD0A0F58070E5
:101580007138DCD104F083FB05B0ED48BDE8F04FC5
:1015900004F042BB04F07BFBB2E7F0B5D0E90014E5
:1015A0004FF4B875AE1C85B001290AD00E2949D078
:1015B0000F294CD026294FD005B0BDE8F04010F0DF
:1015C000ADBA204611F0B4F90DF0DCFDDD4914226E
:1015D000DE4B0968CDE902324F4200EB470078212B
:1015E00001EB6000D84904911E231A46C821CDE9B9
:1015F0000045FEF7CEFF0DF0C5FDD5A10094CDE965
:10160000016100EB47006FF0590505EB60002823EE
:1016100078223C21FFF709FA0DF0B4FDD0A140F289
:1016200073120094CDE9012100EB470005EB600047
:10163000282378226E21FFF7F8F9C14902200870AB
:1016400005B0F0BDC06800681728F9D128E005B0E2
:10165000BDE8F040FFF792BAC1680229F0D1806876
:1016600010F0BFFBA8421BD0B0421ED0A0F5807086
:101670007338E5D104F00BFBB14804F0CDFAAF4C60
:101680002078002520281FD020782A461028AFF285
:10169000EC611DD0B7A000BF0BF028FB2570CFE791
:1016A00005B0BDE8F04000F04CBB04F072FA4FF01A
:1016B000000210B1B3A1B5A001E0BAA1BBA005B072
:1016C000BDE8F0400BF012BB0022B6A1BDA0E3E7DD
:1016D000AFF21C70E0E72DE9F04FD0E90015984C0F
:1016E00085B04FF000094FF0020A4FF0030B4FF4A2
:1016F000C07601290AD00E297DD00F297CD0262959
:101700007BD005B0BDE8F04F10F008BA284611F0C4
:101710000FF90DF037FD8B495023B0460968CDE92C
:10172000005A4F4200EB47006FF08101CDE902966D
:1017300001EB60001A463C2107F03BFF0646A5A1DD
:1017400007F050FEA4A1304607F04CFEA3A130469E
:1017500007F048FEA249304608F01AF90DF012FDD4
:10176000A0A14FF4B9720095CDE9012100EB47002B
:101770006FF0270606EB6000282350223C21FFF77C
:1017800054F90DF0FFFC99A140F273120095CDE9D8
:10179000012100EB470006EB60002823502278214E
:1017A000FFF743F90DF0EEFC92A14FF4BA720095E9
:1017B000CDE9012100EB4700322606EB600028232B
:1017C00050223C21FFF731F90DF0DCFC8BA140F2F7
:1017D00075120095CDE9012100EB470006EB600092
:1017E000282350227821FFF720F90DF0CBFC00EBE5
:1017F0004700782102E01CE024E028E01422534B4B
:10180000CDE9023201EB60004FF4B8764E49CDE9E4
:10181000005604911E231A46C821FEF7BAFE84F82A
:1018200000B0A27805B041462846BDE8F04FFEF76B
:1018300060BDC068006817283AD105B0BDE8F04F18
:1018400000F07FBA05B0BDE8F04FFFF797B9C16867
:10185000022902D004291AD028E0806810F0C1FAC9
:10186000A0F5B87006281CD2DFE800F0031B0608BC
:101870000B0E00F066FA14E0012006E084F810A0D8
:101880000FE084F810B00CE00420207409E08068B8
:1018900010F0A7FA3146884203D12846FEF74EFDE4
:1018A000A07004F0F4F9264804F0B6F984F810901A
:1018B000ADE57FB504460DF065FC22496FF0810669
:1018C00009684D4200EB450006EB6000AFF228418D
:1018D00040F261120094CDE90121142350226E21BF
:1018E000FFF7C3F80DF04EFC01210391032240F2F3
:1018F00001130094CDE9013200EB450006EB6000D6
:10190000192350228C21FFF7CBF87FBDF0B5D0E929
:10191000001485B04FF4B87601290AD00E290CD0F6
:101920000F296FD026296ED005B0BDE8F04010F029
:10193000F5B8204610F0FCFF66E0B7E0DD000020BF
:10194000080700200CA70308D9090008DC350308A4
:10195000E6A8A1E59D97E6A380E6B58B0000000010
:10196000E695B0E68DAEE4BCA0E8BE93E6A380E6C3
:10197000B58B00006F74686572206572726F72219A
:10198000000000004572726F72000000436C696EC7
:101990006574204E524632344C3031206572726F7D
:1019A000722100004E6F726D616C0000436C6965BE
:1019B0006E74204E524632344C3031204E6F726D70
:1019C000616C210053656E64207375636365737386
:1019D000210000004D3100004D3200004D33000069
:1019E00050A60308E5AE9AE4BD8D0000E689A9E59E
:1019F000AD940000E4B88AE58D870000E4B88BE977
:101A0000998D000057E05BE00DF0BCFBFA494FF404
:101A1000B0726FF05907096800944D42F7A1CDE903
:101A2000012100EB450007EB600014235022322116
:101A3000FFF71BF80DF0A6FB0321F44A4FF4A8733F
:101A400000940391CDE90132502300EB450007EBF0
:101A500060001A461946FFF741F82046FEF797FC4A
:101A60000DF090FBEAA10094CDE9016100EB450087
:101A700007EB600028235022BE21FEF7D6FF0DF0B1
:101A800081FB00EB45001422E44B7821CDE90232C2
:101A900001EB6000E04940F2711504911E231A46E3
:101AA000C821CDE90045FEF774FDC9E5C0680068AE
:101AB0001728FAD110E005B0BDE8F040FFF75EB896
:101AC000C1680229F1D1806810F08BF9B04208D0CA
:101AD000A0F580707138E8D105B0BDE8F04000F0A5
:101AE00030B92046FEF74BFC00F02BF905B0CC488E
:101AF000BDE8F040FEF7DABBF0B5D0E900150026EE
:101B000085B04FF4B87701290AD00E294ED00F299D
:101B100055D0262958D005B0BDE8F0400FF0FEBFE3
:101B2000284610F005FF0DF02DFBB3492823502265
:101B3000096800954C4200EB44006FF0590101EB3D
:101B40006000B8A1CDE90171BE21FEF76EFF0DF076
:101B500019FB00EB44001422B04B7821CDE902328E
:101B600001EB600040F27114AB49CDE900540491DF
:101B70001E231A46C821FEF70CFD284600F0BEF9C8
:101B8000AA4C6078012802D0022804D009E0284637
:101B9000FFF78FFE05E02846FFF78BFE284600F092
:101BA00071F92846FEF729FC267049E5C0680068EF
:101BB0001728FAD105B0BDE8F04000F0C2B805B072
:101BC000BDE8F040FEF7DABFC1680229EDD18068B8
:101BD00010F007F94FF48171884209D00EDC4FF400
:101BE0008071884204D0A0F580700138DDD1491C95
:101BF00005B02846BDE8F040FEF738BE834C1C3CDB
:101C0000B8420CD0A0F580707138CED100F099F8B0
:101C1000A66105B08648BDE8F040FEF747BB284600
:101C2000A168FEF74CFC83A0E16819F00BFAE068AC
:101C300040B10022AFF6944105B07FA0BDE8F0406E
:101C40000BF054B82846FEF7A7FB04F020F87748BD
:101C500003F0E2FF00F075F87C48FEF727FB012057
:101C6000E060EDE47CB504464FF41476D4E9000559
:101C700001280AD00E2814D00F2813D0262815D0FA
:101C80002046BDE87C400FF049BF284610F050FECA
:101C9000CDE90056BE2340F213122821142000F093
:101CA0006EF87CBDBDE87C40FEF768BFA06810F010
:101CB00098F8B042F5D1E0680228F2D1A0680CF0A3
:101CC00097FF0628EDD25149483151F82000BDE870
:101CD0007C40FEF7EBBA70B5042010F017FE5C48AC
:101CE00008F04AFD5B480EF081FD5B4807F0C4FA3E
:101CF0005A4807F03FFE5A480FF016F8594D5A4C13
:101D000029462046FEF7E5FD29462046FEF705FE5A
:101D100021464FF47F40FEF726FE6FF07F42002100
:101D20002046FEF738FE00F0C6F910F013F84F49D0
:101D300010F06AFD4E48FEF7B9FABDE870400BF0AE
:101D4000F3BB10B5314C1C3C60690FF01BFF002049
:101D5000606110BD70B51C46154610F011F80646BE
:101D60000FF0CFFF4349884208D105EB850004EB13
:101D700040013046BDE870400FF01ABB70BDF0B5B1
:101D800087B00DF1080EDDE90C464FF0500C4127ED
:101D900002258EE8E0100325CDE900450CF0D0FEC9
:101DA000064635490CF048FF344A012130460CF014
:101DB0002CFF082130460CF051FF1422012130463F
:101DC0000CF05EFF1E22002130460CF059FF2C4D16
:101DD000002400BF05EBC40055F8341042683046BB
:101DE0000CF0EAFD641C062CF4D3304610F0A0FD84
:101DF00007B03046F0BD00000CA70308E6A8A1E537
:101E0000BC8FE98089E68BA900000000300000202B
:101E1000E8AEBEE7BDAE0000D9090008DC35030816
:101E2000F91A0008E689A7E8A18C0000080700203D
:101E30000D19000825750000706172616D6574658B
:101E400072206572726F7221000000005B0C000846
:101E5000C1A20008550701080590000885960008F2
:101E6000390C01088080FF00D3D3D300710B000828
:101E7000651C00082F120108904E03084050D4A0A2
:101E800028B501087FB504460DF07CF93C493D4A70
:101E900040F25113096800944D4200EB4500322195
:101EA00001EB600002210391CDE90132462350226B
:101EB0003221FEF713FE0DF065F933A14FF4B17234
:101EC0000094CDE9012100EB45004010142350227D
:101ED0006E21FEF7CAFD0DF055F901210391032291
:101EE0004FF481730094CDE9013200EB45004010BE
:101EF000192350228C21FEF7D3FD7FBD7FB5044608
:101F00000DF040F91E494FF4B0726FF08106096878
:101F100000944D4220A1CDE9012100EB450006EBE4
:101F20006000142350222821FEF79FFD0DF02AF9AE
:101F300001210B02039103220094CDE9013200EB51
:101F4000450006EB6000192350224621FEF7A8FD4C
:101F50000DF018F900EB45006FF0270101EB600070
:101F60000221084A039114324FF4A8730094CDE97A
:101F70000132462350223221FEF7B0FD7FBD000022
:101F80000CA703084E000020E992BBE5AD94E6B72C
:101F9000B1E5BAA600000000E5AD94E695B00000FA
:101FA00005F02EFE4FF4A06004F0F2F94FF4165045
:101FB00005F07CFE03F0CEFC01F0C5FA03F09BFBBC
:101FC00040F2E7344721204603F0EEFB40F2CF25F4
:101FD0002946204603F026FC294642F20F7003F002
:101FE0005DFC04F038F90121402004F061FC03F0AD
:101FF0003DFD04F03FF80AF0DDF9FFF76CFE0A2022
:1020000009F098FCFBE700002DE9FC41006814266C
:102010000F284ED142480AF0BBFF00200AF098FF7B
:1020200002200AF0F7FF0DF0B9F8441E0DF0AAF8EF
:10203000421E3C496FF07F40CDE90001002123465C
:10204000084609F08BFE384F387858B13C22A02161
:1020500036A009F00DFD39480AF09AFF5A22A02156
:10206000374821E000240DF08DF800EBD0704010CF
:10207000283885B24FF0A0087868A04201D13148D5
:1020800001E03048143842880188A8EB5202A5EBE1
:10209000510109F0B7FD641CA819A4B285B2052C42
:1020A000EAD33C22A02128A002B0BDE8F04109F00B
:1020B000DFBCBDE8FC817CB5224932241C39D1E962
:1020C0000001CDE900010FF045FE214910F09CFB15
:1020D000154D05260FE000BFC4F1320090FBF6F16C
:1020E00006FB1100641E6860E4B2684610F0C0F997
:1020F000C82009F01FFC03F04CFD10B1002CEBD1FF
:1021000000E00CB9012028700FF024FE10F0FDF95A
:10211000C82009F00FFC28780028FDD17CBD000004
:102120005093030880808000900000204E52463279
:10213000344C3031206572726F7221005070030888
:102140001CCA030804B6010857656C636F6D65000F
:102150000920000870B5F84D04464FF480712846F8
:1021600004F035FA6E153146284604F030FA21465F
:10217000F24804F033FAB4012146284604F027FA65
:102180002146284604F021FA31462846BDE8704031
:1021900004F01BBA70B5E84D04464FF48071284630
:1021A00004F013FA6E153146284604F010FA214661
:1021B000E24804F013FAB4012146284604F007FA75
:1021C0002146284604F001FA31462846BDE8704011
:1021D00004F0FBB92DE9F047D84C4FF0883020606F
:1021E000261D3060D54F00200C373860D24DA11528
:1021F000284604F0EAF94FF4007A5146284604F0E4
:10220000E6F94FF480494946284604F0E0F9CC4805
:102210008088A0F50941893902D1022005F007FD27
:10222000204604F0C5F980464946284604F0CDF919
:102230005146284604F0C9F94FF033302060306031
:102240004FF6FF7038604046BDE8F08770B50E4627
:10225000FFF780FFB84C4FF48071204604F0B5F9C9
:1022600065152946204604F0B2F93146B34804F01A
:10227000B5F9AE013146204604F0A9F931462046B1
:1022800004F0A3F929462046BDE8704004F09DB94A
:1022900010B5FFF75FFFBDE810409BE7A848008935
:1022A00058E770B5A44D04464FF48071284604F0F9
:1022B0008CF96E153146284604F089F921469F486D
:1022C00004F08CF9B4012146284604F080F9214637
:1022D000284604F07AF931462846BDE8704004F0FB
:1022E00074B9C0F34511C20AC00200EB411010449A
:1022F00080B270472DE9FC5F914C0E460546A088E0
:10230000090A0091290A01912146DFF82C82DFF8A1
:102310002CA24A89A0F513434FF400794FF4004BE7
:10232000413B15D0A0F5A641103911D02346A0F5A8
:10233000D04C99791B885B1B5B1EBCF1040C15D03B
:10234000A0F5A04CBCF5A26C75D0012972D0EAE0D2
:102350001046FFF7FFFE4FF48071404604F035F958
:102360004946404604F033F901990FE0012900D1B4
:102370009DB21046FFF7EEFE4FF48071404604F028
:1023800024F94946404604F022F9290A54465046A9
:1023900004F024F95F465946404604F018F93946DE
:1023A000404604F012F94946404604F00EF94FF455
:1023B0008071404604F009F94946404604F007F9A7
:1023C000E9B2204604F00AF93946404604F0FFF825
:1023D0003946404604F0F9F84946404604F0F5F81D
:1023E00057488089FFF7B6FE4FF48071404604F0ED
:1023F000ECF84946404604F0EAF82046009904F01B
:10240000EDF83946404604F0E2F83946404604F01B
:10241000DCF84946404604F0D8F84FF48071404655
:1024200004F0D3F84946404604F0D1F8F1B2204612
:1024300068E000E076E01046FFF78CFE4FF4807114
:10244000404604F0C2F84946404604F0C0F8504601
:10245000019904F0C3F85F465946404604F0B7F8C6
:102460003946404604F0B1F84946404604F0ADF81C
:102470006089401C80B2FFF76DFE4FF480714046CA
:1024800004F0A3F84946404604F0A1F8E9B25046EA
:1024900004F0A4F83946404604F099F8394640461D
:1024A00004F093F84946404604F08FF8A089FFF7FE
:1024B00051FE4FF48071404604F087F8494640468B
:1024C00004F085F85046009904F088F839464046F3
:1024D00004F07DF83946404604F077F84946404616
:1024E00004F073F8A089401C80B2FFF733FE4FF46C
:1024F0008071404604F069F84946404604F067F8A8
:10250000F1B2504604F06AF83946404604F05FF8EC
:102510003946404604F059F849464046BDE8FC5F5C
:1025200004F053B89DB229461046FFF78FFEA089EC
:102530003146BDE8FC5F89E600100140000C014017
:10254000B00700202DE9F84FFE4C2288824202D9C4
:1025500062888A4202D80020BDE8F88FFFF7CAFEE1
:10256000A088A346A0F5134145F2103645F2105756
:10257000413905D0A0F5D041043901D0B04201D194
:102580002E2005E0B84202D14FF4385000E022205E
:10259000FFF7E0FDDFF8B0934FF08830C9F8000096
:1025A00009F104010860E8494FF6FF780C31C1F8E1
:1025B0000080E64C8915204604F007F86115204696
:1025C00004F005F84FF480452946204603F0FFFF4C
:1025D000012005F02CFB2946204603F0F6FF294692
:1025E000204603F0F4FF012005F021FB484603F0EC
:1025F000DFFF81462946204603F0E7FFBBF80400D1
:10260000A0F51341413903D0B04201D0B84210D1F6
:102610002946204603F0DBFFCB4803F0C9FF0090BA
:102620002946204603F0D1FF09F0FF0008EA002AFE
:102630000FE0A0F5D04104390BD12946204603F024
:10264000C6FF2946204603F0C0FFBF4803F0B0FF95
:1026500081464FF40071204603F0B7FFBA494FF0AE
:1026600033300860091D0860B7490C31C1F800809B
:10267000BBF80400A0F51341253921D0A0F58A410B
:1026800035391DD0091D1BD0A0F50941893917D056
:10269000A0F53541053913D0A0F51341413903D0D8
:1026A000B04201D0B8420DD14FEAD9214FEAC12141
:1026B0004FEA9A2041EA4011009841EAD0204BE7C6
:1026C000484649E74846BDE8F84F0AE69D488088F5
:1026D000A0F5134141390ED0A0F5D04104390AD0FC
:1026E000A0F5A641103906D0B1F5007105D040F231
:1026F00073110720AAE5292001E04FF4245029E5B1
:1027000090488088A0F5134141390DD0A0F5D04103
:10271000043909D0A0F5A641103905D0B1F50071F2
:1027200004D00021072091E5282001E04FF420503B
:1027300010E52DE9F047834C00252146A3798988CF
:1027400046F60402012B18D1914216D0082814D263
:10275000DFE800F00406080A0C0E101206200CE058
:1027600007200AE0042008E0052006E0012004E03C
:10277000002002E0032000E00220A1F5134645F20C
:10278000103345F21058413E05D0914203D0994292
:1027900001D041457ED1082812D2DFE800F01104B3
:1027A00006080A0C0E1080250AE0402508E0C02526
:1027B00006E0202504E0602502E0A02500E0E025F9
:1027C000414502D14FF4585000E03620994203D0E1
:1027D000414501D045F00805914201D145F002057F
:1027E0002946FFF733FDA8062088618802D5884274
:1027F00002D303E0884201D921806080A088534E33
:102800004045514F60894FF480754FF4007A4FF482
:1028100000497DD1FFF79EFC2946B046304603F0C3
:10282000D4FE5146404603F0D2FE0021384603F064
:10283000D5FE4E464946404603F0C9FE3146404665
:1028400003F0C3FE5146404603F0BFFE6089401CC2
:1028500080B2FFF77FFC2946404603F0B6FE5146A2
:10286000404603F0B4FE0021384603F0B7FE31467F
:10287000404603F0ACFE3146404603F0A6FE51460A
:10288000404603F0A2FE6089801C80B2FFF762FC24
:10289000294600E08AE1404603F097FE5146404653
:1028A00003F095FE2088401EC0F30F21384603F048
:1028B00095FE3146404603F08AFE3146404603F01D
:1028C00084FE5146404603F080FE6089C01C80B201
:1028D000FFF740FC2946404603F077FE514640464C
:1028E00003F075FE2078401EC1B2384603F076FE34
:1028F0003146404603F06BFE3146404603F065FE2C
:102900005146404603F061FEA089FFF723FC00E03A
:1029100079E02946404603F058FE5146404603F010
:1029200056FE0021384603F059FE3146404603F07A
:102930004EFE3146404603F048FE5146404603F005
:1029400044FE05E0B0070020000C014000100140EB
:10295000A089401C80B2FFF7FDFB2946404603F0EA
:1029600034FE5146404603F032FE0021384603F063
:1029700035FE3146404603F02AFE3146404603F01C
:1029800024FE5146404603F020FEA089801C80B200
:10299000FFF7E0FB2946404603F017FE514640464C
:1029A00003F015FE6088401EC0F30F21384603F087
:1029B00015FE3146404603F00AFE3146404603F01C
:1029C00004FE5146404603F000FEA089C01C80B2C0
:1029D000FFF7C0FB2946404603F0F7FD514640464D
:1029E00003F0F5FDA078401EC1B2384603F0F6FDB5
:1029F0003146404603F0EBFD3146404603F0E5FD2D
:102A000051464046CEE0FFF7A5FB2946304603F08D
:102A1000DCFD5146304603F0DAFD0021B846384669
:102A200003F0DCFD4F464946304603F0D0FD394601
:102A3000304603F0CAFD5146304603F0C6FD294634
:102A4000304603F0C2FD5146304603F0C0FD002180
:102A5000404603F0C3FD3946304603F0B8FD394621
:102A6000304603F0B2FD5146304603F0AEFD294634
:102A7000304603F0AAFD5146304603F0A8FD2088F9
:102A8000401EC0F30F21404603F0A8FD39463046F2
:102A900003F09DFD3946304603F097FD5146304620
:102AA00003F093FD2946304603F08FFD5146304632
:102AB00003F08DFD2078401EC1B2404603F08EFD2C
:102AC0003946304603F083FD3946304603F07DFD3C
:102AD0005146304603F079FDA089FFF73BFB2946BC
:102AE000304603F072FD5146304603F070FD002180
:102AF000404603F073FD3946304603F068FD394621
:102B0000304603F062FD5146304603F05EFD294633
:102B1000304603F05AFD5146304603F058FD00217F
:102B2000404603F05BFD3946304603F050FD394620
:102B3000304603F04AFD5146304603F046FD294633
:102B4000304603F042FD5146304603F040FD6088B8
:102B5000401EC0F30F21404603F040FD3946304689
:102B600003F035FD3946304603F02FFD514630461F
:102B700003F02BFD2946304603F027FD5146304631
:102B800003F025FDA078401EC1B2404603F026FDAB
:102B90003946304603F01BFD3946304603F015FD3B
:102BA00051463046BDE8F04703F00FBD082812D269
:102BB000DFE800F0040608110A0C0E1030250AE0C8
:102BC000102508E0202506E0382504E0282502E04D
:102BD000182500E00825A1F50940893806D0032012
:102BE00045F48051BDE8F047FFF730BB112046F2B5
:102BF00040012943F6E770B5FFF77CFBFFF74EFB7A
:102C0000FF4C4FF48071204603F0DFFC6515294628
:102C1000204603F0DCFCFB480188FB4803F0DEFCA7
:102C2000AE013146204603F0D2FC3146204603F087
:102C3000CCFC29462046BDE8704003F0C6BC2DE917
:102C4000F74FF24C82B00E460546A088090A009163
:102C5000290A01912146DFF8A883DFF8ACA34A894D
:102C6000A0F513434FF480774FF400794FF4004BF5
:102C7000413B13D0A0F5A64110390FD0B1F500713A
:102C800019D02346A0F5D04C99791B885B1B5B1E9D
:102C9000BCF1040C68D001297ED0D2E01046FFF7C9
:102CA00059FA3946404603F090FC4946404603F045
:102CB0008EFC019967E01046FFF74CFA3946404612
:102CC00003F083FC4946404603F081FC50460199DD
:102CD00003F084FC5946404603F079FC59464046CF
:102CE00003F073FC4946404603F06FFC6089401CCA
:102CF00080B2FFF72FFA3946404603F066FC49469A
:102D0000404603F064FCE9B2504603F067FC5946C4
:102D1000404603F05CFC5946404603F056FC4946E9
:102D2000404603F052FCA089FFF714FA39464046AA
:102D300003F04BFC4946404603F049FC50460099DD
:102D400003F04CFC5946404603F041FC59464046CE
:102D500003F03BFC4946404603F037FCA089401C89
:102D600080B2FFF7F7F952E0012900D19DB2104679
:102D7000FFF7F0F93946404603F027FC4946404644
:102D800003F025FC290A504603F028FC594640462A
:102D900003F01DFC594600E052E0404603F015FCEC
:102DA0004946404603F011FC3946404603F00DFC0D
:102DB0004946404603F00BFCE9B2504603F00EFCD6
:102DC0005946404603F003FC5946404603F0FDFBDC
:102DD0004946404603F0F9FBA089FFF7BBF93946A5
:102DE000404603F0F2FB4946404603F0F0FB5046F4
:102DF000009903F0F3FB5946404603F0E8FB5946BF
:102E0000404603F0E2FB4946404603F0DEFB39460C
:102E1000404603F0DAFB4946404603F0D8FBF1B2E6
:102E2000504603F0DBFB5946404603F0D0FB5946C1
:102E3000404603F0CAFB4946404603F0C6FB08E0A3
:102E40009DB229461046FFF701FAA0893146FFF7E7
:102E5000FDF94FF480714546404603F0B8FB4E46FD
:102E60004946284603F0B3FB21895446504603F0F7
:102E7000B5FB5F465946284603F0A9FB394628466C
:102E800003F0A3FB3146284603F09FFB4FF480710B
:102E9000284603F09AFB3146284603F098FB20466B
:102EA000049903F09BFB3946284603F090FB394612
:102EB000284603F08AFB05B031462846BDE8F04FAE
:102EC00003F083BB2DE9F05F50492C232A242B25E6
:102ED00022222126898848F689194FF04E0A4FF0A0
:102EE0004F0B45F2105EF02749F24138F8B14748E0
:102EF0004FF0010C414580F806C04FF4A07CA0F8CB
:102F000000C047800FD0A1F5A647103F0BD0A1F518
:102F1000D047043F4ED0494550D10281A0F80AB0B5
:102F2000A0F80CA060E00381448185815CE0374813
:102F30004FF0000C414580F806C007804FF4A077A1
:102F4000478011D0A1F5D04CBCF1040C0CD0A1F5F8
:102F5000A04CBCF5447C07D0494514D10281A0F8AF
:102F60000AA0A0F80CB055E003814481A1F5D0423D
:102F70008581043A03D0A1F5A642103A4AD10780D0
:102F80004FF4F0710FE071450FD14FF430510181D2
:102F90004FF4285141814FF42C5181814FF4F0714D
:102FA00001804FF44871418034E002812021418149
:102FB00086812FE003814581848115E071450FD121
:102FC0004FF4305202814FF4285242814FF42C5278
:102FD00082814FF4487202804FF4F072428003E025
:102FE0000281468120228281A1F5D042043A03D099
:102FF000A1F5A642103A0DD14FF4F071018007E01F
:103000000010014098000020000C0140B007002093
:10301000A0F802C0BDE8F05F0020FFF78ABB2DE9F1
:10302000F05F05461044401E87B2C818FF4A401E94
:103030000C4686B24FEA112A90881146A0F5134338
:1030400049894FF4807B4FEA1529413B31D0A0F5E7
:10305000A643103B2DD0A0F5D043043B29D0A0F5CA
:10306000AA43103B7DD0917901297BD0B8462946EF
:103070004FEA0407A0F50942893A74D050204FF076
:10308000510B4FF0520A53229146FFF7DFF84146A9
:103090005846FFF7DBF839465046FFF7D7F8314678
:1030A0004846FFF7D3F821462846BDE8F05FFFF712
:1030B00021B90846FFF74EF85946DD4803F085FA76
:1030C0004FF40071DA4803F082FA4946DFF864935E
:1030D000484603F083FA4FF400484146D44803F0D1
:1030E00076FA4146D24803F070FA4FF40071D048A6
:1030F00003F06BFA5946CE4803F067FA4FF40071BB
:10310000CB4803F064FAE9B2484603F067FA414657
:10311000C74803F05CFA4146C54803F056FA4FF43D
:103120000071C34803F051FA5946C14803F04DFA03
:103130004FF40071BE4803F04AFA390A484603F0DA
:103140004DFA4146BA4803F042FA4146B84803F006
:103150003CFA4FF40071B64803F037FA5946B448C8
:1031600002E07EE098E18DE103F02FFA4FF4007168
:10317000AF4803F02CFAF9B2484603F02FFA414663
:10318000AB4803F024FA4146A94803F01EFA4FF475
:103190000071A74803F019FAA4488089FEF7DAFF06
:1031A0005946A34803F011FA4FF40071A04803F008
:1031B0000EFA5146484603F011FA41469C4803F086
:1031C00006FA41469A4803F000FA4FF40071984815
:1031D00003F0FBF95946964803F0F7F94FF40071F4
:1031E000934803F0F4F9E1B2484603F0F7F9414699
:1031F0008F4803F0ECF941468D4803F0E6F94FF4AF
:1032000000718B4803F0E1F95946894803F0DDF974
:103210004FF40071864803F0DAF9310A484603F0AA
:10322000DDF94146824803F0D2F94146804803F077
:10323000CCF94FF400717E4803F0C7F959467C4839
:1032400003F0C3F94FF40071794803F0C0F9F1B20B
:10325000484603F0C3F94146754803F0B8F94146C2
:1032600006E190460846FEF775FF4FF480717048FE
:1032700003F0ABF94FF400716D4803F0A8F9DFF8E3
:10328000B4B14946584603F0A9F94FF400494946FC
:10329000674803F09CF94946654803F096F94FF4F6
:1032A0000071634803F091F9B8F80A00401C80B23D
:1032B000FEF750FF4FF480715D4803F086F94FF43C
:1032C00000715B4803F083F9E9B2584603F086F9D0
:1032D0004946574803F07BF94946554803F075F9CC
:1032E0004FF40071524803F070F9B8F80A00801CDE
:1032F00080B2FEF72FFF4FF480714D4803F065F95F
:103300004FF400714A4803F062F9390A584603F055
:1033100065F94946464803F05AF94946444803F0DE
:1033200054F94FF40071424803F04FF9B8F80A001D
:10333000C01C80B2FEF70EFF4FF480713C4803F0D2
:1033400044F94FF400713A4803F041F9F9B2584694
:1033500003F044F94946364803F039F94946344800
:1033600003F033F94FF40071314803F02EF9B8F847
:103370000C00FEF7EFFE4FF480712D4803F025F9A5
:103380004FF400712A4803F022F95146584603F0E1
:1033900025F94946264803F01AF94946244803F01E
:1033A00014F94FF40071224803F00FF9B8F80C003B
:1033B000401C80B2FEF7CEFE4FF480711C4803F033
:1033C00004F94FF400711A4803F001F9E1B25846CC
:1033D00003F004F94946164803F0F9F84946144841
:1033E00003F0F3F84FF40071114803F0EEF8B8F869
:1033F0000C00801C80B2FEF7ADFE4FF480710C48CB
:1034000003F0E3F84FF40071094803F0E0F8310AE3
:10341000584603F0E3F84946054803F0D8F8494612
:10342000034803F0D2F84FF4007105E0B007002024
:1034300000100140000C0140FE4803F0C6F8B8F847
:103440000C00C01C80B2FEF785FE4FF48071F94875
:1034500003F0BBF84FF40071F64803F0B8F8F1B28E
:10346000584603F0BBF84946F24803F0B0F8494625
:10347000F04803F0AAF8BDE8F05F4FF40071ED48A2
:1034800003F0A3B8442041EA082189B28346884664
:103490004FF0450A4622F7E51288B046D31B5B1E63
:1034A000521B521E21469FB296B2E3E52DE9F05F12
:1034B000E14E83460024308875884543B088A0F5E6
:1034C000D041043902D1B07901280ED0002108463C
:1034D000FEF710FFFEF7E2FED64F4FF480797E151F
:1034E000DFF858A34FF4004829E00020B0712A27E4
:1034F00077814FF02B08A6F80C800146FEF7FAFE04
:103500000120B071A6F80A80B781E3E74946384642
:1035100003F05BF83146384603F059F859465046F7
:1035200003F05CF84146384603F051F8414638460E
:1035300003F04BF83146384603F047F8641CAC42C0
:10354000E4D3BDE8F09F2DE9F84F01211D2003F0E1
:10355000B8F90121BA4803F059F84FF44070ADF8BA
:1035600000001024B34E8DF8034003258DF802505F
:103570006946304602F0BBFFA803ADF800008DF8A5
:10358000034002208DF802006946304602F0AFFF8A
:10359000AC48016841F480710160AB490A6A22F0CD
:1035A00001020A62A9490A8822F001020A80016820
:1035B00021F4807101608014ADF800008DF80340A3
:1035C0008DF802506946A24802F091FF9B4C4FF6DD
:1035D000FF75ADF800506946204602F088FF294685
:1035E000204602F0F2FF322004F038FB01210020D7
:1035F000FEF72CFE322004F031FB0020FEF748FEDF
:103600008D4C45F2105749F24136A080FF2804D373
:10361000A84202D0B0F5134F59D1D320FEF79AFD3E
:10362000FEF7D8FDFEF7D6FDFEF7D4FD05EA002033
:10363000A080FEF7CFFDA1880843A080B04246D00D
:10364000BF20FEF787FDFEF7C5FDFEF7C3FDFEF7C1
:10365000C1FDFEF7BFFD05EA0020A080FEF7BAFD20
:10366000A1880843A0F5D041A08004392FD0D420F0
:10367000FEF770FDFEF7AEFDFEF7ACFDFEF7AAFD0E
:1036800005EA0020A080FEF7A5FDA1880843A0F56B
:10369000A641A08010391AD04FF45A40FEF75AFDC7
:1036A000FEF798FD4FF45B40FEF754FDFEF792FDE8
:1036B00005EA0020A0804FF45C40FEF74BFDFEF7CA
:1036C00089FDA1880843A080B0F5004F7ED080B26C
:1036D000B0427CD1CF20FEF73DFD0020FEF75AFD21
:1036E000C120FEF757FD3020FEF754FDED20FEF718
:1036F00031FD6420FEF74EFD0320FEF74BFD122046
:10370000FEF748FD8120FEF745FDE820FEF722FD8B
:103710008520FEF73FFD1020FEF73CFD7A20FEF7E6
:1037200039FDCB20FEF716FD3920FEF733FD2C20A6
:10373000FEF730FD0020FEF72DFD3420FEF72AFDB8
:103740000220FEF727FDF720FEF704FD2020FEF7FC
:1037500021FDEA20FEF7FEFC0020FEF71BFD002005
:10376000FEF718FDC020FEF7F5FC1B20FEF712FD4A
:10377000C120FEF7EFFC0120FEF70CFDC520FEF78F
:10378000E9FC3020FEF706FD3020FEF703FDC720E0
:10379000FEF7E0FCB720FEF7FDFC3620FEF7DAFC72
:1037A0004820FEF7F7FC3A20FEF7D4FC5520FEF740
:1037B000F1FCB120FEF7CEFC0020FEF7EBFC1A2056
:1037C000FEF7E8FCB620FEF7C5FC01E0A9E0AAE0A0
:1037D0000A20FEF7DFFCA220FEF7DCFCF220FEF759
:1037E000B9FC0020FEF7D6FC2620FEF7B3FC012032
:1037F000FEF7D0FCE020FEF7ADFC0F20FEF7CAFC80
:103800002A20FEF7C7FC2820FEF7C4FC0820FEF79C
:10381000C1FC0E20FEF7BEFC0820FEF7BBFC5420C6
:10382000FEF7B8FCA920FEF7B5FC4320FEF7B2FC7A
:103830000A200FE000100140B0070020000C0140FA
:10384000000230000070004000100240306C004068
:1038500000080140FEF79EFC0F20FEF79BFC0020B5
:10386000FEF798FC0020FEF795FC0020FEF792FC86
:103870000020FEF78FFCE120FEF76CFC0020FEF735
:1038800089FC1520FEF786FC1720FEF783FC072035
:10389000FEF780FC1120FEF77DFC0620FEF77AFC87
:1038A0002B20FEF777FC5620FEF774FC3C20FEF739
:1038B00071FC0520FEF76EFC1020FEF76BFC0F205C
:1038C000FEF768FC3F20FEF765FC3F20FEF762FC38
:1038D0000F20FEF75FFC2B20FEF73CFC0020FEF7DC
:1038E00059FC0020FEF756FC0120FEF753FC3F2058
:1038F000FEF750FC2A20FEF72DFC0020FEF74AFCC4
:103900000020FEF747FC0020FEF744FCEF20FEF706
:1039100041FC1120FEF71EFC782004F09FF92920BD
:10392000FEE3A78001E0B8427ED14FF470445521F8
:103930002046FEF78BFC661CAA213046FEF786FC6B
:10394000A71C52213846FEF781FC4FF203080821DC
:103950004046FEF77BFC4FF2040901214846FEF782
:1039600075FC0D214FF43040FEF770FC0D214BF239
:103970000100FEF76BFC0D214BF20200FEF766FC26
:103980004FF4364A34215046FEF760FC34214BF2A6
:103990000160FEF75BFC34214BF20260FEF756FC3F
:1039A0004FF4314B0D215846FEF750FC0D214BF2E0
:1039B0000110FEF74BFC0D214BF20210FEF746FC06
:1039C00034214FF43740FEF741FC34214BF20170B3
:1039D000FEF73CFC34214BF20270FEF737FC00216D
:1039E0004FF43240FEF732FC00214BF20120FEF78B
:1039F0002DFC00214BF20220FEF728FC24214FF47D
:103A00003840FEF723FC24214BF60100FEF71EFC94
:103A100024214BF60200FEF719FC01214FF43F4030
:103A2000FEF714FC0F2100E0FEE34FF43340FEF7F5
:103A30000DFC0F214BF20130FEF708FC0F214BF279
:103A40000230FEF703FC34214FF43940FEF7FEFB51
:103A500034214BF60110FEF7F9FB34214BF602102E
:103A6000FEF7F4FB08214FF43540FEF7EFFB082189
:103A70004BF20150FEF7EAFB08214BF20250FEF731
:103A8000E5FB03214FF44240FEF7E0FB24214FF415
:103A90003A40FEF7DBFB24214BF60120FEF7D6FB74
:103AA00024214BF60220FEF7D1FB00214FF43C40CD
:103AB000FEF7CCFB78214BF60140FEF7C7FB002157
:103AC0004BF60240FEF7C2FB00214FF43D40FEF7EB
:103AD000BDFB78214BF60150FEF7B8FB00214BF6F9
:103AE0000250FEF7B3FB00214FF43E40FEF7AEFB61
:103AF00064214BF60160FEF7A9FB00214FF4514011
:103B0000FEF7A4FB33214DF20110FEF79FFB0021CD
:103B10004DF20210FEF79AFB34214DF20310FEF72E
:103B200095FB00214DF20410FEF790FB3A214DF277
:103B30000510FEF78BFB00214DF20610FEF786FB09
:103B40004A214DF20710FEF781FB00214DF20810CB
:103B5000FEF77CFB5C214DF20910FEF777FB00219C
:103B60004DF20A10FEF772FB81214DF20B10FEF7A9
:103B70006DFB00214DF20C10FEF768FBA6214DF203
:103B80000D10FEF763FB00214DF20E10FEF75EFBF9
:103B9000E5214DF20F10FEF759FB01214DF21010F7
:103BA000FEF754FB13214DF21110FEF74FFB0121DC
:103BB0004DF21210FEF74AFB54214DF21310FEF79E
:103BC00045FB01214DF21410FEF740FB82214DF21E
:103BD0001510FEF73BFB01214DF21610FEF736FBE8
:103BE000CA214DF21710FEF731FB02214DF21810D9
:103BF000FEF72CFB00214DF21910FEF727FB0221E6
:103C00004DF21A10FEF722FB01214DF21B10FEF7B8
:103C10001DFB02214DF21C10FEF718FB34214DF262
:103C20001D10FEF713FB02214DF21E10FEF70EFBD6
:103C300067214DF21F10FEF709FB02214DF2201003
:103C4000FEF704FB84214DF22110FEF7FFFA02215A
:103C50004DF22210FEF7FAFAA4214DF22310FEF7DE
:103C6000F5FA02214DF22410FEF7F0FAB7214DF2D9
:103C70002510FEF7EBFA02214DF22610FEF7E6FAC8
:103C8000CF214DF22710FEF7E1FA02214DF2281064
:103C9000FEF7DCFADE214DF22910FEF7D7FA0221F9
:103CA0004DF22A10FEF7D2FAF2214DF22B10FEF758
:103CB000CDFA02214DF22C10FEF7C8FAFE214DF28A
:103CC0002D10FEF7C3FA03214DF22E10FEF7BEFAB7
:103CD00010214DF22F10FEF7B9FA03214DF23010EA
:103CE000FEF7B4FA33214DF23110FEF7AFFA03219B
:103CF0004DF23210FEF7AAFA6D214DF23310FEF7A5
:103D0000A5FA00214FF45240FEF7A0FA33214DF2FC
:103D10000120FEF79BFA00214DF20220FEF796FAF1
:103D200034214DF20320FEF791FA00214DF20420D8
:103D3000FEF78CFA3A214DF20520FEF787FA0021B2
:103D40004DF20620FEF782FA4A214DF20720FEF7D7
:103D50007DFA00214DF20820FEF778FA5C214DF241
:103D60000920FEF773FA00214DF20A20FEF76EFAE1
:103D700081214DF20B20FEF769FA00214DF20C2053
:103D8000FEF764FAA6214DF20D20FEF75FFA00213E
:103D90004DF20E20FEF75AFAE5214DF20F20FEF704
:103DA00055FA01214DF21020FEF750FA13214DF281
:103DB0001120FEF74BFA01214DF21220FEF746FAD0
:103DC00054214DF21320FEF741FA01214DF2142047
:103DD000FEF73CFA82214DF21520FEF737FA012159
:103DE0004DF21620FEF732FACA214DF21720FEF7E7
:103DF0002DFA02214DF21820FEF728FA00214DF28B
:103E00001920FEF723FA02214DF21A20FEF71EFABE
:103E100001214DF21B20FEF719FA02214DF21C2060
:103E2000FEF714FA34214DF21D20FEF70FFA02219D
:103E30004DF21E20FEF70AFA67214DF21F20FEF711
:103E400005FA02214DF22020FEF700FA84214DF2FE
:103E50002120FEF7FBF902214DF22220FEF7F6F9B0
:103E6000A4214DF22320FEF7F1F902214DF2242086
:103E7000FEF7ECF9B7214DF22520FEF7E7F9022114
:103E80004DF22620FEF7E2F9CF214DF22720FEF772
:103E9000DDF902214DF22820FEF7D8F9DE214DF29E
:103EA0002920FEF7D3F902214DF22A20FEF7CEF9A0
:103EB000F2214DF22B20FEF7C9F902214DF22C2000
:103EC000FEF7C4F9FE214DF22D20FEF7BFF90321C4
:103ED0004DF22E20FEF7BAF910214DF22F20FEF7F9
:103EE000B5F903214DF23020FEF7B0F933214DF240
:103EF0003120FEF7ABF903214DF23220FEF7A6F98F
:103F00006D214DF23320FEF7A1F900214FF453400B
:103F1000FEF79CF933214DF20130FEF797F90021AD
:103F20004DF20230FEF792F934214DF20330FEF7E4
:103F30008DF900214DF20430FEF788F93A214DF257
:103F40000530FEF783F900214DF20630FEF77EF9C9
:103F50004A214DF20730FEF779F900214DF2083081
:103F6000FEF774F95C214DF20930FEF76FF900217C
:103F70004DF20A30FEF76AF981214DF20B30FEF75F
:103F800065F900214DF20C30FEF760F9A6214DF2E3
:103F90000D30FEF75BF900214DF20E30FEF756F9B9
:103FA000E5214DF20F30FEF751F901214DF21030AD
:103FB000FEF74CF913214DF21130FEF747F90121BC
:103FC0004DF21230FEF742F954214DF21330FEF754
:103FD0003DF901214DF21430FEF738F982214DF2FE
:103FE0001530FEF733F901214DF21630FEF72EF9A8
:103FF000CA214DF21730FEF729F902214DF218308F
:10400000FEF724F900214DF21930FEF71FF90221C5
:104010004DF21A30FEF71AF901214DF21B30FEF76E
:1040200015F902214DF21C30FEF710F934214DF242
:104030001D30FEF70BF902214DF21E30FEF706F996
:1040400067214DF21F30FEF701F902214DF22030B9
:10405000FEF7FCF884214DF22130FEF7F7F802213B
:104060004DF22230FEF7F2F8A4214DF22330FEF794
:10407000EDF802214DF22430FEF7E8F8B7214DF2B9
:104080002530FEF7E3F802214DF22630FEF7DEF888
:10409000CF214DF22730FEF7D9F802214DF228301A
:1040A000FEF7D4F8DE214DF22930FEF7CFF80221D9
:1040B0004DF22A30FEF7CAF8F2214DF22B30FEF70E
:1040C000C5F802214DF22C30FEF7C0F8FE214DF26A
:1040D0002D30FEF7BBF803214DF22E30FEF7B6F877
:1040E00010214DF22F30FEF7B1F803214DF23030A0
:1040F000FEF7ACF833214DF23130FEF7A7F803217B
:104100004DF23230FEF7A2F86D214DF23330FEF75A
:104110009DF800214FF45440FEF798F8332100E059
:1041200081E34DF20140FEF791F800214DF202408B
:10413000FEF78CF834214DF20340FEF787F800219A
:104140004DF20440FEF782F83A214DF20540FEF7A9
:104150007DF800214DF20640FEF778F84A214DF235
:104160000740FEF773F800214DF20840FEF76EF8A5
:104170005C214DF20940FEF769F800214DF20A403A
:10418000FEF764F881214DF20B40FEF75FF8002145
:104190004DF20C40FEF75AF8A6214DF20D40FEF705
:1041A00055F800214DF20E40FEF750F8E5214DF292
:1041B0000F40FEF74BF801214DF21040FEF746F894
:1041C00013214DF21140FEF741F801214DF212404A
:1041D000FEF73CF854214DF21340FEF737F8012169
:1041E0004DF21440FEF732F882214DF21540FEF7F1
:1041F0002DF801214DF21640FEF728F8CA214DF2A4
:104200001740FEF723F802214DF21840FEF71EF882
:1042100000214DF21940FEF719F802214DF21A4023
:10422000FEF714F8012100E0FFE24DF21B40FEF71B
:104230000DF802214DF21C40FEF708F834214DF232
:104240001D40FEF703F802214DF21E40FDF7FEFF70
:1042500067214DF21F40FDF7F9FF02214DF220408A
:10426000FDF7F4FF84214DF22140FDF7EFFF02211D
:104270004DF22240FDF7EAFFA4214DF22340FDF765
:10428000E5FF02214DF22440FDF7E0FFB7214DF29A
:104290002540FDF7DBFF02214DF22640FDF7D6FF5A
:1042A000CF214DF22740FDF7D1FF02214DF22840EA
:1042B000FDF7CCFFDE214DF22940FDF7C7FF0221BB
:1042C0004DF22A40FDF7C2FFF2214DF22B40FDF7DF
:1042D000BDFF02214DF22C40FDF7B8FFFE214DF24B
:1042E0002D40FDF7B3FF03214DF22E40FDF7AEFF49
:1042F00010214DF22F40FDF7A9FF03214DF2304070
:10430000FDF7A4FF33214DF23140FDF79FFF03215C
:104310004DF23240FDF79AFF6D214DF23340FDF72B
:1043200095FF00214FF45540FDF790FF33214DF2EA
:104330000150FDF78BFF00214DF20250FDF786FF83
:1043400034214DF20350FDF781FF00214DF204505E
:10435000FDF77CFF3A214DF20550FDF777FF002174
:104360004DF20650FDF772FF4A214DF20750FDF75E
:104370006DFF00214DF20850FDF768FF5C214DF202
:104380000950FDF763FF00214DF20A50FDF75EFF73
:1043900081214DF20B50FDF759FF00214DF20C50D9
:1043A000FDF754FFA6214DF20D50FDF74FFF002100
:1043B0004DF20E50FDF74AFFE5214DF20F50FDF78B
:1043C00045FF01214DF21050FDF740FF13214DF242
:1043D0001150FDF73BFF01214DF21250FDF736FF62
:1043E00054214DF21350FDF731FF01214DF21450CD
:1043F000FDF72CFF82214DF21550FDF727FF01211B
:104400004DF21650FDF722FFCA214DF21750FDF76D
:104410001DFF02214DF21850FDF718FF00214DF24B
:104420001950FDF713FF02214DF21A50FDF70EFF50
:1044300001214DF21B50FDF709FF02214DF21C50E6
:10444000FDF704FF34214DF21D50FDF7FFFE022160
:104450004DF21E50FDF7FAFE67214DF21F50FDF799
:10446000F5FE02214DF22050FDF7F0FE84214DF2C1
:104470002150FDF7EBFE02214DF22250FDF7E6FE42
:10448000A4214DF22350FDF7E1FE02214DF224500C
:10449000FDF7DCFEB7214DF22550FDF7D7FE0221D6
:1044A0004DF22650FDF7D2FECF214DF22750FDF7F9
:1044B000CDFE02214DF22850FDF7C8FEDE214DF25F
:1044C0002950FDF7C3FE02214DF22A50FDF7BEFE32
:1044D000F2214DF22B50FDF7B9FE02214DF22C5086
:1044E000FDF7B4FEFE214DF22D50FDF7AFFE032186
:1044F0004DF22E50FDF7AAFE10214DF22F50FDF780
:10450000A5FE03214DF23050FDF7A0FE33214DF200
:104510003150FDF79BFE03214DF23250FDF796FE20
:104520006D214DF23350FDF791FE00214FF45640BE
:10453000FDF78CFE33214DF20160FDF787FE00216F
:104540004DF20260FDF782FE34214DF20360FDF76B
:104550007DFE00214DF20460FDF778FE3A214DF218
:104560000560FDF773FE00214DF20660FDF76EFE5B
:104570004A214DF20760FDF769FE00214DF2086007
:10458000FDF764FE5C214DF20960FDF75FFE00213E
:104590004DF20A60FDF75AFE81214DF20B60FDF7E6
:1045A00055FE00214DF20C60FDF750FEA6214DF2A4
:1045B0000D60FDF74BFE00214DF20E60FDF746FE4B
:1045C000E5214DF20F60FDF741FE01214DF2106033
:1045D000FDF73CFE13214DF21160FDF737FE01217E
:1045E0004DF21260FDF732FE54214DF21360FDF7DB
:1045F0002DFE01214DF21460FDF728FE82214DF2BF
:104600001560FDF723FE01214DF21660FDF71EFE39
:10461000CA214DF21760FDF719FE02214DF2186014
:10462000FDF714FE00214DF21960FDF70FFE022187
:104630004DF21A60FDF70AFE01214DF21B60FDF7F5
:1046400005FE02214DF21C60FDF700FE34214DF203
:104650001D60FDF7FBFD02214DF21E60FDF7F6FD2A
:1046600067214DF21F60FDF7F1FD02214DF2206040
:10467000FDF7ECFD84214DF22160FDF7E7FD0221FD
:104680004DF22260FDF7E2FDA4214DF22360FDF71B
:10469000DDFD02214DF22460FDF7D8FDB7214DF27A
:1046A0002560FDF7D3FD02214DF22660FDF7CEFD1A
:1046B000CF214DF22760FDF7C9FD02214DF22860A0
:1046C000FDF7C4FDDE214DF22960FDF7BFFD02219B
:1046D0004DF22A60FDF7BAFDF2214DF22B60FDF795
:1046E000B5FD02214DF22C60FDF7B0FDFE214DF22B
:1046F0002D60FDF7ABFD03214DF22E60FDF7A6FD09
:1047000010214DF22F60FDF7A1FD03214DF2306025
:10471000FDF79CFD33214DF23160FDF797FD03213C
:104720004DF23260FDF792FD6D214DF23360FDF7E1
:104730008DFD55212046FDF789FDAA213046FDF764
:1047400085FD52213846FDF781FD08214046FDF7E1
:104750007DFD00214846FDF779FDCC215846FDF747
:1047600075FD00214BF20110FDF770FD052150464B
:10477000FDF76CFD70214FF43740FDF767FD7021A8
:104780004BF20170FDF762FD01214FF43840FDF757
:104790005DFD03214BF60100FDF758FD03214BF6AB
:1047A0000200FDF753FD03214BF60300FDF74EFD1C
:1047B00002214FF43C40FDF749FD00214BF601403A
:1047C000FDF744FD00214BF60240FDF73FFDD021EF
:1047D0004FF44940FDF73AFD02214CF60110FDF778
:1047E00035FD50214CF60210FDF730FD50214CF6FE
:1047F0000310FDF72BFD50214CF60410FDF726FDAC
:1048000000214FF45450FDF721FD55214FF468501D
:10481000FDF71CFD4FF48850FDF79CFC782003F059
:1048200006FA4FF42450FDF795FC0120FEF74AFBF1
:10483000FE490120C1F8B0012846FEF737FEBDE869
:10484000F88F2DE9F84FFA4C1E468346A388A3F54E
:10485000D040043802D1A07901280BD0A2EB0B0084
:10486000401C84B20D46DFF8CC834FF400794FF43E
:10487000004A40E025880846A91AA5EB0B0300254D
:10488000A57132462A2565812B26A681491E5B1E0D
:104890000A9F89B29BB20097FFF7D3FF0120A07156
:1048A0006681A581CBE729465846FDF723FDFDF734
:1048B000F5FC00271BE000BF4FF48071404601F07B
:1048C00084FE4946404601F082FEDB480A9901F029
:1048D00085FE5146404601F07AFE5146404601F0C1
:1048E00074FE4946404601F070FE7F1CBFB2A742ED
:1048F000E2D36D1CADB2B542D5D9A0E72DE9FF5F7B
:104900008B460098101A401C86B2A3EB0B00401C8B
:1049100087B2002433E000BF0BEB040081B20098A3
:10492000FDF7E8FCFDF7BAFC0025DFF808934FF42B
:10493000007A4FF400481EE04FF48071484601F0C1
:1049400044FE5146484601F042FE04FB06510E98D3
:1049500030F81110B84801F041FE4146484601F0D8
:1049600036FE4146484601F030FE5146484601F0C9
:104970002CFE6D1CADB2B542DED3641CA4B2BC42A9
:10498000CAD3BDE8FF9F2DE9FE4F161ACDE90010EE
:104990004FF000085D1A47464FF0FF30002E02DD51
:1049A0004FF0010102E003D14FF000018B4602E01D
:1049B0008346C6F10006002D02DD4FF0010002E043
:1049C00003D14FF00000824602E08246C5F10005A7
:1049D000AE4201DD344600E02C46601C4FF0000979
:1049E000029018E0009881B2019880B2FEF703F9B6
:1049F000B0442F44A04504DD0198A8EB04085844B6
:104A00000190A74203DD00983F1B5044009009F13C
:104A100001001FFA80F902998945E3DDBDE8FE8FA8
:104A20002DE9F0411C4615460E4607460B46FFF79A
:104A3000AAFF3A46234631461046FFF7A4FF234615
:104A40002A4619463846FFF79EFF2A462346314636
:104A5000BDE8F041104696E72DE9FC5F07460025CA
:104A6000144603200E46A0EB440858E0A6EB0509C7
:104A7000A7EB040A1FFA89F11FFA8AF0FEF7BBF8C8
:104A8000381901901FFA89F180B2FEF7B4F8301995
:104A900081B2A7EB050B00901FFA8BF0FEF7ABF885
:104AA0001FFA89F11FFA8AF0FEF7A5F8A6EB0409B0
:104AB0001FFA89F11FFA8BF0FEF79DF8019806EBBB
:104AC000050B1FFA8BF180B2FEF795F81FFA89F1FA
:104AD00007EB05091FFA89F0FEF78DF8009881B2FF
:104AE0001FFA89F0FEF787F81FFA8BF11FFA8AF098
:104AF000FEF781F86D1CB8F1000F04DA08EB8500B1
:104B000000F1060805E0291B08EB810000F10A0806
:104B1000641E301981B2781980B2FEF76CF8A54294
:104B2000A4DDBDE8FC9F2DE9FF5F80461D460C46D5
:104B30008B46580700D0012000EBD5006908484398
:104B4000203A00F0FF0AD0B20026029045E00C2D7A
:104B500012D0102D15D0182D41D10298374900EBF5
:104B6000C00000BF01EB80004FF00009875D3806F0
:104B70000CD5334802880DE00298324900EB400022
:104B8000F0E73149029801EB0010EDE70E9828B9E3
:104B90002B48428821464046FEF751F87806070E1A
:104BA0002348641CA4B20188414518D9A4EB0B002A
:104BB000A84209D108F101001FFA80F81C485C46A0
:104BC000018841450BD906E009F1010000F0FF0919
:104BD000B9F1080FCBD3761CF6B25645B7D3D0E661
:104BE0000246012000E05043491EC9B2FBD2704783
:104BF0002DE9FF4F81B00026DDF838A01D46934611
:104C000081463446B0464FEA5A0738E0281B401E1A
:104C1000C1B20A20FFF7E4FFBBFBF0F00A21B0FBB2
:104C2000F1F201FB1200AEB9691E0FE00000214253
:104C3000B007002000100140000C01400CC2010828
:104C400098000020A8B701081CBC01088C4201DABA
:104C500048B101263030C2B207FB049080B25346FF
:104C6000CDF8008006E007FB049080B25346202276
:104C7000CDF800800299FFF756FF641CE4B2AC4205
:104C8000C4D305B0BDE8F08F2DE9FF4F81B04FF0E0
:104C90000008DDE90EBA1E46814644460AF00105C9
:104CA0004FEA5B072CE0301B401EC1B20A20FFF721
:104CB00097FF0399B1FBF0F00A21B0FBF1F201FB81
:104CC0001200B8F1000F05D1711E8C4202DA48B112
:104CD0004FF001083030C2B207FB049080B25B464F
:104CE000009508E05FEA0A6007FB049080B25B462B
:104CF000009508D530220299FFF715FF641CE4B235
:104D0000B442D0D3BDE72022F5E72DE9F84F0446A1
:104D100000F0FF0910190D46DDE90AB61FFA80F808
:104D2000581987B24FF0000A12E0444503D305EB4F
:104D30000B004C4685B2BD420FD25B462946204649
:104D4000CDF800A0FFF7EFFE04EB5B0084B2761C09
:104D50003278A2F120005E28E7D970E570B50646EA
:104D60000024324D03E0641CE4B2C82C0FD80221A9
:104D7000284601F002FF0028F5D03146284601F010
:104D8000B8FE002405E0641CE4B2C82C01D9002060
:104D900070BD0121284601F0F0FE0028F3D028461E
:104DA00001F0A9FEC0B270BD38B5012141F2040086
:104DB00001F087FDE020ADF8000018208DF8030019
:104DC00003201B4C8DF802006946204601F08FFB42
:104DD000E021204601F0F9FB164800214FF48272D1
:104DE000018042808180C180621501814281382228
:104DF0008281C181072101820C4C0146204601F0CD
:104E0000D3FD0121204601F04CFEFF20FFF7A6FF55
:104E100038BD06490A8822F038020A800A8802430F
:104E20000A80088840F04000088070470030014048
:104E300000080140BE07002030B50021FF4A0B46A4
:104E40000124050602D5C2F8A04101E0C2F8A03154
:104E50004006000EC2F8AC31C2F8AC41491CC9B2E0
:104E60000829EED330BD2DE9F0410027F34C3E4632
:104E70003D46C4F8AC71C4F8A071C4F8BC7104F527
:104E8000D074FFF7D9FF062002F0D1FEE5600120C3
:104E900002F0CDFE0121E160E560E94A4FF6FF70C6
:104EA000A4F5D07400EA4606C4F8AC51C4F8AC11BD
:104EB000D2F828310BB1761CB6B27F1CFFB2102F8E
:104EC000F0D33009C4F8BC11BDE8F081FEB5064648
:104ED00000256C463046FFF7C6FF24F815006D1C10
:104EE000ADB2052DF6D30020431C99B20CE000BFF3
:104EF00034F8102034F81150AA4203D924F8105085
:104F000024F81120491C89B20529F1D398B204284C
:104F1000EAD300215FF0010034F81020401C114456
:104F200080B289B20428F7D30320B1FBF0F0FEBDB4
:104F30002DE9F041C34C06460D462078FFF7C6FF29
:104F400007466078FFF7C2FF378028800120BBE763
:104F50007FB50C460546694602A8FFF7E9FF002821
:104F60002FD001A903A8FFF7E3FF002829D0BDF83F
:104F70000C30BDF80820934203D803F1320082427E
:104F800005D39A421FD802F1320083421BD2BDF8EA
:104F90000410BDF80000814203D801F13206B0428E
:104FA00004D388420FD8323081420CD2D018400846
:104FB0002880BDF80000BDF8041008444008208097
:104FC000012004B070BD0020FBE72DE9F04104464C
:104FD0009D480D460B46028004F10D0082B219383F
:104FE00080B2FFF7D0FC05F10D0083B2193881B211
:104FF00022461046FFF7C7FC6E1C04F10108B1B24F
:105000001FFA88F0FDF7F7FDB1B2661EB0B2FDF7EA
:10501000F2FD6F1EB9B21FFA88F0FDF7ECFDB9B2D0
:10502000B0B2FDF7E8FD29462046BDE8F041062272
:10503000FFF712BD70B5064683480C460280304625
:10504000FDF7D9FD751CA8B22146FDF7D4FD641CFF
:10505000A1B23046FDF7CFFDA1B2A8B2BDE87040C5
:10506000FDF7C9BD70B502467548D0F83401754CDE
:10507000083440B194F8200001063ED520F08000AD
:1050800084F8200040E06F48083000F116010C3031
:1050900012B1FFF75DFF24E0FFF75AFF08B3B4F940
:1050A0002C0003F06FFC0546A08903F074FC616AD4
:1050B00003F0ECFB294603F091FB03F097FCA08181
:1050C000B4F92E0003F05EFC0546E08A03F063FCB1
:1050D000A16A03F0DBFB294603F080FB03F086FCAA
:1050E000E08294F8200000060ED4C02084F820004E
:1050F000A089A082E08AE08306E00020A082E0830D
:105100004FF6FF70A081E08294F8200000F080004C
:1051100070BD10B54B4C042208342820616A00F0A1
:1051200037FE04222C20A16A00F032FEA18D02225B
:10513000302000F02DFEE18D0222322000F028FE0A
:1051400094F83010342000F004FE0A21BDE810402D
:10515000352000F0FEBD10B5352000F0D9FD0A283D
:1051600001D0002010BD0421282000F026FE354C7F
:105170000421083460622C2000F01FFEA06202218E
:10518000302000F01AFEA0850221322000F015FE2A
:10519000E085342000F0BCFD90222A4984F83000DC
:1051A000D02310B10A704B7001E00B704A700120DF
:1051B00010BD2DE9FF4F83B00E46DDE910A822494E
:1051C00007464FF47840DDF8509008801FA0102566
:1051D000CDE900501E4C9346A021638822882820E8
:1051E000FFF793FD1BA0CDE9005063882288A02122
:1051F0007820FFF78AFD18A0CDE900506388228847
:10520000B4212820FFF781FD14A0CDE90050638868
:105210002288B4217820FFF778FD11A0CDE9005055
:1052200063882288C8212820FFF76FFD0DA0CDE9F3
:105230000050C82163882288782015E000002142B0
:10524000000022429C0000209800002078313A00A3
:10525000B007002079313A0078323A0079323A00CA
:1052600078333A0079333A00FFF74FFDFEA0CDE9DD
:10527000005063882288DC212820FFF746FDFBA030
:10528000CDE9005063882288DC217820FFF73DFDBE
:10529000F7A0CDE9005063882288F0212820FFF78D
:1052A00034FD04233A46A02140200095FFF7A0FCDE
:1052B00004233246A02190200095FFF799FC042397
:1052C0005A46B42140200095FFF792FC0423009534
:1052D000B4219020069AFFF78BFC04235246C82184
:1052E00040200095FFF784FC04234246C82190200B
:1052F0000095FFF77DFC04230095DC214020129AE5
:10530000FFF776FC04230095DC219020139AFFF729
:105310006FFC0095218803234A466020FFF768FC54
:1053200007B0BDE8F08F2DE9F04F002689B0344674
:105330004FF6FF70FEF7BAF8CF484FF01F0B4FF053
:105340001009A0F800B0CD486423A0224168CDE93F
:10535000009128210846FFF7D8FC14214FF4784229
:105360000846FFF732FEC54800210830824680F823
:1053700020104162DAF8041055460120884795F85C
:1053800020100120B0EB911F49D121F0400185F898
:10539000201005A9AA8921F8262001EB8602761C97
:1053A0000024E88AF6B2AA465080012E06D0022ECA
:1053B00012D0032E20D0042E31D13CE014214FF620
:1053C000FF720846FFF701FEAD484FF478420088AF
:1053D000143880B2142120E0A94D4FF6FF72142139
:1053E0002888143880B2FFF7F0FD68884FF47842BF
:1053F000143881B2142010E0A14D4FF6FF72688876
:10540000143881B21420FFF7E0FD68884FF4784229
:10541000143881B22888143880B2FFF7D6FD0A20EC
:1054200002F01CFC641CA4B2B4F57A7FA2D9FFF789
:1054300092FE09B075E70026924805AD00EB86079D
:1054400010F82620787835F8221035F82030C91A5F
:1054500000D5494205EB820205EB80005288408866
:10546000101A00D5404249434043084403F098FADB
:1054700016F033F803F0CEFA1FFA80F8B878FA780D
:1054800035F8201035F82230C91A00D5494205EB0D
:10549000800005EB820240885288801A00D5404285
:1054A00049434043084403F07BFA16F016F803F032
:1054B000B1FA87B2384603F06EFA0546404603F06B
:1054C0006AFA294603F014FA6F49054688427DDDE1
:1054D0006E4885427ADCB8F1000F77D0002F75D086
:1054E000761CF6B2032EA7D3BDF81870BDF8146071
:1054F000B81B03F047FA05466148008802908046D1
:10550000283803F03FFA294603F0F2F9CAF82400DC
:105510000090B81903F03FFA009903F0B7F9054677
:10552000404603F038FA294603F0AAF94FF0FF315C
:1055300003F01CFA03F041FAAAF82C00BDF81E7023
:10554000BDF816000190381A03F01CFA06464C48C4
:105550004588A5F1280003F015FA314603F0C8F993
:1055600080460646CAF828000198384403F013FA2A
:10557000314603F08BF90646284603F00CFA314613
:1055800003F07EF94FF0FF3103F0F0F903F015FA64
:10559000AAF82E00009803F010FA002800DA404222
:1055A000022807DC404603F008FA002800DA4042EF
:1055B000022858DD0298143D14380026304FA9B255
:1055C00080B24FF6FF72FFF700FD00E01AE01421F1
:1055D0004FF478420846FFF7F8FC2DA1CDE9009181
:1055E0007B883A881A212820FFF78FFB9AF8301021
:1055F000B9B300218AF83010A1B32048902101707E
:10560000D0215AE01E4800264FF6FF7241880088DC
:105610001439143889B280B2FFF7D7FC14214FF443
:1056200078420846FFF7D1FC1E49284603F02EF9C0
:1056300003F0DCF980B2BDF82220BDF82030BDF8BF
:105640001E10CDE90320CDE90113BDF81C00009028
:10565000BDF81A30BDF81820BDF81610BDF81400BA
:1056600022E024E025E02AE078343A0079343A0058
:105670006661632069733A00980000209C00002056
:10568000B007002068CF01083333733F6666863F5A
:105690005450204E65656420726561646A75737448
:1056A000210000000000C842FFF783FD62E60121EF
:1056B000A0E73248D0210170902141705AE630496C
:1056C0004FF6FF742046A1F800B0FDF7EFFE2DA1C4
:1056D000CDE9009131486E21438802882320FFF7ED
:1056E00014FB4FF47A7002F0B9FAFFF712FD20466E
:1056F000FDF7DCFE9DE638B50121142001F0E1F84C
:105700004FF40940ADF8000010208DF8030003208D
:105710008DF802006946224800F0E9FE4FF48060EF
:10572000ADF8000048201F4C8DF803006946204664
:1057300000F0DDFE6014ADF8000004208DF80300D9
:105740006946204600F0D3FE0C491E31A1F10A0043
:10575000FFF7EEFB00F0DAFAFFF7FDFC08B10020DE
:1057600038BD4FF47840FDF7A1FEFFF7DCFDFFF7F1
:10577000D0FCFFF7F0FC012038BD00009C000020A9
:1057800098000020546F7563682053637265656EDE
:105790002041646A757374204F4B2100B0070020CC
:1057A00000080140001001407FB50C46054601216C
:1057B000022001F08FF8ADF80040ADF8045000244D
:1057C000554DADF80240ADF806406946284601F057
:1057D00099FA01221146284601F052FD1D208DF84C
:1057E0000C008DF80D4003208DF80E0001208DF87F
:1057F0000F0003A800F0D1FD0121284601F02BFD88
:105800007FBD10B5444C0121204601F04EFF18B178
:1058100042490868401C08602046BDE8104001214C
:1058200001F04FBF7FB50D4604460121102001F065
:1058300051F80020ADF80440ADF80050384CADF8F8
:105840000200ADF806006946204601F05BFA01222D
:105850004121204601F014FD36208DF80C00012175
:105860008DF80D1003208DF80E008DF80F1003A891
:1058700000F093FD0121204601F0EDFC7FBD10B545
:10588000274C0121204601F010FF08B107F052FD1E
:105890002046BDE81040012101F013BF7FB50D4641
:1058A00004460121084601F015F80020ADF8044037
:1058B000ADF80050ADF80200ADF806004FF080449E
:1058C0006946204601F01EFA01221146204601F0E9
:1058D000D7FC1C208DF80C0002208DF80D00032051
:1058E0008DF80E0001208DF80F0003A800F055FD83
:1058F0000121204601F0AFFC7FBD10B501218C07CE
:10590000204601F0D2FE08B100F075F82046BDE84F
:105910001040012101F0D5BE000400401401002018
:10592000001000404C48016800210160016841F00E
:1059300033310160C16801F47F41C160C16841F049
:10594000F001C160016889B201600168434A1143F6
:105950000160704710B50121102000F0B2FFBDE8D2
:105960001040DFE770B52A25FFF7DCFF3A4CA0684E
:10597000A068C0F303100F283BD0642002F057F951
:10598000A068A16880B2C1F303110F2931D000F0E3
:10599000F001206800202060206840F03330206053
:1059A000E06800F47F40E060E06840F00F00E060F5
:1059B00020686FF30F002060206848F688021043CB
:1059C0002060A06800F00F000143254875290BD026
:1059D000B52907D0D52903D0E52906D1C57804E03B
:1059E000857802E0457800E00578A068C0430007AC
:1059F000FBD1284670BD2DE9F041FFF7B3FF4828E1
:105A00001FD010DD542810D059280CD1144C00257B
:105A1000641E01262078134F01280CD0FCF770FE7D
:105A2000C7F8B0512670BDE8F081BDE8F041012112
:105A3000172007F041BAFCF749FEC7F8B06125709E
:105A4000F1E709490620087000F021F9BDE8F041AE
:105A5000054800F0E1B8000000100140000088880F
:105A6000D9000020000021420807002070B586B050
:105A70000121242000F025FF1024ADF800409C4EA9
:105A80008DF8034003258DF802506946304600F03A
:105A90002EFD0820ADF800008DF803408DF802506F
:105AA0006946304600F023FD0821304600F08DFDA8
:105AB0000420ADF8000048208DF8030001258DF882
:105AC000025069468B4800F012FD1821304600F064
:105AD0007CFDFFF769F9884E0021304600F0E1FFB8
