:020000040800F2
:1000000060A90020B55E000845010008470100080E
:10001000490100084B0100084D01000800000000E4
:100020000000000000000000000000004F01000878
:1000300051010008000000005301000855010008AC
:10004000CF5E0008CF5E0008CF5E0008CF5E0008DC
:10005000CF5E0008CF5E0008CF5E0008CF5E0008CC
:10006000CF5E0008CF5E0008CF5E0008CF5E0008BC
:10007000CF5E0008CF5E0008CF5E0008CF5E0008AC
:10008000CF5E0008CF5E0008CF5E0008CF5E00089C
:10009000CF5E0008CF5E0008CF5E0008CF5E00088C
:1000A000CF5E0008CF5E0008CF5E0008CF5E00087C
:1000B000D7540008DF530008CF5E0008CF5E000869
:1000C000CF5E0008CF5E0008CF5E0008CF5E00085C
:1000D000CF5E00084D5E0008CF5E0008CF5E0008CE
:1000E000CF5E0008CF5E0008CF5E0008CF5E00083C
:1000F000CF5E0008CF5E0008CF5E0008CF5E00082C
:10010000CF5E0008CF5E0008CF5E0008CF5E00081B
:10011000CF5E0008CF5E00085B540008CF5E000889
:10012000CF5E0008CF5E0008CF5E0008CF5E0008FB
:10013000DFF80CD008F036FA00480047E11B000851
:1001400060A900207047FEE7FEE7FEE7FEE7704784
:1001500070477047704700000CB500214B48019173
:100160000091026842F4803202604FF4A06302689A
:1001700002F400320092019A521C0192009A12B9C4
:10018000019A9A42F3D10268920333D5012100917A
:100190003F490A6842F010020A600A6822F003022E
:1001A0000A600A6842F002020A60416841604168E0
:1001B0004160416841F480614160416821F47C11F3
:1001C0004160416841F4E8114160016841F080718B
:1001D000016001688901FCD5416821F0030141609B
:1001E000416841F0020141604168C1F38101022987
:1001F000FAD10CBD00910CBD244810B5016841F046
:10020000010101604168234A114041600168224AAE
:1002100011400160016821F480210160416821F4EE
:10022000FE0141604FF41F018160FFF795FF1B49FC
:100230004FF00060086010BD144910B54868184AB6
:1002400010F00C03174803D0042B01D0082B0AD060
:1002500002604968134AC1F30311121D515C026820
:10026000CA40026010BD4A684B6802F470124FF039
:10027000020413F4803F04EB924202D04B689B03CC
:1002800001D5094B00E0064B5A43E1E7001002405C
:10029000002002400000FFF8FFFFF6FE08ED00E03E
:1002A00000127A000000002000093D002DE9FF4700
:1002B000F94C81462668354611F068FD80460EF0FF
:1002C00063FF21684F4200EB47040EF051FF00EB43
:1002D000470200230227CDE90293CDE90087234698
:1002E0002946304611F088FBEC49086004B0BDE8AF
:1002F000F0873EB5144611F05FFD054611F01DFD77
:10030000E749884204D12146284609F04BF83EBD12
:10031000E449884209D12246E3A168461CF03EFB2D
:100320006946284609F07AFA3EBDE0498842FBD189
:100330002146284610F0CAFB3EBD3EB511F03CFDFB
:10034000044611F0FAFCD949884203D1204610F046
:1003500065FB11E0D249884203D1204608F0D3FF63
:100360000AE0D049884208D10A226946204609F0AD
:10037000B9F9684607F075FEC0B23EBD10B54FF43E
:10038000A871FFF7DAFFCA49487010BDC8494A781A
:100390004FF4A871ADE770B505464FF48071FFF7D3
:1003A000CCFFC34C4FF4A87120712846FFF7C5FF5E
:1003B0006071607840F20111012812D002280FD13B
:1003C0002846FFF7BAFFA0714FF481712846FFF766
:1003D000B4FFE07140F251112846FFF7AEFF2072E2
:1003E00070BD2846FFF7A9FFA07170BD70B5B04C75
:1003F00005464FF480712279FFF77BFF62794FF455
:10040000A8712846FFF775FF607840F201110128B6
:1004100012D0022812D1A2792846FFF76AFFE279AA
:100420004FF481712846FFF764FF227A40F25111A0
:100430002846BDE870405CE7A279F9E770BD70B569
:100440009B4C964B05466278083340F2651101F0EB
:10045000AFFA22794FF481712846FFF74AFF8F4B9C
:1004600062793A334FF4B371284601F0A1FAA279C8
:1004700040F203112846FFF73CFFE2794FF4827106
:100480002846FFF736FF854B227A263340F2671164
:10049000284601F08DFA627A4FF480712846FFF702
:1004A00028FFA27A2846BDE8704040F2011120E7FB
:1004B0007FB5D0E900140F2902D008F025F97FBDDF
:1004C00001A811F047FC042203A9204608F00AFB0A
:1004D000204608F00AFB05246FF07F4508B1754EF1
:1004E00000E0754E30460CF0CFFC0094BDF90A30A8
:1004F000BDF90820BDF90610BDF904000BF064FD3C
:1005000030460CF0BFFC28460CF0BEFC6B480CF0EB
:10051000DBFC0E2201A903A80BF02AFA7FBD10B55F
:10052000D0E9001486B00F2903D008F0EDF806B02A
:1005300010BD14226946204608F0D4FA204608F07F
:10054000D4FA78B16FF07F400CF09CFCB0200CF036
:100550005DFC0022114668460BF0BAFA00200CF050
:1005600055FCE4E70022114668460BF0B1FADEE7DD
:100570002DE9F04385B04FF0000CDDE90F46DDE9D1
:100580000C754FF00208DDF838908DE88011CDE948
:10059000035408F057F905462246494608F032FB55
:1005A000284612F057FA3146284612F049F92846F3
:1005B00005B0BDE8F0832DE9FF410027DDE90BC55B
:1005C0000A9C02268DE8D01008F00CF904463C493C
:1005D00008F0C4FA2946204608F0D8FA394A002122
:1005E000204608F090FA384A0121204608F08BFA9C
:1005F000364A0221204608F086FA0022114620469B
:1006000008F0ECFA00220121204608F0E7FA002267
:100610000221204608F0E2FA1F49204610F092FF1E
:100620000121204608F092FA04B02046BDE8F0818E
:10063000F0B585B00AAF4FF0020C97E87000CDE935
:10064000004C00270297CDE9035610F006FE05B0D6
:100650001B49BDE8F04010F07DBEF0B585B0002725
:10066000DDE90CE5DDE90A4C02268DE8D05008F002
:10067000E1FF0446164909F0C1F80221204609F0BD
:100680002DF90549204610F05DFF2946204609F066
:10069000ADF8204605B0F0BDB8BC0308140000203A
:1006A000F18D00086795000825750000B70701085F
:1006B000DC080020404040008080FF00A89803082C
:1006C0001C770308B8B8B800E0E0E000C0C0C00084
:1006D000F0A803082DE9F04387B00024DDE9109568
:1006E000DDE90E764FF01E0CCDF814C00294CDE972
:1006F00003650226CDE9007610F0B6F80646FB4900
:1007000010F0AAF909E000BF04EB840109EB4101F4
:100710002246304610F0B6F9641CAC42F4DB304699
:1007200007B046E701680F2901D011F013BA7047EE
:100730001CB50EF029FD04460EF01AFD421EEC49D0
:10074000EC48CDE900010021234608460BF038FAB9
:10075000E9480CF099FB0520002100901E2340F28F
:100760003B1208460BF030FC00200CF08DFBE348F8
:100770000CF0AAFB02200CF0E9FB07220021E0A00C
:100780000BF0EEF80722FA21E3480BF0A1F907225B
:100790004FF48771E1480BF09BF907224FF49171F8
:1007A000DF480BF095F900200CF06EFBBDE81C4013
:1007B000CE480CF089BB2DE9F043D0E9001485B098
:1007C0004FF4BB7940F2791801290AD00E297DD067
:1007D0000F297CD026297BD005B0BDE8F04311F06D
:1007E000B9B9D1A04FF4B8710094CDE90110CD4D45
:1007F0000226CDE903651E23282205210020FFF7EC
:10080000B7FECAA040F271110094CDE90110CDE904
:10081000036528221E2305211046FFF7A9FEC4A068
:100820004FF4B9710094CDE90110CDE903651E23A1
:10083000282205215020FFF79BFEBEA040F2731135
:100840000094CDE90110CDE903651E23282205217E
:100850007820FFF78DFE01AFB7A14FF4BA70049571
:10086000009487E843001E2328220521A020FFF7DB
:100870007FFEB2A0B1020094CDE901100427CDE9BA
:1008800003751E2328220521C820FFF771FEACA0A6
:1008900040F275110094CDE90110CDE903652822DD
:1008A0001E2311460020FFF763FEA6A1CDE9021624
:1008B0002822CDE900491E23049511461046FFF772
:1008C00057FEA1A040F277111E2302E034E03DE084
:1008D00044E00094CDE90110CDE9036528221146DA
:1008E0005020FFF745FE99A04FF4BC710094CDE96C
:1008F0000110CDE9036528221E2311467820FFF759
:1009000037FE93A1CDE90216CDE9004828221E2327
:1009100004951146A020FFF72BFE8EA040F60101A2
:100920000094CDE90110CDE9037528221E2311465C
:10093000C820FFF71DFE3BE6C06800680928FAD111
:1009400005B02046BDE8F04312F05CB86A480CF0F0
:1009500099FA05B0BDE8F0430AF0F2BDC16802297A
:10096000E9D1806811F059FA7B4C48452DD008DC5C
:10097000A0F5B8700628DED2DFE800F01B1D1F21AD
:100980002325A0F27911404523D005DC881C1ED018
:100990000128D0D16DA106E0A1F5C06187391AD038
:1009A0000129C8D16BA1206805B0BDE8F04300F073
:1009B000F6BF5DA1F7E75DA1F5E75DA1F3E75DA1F6
:1009C000F1E75DA1EFE75EA1EDE75EA1EBE75EA1D8
:1009D000E9E75FA1E7E7606811F0F0F800206060E8
:1009E000E6E510B5D0E9001401290BD00E2921D07D
:1009F0000F291CD0A1F5807113390FD0BDE810402C
:100A000011F0A8B8204611F0AFFF20460023BDE842
:100A100010404FF47A72194610F0C4BF04F05AFF28
:100A20004E4804F03BFFBDE8104000F0AFBFBDE80A
:100A300010407DE610BDF0B5D0E900144FF4B87554
:100A40002E1D85B001290AD00E294CD00F294BD07C
:100A500026294AD005B0BDE8F04011F07BB8204609
:100A600011F082FF0EF084FB3D4914223E4B0968D1
:100A7000CDE902324F4200EB4700782101EB6000E4
:100A8000384904911E231A46C821CDE90045FFF7D5
:100A90006FFD0EF06DFB35A14FF4B9720094CDE9F6
:100AA000012100EB47006FF0590505EB600028239A
:100AB00046223C21FFF77FFD0EF05AFB2FA140F2AA
:100AC00073120094CDE9012100EB47004010282368
:100AD00046223C21FFF76FFD0EF04AFB00EB47007A
:100AE00005EB600052E06BE074E077E01C770308F0
:100AF0006941E100DDA0DD00D3D3D30058860308AF
:100B0000E6898BE68C81E992BBE5BA8AE68EA7E599
:100B100088B6E599A80000009CF7020848F1020891
:100B2000F0FD0208B10400083000000031000000B0
:100B300032000000330000003400000059657300EB
:100B400035000000360000003700000038000000CB
:100B50003900000044656C0014000020DC0800200F
:100B6000B8BC03081F050008140C0308E8838CE5D3
:100B70008589E8B083E695B400000000E9A29CE80E
:100B800089B2E8BDACE68DA200000000FEA1009491
:100B9000CDE90161282346226E21FFF70CFD0EF0FE
:100BA000E7FAFDA140F275120094CDE9012100EBB6
:100BB00047004010282346226E21FFF7FCFC69E520
:100BC000C06800680928FAD105B02046BDE8F040A9
:100BD00011F018BF05B0BDE8F040A9E5C1680229D1
:100BE000EDD1806811F019F9A84212D0B042E6D1D7
:100BF0006FF07F400CF046F90AF0A2FC04F081F996
:100C000004F06DF8E748006805B0BDE8F04011F069
:100C100098BC05B0BDE8F04000F0B8BEF0B5D0E932
:100C20000014E14E85B001290AD00E297DD00F298C
:100C30007CD026297BD005B0BDE8F04010F08ABFFB
:100C4000204611F091FE0EF093FAD8491422D94BA8
:100C50000968CDE902324D4200EB4500782101EBF5
:100C600060004FF4B877D249CDE9004704911E23C4
:100C70001A46C821FFF77CFC0EF07AFACEA14FF499
:100C8000B9720094CDE9012100EB45006FF08107B6
:100C900007EB6000282346223C21FFF78CFC0EF076
:100CA00067FAC9A140F273120094CDE9012100EB6B
:100CB000450007EB6000282346226E21FFF77BFCEE
:100CC0000EF056FAC4A14FF4BA720094CDE9012196
:100CD00000EB45006FF0270707EB60002823462252
:100CE0003C21FFF768FC0EF043FABFA140F27512F9
:100CF0000094CDE9012100EB450007EB60002823BB
:100D000046226E21FFF757FC0EF032FABAA14FF4DB
:100D1000BB720094CDE90121322700EB4500282366
:100D2000462207EB60003C2102E017E020E023E0D0
:100D3000FFF741FC0EF01CFAB3A140F277120094C9
:100D4000CDE9012100EB450007EB60002823462296
:100D50006E21FFF730FC042030709BE4C06800680F
:100D60000928FAD105B02046BDE8F04011F04ABE8E
:100D700005B0BDE8F040DBE4C1680229EDD1806830
:100D800011F04BF801210222A0F5B870082813D207
:100D9000DFE800F0041207090B0D0F1100F0F6FD5B
:100DA0000AE0717308E0727306E0B17304E0B27395
:100DB00002E0F17300E0F27304F0B3FD05B07A488D
:100DC000BDE8F04004F03CBD2DE9F04F7749064600
:100DD00085B0D6E9000509684FF4FA784C426FF007
:100DE0008B070F287ED004DC01280ED00E2806D1F8
:100DF0009AE1262877D0A0F58070133874D005B01A
:100E00003046BDE8F04F10F0A5BE284611F0ACFD0D
:100E1000002342461946284610F0C4FD0EF0A8F9FA
:100E200000EB440107EB61007BA14FF4B072009529
:100E3000CDE90121B946142341222821FFF7F8FB0F
:100E40000EF096F978A140F261120095CDE90121EA
:100E500000EB44006FF0270606EB600014234122EC
:100E60002821FFF7E5FB0EF083F900EB440109EBC5
:100E7000610071A14FF4B1720095CDE901211423F5
:100E800041225A21FFF7D4FB0EF072F96CA140F217
:100E900063120095CDE9012100EB440006EB6000F0
:100EA000142341225A21FFF7C3FB0EF061F900EB36
:100EB00044014FF03C0A0AEB610065A14FF4B272A5
:100EC0000095CDE90121142341222821FFF7B0FB31
:100ED0000EF04EF900EB44016FF0590000EB610099
:100EE0005FA102E02AE153E143E140F2651200957F
:100EF000CDE9012114234122D221FFF799FB0EF005
:100F000037F959A14FF4B3720095CDE9012100EBF7
:100F1000440006EB600014234122D221FFF788FB36
:100F20000EF026F94FF0140B00EB44010BEB6100BF
:100F300051A140F267120095CDE901215B464122A3
:100F4000D221FFF775FB0EF013F94FF480720027E2
:100F50004FF00308CDE9005200EB4401CDE90287D0
:100F600009EB6100142341223C21FFF776FB0EF0D0
:100F7000FFF840F20112CDE9005200EB44001423C7
:100F800006EB600041227FE0E5B18FE5B995E6A070
:100F9000A1E5878600000000E6A8AAE7AB96E5B1C8
:100FA0008F00000014000020DC080020B8BC0308FB
:100FB0001F050008140C0308E5B7A5E4BBB6E5B7A8
:100FC000A6E8BDAC00000000E5B7A5E4BBB6E58F20
:100FD000B3E8BDAC00000000E58FB3E8BDACE7BBF3
:100FE00086E8B08300000000E58FB3E8BDACE7B24F
:100FF00097E8B08300000000E8BDACE9809FE5877A
:101000008FE5B09100000000E8BDACE9809FE5A24B
:101010009EE58AA000000000E8BDACE58AA8E98052
:101020009FE5BAA600000000E992BBE5AD94E98017
:101030009FE5BAA600000000E5AD94E695B000007B
:10104000E689A9E5AD94E6B7B1E5BAA600000000CF
:10105000E992BBE5AD94E6B7B1E5BAA600000000A1
:10106000E6A8A1E5BC8F0000E5A587E581B6E69579
:10107000B0E68E9200000000E5A4A7E5B08FE992EB
:10108000BBE5A4B400000000CDE902873C21FFF7D6
:10109000E4FA0EF06DF84FF48172CDE9005200EBE6
:1010A0004401CDE9028709EB6100142341226E213E
:1010B000FFF7D3FA0EF05CF840F20312CDE90052CC
:1010C000CDE9028700EB440006EB600014234122C7
:1010D0006E21FFF7C2FA0EF04BF84FF48272CDE9A1
:1010E000005200EB4401CDE902870AEB61001423B2
:1010F00041223C21FFF7B1FA0EF03AF800EB44012F
:10110000FF4B0095CDE903B3FE4C4FF4B872CDE927
:101110000124782000EB61001E231A46C821FFF746
:1011200027FA05B0BDE8F08FF06800680928F8D10B
:1011300005B02846BDE8F04F11F064BCFFF7F8FA9F
:101140006FF07F400BF0A0FE0EF012F800EB4400B1
:10115000502101EB60050EF00BF8052100EB440077
:10116000009107EB6000E6232A46D2210AF030FE08
:10117000D7E704F0AFFBE44804F090FB2846FFF704
:101180005EF9F06805B04146BDE8F04F11F00ABBCA
:10119000F0680228C5D1B06810F03FFEB0F5B87F06
:1011A000BFD105B0BDE8F04F00F0F0BBF0B5D0E91D
:1011B00000144FF4B875AE1C85B001290AD00E2971
:1011C00048D00F2950D0262953D005B0BDE8F040B3
:1011D00010F0C0BC204611F0C7FB0DF0C9FFCB4991
:1011E0001422C84B0968CDE902324F4200EB470098
:1011F000782101EB6000C24904911E231A46C821E0
:10120000CDE90045FFF7B4F90DF0B2FFC0A100949D
:10121000CDE9016100EB47006FF0590505EB600077
:10122000282378223C21FFF7C6F90DF0A1FFBCA1CD
:1012300040F273120094CDE9012100EB470005EB69
:101240006000282378226E21FFF7B5F9AE4902200D
:101250000870B4E4C06800680928FAD105B02046D7
:10126000BDE8F04011F0CEBB05B0BDE8F040FFF79F
:101270005FBAC1680229ECD1806810F0CEFDA842A7
:1012800015D0B04218D0A0F580707338E1D104F0C9
:1012900048FB9D4804F0D4FA20284FF0020216D0F3
:1012A000A4A1A6A005B0BDE8F0400BF0BBBC05B002
:1012B000BDE8F04000F06ABB04F07FFA4FF0000296
:1012C00010B19CA1A2A0EDE7A7A1A9A0EAE7AEA159
:1012D000AFA0E7E72DE9F041D0E9001402268A4DDE
:1012E00086B04FF4C07801290AD00E297ED00F298C
:1012F0007DD026297CD006B0BDE8F04110F02ABC94
:10130000204611F031FB0DF033FF804900225023BD
:101310000968CDF80C804F420094CDE9016200EBE2
:1013200047006FF0810101EB60001A463C2107F095
:101330002DFE06469CA107F042FD9CA1304607F019
:101340003EFD9BA1304607F03AFD9A49304607F032
:10135000FFFF0DF00DFF98A14FF4B9720094CDE995
:10136000012100EB47006FF0270606EB6000282301
:1013700050223C21FFF71FF90DF0FAFE90A140F238
:1013800073120094CDE9012100EB470006EB6000E9
:10139000282350227821FFF70EF90DF0E9FE8AA1EB
:1013A0004FF4BA720094CDE9012100EB47003226D8
:1013B00006EB6000282350223C21FFF7FCF80DF0DB
:1013C000D7FE83A140F275120094CDE9012100EB14
:1013D000470006EB6000282350227821FFF7EBF846
:1013E0000DF0C6FE00EB4701782002E01CE025E08E
:1013F00029E01422434BCDE9023200EB61004FF4A7
:10140000B8763F49CDE9004604911E231A46C8210B
:10141000FFF7AEF803202870AA7806B041462046B0
:10142000BDE8F041FEF765BFC0680068092819D122
:1014300006B02046BDE8F04111F0E4BA06B0BDE8C0
:10144000F041FFF775B9C16802290ED0042909D10E
:10145000806810F0E2FC4146884203D12046FEF746
:101460006CFFA87006B0BDE8F081806810F0D5FC74
:101470000121A0F5B87006280ED2DFE800F0030DB8
:1014800006080A0C00F082FA06E0297404E02E74C3
:1014900002E0697400E06E7404F043FA06B01A4882
:1014A000BDE8F04104F0CCB97FB504460DF060FE14
:1014B00016496FF0810609684D4200EB450006EBC6
:1014C0006000AFF2844140F261120094CDE9012145
:1014D000142350226E21FFF7ABF80DF049FE0121D5
:1014E000032240F2011300940391CDE9013200EB95
:1014F00045001923502206EB60008C216CE00000AF
:101500001F050008140C0308DC080020B8BC030801
:10151000E6A8A1E59D97E6A380E6B58B0000000054
:10152000E695B0E68DAEE4BCA0E8BE93E6A380E607
:10153000B58B00004572726F7200000053656E64D7
:101540002044617461206661696C6564000000007C
:10155000436C696E6574204E524632344C303120F3
:101560006572726F722100004E6F726D616C0000C7
:10157000436C69656E74204E524632344C303120D3
:101580004E6F726D616C21004E6F726D6F6C00005A
:1015900053656E64204461746120537563636573A1
:1015A0007366756C000000004D3100004D32000084
:1015B0004D330000F0BB0308E5AE9AE4BD8D00009A
:1015C000E689A9E5AD940000E4B88AE58D870000BE
:1015D000E4B88BE9998D0000FFF73FF87FBDF0B5C7
:1015E000D0E9001485B04FF4B87601290AD00E294D
:1015F0005DD00F2965D0262968D005B0BDE8F04040
:1016000010F0A8BA204611F0AFF90DF0B1FDFE4977
:101610004FF4B0726FF05907096800944D42FBA176
:10162000CDE9012100EB450007EB600014235022B7
:101630003221FEF7FDFF0DF09BFD0321F74A4FF429
:10164000A87300940391CDE90132502300EB4500CB
:1016500007EB60001A461946FFF73CF82046FEF7F4
:1016600095FE0DF085FDEEA10094CDE9016100EB42
:10167000450007EB600028235022BE21FEF79BFFA8
:101680000DF076FD00EB45001422E84B7821CDE902
:10169000023201EB6000E44940F2711504911E230F
:1016A0001A46C821CDE90045FEF762FFD1E5C068C2
:1016B00000680928FAD105B02046BDE8F04011F0D5
:1016C000A1B905B0BDE8F040FFF732B8C168022902
:1016D000ECD1806810F0A1FBB04208D0A0F580707A
:1016E0007138E3D105B0BDE8F04000F04FB92046B5
:1016F000FEF744FE00F04AF905B0CD48BDE8F040E1
:10170000FEF7D4BD2DE9F043BF4A04464068126895
:1017100021680027564285B005464FF4B8790F2955
:101720006AD004DC012910D00E2908D15AE04FF408
:101730008178262965D0A1F58061053949D005B0A9
:101740002046BDE8F04310F005BA11F00DF90DF098
:101750000FFDB8A20095CDE9019200EB46006FF0B5
:10176000590101EB600028235022BE21FEF723FF20
:101770000DF0FEFC1422AD4B00EB46007821CDE9C4
:10178000023201EB600040F27114A749CDE9005428
:1017900004911E231A46C821FEF7EAFE284600F0EF
:1017A000CCF9A64C6078012802D0022804D009E0C8
:1017B0002846FFF779FE05E02846FFF775FE284624
:1017C00000F07FF92846FEF711FE277005B0BDE84E
:1017D000F083414610F0F0FAE16805B0BDE8F0434F
:1017E00008F01CB8E06800680928EFD105B0284669
:1017F000BDE8F04311F006B905B0BDE8F043FEF7CF
:1018000097BFE0680228E1D1A06810F006FB834C86
:10181000083C404507D01EDCB0F5807F03D0A0F522
:1018200080700138D2D160680028CFD10DF0A0FCC3
:1018300000EB46006FF07C0101EB60008049022262
:1018400003970095CDE901214623F022AA2110F04B
:10185000D3F86060BAE7484508D0A0F580707138C9
:10186000B4D100F093F87748676018E02846FEF797
:1018700092FD04F056F8714803F0E2FF20280BD0E7
:1018800000F084F80222AFF25431AFF2503005B0CC
:10189000BDE8F0430BF0C6B900F078F86A4805B02F
:1018A000BDE8F043FEF702BD7CB504464FF4147664
:1018B000D4E9000501280AD00E2815D00F281CD025
:1018C00026281ED02046BDE87C4010F043B92846AB
:1018D00011F04AF8CDE90056AA2340F21312322142
:1018E000142000F07AF87CBDE06800680928FAD17D
:1018F0002846BDE87C4011F085B8BDE87C40FEF785
:1019000017BFA06810F089FAB042ECD1E068022855
:10191000E9D1A0680DF074F90628E4D23F494831B6
:1019200051F82000BDE87C40FEF7C0BC10B5042093
:1019300011F008F845480EF0B5FE454808F0ECFBFC
:1019400042480EF0AFFE434807F0F2F8424807F075
:10195000D5F9424807F0EEFC41480FF043FB4148FF
:101960000FF03AFC40480DF021F840480FF066F8BF
:1019700000F09CF910F00AFA3D4910F061FF3D4873
:10198000FEF794FCBDE810400BF06ABD10B5234C87
:10199000083C206810F012F90020206010BD1FB52F
:1019A00040F2054203910092694610F033FF1FBDDB
:1019B00070B51C46154610F0FFF9064610F0BDF94B
:1019C0002D49884208D105EB850004EB40013046E3
:1019D000BDE870400FF0D0BC70BDF0B587B00227F5
:1019E000DDE90C5641240297CDE9036405940324F4
:1019F000CDE900540DF0ACF8064620490DF024F96D
:101A00001F4A012130463DE0B8BC0308E6A8A1E525
:101A1000BC8FE98089E68BA9000000001C00002033
:101A2000E8AEBEE7BDAE00001F050008140C0308B9
:101A300005170008E689A7E8A18C0000DC08002053
:101A4000B7070008DF150008E309000821060108B0
:101A5000619C0008AD8800080D8C00085D900008AE
:101A6000090E0108AD1001086DE9000865090108BB
:101A700025070008A9180008F51101081C770308BC
:101A80004050D4800DF0C9F81E22012130460DF0DF
:101A9000EDF81E22002130460DF0E8F8474D0024F5
:101AA00005EBC40055F83410426830460CF08CFF4A
:101AB000641C062CF4D3304610F056FF07B03046B5
:101AC000F0BD7FB504460DF053FB3D493D4A40F261
:101AD0005113096800944D4200EB4500322101EB9F
:101AE000600002210391CDE90132462350223221C8
:101AF000FEF7F0FD0DF03CFB33A14FF4B172009402
:101B0000CDE9012100EB45004010142350226E2145
:101B1000FEF78EFD0DF02CFB0121039103224FF403
:101B200081730094CDE9013200EB45004010192388
:101B300050228C21FEF791FD7FBD7FB504460DF04C
:101B400017FB1F494FF4B0726FF0810609680094CB
:101B50004D4221A1CDE9012100EB450006EB6000DB
:101B6000142350222821FEF763FD0DF001FB012113
:101B70000B02039103220094CDE9013200EB4500F2
:101B800006EB6000192350224621FEF766FD0DF09A
:101B9000EFFA00EB45006FF0270101EB6000022136
:101BA000084A039114324FF4A8730094CDE901322E
:101BB000462350223221FEF78DFD7FBDE0770208DB
:101BC000B8BC03083A000020E992BBE5AD94E6B743
:101BD000B1E5BAA600000000E5AD94E695B00000BE
:101BE00004F090F84FF4A06004F022FA4FF416507D
:101BF00004F0DEF803F09AFC01F07FFA03F069FBD1
:101C000040F2E7344721204603F0BCFB40F2CF21ED
:101C1000204603F0F5FB04F06EF90121402004F0AA
:101C200097FC03F037FD0AF077FBFFF77FFE00BF5C
:101C300003F003FD142009F0FDFDF9E72DE9FC4157
:101C4000006814260F282FD10DF09EFA441E0DF0C7
:101C50008FFA421E28496FF07F40CDE90001002134
:101C60002346084609F0E0FF00240DF081FA00EB5E
:101C7000D07040102838214F85B24FF0A008386846
:101C8000A04201D11E4801E01D4814384288018855
:101C9000A8EB5202A5EB510109F01AFF641CA81928
:101CA000A4B285B2052CEAD3BDE8FC817CB5144909
:101CB000FF241C39D1E90001CDE9000110F066F8DC
:101CC000104910F0BDFD05250C4E0CE0C4F1FF00DD
:101CD000B0FBF5F105FB11003060684610F0E4FB45
:101CE000C82009F0A7FD03F068FD002802D0641E9B
:101CF000E4B2EBD27CBD0000808080007C0000203C
:101D000064E902083D1C000870B5F84D04464FF424
:101D10008071284604F0ABFA6E153146284604F06F
:101D2000A6FA2146F24804F0A9FAB4012146284651
:101D300004F09DFA2146284604F097FA31462846D9
:101D4000BDE8704004F091BA70B5E84D04464FF418
:101D50008071284604F089FA6E153146284604F051
:101D600086FA2146E24804F089FAB4012146284661
:101D700004F07DFA2146284604F077FA31462846D9
:101D8000BDE8704004F071BA2DE9F047D84C4FF02F
:101D900088302060261D3060D54F00200C37386019
:101DA000D24DA115284604F060FA4FF4007A51464E
:101DB000284604F05CFA4FF480494946284604F06E
:101DC00056FACC488088A0F50941893902D1022011
:101DD00003F0AFFF204604F03BFA80464946284610
:101DE00004F043FA5146284604F03FFA4FF03330EE
:101DF000206030604FF6FF7038604046BDE8F087E5
:101E000070B50E46FFF780FFB84C4FF48071204646
:101E100004F02BFA65152946204604F028FA3146CD
:101E2000B34804F02BFAAE013146204604F01FFA05
:101E30003146204604F019FA29462046BDE8704094
:101E400004F013BA10B5FFF75FFFBDE810409BE741
:101E5000A848008958E770B5A44D04464FF4807136
:101E6000284604F002FA6E153146284604F0FFF9C0
:101E700021469F4804F002FAB4012146284604F0A6
:101E8000F6F92146284604F0F0F931462846BDE827
:101E9000704004F0EAB9C0F34511C20AC00200EB79
:101EA0004110104480B270472DE9FC5F914C0E4602
:101EB0000546A088090A0091290A01912146DFF808
:101EC0002C82DFF82CA24A89A0F513434FF4007945
:101ED0004FF4004B413B15D0A0F5A641103911D06D
:101EE0002346A0F5D04C99791B885B1B5B1EBCF187
:101EF000040C15D0A0F5A04CBCF5A26C75D001293E
:101F000072D0EAE01046FFF7FFFE4FF480714046C2
:101F100004F0ABF94946404604F0A9F901990FE0F5
:101F2000012900D19DB21046FFF7EEFE4FF48071FB
:101F3000404604F09AF94946404604F098F9290AC7
:101F40005446504604F09AF95F465946404604F01C
:101F50008EF93946404604F088F94946404604F077
:101F600084F94FF48071404604F07FF949464046B9
:101F700004F07DF9E9B2204604F080F93946404684
:101F800004F075F93946404604F06FF94946404679
:101F900004F06BF957488089FFF7B6FE4FF4807163
:101FA000404604F062F94946404604F060F9204694
:101FB000009904F063F93946404604F058F939466F
:101FC000404604F052F94946404604F04EF94FF4B9
:101FD0008071404604F049F94946404604F047F90B
:101FE000F1B2204668E000E076E01046FFF78CFE94
:101FF0004FF48071404604F038F94946404604F0F9
:1020000036F95046019904F039F95F465946404681
:1020100004F02DF93946404604F027F94946404678
:1020200004F023F96089401C80B2FFF76DFE4FF485
:102030008071404604F019F94946404604F017F90A
:10204000E9B2504604F01AF93946404604F00FF957
:102050003946404604F009F94946404604F005F97E
:10206000A089FFF751FE4FF48071404604F0FDF85F
:102070004946404604F0FBF85046009904F0FEF84B
:102080003946404604F0F3F83946404604F0EDF88E
:102090004946404604F0E9F8A089401C80B2FFF7A9
:1020A00033FE4FF48071404604F0DFF84946404665
:1020B00004F0DDF8F1B2504604F0E0F8394640464D
:1020C00004F0D5F83946404604F0CFF8494640467A
:1020D000BDE8FC5F04F0C9B89DB229461046FFF781
:1020E0008FFEA0893146BDE8FC5F89E60010014003
:1020F000000C0140FC0800202DE9F84FFE4C22881E
:10210000824202D962888A4202D80020BDE8F88F54
:10211000FFF7CAFEA088A346A0F5134145F210368A
:1021200045F21057413905D0A0F5D041043901D00E
:10213000B04201D12E2005E0B84202D14FF4385010
:1021400000E02220FFF7E0FDDFF8B0934FF0883089
:10215000C9F8000009F104010860E8494FF6FF786A
:102160000C31C1F80080E64C8915204604F07DF85A
:102170006115204604F07BF84FF48045294620463F
:1021800004F075F8012003F0D4FD2946204604F040
:102190006CF82946204604F06AF8012003F0C9FDD6
:1021A000484604F055F881462946204604F05DF87B
:1021B000BBF80400A0F51341413903D0B04201D06F
:1021C000B84210D12946204604F051F8CB4804F01B
:1021D0003FF800902946204604F047F809F0FF0038
:1021E00008EA002A0FE0A0F5D04104390BD12946B6
:1021F000204604F03CF82946204604F036F8BF4853
:1022000004F026F881464FF40071204604F02DF8C2
:10221000BA494FF033300860091D0860B7490C31E6
:10222000C1F80080BBF80400A0F51341253921D086
:10223000A0F58A4135391DD0091D1BD0A0F50941F3
:10224000893917D0A0F53541053913D0A0F51341D0
:10225000413903D0B04201D0B8420DD14FEAD92163
:102260004FEAC1214FEA9A2041EA4011009841EA21
:10227000D0204BE7484649E74846BDE8F84F0AE614
:102280009D488088A0F5134141390ED0A0F5D0417A
:1022900004390AD0A0F5A641103906D0B1F5007175
:1022A00005D040F273110720AAE5292001E04FF480
:1022B000245029E590488088A0F5134141390DD07C
:1022C000A0F5D041043909D0A0F5A641103905D0B8
:1022D000B1F5007104D00021072091E5282001E02C
:1022E0004FF4205010E52DE9F047834C002521469E
:1022F000A379898846F60402012B18D1914216D0A1
:10230000082814D2DFE800F00406080A0C0E1012A8
:1023100006200CE007200AE0042008E0052006E083
:10232000012004E0002002E0032000E00220A1F5EB
:10233000134645F2103345F21058413E05D0914204
:1023400003D0994201D041457ED1082812D2DFE85E
:1023500000F0110406080A0C0E1080250AE0402542
:1023600008E0C02506E0202504E0602502E0A02565
:1023700000E0E025414502D14FF4585000E03620FE
:10238000994203D0414501D045F00805914201D161
:1023900045F002052946FFF733FDA806208861882D
:1023A00002D5884202D303E0884201D921806080AF
:1023B000A088534E4045514F60894FF480754FF4CB
:1023C000007A4FF400497DD1FFF79EFC2946B046C4
:1023D000304603F04AFF5146404603F048FF0021D3
:1023E000384603F04BFF4E464946404603F03FFF58
:1023F0003146404603F039FF5146404603F035FF71
:102400006089401C80B2FFF77FFC2946404603F0FC
:102410002CFF5146404603F02AFF0021384603F0C6
:102420002DFF3146404603F022FF3146404603F07F
:102430001CFF5146404603F018FF6089801C80B2A3
:10244000FFF762FC294600E08AE1404603F00DFFF9
:102450005146404603F00BFF2088401EC0F30F2179
:10246000384603F00BFF3146404603F000FF31468B
:10247000404603F0FAFE5146404603F0F6FE6089FE
:10248000C01C80B2FFF740FC2946404603F0EDFE39
:102490005146404603F0EBFE2078401EC1B238465C
:1024A00003F0ECFE3146404603F0E1FE3146404683
:1024B00003F0DBFE5146404603F0D7FEA089FFF74C
:1024C00023FC00E079E02946404603F0CEFE514669
:1024D000404603F0CCFE0021384603F0CFFE3146E3
:1024E000404603F0C4FE3146404603F0BEFE51466E
:1024F000404603F0BAFE05E0FC080020000C014055
:1025000000100140A089401C80B2FFF7FDFB294666
:10251000404603F0AAFE5146404603F0A8FE0021C3
:10252000384603F0ABFE3146404603F0A0FE31468C
:10253000404603F09AFE5146404603F096FEA089BD
:10254000801C80B2FFF7E0FB2946404603F08DFE79
:102550005146404603F08BFE6088401EC0F30F21B9
:10256000384603F08BFE3146404603F080FE31468C
:10257000404603F07AFE5146404603F076FEA089BD
:10258000C01C80B2FFF7C0FB2946404603F06DFE39
:102590005146404603F06BFEA078401EC1B238465B
:1025A00003F06CFE3146404603F061FE3146404682
:1025B00003F05BFE51464046CEE0FFF7A5FB2946FF
:1025C000304603F052FE5146304603F050FE0021E3
:1025D000B846384603F052FE4F464946304603F0AF
:1025E00046FE3946304603F040FE5146304603F081
:1025F0003CFE2946304603F038FE5146304603F093
:1026000036FE0021404603F039FE3946304603F0DD
:102610002EFE3946304603F028FE5146304603F080
:1026200024FE2946304603F020FE5146304603F092
:102630001EFE2088401EC0F30F21404603F01EFE00
:102640003946304603F013FE3946304603F00DFE9E
:102650005146304603F009FE2946304603F005FE98
:102660005146304603F003FE2078401EC1B240467A
:1026700003F004FE3946304603F0F9FD3946304692
:1026800003F0F3FD5146304603F0EFFDA089FFF75C
:102690003BFB2946304603F0E8FD5146304603F047
:1026A000E6FD0021404603F0E9FD3946304603F0DF
:1026B000DEFD3946304603F0D8FD5146304603F082
:1026C000D4FD2946304603F0D0FD5146304603F094
:1026D000CEFD0021404603F0D1FD3946304603F0DF
:1026E000C6FD3946304603F0C0FD5146304603F082
:1026F000BCFD2946304603F0B8FD5146304603F094
:10270000B6FD6088401EC0F30F21404603F0B6FDC1
:102710003946304603F0ABFD3946304603F0A5FD9F
:102720005146304603F0A1FD2946304603F09DFD99
:102730005146304603F09BFDA078401EC1B2404692
:1027400003F09CFD3946304603F091FD3946304692
:1027500003F08BFD51463046BDE8F04703F085BDE0
:10276000082812D2DFE800F0040608110A0C0E1047
:1027700030250AE0102508E0202506E0382504E091
:10278000282502E0182500E00825A1F50940893830
:1027900006D0032045F48051BDE8F047FFF730BB79
:1027A000112046F240012943F6E770B5FFF77CFBA4
:1027B000FFF74EFBFF4C4FF48071204603F055FDB0
:1027C00065152946204603F052FDFB480188FB4869
:1027D00003F054FDAE013146204603F048FD31467A
:1027E000204603F042FD29462046BDE8704003F034
:1027F0003CBD2DE9F74FF24C82B00E460546A0884D
:10280000090A0091290A01912146DFF8A883DFF81F
:10281000ACA34A89A0F513434FF480774FF40079B5
:102820004FF4004B413B13D0A0F5A64110390FD017
:10283000B1F5007119D02346A0F5D04C99791B88C9
:102840005B1B5B1EBCF1040C68D001297ED0D2E07A
:102850001046FFF759FA3946404603F006FD49464F
:10286000404603F004FD019967E01046FFF74CFA7B
:102870003946404603F0F9FC4946404603F0F7FC70
:102880005046019903F0FAFC5946404603F0EFFC2C
:102890005946404603F0E9FC4946404603F0E5FC52
:1028A0006089401C80B2FFF72FFA3946404603F09A
:1028B000DCFC4946404603F0DAFCE9B2504603F03E
:1028C000DDFC5946404603F0D2FC5946404603F031
:1028D000CCFC4946404603F0C8FCA089FFF714FA37
:1028E0003946404603F0C1FC4946404603F0BFFC70
:1028F0005046009903F0C2FC5946404603F0B7FC2D
:102900005946404603F0B1FC4946404603F0ADFC51
:10291000A089401C80B2FFF7F7F952E0012900D1ED
:102920009DB21046FFF7F0F93946404603F09DFC92
:102930004946404603F09BFC290A504603F09EFCA2
:102940005946404603F093FC594600E052E04046A9
:1029500003F08BFC4946404603F087FC394640466D
:1029600003F083FC4946404603F081FCE9B250463F
:1029700003F084FC5946404603F079FC5946404632
:1029800003F073FC4946404603F06FFCA089FFF753
:10299000BBF93946404603F068FC4946404603F01F
:1029A00066FC5046009903F069FC5946404603F026
:1029B0005EFC5946404603F058FC4946404603F049
:1029C00054FC3946404603F050FC4946404603F06B
:1029D0004EFCF1B2504603F051FC5946404603F01C
:1029E00046FC5946404603F040FC4946404603F049
:1029F0003CFC08E09DB229461046FFF701FAA08989
:102A00003146FFF7FDF94FF480714546404603F02B
:102A10002EFC4E464946284603F029FC218954469F
:102A2000504603F02BFC5F465946284603F01FFC36
:102A30003946284603F019FC3146284603F015FCB8
:102A40004FF48071284603F010FC3146284603F00D
:102A50000EFC2046049903F011FC3946284603F089
:102A600006FC3946284603F000FC05B031462846EE
:102A7000BDE8F04F03F0F9BB2DE9F05F50492C237E
:102A80002A242B2522222126898848F689194FF0ED
:102A90004E0A4FF04F0B45F2105EF02749F24138D5
:102AA000F8B147484FF0010C414580F806C04FF49B
:102AB000A07CA0F800C047800FD0A1F5A647103F2A
:102AC0000BD0A1F5D047043F4ED0494550D10281EB
:102AD000A0F80AB0A0F80CA060E0038144818581D1
:102AE0005CE037484FF0000C414580F806C0078095
:102AF0004FF4A077478011D0A1F5D04CBCF1040C65
:102B00000CD0A1F5A04CBCF5447C07D0494514D1AC
:102B10000281A0F80AA0A0F80CB055E0038144811E
:102B2000A1F5D0428581043A03D0A1F5A642103A1E
:102B30004AD107804FF4F0710FE071450FD14FF487
:102B4000305101814FF4285141814FF42C51818142
:102B50004FF4F07101804FF44871418034E00281FC
:102B60002021418186812FE003814581848115E008
:102B700071450FD14FF4305202814FF428524281F7
:102B80004FF42C5282814FF4487202804FF4F0725D
:102B9000428003E00281468120228281A1F5D04259
:102BA000043A03D0A1F5A642103A0DD14FF4F071CA
:102BB000018007E00010014080000020000C01406F
:102BC000FC080020A0F802C0BDE8F05F0020FFF77D
:102BD0008ABB2DE9F05F05461044401E87B2C81835
:102BE000FF4A401E0C4686B24FEA112A90881146D1
:102BF000A0F5134349894FF4807B4FEA1529413BE7
:102C000031D0A0F5A643103B2DD0A0F5D043043B16
:102C100029D0A0F5AA43103B7DD0917901297BD022
:102C2000B84629464FEA0407A0F50942893A74D00C
:102C300050204FF0510B4FF0520A53229146FFF7AC
:102C4000DFF841465846FFF7DBF839465046FFF7B4
:102C5000D7F831464846FFF7D3F821462846BDE865
:102C6000F05FFFF721B90846FFF74EF85946DD48F7
:102C700003F0FBFA4FF40071DA4803F0F8FA494622
:102C8000DFF86493484603F0F9FA4FF400484146F0
:102C9000D44803F0ECFA4146D24803F0E6FA4FF488
:102CA0000071D04803F0E1FA5946CE4803F0DDFA4E
:102CB0004FF40071CB4803F0DAFAE9B2484603F06A
:102CC000DDFA4146C74803F0D2FA4146C54803F051
:102CD000CCFA4FF40071C34803F0C7FA5946C14813
:102CE00003F0C3FA4FF40071BE4803F0C0FA390A8A
:102CF000484603F0C3FA4146BA4803F0B8FA4146E1
:102D0000B84803F0B2FA4FF40071B64803F0ADFAD8
:102D10005946B44802E07EE098E18DE103F0A5FA5F
:102D20004FF40071AF4803F0A2FAF9B2484603F03D
:102D3000A5FA4146AB4803F09AFA4146A94803F088
:102D400094FA4FF40071A74803F08FFAA4488089E1
:102D5000FEF7DAFF5946A34803F087FA4FF40071F3
:102D6000A04803F084FA5146484603F087FA4146EA
:102D70009C4803F07CFA41469A4803F076FA4FF4F7
:102D80000071984803F071FA5946964803F06DFABD
:102D90004FF40071934803F06AFAE1B2484603F039
:102DA0006DFA41468F4803F062FA41468D4803F0C0
:102DB0005CFA4FF400718B4803F057FA5946894882
:102DC00003F053FA4FF40071864803F050FA310AC9
:102DD000484603F053FA4146824803F048FA414618
:102DE000804803F042FA4FF400717E4803F03DFA48
:102DF00059467C4803F039FA4FF40071794803F0E2
:102E000036FAF1B2484603F039FA4146754803F004
:102E10002EFA414606E190460846FEF775FF4FF44C
:102E20008071704803F021FA4FF400716D4803F08F
:102E30001EFADFF8B4B14946584603F01FFA4FF4C2
:102E400000494946674803F012FA4946654803F0CD
:102E50000CFA4FF40071634803F007FAB8F80A005F
:102E6000401C80B2FEF750FF4FF480715D4803F0C4
:102E7000FCF94FF400715B4803F0F9F9E9B25846E8
:102E800003F0FCF94946574803F0F1F94946554823
:102E900003F0EBF94FF40071524803F0E6F9B8F88B
:102EA0000A00801C80B2FEF72FFF4FF480714D485E
:102EB00003F0DBF94FF400714A4803F0D8F9390AFE
:102EC000584603F0DBF94946464803F0D0F9494635
:102ED000444803F0CAF94FF40071424803F0C5F9C1
:102EE000B8F80A00C01C80B2FEF70EFF4FF48071E4
:102EF0003C4803F0BAF94FF400713A4803F0B7F9CF
:102F0000F9B2584603F0BAF94946364803F0AFF92A
:102F10004946344803F0A9F94FF40071314803F0F1
:102F2000A4F9B8F80C00FEF7EFFE4FF480712D48BD
:102F300003F09BF94FF400712A4803F098F95146C9
:102F4000584603F09BF94946264803F090F9494654
:102F5000244803F08AF94FF40071224803F085F900
:102F6000B8F80C00401C80B2FEF7CEFE4FF4807122
:102F70001C4803F07AF94FF400711A4803F077F90E
:102F8000E1B2584603F07AF94946164803F06FF962
:102F90004946144803F069F94FF40071114803F0F1
:102FA00064F9B8F80C00801C80B2FEF7ADFE4FF457
:102FB00080710C4803F059F94FF40071094803F08F
:102FC00056F9310A584603F059F94946054803F0C5
:102FD0004EF94946034803F048F94FF4007105E003
:102FE000FC08002000100140000C0140FE4803F0E6
:102FF0003CF9B8F80C00C01C80B2FEF785FE4FF417
:103000008071F94803F031F94FF40071F64803F08C
:103010002EF9F1B2584603F031F94946F24803F06F
:1030200026F94946F04803F020F9BDE8F05F4FF477
:103030000071ED4803F019B9442041EA082189B232
:10304000834688464FF0450A4622F7E51288B04687
:10305000D31B5B1E521B521E21469FB296B2E3E564
:103060002DE9F05FE14E83460024308875884543A2
:10307000B088A0F5D041043902D1B07901280ED032
:1030800000210846FEF710FFFEF7E2FED64F4FF490
:1030900080797E15DFF858A34FF4004829E000201E
:1030A000B0712A2777814FF02B08A6F80C800146D3
:1030B000FEF7FAFE0120B071A6F80A80B781E3E7B7
:1030C0004946384603F0D1F83146384603F0CFF888
:1030D0005946504603F0D2F84146384603F0C7F847
:1030E0004146384603F0C1F83146384603F0BDF892
:1030F000641CAC42E4D3BDE8F09F2DE9F84F0121F8
:103100001D2003F02EFA0121BA4803F0CFF84FF446
:103110004070ADF800001024B34E8DF80340032535
:103120008DF802506946304603F031F8A803ADF837
:1031300000008DF8034002208DF8020069463046F9
:1031400003F025F8AC48016841F480710160AB4997
:103150000A6A22F001020A62A9490A8822F00102E1
:103160000A80016821F4807101608014ADF80000CC
:103170008DF803408DF802506946A24803F007F825
:103180009B4C4FF6FF75ADF800506946204602F0A3
:10319000FEFF2946204603F068F8322002F0E0FDE9
:1031A00001210020FEF72CFE322002F0D9FD002084
:1031B000FEF748FE8D4C49F2413645F21057A0808B
:1031C000FF2804D3A84202D0B0F5134F5AD1D32020
:1031D000FEF79AFDFEF7D8FDFEF7D6FDFEF7D4FD0B
:1031E00005EA0020A080FEF7CFFDA1880843A0805B
:1031F000B04247D0BF20FEF787FDFEF7C5FDFEF7C2
:10320000C3FDFEF7C1FDFEF7BFFD05EA0020A0806B
:10321000FEF7BAFDA1880843A0F5D041A08004398B
:1032200030D0D420FEF770FDFEF7AEFDFEF7ACFD0A
:10323000FEF7AAFD05EA0020A080FEF7A5FDA18803
:103240000843A0F5A641A08010391BD04FF45A4086
:10325000FEF75AFDFEF798FD4FF45B40FEF754FD74
:10326000FEF792FD05EA0020A0804FF45C40FEF7D7
:103270004BFDFEF789FDA1880843A080B0F5004F03
:1032800000D1A780A18860A019F078FBA088B04287
:103290007ED1CF20FEF738FD0020FEF755FDC1207E
:1032A000FEF752FD3020FEF74FFDED20FEF72CFD1E
:1032B0006420FEF749FD0320FEF746FD1220FEF7CD
:1032C00043FD8120FEF740FDE820FEF71DFD85202F
:1032D000FEF73AFD1020FEF737FD7A20FEF734FDA9
:1032E000CB20FEF711FD3920FEF72EFD2C20FEF736
:1032F0002BFD0020FEF728FD3420FEF725FD0220DF
:10330000FEF722FDF720FEF7FFFC2020FEF71CFD54
:10331000EA20FEF7F9FC0020FEF716FD0020FEF77C
:1033200013FDC020FEF7F0FC1B20FEF70DFDC120B1
:10333000FEF7EAFC0120FEF707FDC520FEF7E4FCDE
:103340003020FEF701FD3020FEF7FEFCC720FEF71F
:10335000DBFCB720FEF7F8FC3620FEF7D5FC482052
:10336000FEF7F2FC3A20FEF7CFFC5520FEF7ECFC0E
:10337000B120FEF7C9FC0020FEF7E6FC1A20FEF79C
:10338000E3FCB620FEF7C0FC0A20FEF7DDFC00E0FF
:10339000ADE0A220FEF7D8FCF220FEF7B5FC00203D
:1033A000FEF7D2FC2620FEF7AFFC0120FEF7CCFC96
:1033B000E020FEF7A9FC0F20FEF7C6FC2A20FEF74E
:1033C000C3FC2820FEF7C0FC0820FEF7BDFC0E2041
:1033D000FEF7BAFC0820FEF7B7FC5420FEF7B4FC59
:1033E000A920FEF7B1FC17E000100140FC08002006
:1033F000000C01400002300000700040001002404C
:10340000306C004000080140204C43442049443ABD
:1034100025780D0A000000004320FEF795FC0A20E5
:10342000FEF792FC0F20FEF78FFC0020FEF78CFCCD
:103430000020FEF789FC0020FEF786FC0020FEF746
:1034400083FCE120FEF760FC0020FEF77DFC1520E8
:10345000FEF77AFC1720FEF777FC0720FEF774FCD6
:103460001120FEF771FC0620FEF76EFC2B20FEF704
:103470006BFC5620FEF768FC3C20FEF765FC05203F
:10348000FEF762FC1020FEF75FFC0F20FEF75CFCED
:103490003F20FEF759FC3F20FEF756FC0F20FEF7B9
:1034A00053FC2B20FEF730FC0020FEF74DFC0020E3
:1034B000FEF74AFC0120FEF747FC3F20FEF744FCE4
:1034C0002A20FEF721FC0020FEF73EFC0020FEF73C
:1034D0003BFC0020FEF738FCEF20FEF735FC112006
:1034E000FEF712FC782002F03BFC2920FEE3B842F4
:1034F0007ED14FF4704455212046FEF781FC661CB6
:10350000AA213046FEF77CFCA71C52213846FEF764
:1035100077FC4FF2030808214046FEF771FC4FF29A
:10352000040901214846FEF76BFC0D214FF43040A1
:10353000FEF766FC0D214BF20100FEF761FC0D2148
:103540004BF20200FEF75CFC4FF4364A3421504641
:10355000FEF756FC34214BF20160FEF751FC34219A
:103560004BF20260FEF74CFC4FF4314B0D215846F4
:10357000FEF746FC0D214BF20110FEF741FC0D2138
:103580004BF20210FEF73CFC34214FF43740FEF7BB
:1035900037FC34214BF20170FEF732FC34214BF240
:1035A0000270FEF72DFC00214FF43240FEF728FC9C
:1035B00000214BF20120FEF723FC00214BF20220F8
:1035C000FEF71EFC24214FF43840FEF719FC24219D
:1035D0004BF60100FEF714FC24214BF60200FEF727
:1035E0000FFC01214FF43F40FEF70AFC0F2100E0E1
:1035F000FEE34FF43340FEF703FC0F214BF20130A2
:10360000FEF7FEFB0F214BF20230FEF7F9FB3421EF
:103610004FF43940FEF7F4FB34214BF60110FEF76E
:10362000EFFB34214BF60210FEF7EAFB08214FF4C2
:103630003540FEF7E5FB08214BF20150FEF7E0FBB9
:1036400008214BF20250FEF7DBFB03214FF442400E
:10365000FEF7D6FB24214FF43A40FEF7D1FB24219C
:103660004BF60120FEF7CCFB24214BF60220FEF79F
:10367000C7FB00214FF43C40FEF7C2FB78214BF61C
:103680000140FEF7BDFB00214BF60240FEF7B8FB00
:1036900000214FF43D40FEF7B3FB78214BF601507B
:1036A000FEF7AEFB00214BF60250FEF7A9FB00210E
:1036B0004FF43E40FEF7A4FB64214BF60160FEF799
:1036C0009FFB00214FF45140FEF79AFB33214DF24E
:1036D0000110FEF795FB00214DF20210FEF790FB62
:1036E00034214DF20310FEF78BFB00214DF2041044
:1036F000FEF786FB3A214DF20510FEF781FB002113
:103700004DF20610FEF77CFB4A214DF20710FEF742
:1037100077FB00214DF20810FEF772FB5C214DF2A1
:103720000910FEF76DFB00214DF20A10FEF768FB51
:1037300081214DF20B10FEF763FB00214DF20C10BE
:10374000FEF75EFBA6214DF20D10FEF759FB00219E
:103750004DF20E10FEF754FBE5214DF20F10FEF76F
:103760004FFB01214DF21010FEF74AFB13214DF2E1
:103770001110FEF745FB01214DF21210FEF740FB40
:1037800054214DF21310FEF73BFB01214DF21410B2
:10379000FEF736FB82214DF21510FEF731FB0121B9
:1037A0004DF21610FEF72CFBCA214DF21710FEF752
:1037B00027FB02214DF21810FEF722FB00214DF2EB
:1037C0001910FEF71DFB02214DF21A10FEF718FB2F
:1037D00001214DF21B10FEF713FB02214DF21C10CC
:1037E000FEF70EFB34214DF21D10FEF709FB0221FE
:1037F0004DF21E10FEF704FB67214DF21F10FEF77D
:10380000FFFA02214DF22010FEF7FAFA84214DF260
:103810002110FEF7F5FA02214DF22210FEF7F0FA20
:10382000A4214DF22310FEF7EBFA02214DF22410F1
:10383000FEF7E6FAB7214DF22510FEF7E1FA022174
:103840004DF22610FEF7DCFACF214DF22710FEF7DD
:10385000D7FA02214DF22810FEF7D2FADE214DF2FE
:103860002910FEF7CDFA02214DF22A10FEF7C8FA10
:10387000F2214DF22B10FEF7C3FA02214DF22C106B
:10388000FEF7BEFAFE214DF22D10FEF7B9FA032124
:103890004DF22E10FEF7B4FA10214DF22F10FEF764
:1038A000AFFA03214DF23010FEF7AAFA33214DF2A0
:1038B0003110FEF7A5FA03214DF23210FEF7A0FAFF
:1038C0006D214DF23310FEF79BFA00214FF4524068
:1038D000FEF796FA33214DF20120FEF791FA00210E
:1038E0004DF20220FEF78CFA34214DF20320FEF750
:1038F00087FA00214DF20420FEF782FA3A214DF2B8
:103900000520FEF77DFA00214DF20620FEF778FA39
:103910004A214DF20720FEF773FA00214DF20820EC
:10392000FEF76EFA5C214DF20920FEF769FA0021DC
:103930004DF20A20FEF764FA81214DF20B20FEF7CA
:103940005FFA00214DF20C20FEF75AFAA6214DF243
:103950000D20FEF755FA00214DF20E20FEF750FA29
:10396000E5214DF20F20FEF74BFA01214DF2102018
:10397000FEF746FA13214DF21120FEF741FA01211C
:103980004DF21220FEF73CFA54214DF21320FEF7BF
:1039900037FA01214DF21420FEF732FA82214DF25E
:1039A0001520FEF72DFA01214DF21620FEF728FA18
:1039B000CA214DF21720FEF723FA02214DF21820FA
:1039C000FEF71EFA00214DF21920FEF719FA022126
:1039D0004DF21A20FEF714FA01214DF21B20FEF7DA
:1039E0000FFA02214DF21C20FEF70AFA34214DF2A3
:1039F0001D20FEF705FA02214DF21E20FEF700FA07
:103A000067214DF21F20FEF7FBF902214DF2202025
:103A1000FEF7F6F984214DF22120FEF7F1F902219B
:103A20004DF22220FEF7ECF9A4214DF22320FEF7FF
:103A3000E7F902214DF22420FEF7E2F9B7214DF219
:103A40002520FEF7DDF902214DF22620FEF7D8F9F8
:103A5000CF214DF22720FEF7D3F902214DF2282085
:103A6000FEF7CEF9DE214DF22920FEF7C9F9022139
:103A70004DF22A20FEF7C4F9F2214DF22B20FEF779
:103A8000BFF902214DF22C20FEF7BAF9FE214DF2CA
:103A90002D20FEF7B5F903214DF22E20FEF7B0F9E7
:103AA00010214DF22F20FEF7ABF903214DF230200B
:103AB000FEF7A6F933214DF23120FEF7A1F90321DB
:103AC0004DF23220FEF79CF96D214DF23320FEF7C6
:103AD00097F900214FF45340FEF792F933214DF24C
:103AE0000130FEF78DF900214DF20230FEF788F922
:103AF00034214DF20330FEF783F900214DF20430FA
:103B0000FEF77EF93A214DF20530FEF779F90021F2
:103B10004DF20630FEF774F94A214DF20730FEF7F8
:103B20006FF900214DF20830FEF76AF95C214DF281
:103B30000930FEF765F900214DF20A30FEF760F911
:103B400081214DF20B30FEF75BF900214DF20C3074
:103B5000FEF756F9A6214DF20D30FEF751F900217E
:103B60004DF20E30FEF74CF9E5214DF20F30FEF725
:103B700047F901214DF21030FEF742F913214DF2C1
:103B80001130FEF73DF901214DF21230FEF738F900
:103B900054214DF21330FEF733F901214DF2143068
:103BA000FEF72EF982214DF21530FEF729F9012199
:103BB0004DF21630FEF724F9CA214DF21730FEF708
:103BC0001FF902214DF21830FEF71AF900214DF2CB
:103BD0001930FEF715F902214DF21A30FEF710F9EF
:103BE00001214DF21B30FEF70BF902214DF21C3082
:103BF000FEF706F934214DF21D30FEF701F90221DE
:103C00004DF21E30FEF7FCF867214DF21F30FEF733
:103C1000F7F802214DF22030FEF7F2F884214DF240
:103C20002130FEF7EDF802214DF22230FEF7E8F8E0
:103C3000A4214DF22330FEF7E3F802214DF22430A7
:103C4000FEF7DEF8B7214DF22530FEF7D9F8022154
:103C50004DF22630FEF7D4F8CF214DF22730FEF793
:103C6000CFF802214DF22830FEF7CAF8DE214DF2DE
:103C70002930FEF7C5F802214DF22A30FEF7C0F8D0
:103C8000F2214DF22B30FEF7BBF802214DF22C3021
:103C9000FEF7B6F8FE214DF22D30FEF7B1F8032104
:103CA0004DF22E30FEF7ACF810214DF22F30FEF71A
:103CB000A7F803214DF23030FEF7A2F833214DF280
:103CC0003130FEF79DF803214DF23230FEF798F8BF
:103CD0006D214DF23330FEF793F800214FF454403C
:103CE000FEF78EF833214DF2014000E07FE3FEF74E
:103CF00087F800214DF20240FEF782F834214DF2A0
:103D00000340FEF77DF800214DF20440FEF778F8FD
:103D10003A214DF20540FEF773F800214DF20640BE
:103D2000FEF76EF84A214DF20740FEF769F80021D0
:103D30004DF20840FEF764F85C214DF20940FEF7B1
:103D40005FF800214DF20A40FEF75AF881214DF24A
:103D50000B40FEF755F800214DF20C40FEF750F8ED
:103D6000A6214DF20D40FEF74BF800214DF20E401A
:103D7000FEF746F8E5214DF20F40FEF741F801212C
:103D80004DF21040FEF73CF813214DF21140FEF7C2
:103D900037F801214DF21240FEF732F854214DF26E
:103DA0001340FEF72DF801214DF21440FEF728F8DC
:103DB00082214DF21540FEF723F801214DF2164005
:103DC000FEF71EF8CA214DF21740FEF719F802213E
:103DD0004DF21840FEF714F800214DF21940FEF79D
:103DE0000FF802214DF21A40FEF70AF8012100E017
:103DF000FFE24DF21B40FEF703F802214DF21C409A
:103E0000FDF7FEFF34214DF21D40FDF7F9FF0221C1
:103E10004DF21E40FDF7F4FF67214DF21F40FDF704
:103E2000EFFF02214DF22040FDF7EAFF84214DF221
:103E30002140FDF7E5FF02214DF22240FDF7E0FFB2
:103E4000A4214DF22340FDF7DBFF02214DF2244077
:103E5000FDF7D6FFB7214DF22540FDF7D1FF022136
:103E60004DF22640FDF7CCFFCF214DF22740FDF764
:103E7000C7FF02214DF22840FDF7C2FFDE214DF2BF
:103E80002940FDF7BDFF02214DF22A40FDF7B8FFA2
:103E9000F2214DF22B40FDF7B3FF02214DF22C40F1
:103EA000FDF7AEFFFE214DF22D40FDF7A9FF0321E6
:103EB0004DF22E40FDF7A4FF10214DF22F40FDF7EB
:103EC0009FFF03214DF23040FDF79AFF33214DF261
:103ED0003140FDF795FF03214DF23240FDF790FF91
:103EE0006D214DF23340FDF78BFF00214FF455401B
:103EF000FDF786FF33214DF20150FDF781FF0021D0
:103F00004DF20250FDF77CFF34214DF20350FDF7D6
:103F100077FF00214DF20450FDF772FF3A214DF278
:103F20000550FDF76DFF00214DF20650FDF768FFCB
:103F30004A214DF20750FDF763FF00214DF2085072
:103F4000FDF75EFF5C214DF20950FDF759FF00219E
:103F50004DF20A50FDF754FF81214DF20B50FDF751
:103F60004FFF00214DF20C50FDF74AFFA6214DF204
:103F70000D50FDF745FF00214DF20E50FDF740FFBB
:103F8000E5214DF20F50FDF73BFF01214DF210509E
:103F9000FDF736FF13214DF21150FDF731FF0121DE
:103FA0004DF21250FDF72CFF54214DF21350FDF746
:103FB00027FF01214DF21450FDF722FF82214DF21F
:103FC0001550FDF71DFF01214DF21650FDF718FFAA
:103FD000CA214DF21750FDF713FF02214DF2185080
:103FE000FDF70EFF00214DF21950FDF709FF0221E8
:103FF0004DF21A50FDF704FF01214DF21B50FDF761
:10400000FFFE02214DF21C50FDF7FAFE34214DF265
:104010001D50FDF7F5FE02214DF21E50FDF7F0FE9A
:1040200067214DF21F50FDF7EBFE02214DF22050AB
:10403000FDF7E6FE84214DF22150FDF7E1FE02215D
:104040004DF22250FDF7DCFEA4214DF22350FDF786
:10405000D7FE02214DF22450FDF7D2FEB7214DF2DA
:104060002550FDF7CDFE02214DF22650FDF7C8FE8A
:10407000CF214DF22750FDF7C3FE02214DF228500B
:10408000FDF7BEFEDE214DF22950FDF7B9FE0221FB
:104090004DF22A50FDF7B4FEF2214DF22B50FDF700
:1040A000AFFE02214DF22C50FDF7AAFEFE214DF28B
:1040B0002D50FDF7A5FE03214DF22E50FDF7A0FE79
:1040C00010214DF22F50FDF79BFE03214DF2305091
:1040D000FDF796FE33214DF23150FDF791FE03219D
:1040E0004DF23250FDF78CFE6D214DF23350FDF74D
:1040F00087FE00214FF45640FDF782FE33214DF23A
:104100000160FDF77DFE00214DF20260FDF778FEB3
:1041100034214DF20360FDF773FE00214DF204607F
:10412000FDF76EFE3A214DF20560FDF769FE0021B4
:104130004DF20660FDF764FE4A214DF20760FDF77F
:104140005FFE00214DF20860FDF75AFE5C214DF242
:104150000960FDF755FE00214DF20A60FDF750FEA3
:1041600081214DF20B60FDF74BFE00214DF20C60FA
:10417000FDF746FEA6214DF20D60FDF741FE002140
:104180004DF20E60FDF73CFEE5214DF20F60FDF7AC
:1041900037FE01214DF21060FDF732FE13214DF282
:1041A0001160FDF72DFE01214DF21260FDF728FE92
:1041B00054214DF21360FDF723FE01214DF21460EE
:1041C000FDF71EFE82214DF21560FDF719FE01215B
:1041D0004DF21660FDF714FECA214DF21760FDF78F
:1041E0000FFE02214DF21860FDF70AFE00214DF28C
:1041F0001960FDF705FE02214DF21A60FDF700FE81
:1042000001214DF21B60FDF7FBFD02214DF21C6008
:10421000FDF7F6FD34214DF21D60FDF7F1FD0221A1
:104220004DF21E60FDF7ECFD67214DF21F60FDF7BA
:10423000E7FD02214DF22060FDF7E2FD84214DF201
:104240002160FDF7DDFD02214DF22260FDF7D8FD72
:10425000A4214DF22360FDF7D3FD02214DF224602D
:10426000FDF7CEFDB7214DF22560FDF7C9FD022116
:104270004DF22660FDF7C4FDCF214DF22760FDF71A
:10428000BFFD02214DF22860FDF7BAFDDE214DF29F
:104290002960FDF7B5FD02214DF22A60FDF7B0FD62
:1042A000F2214DF22B60FDF7ABFD02214DF22C60A7
:1042B000FDF7A6FDFE214DF22D60FDF7A1FD0321C6
:1042C0004DF22E60FDF79CFD10214DF22F60FDF7A1
:1042D00097FD03214DF23060FDF792FD33214DF241
:1042E0003160FDF78DFD03214DF23260FDF788FD51
:1042F0006D214DF23360FDF783FD55212046FDF71A
:104300007FFDAA213046FDF77BFD52213846FDF79F
:1043100077FD08214046FDF773FD00214846FDF773
:104320006FFDCC215846FDF76BFD00214BF20110CB
:10433000FDF766FD05215046FDF762FD70214FF443
:104340003740FDF75DFD70214BF20170FDF758FD20
:1043500001214FF43840FDF753FD03214BF60100D6
:10436000FDF74EFD03214BF60200FDF749FD032149
:104370004BF60300FDF744FD02214FF43C40FDF7EE
:104380003FFD00214BF60140FDF73AFD00214BF6C1
:104390000240FDF735FDD0214FF44940FDF730FDD7
:1043A00002214CF60110FDF72BFD50214CF60210B6
:1043B000FDF726FD50214CF60310FDF721FD50219D
:1043C0004CF60410FDF71CFD00214FF45450FDF78E
:1043D00017FD55214FF46850FDF712FD4FF488503A
:1043E000FDF792FC782001F0A4FC4FF42450FDF777
:1043F0008BFC0120FEF740FBFE490120C1F8B00113
:104400002846FEF72DFEBDE8F88F2DE9F84FFA4C4F
:104410001E468346A388A3F5D040043802D1A07974
:1044200001280BD0A2EB0B00401C84B20D46DFF834
:10443000CC834FF400794FF4004A40E025880846C9
:10444000A91AA5EB0B030025A57132462A25658123
:104450002B26A681491E5B1E0A9F89B29BB200973C
:10446000FFF7D3FF0120A0716681A581CBE7294624
:104470005846FDF719FDFDF7EBFC00271BE000BFD8
:104480004FF48071404601F0F0FE4946404601F08D
:10449000EEFEDB480A9901F0F1FE5146404601F07C
:1044A000E6FE5146404601F0E0FE4946404601F036
:1044B000DCFE7F1CBFB2A742E2D36D1CADB2B54299
:1044C000D5D9A0E72DE9FF5F8B460098101A401C54
:1044D00086B2A3EB0B00401C87B2002433E000BF80
:1044E0000BEB040081B20098FDF7DEFCFDF7B0FC99
:1044F0000025DFF808934FF4007A4FF400481EE0DF
:104500004FF48071484601F0B0FE5146484601F034
:10451000AEFE04FB06510E9830F81110B84801F0B9
:10452000ADFE4146484601F0A2FE4146484601F034
:104530009CFE5146484601F098FE6D1CADB2B54256
:10454000DED3641CA4B2BC42CAD3BDE8FF9F2DE9F0
:10455000FE4F161ACDE900104FF000085D1A4746CD
:104560004FF0FF30002E02DD4FF0010102E003D1D9
:104570004FF000018B4602E08346C6F10006002D95
:1045800002DD4FF0010002E003D14FF0000082464F
:1045900002E08246C5F10005AE4201DD344600E08E
:1045A0002C46601C4FF00009029018E0009881B280
:1045B000019880B2FEF7F9F8B0442F44A04504DD1D
:1045C0000198A8EB040858440190A74203DD009825
:1045D0003F1B5044009009F101001FFA80F9029935
:1045E0008945E3DDBDE8FE8F2DE9F0411C46154607
:1045F0000E4607460B46FFF7AAFF3A4623463146CA
:104600001046FFF7A4FF23462A4619463846FFF70F
:104610009EFF2A4623463146BDE8F041104696E704
:104620002DE9FC5F07460025144603200E46A0EB4B
:10463000440858E0A6EB0509A7EB040A1FFA89F124
:104640001FFA8AF0FEF7B1F8381901901FFA89F1C4
:1046500080B2FEF7AAF8301981B2A7EB050B0090E3
:104660001FFA8BF0FEF7A1F81FFA89F11FFA8AF002
:10467000FEF79BF8A6EB04091FFA89F11FFA8BF0ED
:10468000FEF793F8019806EB050B1FFA8BF180B249
:10469000FEF78BF81FFA89F107EB05091FFA89F07D
:1046A000FEF783F8009881B21FFA89F0FEF77DF8D3
:1046B0001FFA8BF11FFA8AF0FEF777F86D1CB8F13C
:1046C000000F04DA08EB850000F1060805E0291B5D
:1046D00008EB810000F10A08641E301981B27819D4
:1046E00080B2FEF762F8A542A4DDBDE8FC9F2DE98B
:1046F000FF5F80461D460C468B46580700D00120C0
:1047000000EBD50069084843203A00F0FF0AD0B218
:104710000026029045E00C2D12D0102D15D0182D3A
:1047200041D10298374900EBC00000BF01EB800087
:104730004FF00009875D38060CD5334802880DE03C
:104740000298324900EB4000F0E73149029801EB52
:104750000010EDE70E9828B92B48428821464046C4
:10476000FEF747F87806070E2348641CA4B20188B8
:10477000414518D9A4EB0B00A84209D108F101006A
:104780001FFA80F81C485C46018841450BD906E0B9
:1047900009F1010000F0FF09B9F1080FCBD3761C35
:1047A000F6B25645B7D3D0E60246012000E05043AA
:1047B000491EC9B2FBD270472DE9FF4F81B00026D8
:1047C000DDF838A01D46934681463446B0464FEA90
:1047D0005A0738E0281B401EC1B20A20FFF7E4FF49
:1047E000BBFBF0F00A21B0FBF1F201FB1200AEB905
:1047F000691E0FE000002142FC080020001001406B
:10480000000C0140E04E0308800000207C440308B7
:10481000F04803088C4201DA48B101263030C2B2B8
:1048200007FB049080B25346CDF8008006E007FBFA
:10483000049080B253462022CDF800800299FFF701
:1048400056FF641CE4B2AC42C4D305B0BDE8F08F9F
:104850002DE9FF4F81B04FF00008DDE90EBA1E468A
:10486000814644460AF001054FEA5B072CE0301B05
:10487000401EC1B20A20FFF797FF0399B1FBF0F089
:104880000A21B0FBF1F201FB1200B8F1000F05D1D3
:10489000711E8C4202DA48B14FF001083030C2B2CA
:1048A00007FB049080B25B46009508E05FEA0A606F
:1048B00007FB049080B25B46009508D53022029930
:1048C000FFF715FF641CE4B2B442D0D3BDE7202249
:1048D000F5E72DE9F84F044600F0FF0910190D46E1
:1048E000DDE90AB61FFA80F8581987B24FF0000ABE
:1048F00012E0444503D305EB0B004C4685B2BD42A4
:104900000FD25B4629462046CDF800A0FFF7EFFE08
:1049100004EB5B0084B2761C3278A2F120005E28A2
:10492000E7D970E570B506460024334D03E0641CFA
:10493000E4B2C82C0FD80221284601F06EFF0028EF
:10494000F5D03146284601F024FF002405E0641C20
:10495000E4B2C82C01D9002070BD0121284601F025
:104960005CFF0028F3D0284601F015FFC0B270BDEF
:1049700038B5012141F2040001F0F3FDE020ADF86B
:10498000000018208DF8030003201C4C8DF8020055
:104990006946204601F0FBFBE021204601F065FC62
:1049A000174800214FF482720180428081800222E8
:1049B000C280012202815202428138228281C18159
:1049C000072101820C4C0146204601F03DFE0121E9
:1049D000204601F0B6FEFF20FFF7A4FF38BD0649D0
:1049E0000A8822F038020A800A8802430A8008886E
:1049F00040F040000880704700300140000801404E
:104A00000A09002030B50021FF4A0B4601240506A3
:104A100002D5C2F8A04101E0C2F8A0314006000E64
:104A2000C2F8AC31C2F8AC41491CC9B20829EED376
:104A300030BD2DE9F0410027F34C3E463D46C4F819
:104A4000AC71C4F8A071C4F8BC7104F5D074FFF760
:104A5000D9FF062001F06DF9E560012001F069F948
:104A60000121E160E560E94A4FF6FF70A4F5D074DA
:104A700000EA4606C4F8AC51C4F8AC11D2F82831AB
:104A80000BB1761CB6B27F1CFFB2102FF0D33009E9
:104A9000C4F8BC11BDE8F081FEB5064600256C46A1
:104AA0003046FFF7C6FF24F815006D1CADB2052D8A
:104AB000F6D30020431C99B20CE000BF34F810205C
:104AC00034F81150AA4203D924F8105024F81120C8
:104AD000491C89B20529F1D398B20428EAD30021F0
:104AE0005FF0010034F81020401C114480B289B2FC
:104AF0000428F7D30320B1FBF0F0FEBD2DE9F0410F
:104B0000C34C06460D462078FFF7C6FF074660787F
:104B1000FFF7C2FF378028800120BBE77FB50C4636
:104B20000546694602A8FFF7E9FF00282FD001A932
:104B300003A8FFF7E3FF002829D0BDF80C30BDF82B
:104B40000820934203D803F13200824205D39A42EF
:104B50001FD802F1320083421BD2BDF80410BDF809
:104B60000000814203D801F13206B04204D38842EA
:104B70000FD8323081420CD2D01840082880BDF8BE
:104B80000000BDF80410084440082080012004B053
:104B900070BD0020FBE72DE9F04104469D480D461D
:104BA0000B46028004F10D0082B2193880B2FFF783
:104BB000CEFC05F10D0083B2193881B222461046B1
:104BC000FFF7C5FC6E1C04F10108B1B21FFA88F0B2
:104BD000FDF7EBFDB1B2661EB0B2FDF7E6FD6F1E4C
:104BE000B9B21FFA88F0FDF7E0FDB9B2B0B2FDF737
:104BF000DCFD29462046BDE8F0410622FFF710BD46
:104C000070B5064683480C4602803046FDF7CDFD60
:104C1000751CA8B22146FDF7C8FD641CA1B2304640
:104C2000FDF7C3FDA1B2A8B2BDE87040FDF7BDBD60
:104C300070B502467548D0F83401754C083440B15F
:104C400094F8200001063ED520F0800084F8200072
:104C500040E06F48083000F116010C3012B1FFF748
:104C60005DFF24E0FFF75AFF08B3B4F92C0003F00E
:104C7000D9FA0546A08903F0DEFA616A03F056FA14
:104C8000294603F0FBF903F001FBA081B4F92E00E3
:104C900003F0C8FA0546E08A03F0CDFAA16A03F0F2
:104CA00045FA294603F0EAF903F0F0FAE08294F8B5
:104CB000200000060ED4C02084F82000A089A08225
:104CC000E08AE08306E00020A082E0834FF6FF70D8
:104CD000A081E08294F8200000F0800070BD10B543
:104CE0004B4C042208342820616A00F099FE04220B
:104CF0002C20A16A00F094FEA18D0222302000F049
:104D00008FFEE18D0222322000F08AFE94F83010EE
:104D1000342000F066FE0A21BDE81040352000F086
:104D200060BE10B5352000F03BFE044601463AA0B7
:104D300017F024FE0A2C01D0002010BD04212820E9
:104D400000F083FE324C0421083460622C2000F015
:104D50007CFEA0620221302000F077FEA0850221B7
:104D6000322000F072FEE085342000F019FE90221F
:104D7000274984F83000D02310B10A704B7001E04D
:104D80000B704A70012010BD2DE9FF4F83B00E4615
:104D9000DDE910A81F4907464FF47840DDF8509030
:104DA00008801EA01025CDE900501D4C9346A0217F
:104DB000638822882820FFF78CFD1AA0CDE90050D7
:104DC00063882288A0217820FFF783FD16A0CDE913
:104DD000005063882288B4212820FFF77AFD13A0B1
:104DE000CDE9005063882288B4217820FFF771FD57
:104DF0000FA0CDE9005063882288C8212820FFF742
:104E000068FD0CA018E000000000214200002242D2
:104E1000840000208000002025750A0078313A00C7
:104E2000FC08002079313A0078323A0079323A00B1
:104E300078333A0079333A00CDE90050638822880C
:104E4000C8217820FFF745FDFEA0CDE9005063881A
:104E50002288DC212820FFF73CFDFBA0CDE9005093
:104E600063882288DC217820FFF733FDF7A0CDE9A5
:104E7000005063882288F0212820FFF72AFD0423B0
:104E80003A46A02140200095FFF796FC04233246C5
:104E9000A02190200095FFF78FFC04235A46B421EF
:104EA00040200095FFF788FC04230095B421902052
:104EB000069AFFF781FC04235246C8214020009542
:104EC000FFF77AFC04234246C82190200095FFF7A3
:104ED00073FC04230095DC214020129AFFF76CFC40
:104EE00004230095DC219020139AFFF765FC0095C0
:104EF000218803234A466020FFF75EFC07B0BDE827
:104F0000F08F2DE9F04F002689B034464FF6FF7040
:104F1000FEF7A6F8CF484FF01F0B4FF01009A0F88E
:104F200000B0CD486423A0224168CDE9009128213A
:104F30000846FFF7CEFC14214FF478420846FFF7ED
:104F40002AFEC54800210830824680F820104162C0
:104F5000DAF8041055460120884795F82010012002
:104F6000B0EB911F49D121F0400185F8201005A92F
:104F7000AA8921F8262001EB8602761C0024E88A03
:104F8000F6B2AA465080012E06D0022E12D0032E71
:104F900020D0042E31D13CE014214FF6FF72084698
:104FA000FFF7F9FDAD484FF478420088143880B21D
:104FB000142120E0A94D4FF6FF72142128881438DF
:104FC00080B2FFF7E8FD68884FF47842143881B268
:104FD000142010E0A14D4FF6FF726888143881B29A
:104FE0001420FFF7D8FD68884FF47842143881B256
:104FF0002888143880B2FFF7CEFD0A2000F0B0FEFA
:10500000641CA4B2B4F57A7FA2D9FFF78AFE09B076
:1050100075E70026924805AD00EB860710F82620BC
:10502000787835F8221035F82030C91A00D5494271
:1050300005EB820205EB800052884088101A00D5EB
:10504000404249434043084403F0FAF817F023FF75
:1050500003F030F91FFA80F8B878FA7835F82010A4
:1050600035F82230C91A00D5494205EB800005EB1E
:10507000820240885288801A00D54042494340430A
:10508000084403F0DDF817F006FF03F013F987B2C8
:10509000384603F0D0F80546404603F0CCF82946E0
:1050A00003F076F86F49054688427DDD6E488542FB
:1050B0007ADCB8F1000F77D0002F75D0761CF6B2ED
:1050C000032EA7D3BDF81870BDF81460B81B03F009
:1050D000A9F805466148008802908046283803F008
:1050E000A1F8294603F054F8CAF824000090B81932
:1050F00003F0A1F8009903F019F80546404603F0C3
:105100009AF8294603F00CF84FF0FF3103F07EF8CF
:1051100003F0A3F8AAF82C00BDF81E70BDF8160025
:105120000190381A03F07EF806464C484588A5F1F0
:10513000280003F077F8314603F02AF88046064647
:10514000CAF828000198384403F075F8314602F097
:10515000EDFF0646284603F06EF8314602F0E0FF08
:105160004FF0FF3103F052F803F077F8AAF82E0061
:10517000009803F072F8002800DA4042022807DCA9
:10518000404603F06AF8002800DA4042022858DD61
:105190000298143D14380026304FA9B280B24FF661
:1051A000FF72FFF7F8FC00E01AE014214FF4784298
:1051B0000846FFF7F0FC2DA1CDE900917B883A88E5
:1051C0001A212820FFF785FB9AF83010B9B3002187
:1051D0008AF83010A1B3204890210170D0215AE004
:1051E0001E4800264FF6FF72418800881439143893
:1051F00089B280B2FFF7CFFC14214FF47842084601
:10520000FFF7C9FC1E49284602F090FF03F03EF864
:1052100080B2BDF82220BDF82030BDF81E10CDE9C7
:105220000320CDE90113BDF81C000090BDF81A3031
:10523000BDF81820BDF81610BDF8140022E024E0D7
:1052400025E02AE078343A0079343A006661632038
:1052500069733A008000002084000020FC080020D0
:105260003C5C03083333733F6666863F5450204EE0
:1052700065656420726561646A757374210000005D
:105280000000C842FFF780FD62E60121A0E7324836
:10529000D0210170902141705AE630494FF6FF74D9
:1052A0002046A1F800B0FDF7DBFE2DA1CDE900916D
:1052B00031486E21438802882320FFF70AFB4FF410
:1052C0007A7000F04DFDFFF70AFD2046FDF7C8FE9D
:1052D0009DE638B50121142001F043F94FF409404F
:1052E000ADF8000010208DF8030003208DF80200B7
:1052F0006946224800F04BFF4FF48060ADF8000093
:1053000048201F4C8DF803006946204600F03FFFFF
:105310006014ADF8000004208DF8030069462046B3
:1053200000F035FF0C491E31A1F10A00FFF7E6FB42
:1053300000F034FBFFF7F5FC08B1002038BD4FF456
:105340007840FDF78DFEFFF7DCFDFFF7C8FCFFF7A7
:10535000E8FC012038BD000084000020800000200F
:10536000546F7563682053637265656E2041646A8B
:10537000757374204F4B2100FC0800200008014089
:10538000001001407FB50C4605460121022001F0C6
:10539000F1F8ADF80040ADF804500024544DADF8DC
:1053A0000240ADF806406946284601F0FBFA0122AA
:1053B0001146284601F0B4FD1D208DF80C008DF833
:1053C0000D4003208DF80E0001208DF80F0003A87A
:1053D00000F033FE0121284601F08DFD7FBD10B5A0
:1053E000434C0121204601F0B0FF18B14149086843
:1053F000401C08602046BDE81040012101F0B1BF0B
:105400007FB50D4604460121102001F0B3F80020BD
:10541000ADF80440ADF80050374CADF80200ADF8DF
:1054200006006946204601F0BDFA012241212046CE
:1054300001F076FD36208DF80C0001218DF80D105D
:1054400003208DF80E008DF80F1003A800F0F5FD75
:105450000121204601F04FFD7FBD10B5264C0121F2
:10546000204601F072FF08B107F000FF2046BDE8BA
:105470001040012101F075BF7FB50D4604460121A2
:10548000084601F077F80020ADF80440ADF8005070
:10549000ADF80200ADF806004FF0804469462046A2
:1054A00001F080FA01221146204601F039FD1C204E
:1054B0008DF80C0002208DF80D0003208DF80E00F1
:1054C00001208DF80F0003A800F0B7FD0121204650
:1054D00001F011FD7FBD10B501218C07204601F0C0
:1054E00034FF2046BDE81040012101F03ABF000022
:1054F00000040040040100200010004062480168E0
:1055000000210160016841F033310160C16801F49C
:105510007F41C160C16841F0F001C160016889B29A
:1055200001600168594A11430160704710B50121BB
:10553000102001F016F8BDE81040DFE770B52A250D
:10554000FFF7DCFF504CA068A068C0F303100F28E1
:1055500071D0642000F0EDFBA068A16880B2C1F3B7
:1055600003110F2967D000F0F001206800202060AF
:10557000206840F033302060E06800F47F40E06055
:10558000E06840F00F00E06020686FF30F002060DB
:10559000206848F6880210432060A06800F00F00E1
:1055A00001433B48D7293DD012DCB7293CD008DC69
:1055B00077293BD07B2931D07D2927D07E2936D150
:1055C0001CE0BB2928D0BD291ED0BE292FD113E055
:1055D000E72925D006DCDB291CD0DD2912D0DE2905
:1055E00025D107E0EB2913D0ED2909D0EE291ED1F2
:1055F000C57B1CE0857B1AE0457B18E0057B16E047
:10560000C57A14E0857A12E0457A10E0057A0EE05A
:10561000C5790CE085790AE0457908E0057906E06E
:10562000C57804E0857802E0457800E00578A06858
:10563000C0430007FBD1284670BD10B5FFF77EFFC1
:10564000452813D006DC2A281CD0432811D0442832
:1056500004D108E04D2803D059280DD001210DE0D8
:1056600001211D200AE00121122007E0012109206B
:1056700004E00121082001E001210D20BDE81040D7
:1056800007F0B6BB10BD0000001001400000888884
:10569000C000002070B586B00121242000F061FF19
:1056A0001024ADF80040B54E8DF8034003258DF869
:1056B00002506946304600F06AFD0820ADF800004F
:1056C0008DF803408DF802506946304600F05FFDCA
:1056D0000821304600F0C9FD0420ADF80000482044
:1056E0008DF803008DF802506946A54800F04FFD83
:1056F0001821304600F0B9FDFFF73AF9A14D00211D
:10570000284601F01EF80024ADF804404FF48270E2
:10571000ADF80600ADF80C406815ADF80E00382065
:10572000ADF810000720ADF80840ADF81400ADF852
:105730000A40ADF8124001A9284600F085FF9248C2
:10574000C0F890410121C0F88C1106B070BD2DE960
:10575000F0418D4E884600211546C6F88C11FFF7A2
:10576000E1F80746002406E0FF20FFF7DBF808F821
:105770000400641CE4B2AC42F6D30120C6F88C01EC
:105780003846BDE8F0812DE9F0417F4F0D460021FC
:105790001646C7F88C11FFF7C5F88046002405E0CF
:1057A00015F8010BFFF7BEF8641CE4B2B442F7D35E
:1057B0000120C7F88C014046E3E71CB573A1D1E98D
:1057C0000001CDE900011020FFF709F90522694623
:1057D0003020FFF7D8FF052269461020FFF7B7FFFA
:1057E000002069460A5CA52A03D1401CC0B20528E6
:1057F000F8D3052801D001201CBD00201CBD70B5C8
:10580000614C0E460021C4F88C1104F5C674FFF7F4
:1058100089F805463046FFF785F8012020602846C4
:1058200070BD10B5584C0021C4F88C1104F5C67435
:10583000FFF778F8FF20FFF775F80121216010BD10
:1058400070B505461020FFF7CAF84F4C0020C4F889
:10585000900120222946A02004F5C874FFF793FF89
:10586000012020604B4800BFD0F808110029FBD16F
:105870000720FFF7D6FF044601462720FFF7BFFFAA
:10588000E00605D5FF21E120FFF7B9FF102070BD2C
:10589000A00601D5202070BDFF2070BD70B5054663
:1058A0001020FFF79CF80720FFF7BBFF04460146D6
:1058B0002720FFF7A4FF60060AD520222946612091
:1058C000FFF745FFFF21E220FFF799FF002070BDA1
:1058D000012070BD10B52C4C0020C4F890010522A9
:1058E0002D492A2004F5C874FFF74DFF012121201E
:1058F000FFF785FF01212220FFF781FF28212520C6
:10590000FFF77DFF20213120FFF779FF0F212620AF
:10591000FFF775FF0F212020FFF771FF01202060A6
:1059200010BD10B5184C0020C4F890011A4905228A
:10593000491F302004F5C874FFF725FF05221649DA
:105940002A20FFF720FF01212120FFF758FF012126
:105950002220FFF754FF1A212420FFF750FF2821AF
:105960002520FFF74CFF0F212620FFF748FF0E21CF
:105970002020FFF744FF0120206010BD00080140F7
:10598000001401400030014000002142A5A5A5A55A
:10599000A5000000008022424D5C030800F09EB884
:1059A00010B5044600F0B4F8200AA02101EB400035
:1059B000C0B200F045F900F0E4F8E0B200F040F9C0
:1059C00000F0DFF800F0A4F8A12000F039F900F0B1
:1059D000D8F8002000F05FF9044600F0B5F8204642
:1059E00010BD70B50D46044600F092F8200AA021C3
:1059F00001EB4000C0B200F023F900F0C2F8E0B2C1
:105A000000F01EF900F0BDF8284600F019F900F08A
:105A1000B8F800F099F8BDE870400A2000F0A0B98D
:105A20002DE9F04116460D460746002409E0E00046
:105A300025FA00F0C1B2381980B2FFF7D2FF641C1A
:105A4000E4B2B442F3D3BDE8F0812DE9F0410D4654
:105A50000146002004464E1908E00702301B401E94
:105A600080B2FFF79DFF641C3844E4B2AC42F4D32B
:105A7000E9E710B5FF20FFF793FF55280AD055211D
:105A8000FF20FFF7AEFFFF20FFF78AFF552801D068
:105A9000012010BD002010BD70B514460D4606460D
:105AA00008E03046711C8EB2FFF77AFF641E05F8DD
:105AB000010BA4B2002CF4D170BD70B516460C4693
:105AC000054606E021782846FFF78BFF6D1CADB236
:105AD000641C761EB6B2F5D270BD000008B5012177
