:020000040800F2
:1000000010A900203D7C00084501000847010008B8
:10001000490100084B0100084D01000800000000E4
:100020000000000000000000000000004F01000878
:1000300051010008000000005301000855010008AC
:10004000577C0008577C0008577C0008577C000844
:10005000577C0008577C0008577C0008577C000834
:10006000577C0008577C0008577C0008577C000824
:10007000577C0008577C0008577C0008577C000814
:10008000577C0008577C0008577C0008577C000804
:10009000577C0008577C0008577C0008577C0008F4
:1000A000577C0008577C0008577C0008577C0008E4
:1000B000AB6E0008B36D0008577C0008577C000841
:1000C000577C0008577C0008577C0008577C0008C4
:1000D000577C0008D57B0008577C0008577C000837
:1000E000577C0008577C0008577C0008577C0008A4
:1000F000577C0008577C0008577C0008577C000894
:10010000577C0008577C0008577C0008577C000883
:10011000577C0008577C00082F6E0008577C0008A9
:10012000577C0008577C0008577C0008577C000863
:10013000DFF80CD00AF054FA00480047A10F00087D
:1001400010A900207047FEE7FEE7FEE7FEE77047D4
:1001500070477047704700000CB500224C48009271
:100160000192016841F4803101604FF4A06301689D
:1001700001F4003101910099491C0091019911B9D4
:1001800000999942F3D10168890333D50121019186
:1001900040490A6842F010020A600A6822F003022D
:1001A0000A600A6842F002020A60416841604168E0
:1001B0004160416841F480614160416821F47C11F3
:1001C0004160416841F4E8114160016841F080718B
:1001D000016001688901FCD5416821F0030141609B
:1001E000416841F0020141604168C1F38101022987
:1001F000FAD10CBD01920CBD254810B5016841F043
:10020000010101604168244A114041600168234AAC
:1002100011400160016821F480210160416821F4EE
:10022000FE0141604FF41F018160FFF795FF1C49FB
:100230004FF00060086010BD154A10B55068194BAA
:1002400010F00C01184803D0042901D0082901D06E
:10025000036012E05168536801F470114FF002041A
:1002600013F4803F04EB914102D053689B0301D506
:100270000E4B00E00B4B5943016051680A4AC1F331
:100280000311121D515C0268CA40026010BD0000DB
:1002900000100240002002400000FFF8FFFFF6FEC1
:1002A00008ED00E000127A000000002000093D0087
:1002B0002DE9FF47FE4C8146266806F11E050A36E9
:1002C00012F0A0FE804610F089FB21684C4200EB42
:1002D0004407283F10F076FB00EB44020023022481
:1002E000CDE90293CDE900843B4629463046143AD5
:1002F00012F0CAFCEF49086004B0BDE8F0871FB5F2
:1003000040F205400090EB48406812F06FFE6946ED
:1003100013F03CFB1FBD3EB5144612F089FE0546A6
:1003200012F047FEE449884204D1214628460BF0EA
:100330003DF83EBDE1498842FBD12246E0A1684636
:100340001DF0D4F9694628460BF06CFA3EBD3EB567
:1003500012F06EFE044612F02CFED749884203D1FB
:1003600020460AF0D4FF0AE0D449884208D10A2284
:10037000694620460BF0BAF9684609F056FDC0B24E
:100380003EBD70B5CF4C002105466170A17040F6AE
:100390000101FFF7DCFFE07040F606012846FFF799
:1003A000D6FF207140F60B012846FFF7D0FF6071A1
:1003B00040F60C012846FFF7CAFFA07140F60D0178
:1003C0002846FFF7C4FFE07170BD70B5BD4C05460F
:1003D00040F60101E278FFF79EFF227940F6060120
:1003E0002846FFF798FF627940F60B012846FFF791
:1003F00092FFA27940F60C012846FFF78CFFE279C4
:100400002846BDE8704040F60D0184E72DE9FF471E
:100410001C460CAB0D46914693E88210DDE90F288F
:1004200000230226CDE90231CDE9000643466146AC
:1004300038460AF0E9F906469CB30A2003460090C4
:100440004A46002130460AF03DFB9F4930460AF0FB
:1004500073FB9E4A002130460AF044FB9C4A01216E
:1004600030460AF03FFB9B4A022130460AF03AFB35
:100470000022114630460AF09FFB0022012130463F
:100480000AF09AFB0022022130460AF095FB8849C7
:10049000304612F09FF9012130460AF045FB304604
:1004A0002AE7FFE729460AF05FFBCEE72DE9F04F88
:1004B00085B08A468346DDE90F104FF000080E9E96
:1004C000CDF80880CDE903104FF00209CDE90069AD
:1004D0001C461746514658460BF0B0F805467E4973
:1004E0000BF090F9022128460BF0FCF970492846E0
:1004F00012F070F9DDE91101CDF80880CDE90301B2
:10050000E01704EB9071CDE900690AEBA101ABEBB8
:10051000070023463A4612F032F86B4912F088F889
:10052000012128460BF066F905B02846BDE8F08F9A
:100530001CB501680F2903D0BDE81C4012F052BC65
:1005400066480EF0F5F800200EF0F4F864480EF05E
:1005500005F90CF065FD10F035FAA0F1140410F067
:100560003DFAA0F10B0104F10900ADF804000A22E4
:10057000ADF80610ADF800204D491E22ADF802205E
:100580000969684688471CBDF0B5044685B0D4E9C2
:1005900000054FF4147601280BD00E2822D00F2826
:1005A0002AD0262847D005B02046BDE8F04012F0FA
:1005B00019BC284613F040FA10F010FA3C490968BB
:1005C0004C4200EB4407283F10F0FCF900EB4402DA
:1005D000CDE900563B4620211920143A00F05AFC80
:1005E00005B0F0BDE06800680928F9D105B02846DB
:1005F000BDE8F04013F06EBA00F038FC12F002FDD6
:10060000044610F0DFF94FF4B0710023CDE9023158
:10061000024634A00225049000211E230846CDE99D
:10062000004511F0ACFF2349886005B02C49BDE8B6
:10063000F04011F0FDBFE0680228D1D1A06812F0AF
:1006400028FDB042CCD1A0680FF0E8FE0446042893
:10065000C6D200F003FC17480C3050F8240005B057
:10066000BDE8F04024E62DE9F043D0E9001585B05F
:100670004FF4B87901290AD00E2964D00F296CD023
:1006800026296FD005B0BDE8F04312F0ABBB284679
:1006900013F0D2F910F096F9054909684C4200EBC5
:1006A000440014386FF0590101EB6000282625E062
:1006B0001808030814000020F9AD00086FB5000801
:1006C000257500008C08002058DF0208B8B8B80073
:1006D000E0E0E000C0C0C00050070308D0D0D00068
:1006E00038E40208E6898BE68C81E992BBE5BA8A98
:1006F000E68EA7E588B6E599A80000004FF0C80887
:10070000CDF80090CDE901085027CDE9037600230C
:100710001A46FBA12846FFF779FE10F053F900EBCB
:10072000440014384010CDE9010840F271100090E7
:10073000CDE9037600231A46F3A12846FFF766FEAB
:1007400005B0BDE8F083C06800680928F8D105B09D
:100750002846BDE8F04313F0BDB905B0BDE8F0434D
:1007600000F084BBC1680229EAD1806812F091FCD4
:10077000484503D0A0F580707138E1D100F06EFBE0
:1007800005B0E348BDE8F04392E52DE9F047D0E934
:10079000001886B04FF4B87A01290AD00E2967D024
:1007A0000F296FD0262972D006B0BDE8F04712F0AD
:1007B00019BB404613F040F910F004F9D5496FF029
:1007C00059064FF0C8090968CDF800A04C4200EB6B
:1007D0004400143806EB6000CDE9010928255027B4
:1007E000CDE9037500231A46C5A14046FFF70EFE6A
:1007F00010F0E8F800EB440014384010CDE901098E
:1008000040F271100090CDE9037500231A46BEA195
:100810004046FFF7FBFD10F0D5F800EB440014381C
:1008200001A906EB60004FF078091E22049581E8CB
:1008300005024FF4B970002300901A46B6A1404655
:10084000FFF7E4FD10F0BEF800EB4400143801A9F6
:1008500006EB6000049581E8810240F273100023EA
:1008600000901A46B0A14046FFF7D0FD06B044E51F
:10087000C06800680928F9D106B04046BDE8F047D5
:1008800013F028B906B0BDE8F04700F0EFBAC16830
:100890000229EBD1806812F0FCFB504503D0A0F593
:1008A00080707138E2D100F0D9FA06B09848BDE8FE
:1008B000F047FDE42DE9F043D0E9001685B04FF490
:1008C000B87801290AD00E297ED00F297DD026299B
:1008D0007CD005B0BDE8F04312F084BA304613F086
:1008E000ABF810F06FF88B490022022309680096DC
:1008F0004C424FF4C0710391CDE9013200EB44004A
:100900006FF03B071438502307EB60001A4628218C
:100910000AF040FB054689A10AF055FA88A128464D
:100920000AF051FA87A128460AF04DFA864928466E
:100930000AF012FD10F046F800EB4400143807EB03
:1009400060003C254FF05A09CDE90080CDE90295C1
:1009500000231A467DA104953046FFF757FD10F09D
:1009600031F800EB44004FF00A08143808EB60003F
:100970000190CDE9029540F27110002300901A46D3
:1009800074A104953046FFF741FD10F01BF800EB11
:100990004400143807EB60004FF0A0090190CDE946
:1009A00002954FF4B970002300901A466BA104958C
:1009B0003046FFF72BFD10F005F800EB440014382B
:1009C00008EB6000019002E039E042E046E0CDE94A
:1009D000029540F27310002300901A4661A104951D
:1009E0003046FFF713FD0FF0EDFF00EB4400143825
:1009F00007EB60004FF0E609CDE901094FF4BA704A
:100A000000902827CDE9035700231A463CA1304621
:100A1000FFF7FCFC0FF0D6FF00EB4400143808EBA6
:100A20006000CDE9010940F275100090CDE903574F
:100A300000231A4634A13046FFF7E8FC80E6C06880
:100A400000680928FAD105B03046BDE8F04313F03C
:100A500041B805B0BDE8F04300F008BAC16802290A
:100A6000ECD1806812F015FB4045E7D0A0F580700E
:100A70007538E3D100F0F2F905B02548BDE8F04340
:100A800016E42DE9F043D0E9001485B04FF4B879AD
:100A900001290AD00E2979D00F2978D0262977D0BC
:100AA00005B0BDE8F04312F09DB9204612F0C4FF36
:100AB0000FF088FF174940F2011303260968CDE9BA
:100AC00000434D4229A140F261120296CDE9032173
:100AD00000EB450014381E23401050221946FFF742
:100AE000E5FC0FF06FFF4FF4817300EB4500CDE99B
:100AF00000431438401021A14FF4B172029648E02F
:100B0000E7A1AEE8AEA40000E58F96E6B688000047
:100B10008905000818080308E6A8A1E59D97E6A343
:100B200080E6B58B00000000E695B0E68DAEE4BC33
:100B3000A0E8BE93E6A380E6B58B00004D3100002F
:100B40004D3200004D33000050070308E5AE9AE433
:100B5000BD8D0000E689A9E5AD940000E4B88AE502
:100B60008D870000E4B88BE9998D0000E8BDACE505
:100B70008AA8E9809FE5BAA600000000E992BBE5DB
:100B8000AD94E9809FE5BAA6000000005FE068E050
:100B90006CE0CDE903211E2350224621FFF786FC9D
:100BA0000FF010FF40F20313CDE90043D4A140F24F
:100BB00063120296CDE9032100EB45001438401082
:100BC0001E2350226E21FFF771FC0FF0FBFE4FF445
:100BD0008273CDE90043CEA14FF4B2720296CDE903
:100BE000032100EB4500143840101E2350229621AB
:100BF000FFF75CFC0FF0E6FE00EB45006FF05901DB
:100C0000143801EB60004FF0C808CDF80090CDE932
:100C1000010828265027CDE9037600231A46C0A1F3
:100C20002046FFF7F3FB0FF0CDFE00EB4500143834
:100C30004010CDE9010840F271100090CDE9037633
:100C400000231A46BAA12046FFF7E0FB78E5C0680A
:100C500000680928FAD105B02046BDE8F04312F03B
:100C600039BF05B0BDE8F04300F000B9C168022902
:100C7000ECD1806812F00DFA48450BD0A0F58070D9
:100C80007138E3D100F0EAF8AB4805B0BDE8F043B5
:100C9000FFF70EBB00F0E2F8A848F6E72DE9F043B5
:100CA000D0E9001485B04FF4B87901290AD00E2993
:100CB0007DD00F297CD026297BD005B0BDE8F0433C
:100CC00012F090B8204612F0B7FE0FF07BFE9C4960
:100CD0004FF4807303260968CDE900434D4299A182
:100CE00040F261120296CDE9032100EB4500143871
:100CF0001E23401050221946FFF7D8FB0FF062FE6A
:100D000040F20113CDE9004381A14FF4B172029684
:100D1000CDE9032100EB4500143840101E2350227A
:100D20004621FFF7C3FB0FF04DFE4FF48173CDE971
:100D3000004386A140F263120296CDE9032100EB45
:100D40004500143840101E2350226E21FFF7AEFBE1
:100D50000FF038FE00EB45001438282650276FF0BE
:100D60005901002301EB60004FF0C8081A46AFF2AA
:100D70007021CDF80090CDE90108CDE90376204639
:100D8000FFF744FB0FF01EFE00EB45001438401047
:100D9000CDE90108002340F271101A46AFF2982104
:100DA0000090CDE903762046FFF730FBC8E401E070
:100DB0000AE00EE0C06800680928F7D105B02046B7
:100DC000BDE8F04312F086BE05B0BDE8F04300F088
:100DD0004DB8C1680229E9D1806812F05AF9484536
:100DE0000BD0A0F580707138E0D100F037F85B4887
:100DF00005B0BDE8F043FFF75BBA00F02FF84E48AE
:100E0000F6E710B5042012F005FE554810F04CFF2F
:100E100054480AF0CBFF524810F046FF524809F000
:100E200075FE524809F06EFF51480AF087FA5148A2
:100E300011F06AFA504811F061FB50480FF0C4F904
:100E40004F4811F005F812F0DDF84E4912F0B4FDEC
:100E50003948FFF72DFA0DF02DFF10BD10B54A4CA3
:100E6000206811F0F3FF0020206010BD1CB568461B
:100E700012F0ACF845480DF05BFC00200DF05AFC78
:100E800043480DF06BFC02200DF0AAFC68460CF004
:100E900005F91CBDF0B587B00227DDE90C565024DA
:100EA0000297CDE9036405940324CDE900540FF0C3
:100EB0005DFA064637490FF0D5FA374A0121304628
:100EC0000FF0B9FA0A22012130460FF0F9FA0A228E
:100ED000012130460FF0D8FA304D002405EBC40054
:100EE00055F83410426830460FF07CF9641C042C2D
:100EF000F4D3304612F0A0FD07B03046F0BD00003C
:100F0000E68993E5AD94E6ACA1E695B0000000005B
:100F1000E992BBE5AD94E6B7B1E5BAA600000000E2
:100F2000E992BBE5AD94E8AEBEE7BDAE00000000BF
:100F3000E8BF94E59B9E0000890500089D0C000811
:100F400018080308E5AD94E695B00000E689A9E528
:100F5000AD94E6B7B1E5BAA600000000830A000828
:100F6000251C010859B900088DA8000815AC000817
:100F700065B000082D210108D1230108890101086D
:100F8000991D01083105000814000020B0B0B00020
:100F900058DF020850F402084050D480308502081F
:100FA00006F074FD4FF4A06006F002FF4FF4E1304C
:100FB00006F0C2FD05F0A7FF06F05CF801F055FA57
:100FC00005F060FE40F2E7344721204605F0C4FEFC
:100FD00040F2CF21204605F0FDFE472141F2873047
:100FE00005F034FF06F04AFE0121402007F06EF9BB
:100FF000042012F00FFD002000F005FF06F064F859
:101000000CF0E6FD4FF6FF744FF47A7512E0002005
:101010000DF08EFB20460DF08DFB0C480DF09EFB75
:101020000BF0FEFF3222782109A00CF0DBF92846F4
:101030000CF03AF906F0DCF80028E8D1FFF7E1FE01
:1010400005F0ECFF14200CF02FF9F9E758DF020847
:10105000E8BF9EE68EA5E4B8AD0D0A0070B5064661
:101060004FF48071FE4C204606F0BDFF6515294601
:10107000204606F0B8FF3146FA4806F0BBFF802153
:10108000204606F0B0FF8021204606F0AAFF294640
:101090002046BDE8704006F0A4BF70B5F04C06468F
:1010A0004FF48071204606F09CFF651529462046C6
:1010B00006F099FF3146EB4806F09CFF8021204660
:1010C00006F091FF8021204606F08BFF294620463E
:1010D000BDE8704006F085BF2DE9F047E14F4FF0C5
:1010E000883038603D1D2860DE4E00200C363060B0
:1010F000DB4CA915204606F074FF4FF400794946F1
:10110000204606F070FF4021204606F06CFFD648CE
:101110008088A0F50941893902D1022006F0CDFC72
:10112000384606F051FF80464021204606F059FF20
:101130004946204606F055FF4FF0333038602860AE
:101140004FF6FF7030604046BDE8F08770B50E4640
:10115000FFF784FFC24C4FF48071204606F041FF38
:1011600065152946204606F03EFF3146BD4806F08B
:1011700041FF8021204606F036FF8021204606F000
:1011800030FF29462046BDE8704006F02ABF10B562
:10119000FFF764FFBDE810409EE7B34800895DE7B4
:1011A00070B5AF4C06464FF48071204606F019FF2B
:1011B00065152946204606F016FF3146A94806F077
:1011C00019FF8021204606F00EFF8021204606F000
:1011D00008FF29462046BDE8704006F002BFC0F374
:1011E0004511C20AC00200EB4110104480B27047A2
:1011F0002DE9F84F9C4E0D460446B188280A009010
:101200003046DFF85C82DFF85CA24089A1F513422A
:101210004FF480774FF400794FEA142B413A15D000
:10122000A1F5A642103A11D03346A1F5D04C9A79D7
:101230001B881B1B5B1EBCF1040C75D0A1F5A04CD8
:10124000BCF5A26C6ED0012A6DD03FE1FFF706FF1E
:101250004FF480714646404606F0C3FE494630468C
:1012600006F0C1FE59465746504606F0C3FE80219F
:10127000304606F0B8FE8021304606F0B2FE494600
:10128000304606F0AEFE4FF48071304606F0A9FEFF
:101290004946304606F0A7FEE1B2384606F0AAFEFF
:1012A0008021304606F09FFE8021304606F099FEF0
:1012B0004946304606F095FE6B488089FFF7CEFE22
:1012C0004FF48071304606F08CFE4946304606F0F9
:1012D0008AFE3846009906F08DFE8021304606F0E1
:1012E00082FE8021304606F07CFE4946304606F0FC
:1012F00078FE4FF48071304606F073FE4946304662
:1013000006F071FEE9B2384606F074FE80213046E0
:1013100006F069FE8021304606F063FE49463046FD
:10132000CFE001E054E0D0E0012A00D19CB2FFF709
:1013300095FEBB463946404606F053FE49464046B8
:1013400006F051FE210A5746504606F053FE802112
:10135000404606F048FE8021404606F042FE4946DF
:10136000404606F03EFE5946404606F03AFE4946E3
:10137000404606F038FEE1B2384606F03BFE8021DA
:10138000404606F030FE8021404606F02AFE4946DF
:10139000404606F026FEB089FFF760FE59464046FB
:1013A00006F01FFE4946404606F01DFE38460099ED
:1013B00006F020FE8021404606F015FE80214046C2
:1013C00006F00FFE4946404606F00BFE594663E024
:1013D000FFF744FE4FF48071404606F002FE494696
:1013E000404606F000FE59465746504606F002FEBB
:1013F0008021404606F0F7FD8021404606F0F1FDD1
:101400004946404606F0EDFD7089401C80B2FFF76A
:1014100025FE4FF48071404606F0E3FD4946404604
:1014200006F0E1FDE1B2384606F0E4FD80214046D9
:1014300006F0D9FD8021404606F0D3FD49464046DE
:1014400006F0CFFDB089FFF709FE4FF480714046EA
:1014500006F0C7FD4946404606F0C5FD384605E0A2
:1014600000100140000C0140AC080020009906F07B
:10147000C1FD8021404606F0B6FD8021404606F0C1
:10148000B0FD4946404606F0ACFDB089401C80B234
:10149000FFF7E4FD4FF48071404606F0A2FD494697
:1014A000404606F0A0FDE9B2384606F0A3FD8021D3
:1014B000404606F098FD8021404606F092FD4946E0
:1014C0004046BDE8F84F06F08CBD9CB22146FFF7C0
:1014D0003DFEB0892946BDE8F84F37E62DE9F84FC3
:1014E000FE4D2A88824202D96A888A4202D80020A8
:1014F000BDE8F88FFFF77CFEA888AA4649F2413B79
:1015000045F2103545F21056584505D0A0F5D041AA
:10151000043901D0A84201D12E2005E0B04202D109
:101520004FF4385000E02220FFF798FDDFF8B09329
:101530004FF08830C9F8000009F104010860E8495B
:101540004FF6FF780C31C1F80080E64F8915384618
:1015500006F047FD7915384606F045FD402138462E
:1015600006F041FD012006F0A8FA4021384606F0B9
:1015700038FD4021384606F036FD012006F09DFA80
:10158000484606F021FD81464021384606F029FDF7
:10159000BAF80400584503D0A84201D0B04210D197
:1015A0004021384606F01FFDCD4806F00DFD0090A5
:1015B0004021384606F015FD09F0FF0008EA002436
:1015C0000FE0A0F5D04104390BD14021384606F098
:1015D0000AFD4021384606F004FDC14806F0F4FC3F
:1015E00081464FF40071384606F0FBFCBC494FF0D1
:1015F00033300860091D0860B9490C31C1F800801A
:10160000BAF80400A0F5134125391ED0A0F58A418F
:1016100035391AD0091D18D0A0F50941893914D0DF
:10162000A0F53541053910D0584503D0A84201D066
:10163000B0420CD14FEAD9204FEAC020A10A40EABB
:101640004111009841EAD02052E7484650E7484609
:10165000BDE8F84FC3E5A1488088A0F513414139A2
:101660000ED0A0F5D04104390AD0A0F5A64110391A
:1016700006D0B1F5007105D040F27311072065E581
:10168000292001E04FF42450E8E494488088A0F534
:10169000134141390DD0A0F5D041043909D0A0F54E
:1016A000A641103905D0B1F5007104D00021072002
:1016B0004CE5282001E04FF42050CFE42DE9F0471D
:1016C000864C00252146A379898846F60402012B21
:1016D00018D1914216D0082814D2DFE800F0040691
:1016E000080A0C0E101206200CE007200AE0042065
:1016F00008E0052006E0012004E0002002E00320CD
:1017000000E00220A1F5134645F2103345F21058CF
:10171000413E05D0914203D0994201D041457DD14F
:10172000082812D2DFE800F0110406080A0C0E1097
:1017300080250AE0402508E0C02506E0202504E0D9
:10174000602502E0A02500E0E025414502D14FF4EC
:10175000585000E03620994203D0414501D045F071
:101760000805914201D145F002052946FFF7EEFC3C
:10177000A8062088618802D5884202D303E0884207
:1017800001D921806080A0884FF480756E004045AB
:10179000544FDFF84C9160897ED1FFF75FFC2946FA
:1017A000B846384606F01DFC3146404606F01BFCA4
:1017B00000214F46484606F01DFC8021404606F0B9
:1017C00012FC8021404606F00CFC3146404606F0F3
:1017D00008FC6089401C80B2FFF740FC2946404667
:1017E00006F0FFFB3146404606F0FDFB002138467F
:1017F00006F000FC8021404606F0F5FB80214046C3
:1018000006F0EFFB3146404606F0EBFB6089801C9A
:1018100080B2FFF723FC2946404600E071E106F064
:10182000E0FB3146404606F0DEFB2088401EC0F358
:101830000F21384606F0DEFB8021404606F0D3FB40
:101840008021404606F0CDFB3146404606F0C9FBFC
:101850006089C01C80B2FFF701FC2946404606F0B3
:10186000C0FB3146404606F0BEFB2078401EC1B2A8
:10187000384606F0BFFB8021404606F0B4FB8021CD
:10188000404606F0AEFB3146404606F0AAFBA08972
:10189000FFF7E4FB294600E060E0404606F0A1FBCC
:1018A0003146404606F09FFB0021384606F0A2FB79
:1018B0008021404606F097FB8021404606F091FBD0
:1018C0003146404606F08DFBA089401C80B2FFF7F0
:1018D000C5FB2946404606F084FB05E0AC08002025
:1018E000000C0140001001403146404606F07BFBF1
:1018F0000021384606F07EFB8021404606F073FB4F
:101900008021404606F06DFB3146404606F069FBFB
:10191000A089801C80B2FFF7A1FB2946404606F053
:1019200060FB3146404606F05EFB6088401EC0F317
:101930000F21384606F05EFB8021404606F053FB3F
:101940008021404606F04DFB3146404606F049FBFB
:10195000A089C01C80B2FFF781FBB6E0FFF77EFBD9
:101960002946B846384606F03CFB3146404606F06C
:101970003AFB00214F46484606F03CFB802140469A
:1019800006F031FB8021404606F02BFB31464046F5
:1019900006F027FB2946404606F023FB3146404629
:1019A00006F021FB0021384606F024FB802140464A
:1019B00006F019FB8021404606F013FB31464046F5
:1019C00006F00FFB2946404606F00BFB3146404629
:1019D00006F009FB2088401EC0F30F21384606F0B0
:1019E00009FB8021404606F0FEFA8021404606F0C1
:1019F000F8FA3146404606F0F4FA2946404606F029
:101A0000F0FA3146404606F0EEFA2078401EC1B2A8
:101A1000384606F0EFFA8021404606F0E4FA8021CD
:101A2000404606F0DEFA3146404606F0DAFAA08972
:101A3000FFF714FB2946404606F0D3FA31464046EC
:101A400006F0D1FA0021384606F0D4FA802140464B
:101A500006F0C9FA8021404606F0C3FA31464046F6
:101A600006F0BFFA2946404606F0BBFA314640462A
:101A700006F0B9FA0021384606F0BCFA802140464B
:101A800006F0B1FA8021404606F0ABFA31464046F6
:101A900006F0A7FA2946404606F0A3FA314640462A
:101AA00006F0A1FA6088401EC0F30F21384606F008
:101AB000A1FA8021404606F096FA8021404606F0C1
:101AC00090FA3146404606F08CFA2946404606F028
:101AD00088FA3146404606F086FAA078401EC1B228
:101AE000384606F087FA8021404606F07CFA8021CD
:101AF000404606F076FA31464046BDE8F04706F02B
:101B000070BA082812D2DFE800F0040608110A0CA7
:101B10000E1030250AE0102508E0202506E03825C3
:101B200004E0282502E0182500E00825A1F5094079
:101B3000893806D0032045F48051BDE8F047FFF70F
:101B400005BB112046F240012943F6E770B5FFF7C7
:101B50004FFBFFF722FBFE4C4FF48071204606F04E
:101B600040FA65152946204606F03DFAF94AFA483A
:101B7000118806F03FFA8021204606F034FA8021D1
:101B8000204606F02EFA29462046BDE8704006F0B1
:101B900028BA2DE9F74FF14E044682B0B388080AFF
:101BA000009030460D46DFF8A883DFF8ACA34089EB
:101BB000A3F513414FF480774FF400794FEA142BCB
:101BC000413913D0A3F5A64110390FD0B1F50071FA
:101BD00018D03246A3F5D04C91791288121B521EB0
:101BE000BCF1040C66D001297ED0CFE0FFF736FAB5
:101BF0003946404606F0F5F94946404606F0F3F905
:101C0000594665E0FFF72AFA3946404606F0E9F9F9
:101C10004946404606F0E7F95946504606F0EAF9CB
:101C20008021404606F0DFF98021404606F0D9F9D0
:101C30004946404606F0D5F97089401C80B2FFF74E
:101C40000DFA3946404606F0CCF94946404606F0C2
:101C5000CAF9E1B2504606F0CDF98021404606F0BF
:101C6000C2F98021404606F0BCF94946404606F0DC
:101C7000B8F9B089FFF7F2F93946404606F0B1F9F4
:101C80004946404606F0AFF95046009906F0B2F9D1
:101C90008021404606F0A7F98021404606F0A1F9D0
:101CA0004946404606F09DF9B089401C80B2FFF7D6
:101CB000D5F951E0012900D194B2FFF7CFF93946A7
:101CC000404606F08EF94946404606F08CF9210A56
:101CD000504606F08FF98021404606F084F98021B5
:101CE000404606F07EF900E04FE04946404606F0E7
:101CF00078F93946404606F074F94946404606F000
:101D000072F9E1B2504606F075F98021404606F0BE
:101D10006AF98021404606F064F94946404606F0DB
:101D200060F9B089FFF79AF93946404606F059F94B
:101D30004946404606F057F95046009906F05AF9D0
:101D40008021404606F04FF98021404606F049F9CF
:101D50004946404606F045F93946404606F041F905
:101D60004946404606F03FF9E9B2504606F042F9CE
:101D70008021404606F037F98021404606F031F9CF
:101D80004946404606F02DF907E094B22146FFF798
:101D9000DDF9B0892946FFF7D9F93946444640466E
:101DA00006F021F94D464946204606F01CF93189D6
:101DB0005646504606F01EF98021204606F013F9DB
:101DC0008021204606F00DF92946204606F009F943
:101DD0003946204606F005F92946204606F003F963
:101DE0003046049906F006F98021204606F0FBF8FB
:101DF0008021204606F0F5F805B029462046BDE8CA
:101E0000F04F06F0EEB82DE9F05F54492C232A2458
:101E10002B2522222126898848F689194FF04E0A5F
:101E20004FF04F0B45F2105EF02749F24138F8B100
:101E30004A484FF0010C414580F806C04FF4A07CA1
:101E4000A0F800C047800FD0A1F5A647103F0BD0E7
:101E5000A1F5D047043F4ED0494550D10281A0F8AA
:101E60000AB0A0F80CA060E00381448185815CE0A9
:101E70003A484FF0000C414580F806C007804FF407
:101E8000A077478011D0A1F5D04CBCF1040C0CD048
:101E9000A1F5A04CBCF5447C07D0494514D1028182
:101EA000A0F80AA0A0F80CB04CE003814481A1F591
:101EB000D0428581043A03D0A1F5A642103A41D11F
:101EC00007804FF4F0710FE071450FD14FF430519E
:101ED00001814FF4285141814FF42C5181814FF4FD
:101EE000F07101804FF4487141802BE00281202184
:101EF0004181868126E003814581848115E0714519
:101F00000FD14FF4305202814FF4285242814FF4E6
:101F10002C5282814FF4487202804FF4F07242805A
:101F200003E00281468120228281A1F5D042043A59
:101F300003D0A1F5A642103A04D14FF4F07101800C
:101F4000A0F802C0BDE8F05F0020FFF7B7BB0000BB
:101F50000010014030000020000C0140AC080020BF
:101F60002DE9F05F07461044401E85B2C818401E98
:101F70000E4684B2FE4A4FEA112A114690884989DA
:101F8000A0F513434FF4807B4FEA1729413B30D033
:101F9000A0F5A643103B2CD0A0F5D043043B28D09D
:101FA000A0F5AA43103B7DD0917901297BD0A846AA
:101FB00039463546A0F50942893A75D050204FF090
:101FC000510B4FF0520A53229146FFF7BFF841469A
:101FD0005846FFF7BBF829465046FFF7B7F82146A9
:101FE0004846FFF7B3F831463846BDE8F05FFFF7E3
:101FF000FFB80846FFF732F84FF48071DD4805F06E
:10200000F0FF4FF4007B5946DA4805F0ECFFDFF8AB
:1020100068834946404605F0EDFF8021D54805F02C
:10202000E2FF8021D34805F0DCFF5946D14805F096
:10203000D8FF4FF48071CF4805F0D3FF5946CD4803
:1020400005F0D1FFF9B2404605F0D4FF8021C94820
:1020500005F0C9FF8021C74805F0C3FF5946C548B0
:1020600005F0BFFF4FF48071C24805F0BAFF594632
:10207000C04805F0B8FF290A404605F0BBFF8021A3
:10208000BC4805F0B0FF8021BA4805F0AAFF5946C8
:10209000B84805F0A6FF4FF48071B64805F0A1FFDF
:1020A000594602E07AE08BE180E1B24805F09BFFFF
:1020B000E9B2404605F09EFF8021AE4805F093FF4F
:1020C0008021AC4805F08DFF5946AA4805F089FFEC
:1020D000A7488089FEF7C2FF4FF48071A54805F03C
:1020E00080FF5946A34805F07EFF5146404605F063
:1020F00081FF80219F4805F076FF80219D4805F0F3
:1021000070FF59469B4805F06CFF4FF48071994869
:1021100005F067FF5946974805F065FFF1B2404664
:1021200005F068FF8021934805F05DFF802191480C
:1021300005F057FF59468F4805F053FF4FF4807163
:102140008C4805F04EFF59468A4805F04CFF210A9D
:10215000404605F04FFF8021864805F044FF80216E
:10216000844805F03EFF5946824805F03AFF4FF497
:102170008071804805F035FF59467E4805F033FFF1
:10218000E1B2404605F036FF80217A4805F02BFF8A
:102190008021784805F025FF594602E1904608461F
:1021A000FEF75CFF5946734805F01BFF4FF40071C2
:1021B000704805F018FF4946DFF8BC91484605F025
:1021C00019FF80216B4805F00EFF8021694805F05A
:1021D00008FF4FF40071674805F003FFB8F80A00E4
:1021E000401C80B2FEF73AFF5946624805F0F9FEFE
:1021F0004FF400715F4805F0F6FEF9B2484605F06D
:10220000F9FE80215B4805F0EEFE8021594805F07B
:10221000E8FE4FF40071574805F0E3FEB8F80A00F5
:10222000801C80B2FEF71AFF5946524805F0D9FECD
:102230004FF400714F4805F0D6FE290A484605F0D4
:10224000D9FE80214B4805F0CEFE8021494805F09B
:10225000C8FE4FF40071474805F0C3FEB8F80A0005
:10226000C01C80B2FEF7FAFE5946424805F0B9FE9E
:102270004FF400713F4805F0B6FEE9B2484605F05C
:10228000B9FE80213B4805F0AEFE8021394805F0BB
:10229000A8FE4FF40071374805F0A3FEB8F80C0013
:1022A000FEF7DCFE5946334805F09BFE4FF4007103
:1022B000304805F098FE5146484605F09BFE8021C7
:1022C0002C4805F090FE80212A4805F08AFE4FF444
:1022D0000071284805F085FEB8F80C00401C80B25B
:1022E000FEF7BCFE5946234805F07BFE4FF4007113
:1022F000204805F078FEF1B2484605F07BFE8021CB
:102300001C4805F070FE80211A4805F06AFE4FF463
:102310000071184805F065FEB8F80C00801C80B20A
:10232000FEF79CFE5946134805F05BFE4FF4007122
:10233000104805F058FE210A484605F05BFE802152
:102340000C4805F050FE80210A4805F04AFE4FF483
:102350000071084805F045FEB8F80C00C01C80B2BA
:10236000FEF77CFE5946034805F03BFE06E0000000
:10237000AC08002000100140000C01404FF4007137
:10238000FE4805F030FEE1B2484605F033FE8021FC
:10239000FA4805F028FE8021F84805F022FE4FF4A7
:1023A0000071BDE8F05FF54805F01BBE442041EA2E
:1023B000082189B2834688464FF0450A462203E643
:1023C0001288A046531B5B1ED21B521E31469DB283
:1023D00094B2EFE52DE9F047E94E824600243088BB
:1023E00075884543B088A0F5D041043902D1B07951
:1023F00001280CD000210846FEF7FAFEFEF7CDFEBC
:10240000DE4E4FF480787715DFF8789329E00020CE
:10241000B0712A2777814FF02B08A6F80C8001466F
:10242000FEF7E6FE0120B071A6F80A80B781E5E765
:102430004146304605F0D5FD3946304605F0D3FD1E
:102440005146484605F0D6FD8021304605F0CBFDCB
:102450008021304605F0C5FD3946304605F0C1FD06
:10246000641CAC42E4D3BDE8F0872DE9F84F0121AC
:10247000192005F034FF0121C34805F0D3FD4FF4C6
:10248000F864ADF8004010208DF803000320BB4D28
:102490008DF802006946284605F039FD2146284698
:1024A00005F09FFDB74C4FF6FF75ADF8005069463B
:1024B000204605F02CFD2946204605F092FD3220ED
:1024C00005F012FB01210020FEF740FE322005F04E
:1024D0000BFB0020FEF75BFEA94C49F2413646F6A5
:1024E0000408A08045F2103945F21057FF2804D3A4
:1024F000A84202D0B0F5134F56D1D320FEF7AEFD5F
:10250000FEF7EAFDFEF7E8FDFEF7E6FD05EA00202E
:10251000A080FEF7E1FDA1880843A080B04243D02F
:10252000BF20FEF79BFDFEF7D7FDFEF7D5FDFEF7BA
:10253000D3FDFEF7D1FD05EA0020A080FEF7CCFD1B
:10254000A1880843A08040452ED0D420FEF786FD08
:10255000FEF7C2FDFEF7C0FDFEF7BEFD05EA002056
:10256000A080FEF7B9FDA1880843A08048451BD094
:102570004FF45A40FEF772FDFEF7AEFD4FF45B409C
:10258000FEF76CFDFEF7A8FD05EA0020A0804FF4E1
:102590005C40FEF763FDFEF79FFDA1880843A08025
:1025A000B0F5004F00D1A780A18878A01BF08EF86D
:1025B000A088B0427ED1CF20FEF750FD0020FEF76C
:1025C0006CFDC120FEF769FD3020FEF766FDED20B1
:1025D000FEF744FD6420FEF760FD0320FEF75DFD7D
:1025E0001220FEF75AFD8120FEF757FDE820FEF786
:1025F00035FD8520FEF751FD1020FEF74EFD7A20B7
:10260000FEF74BFDCB20FEF729FD3920FEF745FDF7
:102610002C20FEF742FD0020FEF73FFD3420FEF7A0
:102620003CFD0220FEF739FDF720FEF717FD2020C4
:10263000FEF733FDEA20FEF711FD0020FEF72DFD29
:102640000020FEF72AFDC020FEF708FD1B20FEF744
:1026500024FDC120FEF702FD0120FEF71EFDC5206E
:10266000FEF7FCFC3020FEF718FD3020FEF715FDCC
:10267000C720FEF7F3FCB720FEF70FFD3620FEF76C
:10268000EDFC4820FEF709FD3A20FEF7E7FC552057
:10269000FEF703FDB120FEF7E1FC0020FEF7FDFC94
:1026A0001A20FEF7FAFCB620FEF7D8FC0A20FEF747
:1026B000F4FC00E0A2E0A220FEF7EFFCF220FEF71F
:1026C000CDFC0020FEF7E9FC2620FEF7C7FC012028
:1026D000FEF7E3FCE020FEF7C1FC0F20FEF7DDFC77
:1026E0002A20FEF7DAFC2820FEF7D7FC0820FEF7A8
:1026F000D4FC0E20FEF7D1FC0820FEF7CEFC5420BF
:10270000FEF7CBFCA920FEF7C8FC4320FEF7C5FC72
:102710000A20FEF7C2FC0F20FEF7BFFC0020FEF7E8
:10272000BCFC0020FEF7B9FC0020FEF7B6FC002040
:10273000FEF7B3FCE120FEF791FC0020FEF7ADFCB4
:102740001520FEF7AAFC1720FEF7A7FC0720FEF7CE
:10275000A4FC1120FEF7A1FC0620FEF79EFC2B2016
:10276000FEF79BFC5620FEF798FC3C20FEF795FCFC
:102770000520FEF792FC102010E000000010014040
:10278000AC080020000C014000023000204C434403
:102790002049443A25780D0A00000000FEF77DFC30
:1027A0000F20FEF77AFC3F20FEF777FC3F20FEF774
:1027B00074FC0F20FEF771FC2B20FEF74FFC00206D
:1027C000FEF76BFC0020FEF768FC0120FEF765FCBD
:1027D0003F20FEF762FC2A20FEF740FC0020FEF7B7
:1027E0005CFC0020FEF759FC0020FEF756FCEF20B1
:1027F000FEF753FC1120FEF731FCA5E040457CD1EB
:102800001120FEF72BFC142005F06EF9D020FEF706
:1028100025FC0720FEF741FC4220FEF73EFC1D2070
:10282000FEF73BFCD120FEF719FC0020FEF735FC3B
:102830001A20FEF732FC0920FEF72FFCD220FEF70B
:102840000DFC0120FEF729FC2220FEF726FCC0200B
:10285000FEF704FC1020FEF720FC3B20FEF71DFCD9
:102860000020FEF71AFC0220FEF717FC1120FEF7ED
:1028700014FCC520FEF7F2FB0320FEF70EFCC82077
:10288000FEF7ECFB0020FEF708FC2520FEF705FC18
:102890002120FEF702FC0520FEF7FFFB0020FEF7DB
:1028A000FCFB0A20FEF7F9FB6520FEF7F6FB25206E
:1028B000FEF7F3FB7720FEF7F0FB5020FEF7EDFB71
:1028C0000F20FEF7EAFB0020FEF7E7FBF820FEF7FB
:1028D000C5FB0120FEF7E1FBFE20FEF7BFFB002059
:1028E000FEF7DBFB0220FEF7D8FB2020FEF7B6FB4D
:1028F0003620FEF7B3FB082000E02BE0FEF7CDFB0F
:102900003A20FEF7ABFB5520FEF7C7FB2B20FEF766
:10291000A5FB0020FEF7C1FB0020FEF7BEFB012057
:10292000FEF7BBFB3F20FEF7B8FB2A20FEF796FB25
:102930000020FEF7B2FB0020FEF7AFFB0120FEF700
:10294000ACFBDF20FEF7A9FB782005F0CDF82920AD
:1029500001F0FCBE48457CD1ED20FEF77FFB012055
:10296000FEF79BFBFE20FEF798FBEE20FEF776FBC2
:10297000DE20FEF792FB2120FEF78FFBF120FEF711
:102980006DFB0120FEF789FBDF20FEF767FB1020BF
:10299000FEF783FBC420FEF761FB8F20FEF77DFB73
:1029A000C620FEF75BFB0020FEF777FBE220FEF778
:1029B00074FBE220FEF771FBE220FEF76EFBBF2006
:1029C000FEF74CFBAA20FEF768FBB020FEF746FBA3
:1029D0000D20FEF762FB0020FEF75FFB0D20FEF7E7
:1029E0005CFB0020FEF759FB1120FEF756FB002090
:1029F000FEF753FB1920FEF750FB0020FEF74DFBBE
:102A00002120FEF74AFB0020FEF747FB2D20FEF7B2
:102A100044FB0020FEF741FB3D20FEF73EFB00207B
:102A2000FEF73BFB5D20FEF738FB0020FEF735FB91
:102A30005D20FEF732FB0020FEF72FFBB120FEF7F2
:102A40000DFB8020FEF729FB0020FEF726FB8B20E4
:102A500000E0FCE3FEF721FB0020FEF71EFB9620C2
:102A6000FEF71BFB0020FEF718FBB220FEF7F6FA7C
:102A70000020FEF712FB0020FEF70FFB0220FEF7FE
:102A80000CFB0020FEF709FB0320FEF706FB0020ED
:102A9000FEF703FBB320FEF7E1FA0020FEF7FDFA94
:102AA0000020FEF7FAFA0020FEF7F7FA0020FEF702
:102AB000F4FA0020FEF7F1FA0020FEF7EEFA00200B
:102AC000FEF7EBFA0020FEF7E8FA0020FEF7E5FA41
:102AD0000020FEF7E2FA0020FEF7DFFA0020FEF702
:102AE000DCFA0020FEF7D9FA0020FEF7D6FA002023
:102AF000FEF7D3FA0020FEF7D0FA0020FEF7CDFA59
:102B00000020FEF7CAFA0020FEF7C7FA0020FEF701
:102B1000C4FA0020FEF7C1FA0020FEF7BEFA00203A
:102B2000FEF7BBFA0020FEF7B8FAB420FEF796FADB
:102B30008B20FEF7B2FA0020FEF7AFFA9620FEF7E0
:102B4000ACFA0020FEF7A9FAA120FEF7A6FA0020B1
:102B5000FEF7A3FAB520FEF781FA0220FEF79DFAF0
:102B60000020FEF79AFA0320FEF797FA0020FEF7FE
:102B700094FA0420FEF791FA0020FEF78EFAB620B0
:102B8000FEF76CFA0020FEF788FA0020FEF785FABF
:102B9000B720FEF763FA0020FEF77FFA0020FEF769
:102BA0007CFA3F20FEF779FA0020FEF776FA5E20E5
:102BB000FEF773FA0020FEF770FA6420FEF76DFA54
:102BC0000020FEF76AFA8C20FEF767FA0020FEF775
:102BD00064FAAC20FEF761FA0020FEF75EFADC2012
:102BE000FEF75BFA0020FEF758FA7020FEF755FA60
:102BF0000020FEF752FA9020FEF74FFA0020FEF771
:102C00004CFAEB20FEF749FA0020FEF746FADC20EA
:102C1000FEF743FA0020FEF740FAB820FEF71EFA4E
:102C20000020FEF73AFA0020FEF737FA0020FEF700
:102C300034FA0020FEF731FA0020FEF72EFA0020C9
:102C4000FEF72BFA0020FEF728FA0020FEF725FAFF
:102C5000BA20FEF703FA2420FEF71FFA0020FEF741
:102C60001CFA0020FEF719FA0020FEF716FAC12020
:102C7000FEF7F4F92020FEF710FA0020FEF70DFA17
:102C80005420FEF70AFA0020FEF707FAFF20FEF7AD
:102C900004FA0020FEF701FAC220FEF7DFF90A204D
:102CA000FEF7FBF90020FEF7F8F90420FEF7F5F92E
:102CB0000020FEF7F2F9C320FEF7D0F93C20FEF722
:102CC000ECF90020FEF7E9F93A20FEF7E6F90020DA
:102CD000FEF7E3F93920FEF7E0F90020FEF7DDF911
:102CE0003720FEF7DAF90020FEF7D7F93C20FEF78F
:102CF000D4F90020FEF7D1F93620FEF7CEF90020F6
:102D0000FEF7CBF93220FEF7C8F90020FEF7C5F92F
:102D10002F20FEF7C2F90020FEF7BFF92C20FEF7A6
:102D2000BCF90020FEF7B9F92920FEF7B6F900201A
:102D3000FEF7B3F92620FEF7B0F90020FEF7ADF953
:102D40002420FEF7AAF90020FEF7A7F92420FEF7B9
:102D5000A4F90020FEF7A1F92320FEF79EF9002038
:102D6000FEF79BF93C20FEF798F90020FEF795F955
:102D70003620FEF792F90020FEF78FF93220FEF799
:102D80008CF90020FEF789F92F20FEF786F9002044
:102D9000FEF783F92C20FEF780F90020FEF77DF97D
:102DA0002920FEF77AF90020FEF777F92620FEF7B2
:102DB00074F90020FEF771F92420FEF76EF9002067
:102DC000FEF76BF92420FEF768F90020FEF765F99D
:102DD0002320FEF762F90020FEF75FF9C420FEF71A
:102DE0003DF96220FEF759F90020FEF756F905205B
:102DF000FEF753F90020FEF750F98420FEF74DF955
:102E00000020FEF74AF9F020FEF747F90020FEF710
:102E100044F91820FEF741F90020FEF73EF9A420FE
:102E2000FEF73BF90020FEF738F91820FEF735F9D8
:102E30000020FEF732F95020FEF72FF90020FEF7B0
:102E40002CF90C20FEF729F90020FEF726F91720AF
:102E5000FEF723F90020FEF720F99520FEF71DF973
:102E60000020FEF71AF9F320FEF717F90020FEF70D
:102E700014F9E620FEF711F90020FEF70EF9C5203F
:102E8000FEF7ECF83220FEF708F90020FEF705F90E
:102E90004420FEF702F90020FEF7FFF86520FEF758
:102EA000FCF80020FEF7F9F87620FEF7F6F800208F
:102EB000FEF7F3F88820FEF7F0F80020FEF7EDF8B3
:102EC000C620FEF7CBF82020FEF7E7F80020FEF73B
:102ED000E4F81720FEF7E1F80020FEF7DEF8012005
:102EE000FEF7DBF80020FEF7D8F8C720FEF7B6F8AB
:102EF0000020FEF7D2F80020FEF7CFF80020FEF702
:102F0000CCF80020FEF7C9F8C820FEF7A7F800208B
:102F1000FEF7C3F80020FEF7C0F80020FEF7BDF86A
:102F20000020FEF7BAF8C920FEF798F80020FEF757
:102F3000B4F80020FEF7B1F80020FEF7AEF800204C
:102F4000FEF7ABF80020FEF7A8F80020FEF7A5F882
:102F50000020FEF7A2F80020FEF79FF80020FEF701
:102F60009CF80020FEF799F80020FEF796F8002064
:102F7000FEF793F80020FEF790F80020FEF78DF89A
:102F80000020FEF78AF80020FEF787F8E020FEF721
:102F900065F81620FEF781F80020FEF77EF81C2069
:102FA000FEF77BF80020FEF778F82120FEF775F891
:102FB0000020FEF772F83620FEF76FF80020FEF7CB
:102FC0006CF84620FEF769F80020FEF766F85220FC
:102FD000FEF763F80020FEF760F86420FEF75DF866
:102FE0000020FEF75AF87A20FEF757F80020FEF787
:102FF00054F88B20FEF751F80020FEF74EF8992088
:10300000FEF74BF80020FEF748F8A820FEF745F839
:103010000020FEF742F8B920FEF73FF80020FEF747
:103020003CF8C420FEF739F80020FEF736F8CA2035
:10303000FEF733F80020FEF730F8D220FEF72DF827
:103040000020FEF72AF8D920FEF727F80020FEF727
:1030500024F8E020FEF721F80020FEF71EF8F32008
:10306000FEF71BF80020FEF718F8E120FDF7F6FF49
:103070001620FEF712F80020FEF70FF81C20FEF7CE
:103080000CF80020FEF709F82220FEF706F80020D1
:10309000FEF703F83620FEF700F80020FDF7FDFFED
:1030A0004520FDF7FAFF0020FDF7F7FF5220FDF75E
:1030B000F4FF0020FDF7F1FF6420FDF7EEFF002094
:1030C000FDF7EBFF7A20FDF7E8FF0020FDF7E5FFB5
:1030D0008B20FDF7E2FF0020FDF7DFFF9920FDF7D1
:1030E000DCFF0020FDF7D9FFA820FDF7D6FF002068
:1030F000FDF7D3FFB920FDF7D0FF0020FDF7CDFF8E
:10310000C420FDF7CAFF0020FDF7C7FFCA20FDF766
:10311000C4FF0020FDF7C1FFD220FDF7BEFF002055
:10312000FDF7BBFFD820FDF7B8FF0020FDF7B5FF86
:10313000E020FDF7B2FF0020FDF7AFFFF320FDF721
:10314000ACFF0020FDF7A9FFE220FDF787FF052077
:10315000FDF7A3FF0020FDF7A0FF0B20FDF79DFF6B
:103160000020FDF79AFF1B20FDF797FF0020FDF7D9
:1031700094FF3420FDF791FF0020FDF78EFF4420DF
:10318000FDF78BFF0020FDF788FF4F20FDF785FF3F
:103190000020FDF782FF6120FDF77FFF0020FDF793
:1031A0007CFF7920FDF779FF0020FDF776FF88206E
:1031B000FDF773FF0020FDF770FF9720FDF76DFF0F
:1031C0000020FDF76AFFA620FDF767FF0020FDF74E
:1031D00064FFB720FDF761FF0020FDF75EFFC2200E
:1031E000FDF75BFF0020FDF758FFC720FDF755FFF7
:1031F0000020FDF752FFD120FDF74FFF0020FDF723
:103200004CFFD620FDF749FF0020FDF746FFDD20EB
:10321000FDF743FF0020FDF740FFF320FDF73DFFE2
:103220000020FDF73AFFE320FDF718FF0520FDF72A
:1032300034FF0020FDF731FF0A20FDF72EFF0020AC
:10324000FDF72BFF1C20FDF728FF002000E0FDE22A
:10325000FDF723FF3320FDF720FF0020FDF71DFFC2
:103260004420FDF71AFF0020FDF717FF5020FDF75F
:1032700014FF0020FDF711FF6220FDF70EFF002074
:10328000FDF70BFF7820FDF708FF0020FDF705FF95
:103290008820FDF702FF0020FDF7FFFE9720FDF7D5
:1032A000FCFE0020FDF7F9FEA620FDF7F6FE00204B
:1032B000FDF7F3FEB720FDF7F0FE0020FDF7EDFE71
:1032C000C220FDF7EAFE0020FDF7E7FEC720FDF76C
:1032D000E4FE0020FDF7E1FED120FDF7DEFE002038
:1032E000FDF7DBFED520FDF7D8FE0020FDF7D5FE6B
:1032F000DD20FDF7D2FE0020FDF7CFFEF320FDF725
:10330000CCFE0020FDF7C9FEE420FDF7A7FE01205A
:10331000FDF7C3FE0020FDF7C0FE0120FDF7BDFE56
:103320000020FDF7BAFE0220FDF7B7FE0020FDF7F2
:10333000B4FE2A20FDF7B1FE0020FDF7AEFE3C20D2
:10334000FDF7ABFE0020FDF7A8FE4B20FDF7A5FE24
:103350000020FDF7A2FE5D20FDF79FFE0020FDF797
:103360009CFE7420FDF799FE0020FDF796FE842058
:10337000FDF793FE0020FDF790FE9320FDF78DFEF4
:103380000020FDF78AFEA220FDF787FE0020FDF752
:1033900084FEB320FDF781FE0020FDF77EFEBE20F7
:1033A000FDF77BFE0020FDF778FEC420FDF775FEDB
:1033B0000020FDF772FECD20FDF76FFE0020FDF727
:1033C0006CFED320FDF769FE0020FDF766FEDD20D0
:1033D000FDF763FE0020FDF760FEF320FDF75DFEC4
:1033E0000020FDF75AFEE520FDF738FE0020FDF72E
:1033F00054FE0020FDF751FE0020FDF74EFE002098
:10340000FDF74BFE0220FDF748FE0020FDF745FECC
:103410002920FDF742FE0020FDF73FFE3C20FDF78E
:103420003CFE0020FDF739FE4B20FDF736FE002064
:10343000FDF733FE5D20FDF730FE0020FDF72DFE89
:103440007420FDF72AFE0020FDF727FE8420FDF7FB
:1034500024FE0020FDF721FE9320FDF71EFE002034
:10346000FDF71BFEA220FDF718FE0020FDF715FE5C
:10347000B320FDF712FE0020FDF70FFEBE20FDF782
:103480000CFE0020FDF709FEC420FDF706FE00201B
:10349000FDF703FECD20FDF700FE0020FDF7FDFD4A
:1034A000D320FDF7FAFD0020FDF7F7FDDC20FDF746
:1034B000F4FD0020FDF7F1FDF320FDF7EEFD002007
:1034C000FDF7EBFDE620FDF7C9FD1120FDF7E5FD59
:1034D0000020FDF7E2FD3420FDF7DFFD0020FDF7C1
:1034E000DCFD5620FDF7D9FD0020FDF7D6FD762046
:1034F000FDF7D3FD0020FDF7D0FD7720FDF7CDFDD2
:103500000020FDF7CAFD6620FDF7C7FD0020FDF78E
:10351000C4FD8820FDF7C1FD0020FDF7BEFD992008
:10352000FDF7BBFD0020FDF7B8FDBB20FDF7B5FDA5
:103530000020FDF7B2FD9920FDF7AFFD0020FDF75B
:10354000ACFD6620FDF7A9FD0020FDF7A6FD552086
:10355000FDF7A3FD0020FDF7A0FD5520FDF79DFD23
:103560000020FDF79AFD4520FDF797FD0020FDF7AF
:1035700094FD4320FDF791FD0020FDF78EFD4420D2
:10358000FDF78BFD0020FDF788FDE720FDF766FDC8
:103590003220FDF782FD0020FDF77FFD5520FDF76D
:1035A0007CFD0020FDF779FD7620FDF776FD0020FB
:1035B000FDF773FD6620FDF770FD0020FDF76DFD42
:1035C0006720FDF76AFD0020FDF767FD6720FDF726
:1035D00064FD0020FDF761FD8720FDF75EFD002002
:1035E000FDF75BFD9920FDF758FD0020FDF755FD27
:1035F000BB20FDF752FD0020FDF74FFD9920FDF7A0
:103600004CFD0020FDF749FD7720FDF746FD002029
:10361000FDF743FD4420FDF740FD0020FDF73DFD93
:103620005620FDF73AFD0020FDF737FD2320FDF77A
:1036300034FD0020FDF731FD3320FDF72EFD002085
:10364000FDF72BFD4520FDF728FD0020FDF725FDAA
:10365000E820FDF703FD0020FDF71FFD0020FDF72A
:103660001CFD9920FDF719FD0020FDF716FD8720B0
:10367000FDF713FD0020FDF710FD8820FDF70DFD7F
:103680000020FDF70AFD7720FDF707FD0020FDF77C
:1036900004FD6620FDF701FD0020FDF7FEFC8820FB
:1036A000FDF7FBFC0020FDF7F8FCAA20FDF7F5FC78
:1036B0000020FDF7F2FCBB20FDF7EFFC0020FDF73A
:1036C000ECFC9920FDF7E9FC0020FDF7E6FC662004
:1036D000FDF7E3FC0020FDF7E0FC5520FDF7DDFCE5
:1036E0000020FDF7DAFC5520FDF7D7FC0020FDF7A0
:1036F000D4FC4420FDF7D1FC0020FDF7CEFC442093
:10370000FDF7CBFC0020FDF7C8FC5520FDF7C5FCFC
:103710000020FDF7C2FCE920FDF7A0FCAA20FDF780
:10372000BCFC0020FDF7B9FC0020FDF7B6FC002032
:10373000FDF7B3FC0020FDF791FCAA20FDF7ADFCDE
:10374000CF20FDF78BFC0020FDF7A7FC0020FDF744
:10375000A4FC0020FDF7A1FC0020FDF79EFC00204A
:10376000FDF79BFC0020FDF798FC0020FDF795FC81
:103770000020FDF792FC0020FDF78FFC0020FDF7F4
:103780008CFC0020FDF789FC0020FDF786FC002062
:10379000FDF783FC0020FDF780FC0020FDF77DFC99
:1037A0000020FDF77AFC0020FDF777FCF020FDF704
:1037B00055FC0020FDF771FC5020FDF76EFC002049
:1037C000FDF76BFC0020FDF768FC0020FDF765FCB1
:1037D000F320FDF743FC0020FDF75FFCF920FDF727
:1037E0003DFC0620FDF759FC1020FDF756FC292072
:1037F000FDF753FC0020FDF750FC3A20FDF72EFCAE
:103800005520FDF74AFC1120FDF728FC642004F048
:103810006BF92920FDF722FC3520FDF71FFC002065
:10382000FDF73BFC5120FDF719FCFF20FDF735FCAF
:103830005320FDF713FC2C20FDF72FFC5520FDF73E
:103840000DFC8220FDF729FC2C20FCE3B8427DD141
:103850004FF4704455212046FDF778FC661CAA21E0
:103860003046FDF773FCA71C52213846FDF76EFC6D
:103870004FF2030808214046FDF768FC4FF20409A7
:1038800001214846FDF762FC0D214FF43040FDF761
:103890005DFC0D214BF20100FDF758FC0D214BF2B0
:1038A0000200FDF753FC4FF4364A34215046FDF731
:1038B0004DFC34214BF20160FDF748FC34214BF202
:1038C0000260FDF743FC4FF4314B0D215846FDF7E4
:1038D0003DFC0D214BF20110FDF738FC0D214BF2A0
:1038E0000210FDF733FC34214FF43740FDF72EFC76
:1038F00034214BF20170FDF729FC34214BF20270A8
:10390000FDF724FC00214FF43240FDF71FFC00219D
:103910004BF20120FDF71AFC00214BF20220FDF7CB
:1039200015FC24214FF43840FDF710FC24214BF600
:103930000100FDF70BFC24214BF60200FDF706FC0D
:1039400001214FF43F40FDF701FC00E0FEE30F21B1
:103950004FF43340FDF7FAFB0F214BF20130FDF736
:10396000F5FB0F214BF20230FDF7F0FB34214FF451
:103970003940FDF7EBFB34214BF60110FDF7E6FB78
:1039800034214BF60210FDF7E1FB08214FF43540DE
:10399000FDF7DCFB08214BF20150FDF7D7FB0821B6
:1039A0004BF20250FDF7D2FB03214FF44240FDF7EA
:1039B000CDFB24214FF43A40FDF7C8FB24214BF600
:1039C0000120FDF7C3FB24214BF60220FDF7BEFBCF
:1039D00000214FF43C40FDF7B9FB78214BF6014044
:1039E000FDF7B4FB00214BF60240FDF7AFFB0021D1
:1039F0004FF43D40FDF7AAFB78214BF60150FDF74F
:103A0000A5FB00214BF60250FDF7A0FB00214FF46F
:103A10003E40FDF79BFB64214BF60160FDF796FBF2
:103A200000214FF45140FDF791FB33214DF201107D
:103A3000FDF78CFB00214DF20210FDF787FB3421CE
:103A40004DF20310FDF782FB00214DF20410FDF74B
:103A50007DFB3A214DF20510FDF778FB00214DF278
:103A60000610FDF773FB4A214DF20710FDF76EFBC0
:103A700000214DF20810FDF769FB5C214DF20910A1
:103A8000FDF764FB00214DF20A10FDF75FFB812179
:103A90004DF20B10FDF75AFB00214DF20C10FDF713
:103AA00055FBA6214DF20D10FDF750FB00214DF204
:103AB0000E10FDF74BFBE5214DF20F10FDF746FB15
:103AC00001214DF21010FDF741FB13214DF21110B1
:103AD000FDF73CFB01214DF21210FDF737FB54219D
:103AE0004DF21310FDF732FB01214DF21410FDF7DA
:103AF0002DFB82214DF21510FDF728FB01214DF21F
:103B00001610FDF723FBCA214DF21710FDF71EFB1F
:103B100002214DF21810FDF719FB00214DF219108A
:103B2000FDF714FB02214DF21A10FDF70FFB0121E6
:103B30004DF21B10FDF70AFB02214DF21C10FDF7A0
:103B400005FB34214DF21D10FDF700FB02214DF263
:103B50001E10FDF7FBFA67214DF21F10FDF7F6FA74
:103B600002214DF22010FDF7F1FA84214DF22110CF
:103B7000FDF7ECFA02214DF22210FDF7E7FAA4213D
:103B80004DF22310FDF7E2FA02214DF22410FDF769
:103B9000DDFAB7214DF22510FDF7D8FA02214DF2DA
:103BA0002610FDF7D3FACF214DF22710FDF7CEFAFC
:103BB00002214DF22810FDF7C9FADE214DF229103D
:103BC000FDF7C4FA02214DF22A10FDF7BFFAF221E7
:103BD0004DF22B10FDF7BAFA02214DF22C10FDF731
:103BE000B5FAFE214DF22D10FDF7B0FA03214DF28A
:103BF0002E10FDF7ABFA10214DF22F10FDF7A6FAAB
:103C000003214DF23010FDF7A1FA33214DF23110AE
:103C1000FDF79CFA03214DF23210FDF797FA6D2162
:103C20004DF23310FDF792FA00214FF45240FDF7A8
:103C30008DFA33214DF20120FDF788FA00214DF273
:103C40000220FDF783FA34214DF20320FDF77EFABE
:103C500000214DF20420FDF779FA3A214DF20520BA
:103C6000FDF774FA00214DF20620FDF76FFA4A21A4
:103C70004DF20720FDF76AFA00214DF20820FDF70A
:103C800065FA5C214DF20920FDF760FA00214DF242
:103C90000A20FDF75BFA81214DF20B20FDF756FA61
:103CA00000214DF20C20FDF751FAA6214DF20D2016
:103CB000FDF74CFA00214DF20E20FDF747FAE52101
:103CC0004DF20F20FDF742FA01214DF21020FDF7D1
:103CD0003DFA13214DF21120FDF738FA01214DF282
:103CE0001220FDF733FA54214DF21320FDF72EFA7E
:103CF00001214DF21420FDF729FA82214DF2152001
:103D0000FDF724FA01214DF21620FDF71FFACA2112
:103D10004DF21720FDF71AFA02214DF21820FDF797
:103D200015FA00214DF21920FDF710FA02214DF28B
:103D30001A20FDF70BFA01214DF21B20FDF706FAC0
:103D400002214DF21C20FDF701FA34214DF21D2015
:103D5000FDF7FCF902214DF21E20FDF7F7F967216E
:103D60004DF21F20FDF7F2F902214DF22020FDF760
:103D7000EDF984214DF22120FDF7E8F902214DF201
:103D80002220FDF7E3F9A4214DF22320FDF7DEF90F
:103D900002214DF22420FDF7D9F9B7214DF225205B
:103DA000FDF7D4F902214DF22620FDF7CFF9CF21FE
:103DB0004DF22720FDF7CAF902214DF22820FDF728
:103DC000C5F9DE214DF22920FDF7C0F902214DF29F
:103DD0002A20FDF7BBF9F2214DF22B20FDF7B6F9B1
:103DE00002214DF22C20FDF7B1F9FE214DF22D20DC
:103DF000FDF7ACF903214DF22E20FDF7A7F91021B4
:103E00004DF22F20FDF7A2F903214DF23020FDF7EE
:103E10009DF933214DF23120FDF798F903214DF240
:103E20003220FDF793F96D214DF23320FDF78EF925
:103E300000214FF45340FDF789F933214DF2013051
:103E4000FDF784F900214DF20230FDF77FF93421AE
:103E50004DF20330FDF77AF900214DF20430FDF701
:103E600075F93A214DF20530FDF770F900214DF258
:103E70000630FDF76BF94A214DF20730FDF766F980
:103E800000214DF20830FDF761F95C214DF2093057
:103E9000FDF75CF900214DF20A30FDF757F9812159
:103EA0004DF20B30FDF752F900214DF20C30FDF7C9
:103EB0004DF9A6214DF20D30FDF748F900214DF2E4
:103EC0000E30FDF743F9E5214DF20F30FDF73EF9D5
:103ED00001214DF21030FDF739F913214DF2113067
:103EE000FDF734F901214DF21230FDF72FF954217D
:103EF0004DF21330FDF72AF901214DF21430FDF790
:103F000025F982214DF21530FDF720F901214DF2FE
:103F10001630FDF71BF9CA214DF21730FDF716F9DF
:103F200002214DF21830FDF711F900214DF2193040
:103F3000FDF70CF902214DF21A30FDF707F90121C6
:103F40004DF21B30FDF702F902214DF21C30FDF756
:103F5000FDF834214DF21D30FDF7F8F802214DF245
:103F60001E30FDF7F3F867214DF21F30FDF7EEF834
:103F700002214DF22030FDF7E9F884214DF2213085
:103F8000FDF7E4F802214DF22230FDF7DFF8A4211D
:103F90004DF22330FDF7DAF802214DF22430FDF71F
:103FA000D5F8B7214DF22530FDF7D0F802214DF2BA
:103FB0002630FDF7CBF8CF214DF22730FDF7C6F8BC
:103FC00002214DF22830FDF7C1F8DE214DF22930F3
:103FD000FDF7BCF802214DF22A30FDF7B7F8F221C7
:103FE0004DF22B30FDF7B2F802214DF22C30FDF7E7
:103FF000ADF8FE214DF22D30FDF7A8F803214DF26A
:104000002E30FDF7A3F810214DF22F30FDF79EF86A
:1040100003214DF23030FDF799F833214DF2313064
:10402000FDF794F803214DF23230FDF78FF86D2142
:104030004DF23330FDF78AF800214FF45440FDF77C
:1040400085F8332100E081E34DF20140FDF77EF871
:1040500000214DF20240FDF779F834214DF2034082
:10406000FDF774F800214DF20440FDF76FF83A2196
:104070004DF20540FDF76AF800214DF20640FDF7CC
:1040800065F84A214DF20740FDF760F800214DF236
:104090000840FDF75BF85C214DF20940FDF756F84A
:1040A00000214DF20A40FDF751F881214DF20B40FD
:1040B000FDF74CF800214DF20C40FDF747F8A62122
:1040C0004DF20D40FDF742F800214DF20E40FDF794
:1040D0003DF8E5214DF20F40FDF738F801214DF292
:1040E0001040FDF733F813214DF21140FDF72EF883
:1040F00001214DF21240FDF729F854214DF21340F1
:10410000FDF724F801214DF21440FDF71FF882213C
:104110004DF21540FDF71AF801214DF21640FDF75A
:1041200015F8CA214DF21740FDF710F802214DF2A3
:104130001840FDF70BF800214DF21940FDF706F885
:1041400002214DF21A40FDF701F800E001E30121E0
:104150004DF21B40FCF7FAFF02214DF21C40FCF728
:10416000F5FF34214DF21D40FCF7F0FF02214DF226
:104170001E40FCF7EBFF67214DF21F40FCF7E6FF06
:1041800002214DF22040FCF7E1FF84214DF2214055
:10419000FCF7DCFF02214DF22240FCF7D7FFA421FF
:1041A0004DF22340FCF7D2FF02214DF22440FCF7F0
:1041B000CDFFB7214DF22540FCF7C8FF02214DF29B
:1041C0002640FCF7C3FFCF214DF22740FCF7BEFF8E
:1041D00002214DF22840FCF7B9FFDE214DF22940C3
:1041E000FCF7B4FF02214DF22A40FCF7AFFFF221A9
:1041F0004DF22B40FCF7AAFF02214DF22C40FCF7B8
:10420000A5FFFE214DF22D40FCF7A0FF03214DF24A
:104210002E40FCF79BFF10214DF22F40FCF796FF3C
:1042200003214DF23040FCF791FF33214DF2314034
:10423000FCF78CFF03214DF23240FCF787FF6D2124
:104240004DF23340FCF782FF00214FF45540FCF75C
:104250007DFF33214DF20150FCF778FF00214DF234
:104260000250FCF773FF34214DF20350FCF76EFF50
:1042700000214DF20450FCF769FF3A214DF2055040
:10428000FCF764FF00214DF20650FCF75FFF4A2166
:104290004DF20750FCF75AFF00214DF20850FCF791
:1042A00055FF5C214DF20950FCF750FF00214DF203
:1042B0000A50FCF74BFF81214DF20B50FCF746FFF3
:1042C00000214DF20C50FCF741FFA6214DF20D509C
:1042D000FCF73CFF00214DF20E50FCF737FFE521C3
:1042E0004DF20F50FCF732FF01214DF21050FCF758
:1042F0002DFF13214DF21150FCF728FF01214DF243
:104300001250FCF723FF54214DF21350FCF71EFF0F
:1043100001214DF21450FCF719FF82214DF2155086
:10432000FCF714FF01214DF21650FCF70FFFCA21D4
:104330004DF21750FCF70AFF02214DF21850FCF71E
:1043400005FF00214DF21950FCF700FF02214DF24C
:104350001A50FCF7FBFE01214DF21B50FCF7F6FE54
:1043600002214DF21C50FCF7F1FE34214DF21D509C
:10437000FCF7ECFE02214DF21E50FCF7E7FE672130
:104380004DF21F50FCF7E2FE02214DF22050FCF7E7
:10439000DDFE84214DF22150FCF7D8FE02214DF2C2
:1043A0002250FCF7D3FEA4214DF22350FCF7CEFEA1
:1043B00002214DF22450FCF7C9FEB7214DF22550E1
:1043C000FCF7C4FE02214DF22650FCF7BFFECF21C0
:1043D0004DF22750FCF7BAFE02214DF22850FCF7AF
:1043E000B5FEDE214DF22950FCF7B0FE02214DF260
:1043F0002A50FCF7ABFEF2214DF22B50FCF7A6FE43
:1044000002214DF22C50FCF7A1FEFE214DF22D5061
:10441000FCF79CFE03214DF22E50FCF797FE102175
:104420004DF22F50FCF792FE03214DF23050FCF775
:104430008DFE33214DF23150FCF788FE03214DF201
:104440003250FCF783FE6D214DF23350FCF77EFEB7
:1044500000214FF45640FCF779FE33214DF2016004
:10446000FCF774FE00214DF20260FCF76FFE342170
:104470004DF20360FCF76AFE00214DF20460FCF788
:1044800065FE3A214DF20560FCF760FE00214DF219
:104490000660FCF75BFE4A214DF20760FCF756FE12
:1044A00000214DF20860FCF751FE5C214DF20960DD
:1044B000FCF74CFE00214DF20A60FCF747FE81211B
:1044C0004DF20B60FCF742FE00214DF20C60FCF750
:1044D0003DFEA6214DF20D60FCF738FE00214DF2A5
:1044E0000E60FCF733FEE5214DF20F60FCF72EFE67
:1044F00001214DF21060FCF729FE13214DF21160ED
:10450000FCF724FE01214DF21260FCF71FFE54213E
:104510004DF21360FCF71AFE01214DF21460FCF716
:1045200015FE82214DF21560FCF710FE01214DF2BF
:104530001660FCF70BFECA214DF21760FCF706FE71
:1045400002214DF21860FCF701FE00214DF21960C6
:10455000FCF7FCFD02214DF21A60FCF7F7FD01218A
:104560004DF21B60FCF7F2FD02214DF21C60FCF7DE
:10457000EDFD34214DF21D60FCF7E8FD02214DF206
:104580001E60FCF7E3FD67214DF21F60FCF7DEFDC6
:1045900002214DF22060FCF7D9FD84214DF221600B
:1045A000FCF7D4FD02214DF22260FCF7CFFDA421DF
:1045B0004DF22360FCF7CAFD02214DF22460FCF7A6
:1045C000C5FDB7214DF22560FCF7C0FD02214DF27B
:1045D0002660FCF7BBFDCF214DF22760FCF7B6FD4E
:1045E00002214DF22860FCF7B1FDDE214DF2296079
:1045F000FCF7ACFD02214DF22A60FCF7A7FDF22189
:104600004DF22B60FCF7A2FD02214DF22C60FCF76D
:104610009DFDFE214DF22D60FCF798FD03214DF22A
:104620002E60FCF793FD10214DF22F60FCF78EFDFC
:1046300003214DF23060FCF789FD33214DF23160EA
:10464000FCF784FD03214DF23260FCF77FFD6D2104
:104650004DF23360FCF77AFD55212046FCF776FDDC
:10466000AA213046FCF772FD52213846FCF76EFD58
:1046700008214046FCF76AFD00214846FCF766FD2C
:10468000CC215846FCF762FD00214BF20110FCF7EB
:104690005DFD05215046FCF759FD70214FF4374070
:1046A000FCF754FD70214BF20170FCF74FFD012126
:1046B0004FF43840FCF74AFD03214BF60100FCF7AC
:1046C00045FD03214BF60200FCF740FD03214BF6AC
:1046D0000300FCF73BFD02214FF43C40FCF736FDA4
:1046E00000214BF60140FCF731FD00214BF6024062
:1046F000FCF72CFDD0214FF44940FCF727FD0221A7
:104700004CF60110FCF722FD50214CF60210FCF78C
:104710001DFD50214CF60310FCF718FD50214CF6FE
:104720000410FCF713FD00214FF45450FCF70EFD6C
:1047300055214FF46850FCF709FD4FF48850FCF701
:104740008DFC782003F0B9F94FF42450FCF786FC77
:10475000FEE3A0F513414FF480744FF4E06840F29B
:10476000022940F23F164FF4274B253924D04FF44D
:10477000017A40F20777C91E7ED04FF41C5B0831E6
:104780007BD011397AD0A0F5A841083977D0A0F5AF
:10479000A851053974D0B1F5204172D0B1F58051DE
:1047A00070D0A0F5094189396DD0A0F58A41313921
:1047B0006AD0091F69D0CBE747F6F001E520FCF786
:1047C000C5FC21460120FCF7C1FC41460220FCF754
:1047D000BDFC41F230010320FCF7B8FC00210420AD
:1047E000FCF7B4FC49460820FCF7B0FC0021092086
:1047F000FCF7ACFC00210A20FCF7A8FC00210C20EF
:10480000FCF7A4FC00210D20FCF7A0FC00210F20E8
:10481000FCF79CFC00211020FCF798FC07211120DC
:10482000FCF794FC00211220FCF790FC00211320DF
:10483000FCF78CFC00210720FCF788FC41F290611A
:104840001020FCF783FC40F227211120FCF77EFCAE
:104850009D211220FCF77AFC4FF4C8511320FCF77D
:1048600075FC25212920FCF771FC0D212B20FCF77C
:104870006DFC0721302009E074E01DE1C1E193E205
:104880002EE3FDE3FDE3FDE3FDE3FDE3FCF75EFC6A
:1048900040F203313120FCF759FC03213220FCF7B0
:1048A00055FC40F206213520FCF750FC082136204B
:1048B000FCF74CFC40F206413720FCF747FC4FF474
:1048C00041713820FCF742FC07213920FCF73EFCFF
:1048D00040F202613C20FCF739FC08213D20FCF746
:1048E00035FC00215020FCF731FCEF215120FCF772
:1048F0002DFC00215220FCF729FC31465320FCF707
:1049000025FC59466020FCF721FC01216120FCF7C1
:104910001DFC00216A20FCF719FC00218020FCF717
:1049200015FC00218120FCF711FC00218220FCF7FE
:104930000DFC00218320FCF709FC00218420FCF7FA
:1049400005FC00218520FCF701FC10219020FCF7DC
:10495000FDFB4FF4C0619220FCF7F8FB40F23311ED
:104960000720FCE341F28F01EC20FCF7EFFB41F262
:104970003421EF20FCF7EAFB21460120FCF7E6FB9F
:1049800041460220FCF7E2FB41F230010320FCF734
:10499000DDFB00210420FCF7D9FB49460820FCF789
:1049A000D5FB00210920FCF7D1FB00210A20FCF7F0
:1049B000CDFB01210C20FCF7C9FB00210D20FCF7E9
:1049C000C5FB00210F20FCF7C1FB00211020FCF7E4
:1049D000BDFB07211120FCF7B9FB00211220FCF7D9
:1049E000B5FB00211320FCF7B1FB01210720FCF7E8
:1049F000ADFB322003F078F841F290411020FCF733
:104A0000A5FB40F227211120FCF7A0FB322003F088
:104A10006BF88A211220FCF799FB322003F064F82E
:104A20004FF4D0511320FCF791FB06212920FCF70D
:104A30008DFB0D212B20FCF789FB322003F054F86D
:104A400000212020FCF782FB00212120FCF77EFBC7
:104A5000322003F049F800213020FCF777FB40F2C8
:104A600004613120FCF772FB40F205313220FCF783
:104A70006DFB00213520FCF769FB40F6094136202B
:104A8000FCF764FB51463720FCF760FB40F2013134
:104A90003820FCF75BFB39463920FCF757FB002137
:104AA0003C20FCF753FB40F60A213D20FCF74EFB6F
:104AB000322003F019F83BE100210846FCF746FBE1
:104AC00021460120FCF742FB41460220FCF73EFB59
:104AD00041F230010320FCF739FB00210420FCF7F0
:104AE00035FB49460820FCF731FB00210920FCF783
:104AF0002DFB00210A20FCF729FB01210C20FCF7EB
:104B000025FB00210D20FCF721FB00210F20FCF7E5
:104B10001DFB322002F0E8FF40F201110720FCF7F4
:104B200015FB322002F0E0FF4FF486511020FCF715
:104B30000DFB07211120FCF709FB4FF48874214677
:104B40001220FCF703FB4FF430611320FCF7FEFA50
:104B500000212920FCF7FAFA44F210012B20FCF77F
:104B6000F5FA00215020FCF7F1FAEF215120FCF773
:104B7000EDFA00215220FCF7E9FA31465320FCF708
:104B8000E5FA59466020FCF7E1FA01216120FCF7C3
:104B9000DDFA00216A20FCF7D9FA00218020FCF719
:104BA000D5FA00218120FCF7D1FA00218220FCF700
:104BB000CDFA00218320FCF7C9FA00218420FCF7FC
:104BC000C5FA00218520FCF7C1FA10219020FCF7DE
:104BD000BDFA00219220FCF7B9FA01219320FCF7DD
:104BE000B5FA21469520FCF7B1FA00219720FCF791
:104BF000ADFA00219820FCF7A9FA40F273110720C2
:104C00007DE341F21401E720FCF7A0FA21460120E0
:104C1000FCF79CFA4FF400710220FCF797FA41F27E
:104C200038010320FCF792FA49460820FCF78EFA77
:104C300000210920FCF78AFA00210A20FCF786FAF5
:104C400000210C20FCF782FA00210D20FCF77EFAEF
:104C500000210F20FCF77AFA00211020FCF776FAE9
:104C600007211120FCF772FA00211220FCF76EFADE
:104C700000211320FCF76AFAC82002F035FF41F248
:104C800090611020FCF762FA40F227211120FCF716
:104C90005DFA322002F028FF0C211220FCF756FAB0
:104CA000322002F021FF4FF400611320FCF74EFA8E
:104CB00011212920FCF74AFA0B212B20FCF746FA98
:104CC000322002F011FF00212020FCF73FFA31468C
:104CD0002120FCF73BFA00213020FCF737FA4FF493
:104CE000837421463120FCF731FA00213220FCF791
:104CF0002DFA51463520FCF729FA41F20A61362097
:104D0000FCF724FA39463720FCF720FA21463820F0
:104D1000FCF71CFA39463920FCF718FA40F2024138
:104D20003C20FCF713FA40F60F413D20FCF70EFA49
:104D300000215020FCF70AFAEF215120FCF706FA77
:104D400000215220FCF702FA31465320FCF7FEF90D
:104D500059466020FCF7FAF901216120FCF7F6F9C9
:104D600000216A20FCF7F2F900218020FCF7EEF91F
:104D700000218120FCF7EAF900218220FCF7E6F906
:104D800000218320FCF7E2F900218420FCF7DEF902
:104D900000218520FCF7DAF910219020FCF7D6F9E4
:104DA0004FF4C0619220FDE321460120FCF7CEF9CB
:104DB00041460220FCF7CAF941F230010320FCF71A
:104DC000C5F900210420FCF7C1F940F207210820B1
:104DD000FCF7BCF900210920FCF7B8F900210A20F2
:104DE000FCF7B4F900210C20FCF7B0F900210D20EC
:104DF000FCF7ACF900210F20FCF7A8F9142002F011
:104E000073FE41F2B0611020FCF7A0F901211120DE
:104E1000FCF79CF901211720FCF798F94FF49C71DD
:104E20001220FCF793F94FF400611320FCF78EF980
:104E300009212920FCF78AF909212A20FCF786F9A3
:104E40000021A420FCF782F900215020FCF77EF914
:104E5000EF215120FCF77AF900215220FCF776F976
:104E600031465320FCF772F959466020FCF76EF981
:104E700001216120FCF76AF900216A20FCF766F93C
:104E800000218020FCF762F900218120FCF75EF907
:104E900000218220FCF75AF900218320FCF756F903
:104EA00000218420FCF752F900218520FCF74EF9FF
:104EB00013219020FCF74AF900219220FCF746F9D3
:104EC00003219320FCF742F94FF488719520FCF7F9
:104ED0003DF940F273110720FCF738F9322010E158
:104EE00000210720FCF732F9322002F0FDFD4FF4DB
:104EF0008E711220FCF72AF90121A420FCF726F973
:104F00000F210820FCF722F908210A20FCF71EF9DE
:104F100008210D20FCF71AF9BA4639463020FCF773
:104F200015F907213120FCF711F940F20361322015
:104F3000FCF70CF9474641463320FCF707F9494690
:104F40003420FCF703F902213520FCF7FFF800E0DC
:104F5000FDE341F60F713620FCF7F8F85146372093
:104F6000FCF7F4F800213820FCF7F0F80021392094
:104F7000FCF7ECF851463A20FCF7E8F800213B201A
:104F8000FCF7E4F807213C20FCF7E0F800213D2085
:104F9000FCF7DCF8322002F0A7FD01210720FCF726
:104FA000D5F801211720FCF7D1F8322002F09CFD42
:104FB0004FF4BD511020FCF7C9F840F21721112021
:104FC000FCF7C4F84FF48F711220FCF7BFF84FF4D0
:104FD00070611320FCF7BAF800212A20FCF7B6F81C
:104FE0000A212920FCF7B2F84FF49F711220FCF738
:104FF000ADF800215020FCF7A9F8EF215120FCF773
:10500000A5F800215220FCF7A1F831465320FCF707
:105010009DF859466020FCF799F801216120FCF7C2
:1050200095F800216A20FCF791F800218020FCF718
:105030008DF800218120FCF789F800218220FCF7FF
:1050400085F800218320FCF781F800218420FCF7FB
:105050007DF800218520FCF779F813219020FCF7DA
:1050600075F84FF440719220FCF770F805219320F9
:10507000FCF76CF800219520FCF768F8002104E0AB
:1050800042E03DE105E2B8E279E39720FCF75EF803
:1050900000219820FCF75AF821460120FCF756F829
:1050A00039460220FCF752F841F238010320FCF7A0
:1050B0004DF800210420FCF749F800210C20FCF7F2
:1050C00045F800210F20FCF741F800212020FCF7D3
:1050D0003DF800212120FCF739F821210720FCF7B9
:1050E00035F8142002F000FD61210720FCF72EF8AE
:1050F000142002F0F9FC40F273110720FCF726F8A7
:10510000142002F0F1FC2EE300210846FCF71EF803
:1051100000210846FCF71AF800210846FCF716F8AB
:1051200000210846FCF712F80121A420FCF70EF834
:10513000142002F0D9FC59466020FCF707F84F46CE
:1051400049460820FCF702F84FF405713020FBF7C0
:10515000FDFF43F215713120FBF7F8FF00E0CAE0D4
:1051600040F204613220FBF7F1FF40F61661332074
:10517000FBF7ECFF42F211213420FBF7E7FF4FF47D
:10518000A8513520FBF7E2FF48F207513620FBF724
:10519000DDFF41F207413720FBF7D8FF41F2034121
:1051A0003820FBF7D3FF20213920FBF7CFFF1A214E
:1051B0009020FBF7CBFF00211020FBF7C7FF072152
:1051C0001120FBF7C3FF00211220FBF7BFFF0021D6
:1051D0001320FBF7BBFF142002F086FC4FF4E661BE
:1051E0001020FBF7B3FF40F237111120FBF7AEFFA1
:1051F000142002F079FC4FF4DC711220FBF7A6FFBB
:10520000142002F071FC4FF470611320FBF79EFF35
:1052100080212A20FBF79AFF48212920FBF796FFDF
:10522000142002F061FC21460120FBF78FFF41466C
:105230000220FBF78BFF41F238010320FBF786FFCA
:1052400039460820FBF782FF00210A20FBF77EFF8A
:1052500000210C20FBF77AFF00210D20FBF776FFE1
:1052600030210E20FBF772FF00215020FBF76EFF6C
:10527000EF215120FBF76AFF00215220FBF766FF68
:1052800031465320FBF762FF59466020FBF75EFF73
:1052900001216120FBF75AFF00216A20FBF756FF2E
:1052A00011219020FBF752FF4FF4C0619220FBF7D1
:1052B0004DFF40F202419320FBF748FF022194206A
:1052C000FBF744FF142002F00FFC01210720FBF73D
:1052D0003DFF142002F008FC61210720FBF736FF98
:1052E00040F273110720FBF731FF00212020FBF76C
:1052F0002DFF00212120FBF729FF2221002030E291
:1053000000210846FBF722FF00210846FBF71EFF9D
:10531000142002F0E9FB00210846FBF717FF0021EB
:105320000846FBF713FF00210846FBF70FFF00219B
:105330000846FBF70BFF0121A420FBF707FF142011
:1053400002F0D2FB59466020FBF700FF40F6060151
:105350000820FBF7FBFE40F2037841463020FBF7C4
:10536000F5FE01213120FBF7F1FE04213220FBF78D
:10537000EDFE4FF481713320FBF7E8FE4FF44077E8
:1053800039463420FBF7E2FE40F203113520FBF7EB
:10539000DDFE1F213620FBF7D9FE41463720FBF703
:1053A000D5FE01213820FBF7D1FE04213920FBF77F
:1053B000CDFE15219020FBF7C9FE4FF4826110202D
:1053C000FBF7C4FE40F247211120FBF7BFFE4FF46C
:1053D000DE711220FBF7BAFE4FF460611320FBF779
:1053E000B5FE782002F080FB21460120FBF7AEFEDF
:1053F0004FF400710220FBF7A9FE41F230010320B7
:10540000FBF7A4FE08210A20FBF7A0FE00210C20D8
:10541000FBF79CFE20210E20FBF798FE00210F20B9
:10542000FBF794FE00212020FBF790FE00212120B5
:10543000FBF78CFE3D212A20FBF788FE142002F0AA
:1054400053FB2D212920FBF781FE00215020FBF783
:105450007DFE4DF2EF015120FBF778FE0021522036
:10546000FBF774FE31465320FBF770FE00216120EC
:10547000FBF76CFE00216A20FBF768FE394692209C
:10548000FBF764FE05219320FBF760FE2146FFF742
:10549000B6BB01210020FBF759FE4AF6A401032008
:1054A000FBF754FE00210C20FBF750FE40F60C01E8
:1054B0000D20FBF74BFE4FF42C510E20FBF746FE60
:1054C000B0211E20FBF742FE42F63F310120FBF7E0
:1054D0003DFE4FF4C0610220FBF738FE0021102092
:1054E000FBF734FE46F278011120FBF72FFE002176
:1054F0000520FBF72BFE00210620FBF727FE4EF6CA
:105500001C711620FBF722FE03211720FBF71EFE5D
:1055100040F233210720FBF719FE00210B20FBF797
:1055200015FE00210F20FBF711FE00214120FBF7A3
:105530000DFE00214220FBF709FE00214820FBF769
:1055400005FE31464920FBF701FE00214A20FBF70A
:10555000FDFD00214B20FBF7F9FD4FF46F41442086
:10556000FBF7F4FD00214520FBF7F0FD3146462016
:10557000FBF7ECFD39463020FBF7E8FD5446514679
:105580003120FBF7E3FD21463220FBF7DFFD40F23F
:10559000025631463320FBF7D9FD711D3420FBF74D
:1055A000D5FD00E08EE121463520FBF7CFFD2146F9
:1055B0003620FBF7CBFD31463720FBF7C7FD40F225
:1055C000023421463A20FBF7C1FD21463B20FBF780
:1055D000BDFD00212320FBF7B9FD00212420FBF7AE
:1055E000B5FD4FF400412520FBF7B0FD00214F2011
:1055F000FBF7ACFD00214E20B3E001210020FBF7BA
:10560000A5FD0A2002F070FA41F228611020FBF794
:105610009DFD0E211220FBF799FD40F63921132044
:10562000FBF794FD0A2002F05FFA40211120FBF7FE
:105630008DFD50211520FBF789FD0A2002F054FA58
:105640001E211220FBF782FD0A2002F04DFA4FF4D2
:10565000B1511020FBF77AFD42F639211320FBF7F8
:1056600075FD0A2002F040FA21460120FBF76EFD8D
:105670004FF440710220FBF769FD41F2380103202D
:10568000FBF764FD49460820FBF760FD08210A206E
:10569000FBF75CFD00213020FBF758FD40F2024192
:1056A0003120FBF753FD4FF483713220FBF74EFDA1
:1056B00040F203513320FBF749FD4FF4827134204F
:1056C000FBF744FD40F201313520FBF73FFD394641
:1056D0003620FBF73BFD40F205313720FBF736FD66
:1056E0004FF402713820FBF731FD40F60B71392081
:1056F000FBF72CFD02214120FBF728FD59466020D5
:10570000FBF724FD01216120FBF720FD4FF404711C
:105710009020FBF71BFD4FF485719220FBF716FDDF
:1057200004219320FBF712FD2146A020FBF70EFD7C
:1057300001210720FBF70AFD21210720FBF706FDC9
:1057400023210720FBF702FD3321072000E00AE0B8
:10575000FBF7FCFC40F233110720FBF7F7FC0021BC
:10576000A020FBF7F3FC0120FCF74DFBFE490120D4
:10577000C1F8A8012846FCF72DFEBDE8F88F3021BE
:105780001520FBF7E3FC10219A20FBF7DFFC20211A
:105790001120FBF7DBFC43F228411020FBF7D6FC7D
:1057A00002211220FBF7D2FC41F238011320FBF753
:1057B000CDFC282002F098F912210846FBF7C6FC20
:1057C000282002F091F943F220411020FBF7BEFCA3
:1057D00043F238011320FBF7B9FC462002F084F9AC
:1057E00000213020FBF7B2FC40F202413120FBF7F0
:1057F000ADFC40F207313220FBF7A8FC4FF44171B9
:105800003320FBF7A3FC04213420FBF79FFC40F27C
:1058100001413520FBF79AFC39463620FBF796FC10
:1058200040F205313720FBF791FC4FF4C266314658
:105830003820FBF78BFC31463920FBF787FC2146EB
:105840000120FBF783FC4FF440710220FBF77EFC44
:1058500041F230010320FBF779FC40F608010820F3
:10586000FBF774FC08210A20FBF770FC5946602006
:10587000FBF76CFC01216120FBF768FC4FF49F7182
:105880009020FBF763FC21469220FBF75FFC21464A
:105890009320FBF75BFC4FF44051A020FBF756FC34
:1058A0001021A320FBF752FC01210720FBF74EFC3F
:1058B00021210720FBF74AFC23210720FBF746FCA8
:1058C00033210720FBF742FC40F23311DFE52DE9DD
:1058D000F84FA64C99468246A388A3F5D0400438D9
:1058E00002D1A07901280AD0A2EB0A00401CA04EE8
:1058F0001FFA80F80D464FF4807B77153EE0238831
:105900000846991A0025A5712A2565812B26A3EB47
:105910000A03A681491E5B1E0A9F89B24A469BB2B2
:105920000097FFF7D4FF0120A0716681A58124E7CD
:1059300029465046FBF75CFCFBF72FFC002419E0DE
:105940005946304602F04DFB3946304602F04BFBDB
:1059500088480A9902F04EFB8021304602F043FB52
:105960008021304602F03DFB3946304602F039FBDB
:10597000641CA4B24445E3D36D1CADB24D45D7D9E8
:10598000FBE62DE9FF5F89460098DDF838B0101A74
:10599000401C86B2A3EB0900401C1FFA80FA0025C8
:1059A0002EE009EB050081B20098FBF721FCFBF724
:1059B000F4FB00246E4F4FF400781DE04FF480712B
:1059C000384602F00EFB4146384602F00CFB05FB60
:1059D000064168483BF8111002F00CFB8021384664
:1059E00002F001FB8021384602F0FBFA41463846BE
:1059F00002F0F7FA641CA4B2B442DFD36D1CADB25E
:105A00005545CED3BDE8FF9F2DE9FE4F0026A2EB02
:105A1000000882465F1A701E35468946B8F1000FAD
:105A200002DD4FF0010102E003D14FF000010191CE
:105A300002E0C8F100080190002F02DD4FF00100E4
:105A400002E003D14FF00000009002E0C7F1000730
:105A500000904046B84501DD044600E03C46601C2D
:105A60004FF0000B029015E01FFA89F11FFA8AF03F
:105A7000FCF76CF846443D44A64202DD0199361B12
:105A80008A44A54202DD00992D1B89440BF10100D7
:105A90001FFA80FB02998B45E6DDBDE8FE8F2DE9FC
:105AA000F0411C4615460E4607460B46FFF7ACFF75
:105AB0003A46234631461046FFF7A6FF23462A46BC
:105AC00019463846FFF7A0FF2A4623463146BDE86F
:105AD000F041104698E72DE9FC5F8046002415460A
