:020000040800F2
:1000000000A900209581000845010008470100086B
:10001000490100084B0100084D01000800000000E4
:100020000000000000000000000000004F01000878
:1000300051010008000000005301000855010008AC
:10004000AF810008AF810008AF810008AF810008D0
:10005000AF810008AF810008AF810008AF810008C0
:10006000AF810008AF810008AF810008AF810008B0
:10007000AF810008AF810008AF810008AF810008A0
:10008000AF810008AF810008AF810008AF81000890
:10009000AF810008AF810008AF810008AF81000880
:1000A000AF810008AF810008AF810008AF81000870
:1000B000A3750008AB740008AF810008AF81000889
:1000C000AF810008AF810008AF810008AF81000850
:1000D000AF8100082D810008AF810008AF810008C2
:1000E000AF810008AF810008AF810008AF81000830
:1000F000AF810008AF810008AF810008AF81000820
:10010000AF810008AF810008AF810008AF8100080F
:10011000AF810008AF81000827750008AF81000893
:10012000AF810008AF810008AF810008AF810008EF
:10013000DFF80CD00AF000FD00480047E91600087F
:1001400000A900207047FEE7FEE7FEE7FEE77047E4
:1001500070477047704700000CB500224C48009271
:100160000192016841F4803101604FF4A06301689D
:1001700001F4003101910099491C0091019911B9D4
:1001800000999942F3D10168890333D50121019186
:1001900040490A6842F010020A600A6822F003022D
:1001A0000A600A6842F002020A60416841604168E0
:1001B0004160416841F480614160416821F47C11F3
:1001C0004160416841F4E8114160016841F080718B
:1001D000016001688901FCD5416821F0030141609B
:1001E000416841F0020141604168C1F38101022987
:1001F000FAD10CBD01920CBD254810B5016841F043
:10020000010101604168244A114041600168234AAC
:1002100011400160016821F480210160416821F4EE
:10022000FE0141604FF41F018160FFF795FF1C49FB
:100230004FF00060086010BD154A10B55068194BAA
:1002400010F00C01184803D0042901D0082901D06E
:10025000036012E05168536801F470114FF002041A
:1002600013F4803F04EB914102D053689B0301D506
:100270000E4B00E00B4B5943016051680A4AC1F331
:100280000311121D515C0268CA40026010BD0000DB
:1002900000100240002002400000FFF8FFFFF6FEC1
:1002A00008ED00E000127A000000002000093D0087
:1002B0002DE9FE43FE4C8046266806F11E050A36EF
:1002C00011F0C4F921684C4200EB4407283F11F0BB
:1002D000B1F90223CDE9003800EB4402002102917C
:1002E0003B4629463046143A13F0B6FDF149086002
:1002F000BDE8FE831FB540F205400090ED48006860
:1003000013F078FF694614F0B3FC1FBD3EB51446E8
:1003100013F092FF054613F050FFE749884204D1DD
:10032000214628460BF010FB3EBDE4498842FBD134
:100330002246E3A168461EF0B9FC694628460BF048
:100340003FFD3EBD3EB513F077FF044613F035FF89
:10035000D949884203D120460BF0A7FA0AE0D749D1
:10036000884208D10A22694620460BF08DFC684677
:100370000AF007F8C0B23EBD70B5054640F2011163
:10038000FFF7E0FFCF4C4FF4817120712846FFF753
:10039000D9FF607140F203112846FFF7D3FFA07127
:1003A0004FF482712846FFF7CDFFE07170BD70B544
:1003B000054640F20111FFF7C5FFC24C4FF48171B1
:1003C00020722846FFF7BEFF607240F203112846F4
:1003D000FFF7B8FFA07270BD70B5BA4C05464FF478
:1003E00080712279FFF792FF627940F2011128466D
:1003F000FFF78CFFA2794FF481712846FFF786FF43
:10040000E27940F203112846FFF780FF227A4FF489
:1004100082712846FFF77AFF627A40F2051128467A
:10042000FFF774FFA27A2846BDE870404FF483714D
:100430006CE72DE9FF470DF134080C9F98E8500256
:100440004FF0000C4FF00208109D03948DE88011CE
:100450000AF086FC0446ADB30A20034600904A46E3
:10046000002120460AF0FCFD974920460AF032FEA2
:10047000964A002120460AF003FE954A01212046B3
:100480000AF0FEFD934A022120460AF0F9FD0022FF
:10049000114620460AF05EFE0022012120460AF0A5
:1004A00059FE0022022120460AF054FE80492046CF
:1004B00013F078FA012120460AF004FE04B0204629
:1004C000BDE8F087FFE731460AF01CFECCE7F0B547
:1004D00085B00AAF4FF0020C97E87000CDE9004CF0
:1004E00000270297CDE9035613F00DF905B07649C0
:1004F000BDE8F04013F084B9F0B585B00DF12C0CD7
:100500000E469CE832000A9F0097CDE903144FF095
:10051000000C4FF0020ECDE901EC31460BF05CFB14
:1005200004466D490BF03CFC022120460BF0A8FC70
:100530005F49204613F036FA294620460BF028FC86
:10054000204605B0F0BD2DE9F04387B08146DDE9D6
:100550000F060024119D0DF10C0E1E27DDF83880CA
:1005600002948EE8A1000220CDE90080484612F0F6
:10057000DDFB0746544912F0C5FC08E004EB84009B
:1005800006EB40012246384612F0D2FC641CAC4215
:10059000F4DB07B03846BDE8F0831CB501680F29CD
:1005A00003D0BDE81C4013F015BD4C480EF0C2FE50
:1005B00000200EF0C1FE4A480EF0DEFE0DF092FA69
:1005C00011F038F8A0F1140411F040F8A0F10B017B
:1005D00004F10900ADF804000A22ADF80610ADF8E8
:1005E000002033491E22ADF8022009696846884779
:1005F0001CBDF0B5044685B0D4E900054FF414766F
:1006000001280BD00E2821D00F2829D0262846D02B
:1006100005B02046BDE8F04013F0DCBC284614F0DD
:10062000D1FB11F013F8224909684C4200EB440752
:10063000283F10F0FFFF00EB4402CDE900563B4697
:1006400000211920143A01F00AF87AE7E0680068FE
:100650000928FAD105B02846BDE8F04014F000BCE6
:1006600000F0E9FF13F0D2FD044610F0E3FF4FF471
:10067000B0710023CDE9023102461AA00225049090
:1006800000211E230846CDE9004513F03CF8094936
:10069000486005B01249BDE8F04013F0B1B8E06819
:1006A0000228D2D1A06813F0F8FDB042CDD125E0E8
:1006B000487203081400002095B300080BBB000823
:1006C000257500008008002040390308B8B8B8003C
:1006D000E0E0E000C0C0C000805E0308D0D0D000E1
:1006E000203E0308E6898BE68C81E992BBE5BA8A55
:1006F000E68EA7E588B6E599A8000000A06810F08E
:10070000C5FC04460528A0D200F08DFFFE4850F835
:10071000240005B0BDE8F040CAE52DE9F041D0E97C
:10072000001486B04FF4B87801290AD00E297CD085
:100730000F297BD026297AD006B0BDE8F04113F00E
:1007400049BC204614F03EFB10F074FFEF49002531
:10075000EFA20968CDE902254E4200EB4600CDE943
:1007600000486FF05907143807EB60002823502227
:10077000E6210495FFF75DFE10F05CFFE6A140F274
:100780007112CDE90215CDE9004200EB46001438A4
:100790004010282304955022E621FFF74AFE10F06E
:1007A00049FFDFA14FF4B972CDE90215CDE900424E
:1007B00000EB4600143807EB60002823049546221E
:1007C0001E21FFF736FE10F035FF00EB460014380F
:1007D00007EB6000D6A140F27317CDE90215CDE911
:1007E00000472823462250210495FFF722FE10F0EF
:1007F00021FFD3A1CDE9021500EB4600CDE900476A
:1008000014384010282346221E210495FFF711FEBC
:1008100010F010FF00EB46001438CDA14010CDE9D8
:1008200002157A1C2823049502E00AE013E017E081
:10083000CDE9004246225021FFF7FBFD06B0BDE89E
:10084000F081C06800680928F8D106B02046BDE8EC
:10085000F04114F005BB06B0BDE8F04100F0EBBE7E
:10086000C1680229EAD1806813F017FD404503D022
:10087000A0F580707138E1D100F0D5FE06B0B8481F
:10088000BDE8F04114E52DE9F043054685B0D5E912
:1008900000044FF4FA764FF4B8790F287ED004DCC8
:1008A00001280ED00E2806D1DEE1262877D0A0F54B
:1008B0008070133874D005B02846BDE8F04313F0BB
:1008C00089BB204614F07EFA0023324619462046A2
:1008D00013F098FA10F0AEFE8C494FF4B0726FF03E
:1008E0006306096800944D429EA1CDE9012100EB09
:1008F0004500143806EB6000142341220A21FFF75B
:10090000E6FD10F097FE99A140F261120094CDE946
:10091000012100EB450014384010142341220A2124
:10092000FFF7D5FD10F086FE94A14FF4B17200944C
:10093000CDE9012100EB4500143806EB60001423DB
:1009400041223C21FFF7C3FD10F074FE8FA140F25D
:1009500063120094CDE9012100EB450014384010EA
:10096000142341223C21FFF7B2FD10F063FE8BA15E
:100970004FF4B2720094CDE9012100EB4500143828
:1009800006EB6000142341226E21FFF7A0FD10F05A
:1009900051FE00EB45001438401002E06EE181E1A9
:1009A00071E182A140F265120094CDE90121142386
:1009B00041226E21FFF78BFD10F03CFE6BA14FF43E
:1009C000B3770094CDE9017100EB4500143806EBD4
:1009D000600014234122A021FFF779FD10F02AFEC8
:1009E00076A10094CDE9017100EB45001438401068
:1009F00014234122A021FFF76AFD10F01BFE71A114
:100A00000094CDE9017100EB4500143806EB60005D
:100A100014234122D221FFF75AFD10F00BFE6DA1E5
:100A20000094CDE9017100EB450014384010142307
:100A30004122D221FFF74BFD10F0FCFD01273A02C5
:100A40004FF00308CDE9004200EB4500CDE90287F5
:100A5000143806EB6000142341221E21FFF74CFDE1
:100A600010F0E8FD40F20112CDE9004200EB450034
:100A7000CDE9028714384010142341221E21FFF7CC
:100A80003BFD10F0D7FD4FF48172CDE9004200EB41
:100A90004500CDE90287143806EB6000142341229B
:100AA0005021FFF729FD10F0C5FD40F20312CDE9FA
:100AB000004200EB4500CDE90287143840101423B2
:100AC00041225021FFF718FD10F0B4FD4FF482725F
:100AD000CDE9004200EB4500CDE90287143806EB72
:100AE0006000142341228221FFF706FD10F0A2FDD1
:100AF00040F20512CDE9004200EB450014384010E9
:100B00001423412282216DE01C000020487203085A
:100B1000E7A1AEE8AEA40000E58F96E6B688000037
:100B2000E5B7A5E4BBB6E5B7A6E8BDAC000000009C
:100B3000E5B7A5E4BBB6E58FB3E8BDAC00000000A7
:100B4000E58FB3E8BDACE7BB86E8B08300000000EA
:100B5000E58FB3E8BDACE7B297E8B08300000000D2
:100B6000F3050008E5AD94E695B00000E992BBE519
:100B7000AD94E6B7B1E5BAA600000000E689A9E5A4
:100B8000AD94E6B7B1E5BAA600000000E8BDACE55B
:100B90008AA8E9809FE5BAA600000000E992BBE5BB
:100BA000AD94E9809FE5BAA600000000E68993E5D0
:100BB000AD94E6ACA1E695B000000000E6A8A1E582
:100BC000BC8F0000E5A587E581B6E695B0E68E927C
:100BD00000000000E5A4A7E5B08FE992BBE5A4B44E
:100BE00000000000CDE90287FFF786FC10F022FD2F
:100BF0004FF48372CDE9004200EB4500CDE9028756
:100C0000143806EB600014234122B421FFF774FC72
:100C100010F010FD00EB450014386FF0590101EBA6
:100C200060000026AFF21812CDE90226CDE9004996
:100C300014235022FA210496FFF7FBFB10F0FAFC74
:100C400000EB450014384010AFF2341140F271123D
:100C5000CDE90216CDE90042142304965022FA2170
:100C6000FFF7E7FB05B096E4E86800680928F9D1CA
:100C700005B02046BDE8F04314F0F2B805B0BDE879
:100C8000F04300F0D8BC06F0EBFDFE4806F0CCFDCA
:100C90002046FFF7A1FBE86805B03146BDE8F04308
:100CA00013F0AEBFE8680228DCD1A86813F0F5FAAB
:100CB000484503D0A0F580707138D3D100F0B3FC63
:100CC00005B0F148BDE8F043FFF7F2BA2DE9F04175
:100CD000D0E9001486B04FF4B87801290AD00E2963
:100CE00061D00F2969D026296CD006B0BDE8F0414B
:100CF00013F070B9204614F065F810F09BFCE3493E
:100D00006FF0590709684E4200EB4600143807EBB4
:100D100060000025AFF20822CDE90225CDE90048A8
:100D200028235022E6210495FFF783FB10F082FC74
:100D300000EB460014384010AFF2242140F271124B
:100D4000CDE90215CDE90042282304955022E62181
:100D5000FFF76FFB10F06EFCCDA14FF4B972CDE937
:100D60000215CDE9004200EB4600143807EB6000A5
:100D70002823049578221E21FFF75BFB10F05AFC14
:100D8000C7A140F27312CDE90215CDE9004200EB94
:100D90004600143807EB6000282304957822502180
:100DA000FFF747FB4AE5C06800680928FAD106B09A
:100DB0002046BDE8F04114F053B806B0BDE8F0415C
:100DC00000F039BCC1680229ECD1806813F065FAE3
:100DD00040451AD0A0F58070713816D0012820D077
:100DE0000228DFD1A7490320087006F060FDA5485E
:100DF00006F0EFFC20284FF000021BD0ADA1AFA001
:100E000006B0BDE8F0410EF073B900F00CFC06B07E
:100E10009D48BDE8F041FFF74BBAA6A1ACA00EF08B
:100E200067F906F091FC4FF000020028F5D1ACA163
:100E3000ADA0E5E7B1A1B3A0E2E72DE9F043D0E929
:100E4000001485B04FF4B87901290AD00E297DD05D
:100E50000F297CD026297BD005B0BDE8F04313F0E4
:100E6000B9B8204613F0AEFF10F0E4FB8749002626
:100E700002220968CDE900424D424FF4C071CDE92C
:100E8000026100EB45006FF059071438502307EB5F
:100E900060001A4631460AF04BFB80469FA10AF0DB
:100EA00060FA9FA140460AF05CFA9EA140460AF013
:100EB00058FA9D4940460AF01DFD10F0BBFB9BA16E
:100EC0004FF4B972CDE90216CDE9004200EB4500BE
:100ED000143807EB60002823049650225A21FFF7AC
:100EE000A8FA10F0A7FB93A140F27312CDE9021605
:100EF000CDE9004200EB4500143840102823049649
:100F000050225A21FFF795FA10F094FB8BA14FF471
:100F1000BA72CDE90216CDE9004200EB4500143863
:100F200007EB6000282304965022A021FFF781FAE6
:100F300010F080FB00EB450082A11438CDE90216C9
:100F4000401040F275122823049602E02FE038E0AA
:100F50003CE0CDE900425022A021FFF76AFA10F0F0
:100F600069FB00EB4500143807EB6000AFF260420C
:100F7000CDE90226CDE9004928235022E621049636
:100F8000FFF757FA10F056FB00EB450014384010FD
:100F9000AFF27C4140F27112CDE90216CDE9004278
:100FA000282304965022E621FFF743FA5AE6C06848
:100FB00000680928FAD105B02046BDE8F04313F0D7
:100FC0004FBF05B0BDE8F04300F035BBC168022952
:100FD000ECD1806813F061F94845E7D0A0F5807046
:100FE0007138E3D100F01FFB05B02748BDE8F0439E
:100FF000FFF75EB92DE9F0438DB005464468202225
:10100000524905A809F060F928684FF4B879012819
:101010000BD00E2832D00F2831D0262830D02846C9
:1010200012F0D8FF0DB0BDE8F083204613F0CAFEE1
:1010300010F000FB15496FF0630609684D4200EBA4
:101040004500143806EB6000AFF2C04140F2611277
:101050000094CDE90121142350220A21FFF737FA29
:1010600010F0E8FA00EB4500143806EB6000AFF230
:10107000D4414FF4B1721423009469E029E130E1C6
:1010800032E1000080080020F305000848720308E0
:10109000E6A8A1E59D97E6A380E6B58B00000000D9
:1010A000E695B0E68DAEE4BCA0E8BE93E6A380E68C
:1010B000B58B00004572726F7200000053656E645C
:1010C0002044617461206661696C65640000000001
:1010D0004E524632344C3031206572726F722100AC
:1010E0004E6F726D616C00004E524632344C30319E
:1010F000204E6F726D616C21000000004E6F726DAA
:101100006F6C000053656E642044617461205375F8
:10111000636365737366756C000000004D310000F9
:101120004D3200004D33000080710308E5AE9AE4B3
:10113000BD8D0000E689A9E5AD940000E4B88AE51C
:101140008D870000E4B88BE9998D0000409B020870
:10115000CDE9012150224621FFF7B9F910F06AFAD2
:1011600000EB4500143806EB6000AFF2C05140F2CE
:1011700063120094CDE90121142350228221FFF74C
:10118000A6F910F057FA00EB4500143806EB6000A2
:10119000AFF228614FF4B2720094CDE9012114231B
:1011A0005022BE21FFF793F910F044FA00EB4500FE
:1011B00014384010FEA140F265120094CDE90121DF
:1011C000142350220A21FFF782F910F033FA01A903
:1011D0004FF00108032740F20112009481E88401D6
:1011E00000EB4500143806EB60001923502228213B
:1011F000FFF782F910F01EFA01A94FF481720094F2
:1012000081E8840100EB4500143806EB60001923E7
:1012100050226421FFF770F910F00CFA01A940F296
:101220000312009481E8840100EB4500143806EBBA
:10123000600019235022A021FFF75EF910F0FAF99F
:1012400001A94FF48272009481E8840100EB45000B
:10125000143806EB600019235022DC21FFF74CF90B
:1012600010F0E8F905A94FF4A87203970094CDE9AE
:10127000012100EB45001438502340101A4632215A
:10128000FFF761F910F0D6F90026CDA2CDE90226CC
:1012900000EB4500CDE900491438401028235022C6
:1012A000A0210496FFF7C5F810F0C4F900EB450043
:1012B00014384010AFF2A07140F27112CDE902165D
:1012C000CDE90042282304965022D221FFF7B1F83D
:1012D000A8E6E86800680928FAD1204613F0C0FDA6
:1012E000A0E600F0A8F99DE6E8680228F0D1A86819
:1012F00012F0D3FF484509D0A0F580707138E7D1CE
:1013000000F091F9B048FEF7D3FF8BE62046FFF7D7
:1013100033F800F088F9AD48F5E72DE9F04790B0D3
:10132000054644681422AA4905A808F0CDFFA8493B
:10133000142214310AA808F0C7FF28684FF00009EA
:101340004FF4B87A01280BD00E287CD00F287BD020
:1013500026287AD0284612F03DFE10B0BDE8F0876E
:10136000204613F02FFD10F065F99A496FF06306DF
:1013700009684D4200EB4500143806EB6000AFF6FB
:101380001C0140F261120094CDE901211423502286
:101390000A21FFF79CF810F04DF900EB45001438D6
:1013A00006EB6000AFF63C024FF4B1710094CDE95A
:1013B0000112142350223221FFF789F810F03AF974
:1013C00000EB4500143806EB6000AFF6500240F227
:1013D00063110094CDE90112142350225A21FFF722
:1013E00076F810F027F901273A024FF00308CDE90B
:1013F000004200EB4500CDE9028714384010192364
:1014000050220A21FFF778F810F014F940F2011287
:10141000CDE9004200EB4500CDE9028714384010C9
:10142000192350223221FFF767F810F003F94FF427
:101430008172CDE9004200EB4500143840101923B9
:1014400050225A2102E056E05DE05FE0CDE90287DC
:10145000FFF752F810F0EEF800EB4500143806EBF9
:101460006000022605A94FF4A87203960094CDE906
:101470000121462350228221FFF765F810F0DAF8A7
:101480000AA940F2511203960094CDE9012100EB24
:10149000450014384010462350228221FFF753F8AC
:1014A00010F0C8F84CA200EB4500CDE902296FF01E
:1014B00059011438CDE9004A01EB60004E4628235B
:1014C0005022E621CDF81090FEF7B3FF10F0B2F8ED
:1014D00000EB450014384010AFF6C41140F2711211
:1014E000CDE90216CDE90042282304965022E621D8
:1014F000FEF79FFF31E7E86800680928FAD1204627
:1015000013F0AEFC29E700F096F826E7E868022819
:10151000F0D1A86812F0C1FE504507D0A0F5807048
:101520007138E7D100F07FF82D4817E02046FEF72C
:101530003EFF2C4981F8009006F0B9F9294806F0E1
:1015400048F920284FF000020BD0AFF29841AFF2DB
:1015500094400DF0CDFD00F066F81B48FEF7A8FEA4
:10156000FBE6AFF26841AFF26440F2E710B5042049
:1015700013F016FC1C4811F0F7FA1C480BF09EF80B
:10158000194811F0F1FA1A4809F08EFD194809F0CE
:1015900087FE19480AF0A0F9184811F079FF184899
:1015A00012F070F817480FF047FC17482EE00000C3
:1015B000E6A8A1E5BC8FE98089E68BA900000000C0
:1015C000E992BBE5AD940000F30500081B13000889
:1015D000189B020848720308E689A7E8A18C00005E
:1015E000F50F000880080020E52A010805C2000860
:1015F00029AE0008B1B1000801B60008B5320108F3
:1016000059350108F90D0108292E010811F06CFC6B
:1016100012F0FCFD2C4913F041FB2C48FEF748FE6C
:101620000EF064F910BD10B5294C206812F006FDCB
:101630000020206010BD1CB5684612F0CBFD254887
:101640000DF078FE00200DF077FE23480DF094FE9B
:1016500002200DF0D3FE68460CF082FA1CBDF0B5F6
:1016600087B00227DDE90C5650240297CDE90364C8
:1016700005940324CDE900540FF0B0FC0646174949
:101680000FF028FD164A012130460FF00CFD0A220A
:10169000012130460FF04CFD0A22012130460FF0A7
:1016A0002BFD104D002405EBC40055F834104268A2
:1016B00030460FF0CFFB641C052CF4D3304613F0FA
:1016C00081FB07B03046F0BD9B050008F30500081C
:1016D00014000020B0B0B00040390308384E0308B1
:1016E0004050D480F09A020806F07CFC4FF4A060D1
:1016F00006F00AFE4FF4E13006F0CAFC05F066FF82
:1017000001F02FFA05F03AFE40F2E7344721204677
:1017100005F09EFE40F2CF21204605F0D7FE06F0F0
:1017200059FD0121402007F07DF8042013F038FB1B
:10173000002000F0E4FE05F073FF0DF053F806F012
:1017400003F80028FBD1FFF711FF14200CF060FB19
:10175000FBE7000070B506464FF48071FE4C204652
:1017600006F0EDFE65152946204606F0E8FE3146F6
:10177000FA4806F0EBFE8021204606F0E0FE8021CC
:10178000204606F0DAFE29462046BDE8704006F005
:10179000D4BE70B5F04C06464FF48071204606F07A
:1017A000CCFE65152946204606F0C9FE3146EB48B9
:1017B00006F0CCFE8021204606F0C1FE80212046A6
:1017C00006F0BBFE29462046BDE8704006F0B5BED7
:1017D0002DE9F047E14F4FF0883038603D1D28601B
:1017E000DE4E00200C363060DB4CA915204606F09A
:1017F000A4FE4FF400794946204606F0A0FE4021A1
:10180000204606F09CFED6488088A0F5094189391B
:1018100002D1022006F0FDFB384606F081FE80462C
:101820004021204606F089FE4946204606F085FE06
:101830004FF03330386028604FF6FF70306040461C
:10184000BDE8F08770B50E46FFF784FFC24C4FF439
:101850008071204606F071FE65152946204606F087
:101860006EFE3146BD4806F071FE8021204606F02E
:1018700066FE8021204606F060FE29462046BDE82F
:10188000704006F05ABE10B5FFF764FFBDE8104087
:101890009EE7B34800895DE770B5AF4C06464FF44C
:1018A0008071204606F049FE65152946204606F05F
:1018B00046FE3146A94806F049FE8021204606F042
:1018C0003EFE8021204606F038FE29462046BDE82F
:1018D000704006F032BEC0F34511C20AC00200EBF0
:1018E0004110104480B270472DE9F84F9C4E0D46D0
:1018F0000446B188280A00903046DFF85C82DFF8A1
:101900005CA24089A1F513424FF480774FF400792F
:101910004FEA142B413A15D0A1F5A642103A11D046
:101920003346A1F5D04C9A791B881B1B5B1EBCF17A
:10193000040C75D0A1F5A04CBCF5A26C6ED0012AA8
:101940006DD03FE1FFF706FF4FF4807146464046F9
:1019500006F0F3FD4946304606F0F1FD594657467C
:10196000504606F0F3FD8021304606F0E8FD802168
:10197000304606F0E2FD4946304606F0DEFD4FF403
:101980008071304606F0D9FD4946304606F0D7FD55
:10199000E1B2384606F0DAFD8021304606F0CFFD90
:1019A0008021304606F0C9FD4946304606F0C5FDA7
:1019B0006B488089FFF7CEFE4FF48071304606F009
:1019C000BCFD4946304606F0BAFD3846009906F09F
:1019D000BDFD8021304606F0B2FD8021304606F084
:1019E000ACFD4946304606F0A8FD4FF48071304604
:1019F00006F0A3FD4946304606F0A1FDE9B238469F
:101A000006F0A4FD8021304606F099FD8021304685
:101A100006F093FD49463046CFE001E054E0D0E0C7
:101A2000012A00D19CB2FFF795FEBB4639464046DD
:101A300006F083FD4946404606F081FD210A5746DF
:101A4000504606F083FD8021404606F078FD802157
:101A5000404606F072FD4946404606F06EFD594686
:101A6000404606F06AFD4946404606F068FDE1B290
:101A7000384606F06BFD8021404606F060FD80216F
:101A8000404606F05AFD4946404606F056FDB089EC
:101A9000FFF760FE5946404606F04FFD4946404676
:101AA00006F04DFD3846009906F050FD8021404675
:101AB00006F045FD8021404606F03FFD4946404680
:101AC00006F03BFD594663E0FFF744FE4FF480719A
:101AD000404606F032FD4946404606F030FD594684
:101AE0005746504606F032FD8021404606F027FD5D
:101AF0008021404606F021FD4946404606F01DFD86
:101B00007089401C80B2FFF725FE4FF4807140467B
:101B100006F013FD4946404606F011FDE1B2384695
:101B200006F014FD8021404606F009FD8021404664
:101B300006F003FD4946404606F0FFFCB089FFF77A
:101B400009FE4FF48071404606F0F7FC49464046D6
:101B500006F0F5FC384605E000100140000C01409D
:101B6000A0080020009906F0F1FC8021404606F014
:101B7000E6FC8021404606F0E0FC4946404606F07F
:101B8000DCFCB089401C80B2FFF7E4FD4FF48071AB
:101B9000404606F0D2FC4946404606F0D0FCE9B289
:101BA000384606F0D3FC8021404606F0C8FC802170
:101BB000404606F0C2FC49464046BDE8F84F06F0F4
:101BC000BCBC9CB22146FFF73DFEB0892946BDE86A
:101BD000F84F37E62DE9F84FFE4D2A88824202D9A8
:101BE0006A888A4202D80020BDE8F88FFFF77CFEA1
:101BF000A888AA4649F2413B45F2103545F21056F5
:101C0000584505D0A0F5D041043901D0A84201D1F2
:101C10002E2005E0B04202D14FF4385000E02220DF
:101C2000FFF798FDDFF8B0934FF08830C9F8000057
:101C300009F104010860E8494FF6FF780C31C1F85A
:101C40000080E64F8915384606F077FC791538464E
:101C500006F075FC4021384606F071FC012006F0C4
:101C6000D8F94021384606F068FC4021384606F095
:101C700066FC012006F0CDF9484606F051FC81468D
:101C80004021384606F059FCBAF80400584503D004
:101C9000A84201D0B04210D14021384606F04FFC96
:101CA000CD4806F03DFC00904021384606F045FC4A
:101CB00009F0FF0008EA00240FE0A0F5D041043944
:101CC0000BD14021384606F03AFC4021384606F058
:101CD00034FCC14806F024FC81464FF400713846BC
:101CE00006F02BFCBC494FF033300860091D08603A
:101CF000B9490C31C1F80080BAF80400A0F51341CD
:101D000025391ED0A0F58A4135391AD0091D18D0C1
:101D1000A0F50941893914D0A0F53541053910D015
:101D2000584503D0A84201D0B0420CD14FEAD92087
:101D30004FEAC020A10A40EA4111009841EAD020B0
:101D400052E7484650E74846BDE8F84FC3E5A1488A
:101D50008088A0F5134141390ED0A0F5D041043957
:101D60000AD0A0F5A641103906D0B1F5007105D012
:101D700040F27311072065E5292001E04FF424505B
:101D8000E8E494488088A0F5134141390DD0A0F5CE
:101D9000D041043909D0A0F5A641103905D0B1F5DC
:101DA000007104D0002107204CE5282001E04FF409
:101DB0002050CFE42DE9F047864C00252146A37939
:101DC000898846F60402012B18D1914216D00828C2
:101DD00014D2DFE800F00406080A0C0E10120620E8
:101DE0000CE007200AE0042008E0052006E00120BE
:101DF00004E0002002E0032000E00220A1F51346E9
:101E000045F2103345F21058413E05D0914203D0BF
:101E1000994201D041457DD1082812D2DFE800F077
:101E2000110406080A0C0E1080250AE0402508E07F
:101E3000C02506E0202504E0602502E0A02500E0A2
:101E4000E025414502D14FF4585000E03620994238
:101E500003D0414501D045F00805914201D145F03C
:101E600002052946FFF7EEFCA8062088618802D506
:101E7000884202D303E0884201D921806080A08893
:101E80004FF480756E004045544FDFF84C916089E7
:101E90007ED1FFF75FFC2946B846384606F04DFB79
:101EA0003146404606F04BFB00214F46484606F0BF
:101EB0004DFB8021404606F042FB8021404606F063
:101EC0003CFB3146404606F038FB6089401C80B23E
:101ED000FFF740FC2946404606F02FFB31464046BE
:101EE00006F02DFB0021384606F030FB80214046ED
:101EF00006F025FB8021404606F01FFB3146404698
:101F000006F01BFB6089801C80B2FFF723FC29468A
:101F1000404600E071E106F010FB3146404606F015
:101F20000EFB2088401EC0F30F21384606F00EFB42
:101F30008021404606F003FB8021404606F0FDFA72
:101F40003146404606F0F9FA6089C01C80B2FFF7BE
:101F500001FC2946404606F0F0FA3146404606F0BC
:101F6000EEFA2078401EC1B2384606F0EFFA802122
:101F7000404606F0E4FA8021404606F0DEFA31469B
:101F8000404606F0DAFAA089FFF7E4FB294600E0B4
:101F900060E0404606F0D1FA3146404606F0CFFAFE
:101FA0000021384606F0D2FA8021404606F0C7FAF2
:101FB0008021404606F0C1FA3146404606F0BDFA9F
:101FC000A089401C80B2FFF7C5FB2946404606F0B9
:101FD000B4FA05E0A0080020000C01400010014008
:101FE0003146404606F0ABFA0021384606F0AEFA1C
:101FF0008021404606F0A3FA8021404606F09DFA73
:102000003146404606F099FAA089801C80B2FFF75D
:10201000A1FB2946404606F090FA3146404606F0BC
:102020008EFA6088401EC0F30F21384606F08EFA03
:102030008021404606F083FA8021404606F07DFA72
:102040003146404606F079FAA089C01C80B2FFF7FD
:1020500081FBB6E0FFF77EFB2946B846384606F01E
:102060006CFA3146404606F06AFA00214F4648466F
:1020700006F06CFA8021404606F061FA8021404665
:1020800006F05BFA3146404606F057FA29464046CC
:1020900006F053FA3146404606F051FA0021384620
:1020A00006F054FA8021404606F049FA8021404665
:1020B00006F043FA3146404606F03FFA29464046CC
:1020C00006F03BFA3146404606F039FA2088401EB9
:1020D000C0F30F21384606F039FA8021404606F059
:1020E0002EFA8021404606F028FA3146404606F096
:1020F00024FA2946404606F020FA3146404606F0CA
:102100001EFA2078401EC1B2384606F01FFA802120
:10211000404606F014FA8021404606F00EFA314699
:10212000404606F00AFAA089FFF714FB294640460C
:1021300006F003FA3146404606F001FA002138461F
:1021400006F004FA8021404606F0F9F98021404665
:1021500006F0F3F93146404606F0EFF929464046CD
:1021600006F0EBF93146404606F0E9F90021384621
:1021700006F0ECF98021404606F0E1F98021404666
:1021800006F0DBF93146404606F0D7F929464046CD
:1021900006F0D3F93146404606F0D1F96088401E7A
:1021A000C0F30F21384606F0D1F98021404606F0F1
:1021B000C6F98021404606F0C0F93146404606F097
:1021C000BCF92946404606F0B8F93146404606F0CB
:1021D000B6F9A078401EC1B2384606F0B7F98021A2
:1021E000404606F0ACF98021404606F0A6F931469B
:1021F0004046BDE8F04706F0A0B9082812D2DFE853
:1022000000F0040608110A0C0E1030250AE0102513
:1022100008E0202506E0382504E0282502E01825FE
:1022200000E00825A1F50940893806D0032045F4CF
:102230008051BDE8F047FFF705BB112046F2400191
:102240002943F6E770B5FFF74FFBFFF722FBFE4C83
:102250004FF48071204606F070F965152946204636
:1022600006F06DF9F94AFA48118806F06FF98021F5
:10227000204606F064F98021204606F05EF92946E2
:102280002046BDE8704006F058B92DE9F74FF14EF1
:10229000044682B0B388080A009030460D46DFF845
:1022A000A883DFF8ACA34089A3F513414FF48077EE
:1022B0004FF400794FEA142B413913D0A3F5A6410E
:1022C00010390FD0B1F5007118D03246A3F5D04CBB
:1022D00091791288121B521EBCF1040C66D00129A0
:1022E0007ED0CFE0FFF736FA3946404606F025F9B2
:1022F0004946404606F023F9594665E0FFF72AFAB9
:102300003946404606F019F94946404606F017F9A5
:102310005946504606F01AF98021404606F00FF95A
:102320008021404606F009F94946404606F005F985
:102330007089401C80B2FFF70DFA3946404606F01E
:10234000FCF84946404606F0FAF8E1B2504606F07D
:10235000FDF88021404606F0F2F88021404606F064
:10236000ECF84946404606F0E8F8B089FFF7F2F984
:102370003946404606F0E1F84946404606F0DFF8A7
:102380005046009906F0E2F88021404606F0D7F862
:102390008021404606F0D1F84946404606F0CDF887
:1023A000B089401C80B2FFF7D5F951E0012900D176
:1023B00094B2FFF7CFF93946404606F0BEF84946D9
:1023C000404606F0BCF8210A504606F0BFF88021CE
:1023D000404606F0B4F88021404606F0AEF800E032
:1023E0004FE04946404606F0A8F83946404606F018
:1023F000A4F84946404606F0A2F8E1B2504606F07D
:10240000A5F88021404606F09AF88021404606F063
:1024100094F84946404606F090F8B089FFF79AF9DB
:102420003946404606F089F84946404606F087F8A6
:102430005046009906F08AF88021404606F07FF861
:102440008021404606F079F84946404606F075F886
:102450003946404606F071F84946404606F06FF8A6
:10246000E9B2504606F072F88021404606F067F85F
:102470008021404606F061F84946404606F05DF886
:1024800007E094B22146FFF7DDF9B0892946FFF74E
:10249000D9F939464446404606F051F84D4649467A
:1024A000204606F04CF831895646504606F04EF864
:1024B0008021204606F043F88021204606F03DF8B2
:1024C0002946204606F039F83946204606F035F808
:1024D0002946204606F033F83046049906F036F8CF
:1024E0008021204606F02BF88021204606F025F8B2
:1024F00005B029462046BDE8F04F06F01EB82DE98C
:10250000F05F54492C232A242B2522222126898856
:1025100048F689194FF04E0A4FF04F0B45F2105E06
:10252000F02749F24138F8B14A484FF0010C4145D3
:1025300080F806C04FF4A07CA0F800C047800FD000
:10254000A1F5A647103F0BD0A1F5D047043F4ED0D0
:10255000494550D10281A0F80AB0A0F80CA060E073
:102560000381448185815CE03A484FF0000C41458D
:1025700080F806C007804FF4A077478011D0A1F5FE
:10258000D04CBCF1040C0CD0A1F5A04CBCF5447CA3
:1025900007D0494514D10281A0F80AA0A0F80CB0D8
:1025A0004CE003814481A1F5D0428581043A03D0F7
:1025B000A1F5A642103A41D107804FF4F0710FE027
:1025C00071450FD14FF4305101814FF428514181B1
:1025D0004FF42C5181814FF4F07101804FF4487118
:1025E00041802BE0028120214181868126E0038108
:1025F0004581848115E071450FD14FF4305202813D
:102600004FF4285242814FF42C5282814FF4487289
:1026100002804FF4F072428003E002814681202262
:102620008281A1F5D042043A03D0A1F5A642103A26
:1026300004D14FF4F0710180A0F802C0BDE8F05F52
:102640000020FFF7B7BB0000001001403000002061
:10265000000C0140A00800202DE9F05F074610445F
:10266000401E85B2C818401E0E4684B2FE4A4FEA8C
:10267000112A114690884989A0F513434FF4807BB5
:102680004FEA1729413B30D0A0F5A643103B2CD090
:10269000A0F5D043043B28D0A0F5AA43103B7DD041
:1026A000917901297BD0A84639463546A0F50942E3
:1026B000893A75D050204FF0510B4FF0520A5322F7
:1026C0009146FFF7BFF841465846FFF7BBF8294649
:1026D0005046FFF7B7F821464846FFF7B3F83146B2
:1026E0003846BDE8F05FFFF7FFB80846FFF732F85D
:1026F0004FF48071DD4805F020FF4FF4007B594610
:10270000DA4805F01CFFDFF868834946404605F0CB
:102710001DFF8021D54805F012FF8021D34805F028
:102720000CFF5946D14805F008FF4FF48071CF489F
:1027300005F003FF5946CD4805F001FFF9B24046C8
:1027400005F004FF8021C94805F0F9FE8021C74843
:1027500005F0F3FE5946C54805F0EFFE4FF48071D1
:10276000C24805F0EAFE5946C04805F0E8FE290ACD
:10277000404605F0EBFE8021BC4805F0E0FE8021DC
:10278000BA4805F0DAFE5946B84805F0D6FE4FF4CF
:102790008071B64805F0D1FE594602E07AE08BE13F
:1027A00080E1B24805F0CBFEE9B2404605F0CEFE2E
:1027B0008021AE4805F0C3FE8021AC4805F0BDFE87
:1027C0005946AA4805F0B9FEA7488089FEF7C2FF1E
:1027D0004FF48071A54805F0B0FE5946A34805F0B6
:1027E000AEFE5146404605F0B1FE80219F4805F0FF
:1027F000A6FE80219D4805F0A0FE59469B4805F0A5
:102800009CFE4FF48071994805F097FE5946974811
:1028100005F095FEF1B2404605F098FE8021934800
:1028200005F08DFE8021914805F087FE59468F48BE
:1028300005F083FE4FF480718C4805F07EFE59460A
:102840008A4805F07CFE210A404605F07FFE802183
:10285000864805F074FE8021844805F06EFE5946D6
:10286000824805F06AFE4FF48071804805F065FEED
:1028700059467E4805F063FEE1B2404605F066FE2B
:1028800080217A4805F05BFE8021784805F055FEEE
:10289000594602E190460846FEF75CFF59467348E8
:1028A00005F04BFE4FF40071704805F048FE4946B4
:1028B000DFF8BC91484605F049FE80216B4805F0E1
:1028C0003EFE8021694805F038FE4FF400716748EC
:1028D00005F033FEB8F80A00401C80B2FEF73AFF5C
:1028E0005946624805F029FE4FF400715F4805F033
:1028F00026FEF9B2484605F029FE80215B4805F026
:102900001EFE8021594805F018FE4FF4007157480B
:1029100005F013FEB8F80A00801C80B2FEF71AFF1B
:102920005946524805F009FE4FF400714F4805F032
:1029300006FE290A484605F009FE80214B4805F0AD
:10294000FEFD8021494805F0F8FD4FF4007147482D
:1029500005F0F3FDB8F80A00C01C80B2FEF7FAFEDD
:102960005946424805F0E9FD4FF400713F4805F033
:10297000E6FDE9B2484605F0E9FD80213B4805F057
:10298000DEFD8021394805F0D8FD4FF4007137484D
:1029900005F0D3FDB8F80C00FEF7DCFE59463348CD
:1029A00005F0CBFD4FF40071304805F0C8FD5146ED
:1029B000484605F0CBFD80212C4805F0C0FD802164
:1029C0002A4805F0BAFD4FF40071284805F0B5FD1E
:1029D000B8F80C00401C80B2FEF7BCFE59462348F4
:1029E00005F0ABFD4FF40071204805F0A8FDF1B2F1
:1029F000484605F0ABFD80211C4805F0A0FD802174
:102A00001A4805F09AFD4FF40071184805F095FD3D
:102A1000B8F80C00801C80B2FEF79CFE59461348A3
:102A200005F08BFD4FF40071104805F088FD210A78
:102A3000484605F08BFD80210C4805F080FD802183
:102A40000A4805F07AFD4FF40071084805F075FD5D
:102A5000B8F80C00C01C80B2FEF77CFE5946034853
:102A600005F06BFD06E00000A0080020001001400A
:102A7000000C01404FF40071FE4805F060FDE1B22A
:102A8000484605F063FD8021FA4805F058FD802195
:102A9000F84805F052FD4FF40071BDE8F05FF548CD
:102AA00005F04BBD442041EA082189B2834688469F
:102AB0004FF0450A462203E61288A046531B5B1ED0
:102AC000D21B521E31469DB294B2EFE52DE9F0477C
:102AD000E94E82460024308875884543B088A0F5C9
:102AE000D041043902D1B07901280CD00021084628
:102AF000FEF7FAFEFEF7CDFEDE4E4FF48078771536
:102B0000DFF8789329E00020B0712A2777814FF011
:102B10002B08A6F80C800146FEF7E6FE0120B071F6
:102B2000A6F80A80B781E5E74146304605F005FD85
:102B30003946304605F003FD5146484605F006FD8E
:102B40008021304605F0FBFC8021304605F0F5FC85
:102B50003946304605F0F1FC641CAC42E4D3BDE8D4
:102B6000F0872DE9F84F0121192005F064FE0121BD
:102B7000C34805F003FD4FF4F864ADF800401020A1
:102B80008DF803000320BB4D8DF8020069462846EE
:102B900005F069FC2146284605F0CFFCB74C4FF6FE
:102BA000FF75ADF800506946204605F05CFC2946EB
:102BB000204605F0C2FC322005F042FA0121002037
:102BC000FEF740FE322005F03BFA0020FEF75BFEE8
:102BD000A94C49F2413646F60408A08045F2103966
:102BE00045F21057FF2804D3A84202D0B0F5134F86
:102BF00056D1D320FEF7AEFDFEF7EAFDFEF7E8FD65
:102C0000FEF7E6FD05EA0020A080FEF7E1FDA188C1
:102C10000843A080B04243D0BF20FEF79BFDFEF7E3
:102C2000D7FDFEF7D5FDFEF7D3FDFEF7D1FD05EA92
:102C30000020A080FEF7CCFDA1880843A08040457D
:102C40002ED0D420FEF786FDFEF7C2FDFEF7C0FDB4
:102C5000FEF7BEFD05EA0020A080FEF7B9FDA188C1
:102C60000843A08048451BD04FF45A40FEF772FD40
:102C7000FEF7AEFD4FF45B40FEF76CFDFEF7A8FDDE
:102C800005EA0020A0804FF45C40FEF763FDFEF7EC
:102C90009FFDA1880843A080B0F5004F00D1A78018
:102CA000A18878A01BF0F2FFA088B0427ED1CF208F
:102CB000FEF750FD0020FEF76CFDC120FEF769FD18
:102CC0003020FEF766FDED20FEF744FD6420FEF7A0
:102CD00060FD0320FEF75DFD1220FEF75AFD812006
:102CE000FEF757FDE820FEF735FD8520FEF751FD84
:102CF0001020FEF74EFD7A20FEF74BFDCB20FEF7AD
:102D000029FD3920FEF745FD2C20FEF742FD00206D
:102D1000FEF73FFD3420FEF73CFD0220FEF739FDB3
:102D2000F720FEF717FD2020FEF733FDEA20FEF71F
:102D300011FD0020FEF72DFD0020FEF72AFDC0202A
:102D4000FEF708FD1B20FEF724FDC120FEF702FD63
:102D50000120FEF71EFDC520FEF7FCFC3020FEF72B
:102D600018FD3020FEF715FDC720FEF7F3FCB72055
:102D7000FEF70FFD3620FEF7EDFC4820FEF709FDBB
:102D80003A20FEF7E7FC5520FEF703FDB120FEF7E1
:102D9000E1FC0020FEF7FDFC1A20FEF7FAFCB6204D
:102DA000FEF7D8FC0A20FEF7F4FC00E0A2E0A22027
:102DB000FEF7EFFCF220FEF7CDFC0020FEF7E9FC69
:102DC0002620FEF7C7FC0120FEF7E3FCE020FEF71B
:102DD000C1FC0F20FEF7DDFC2A20FEF7DAFC2820DC
:102DE000FEF7D7FC0820FEF7D4FC0E20FEF7D1FC3E
:102DF0000820FEF7CEFC5420FEF7CBFCA920FEF7FE
:102E0000C8FC4320FEF7C5FC0A20FEF7C2FC0F20D9
:102E1000FEF7BFFC0020FEF7BCFC0020FEF7B9FC6B
:102E20000020FEF7B6FC0020FEF7B3FCE120FEF721
:102E300091FC0020FEF7ADFC1520FEF7AAFC172040
:102E4000FEF7A7FC0720FEF7A4FC1120FEF7A1FC6B
:102E50000620FEF79EFC2B20FEF79BFC5620FEF77B
:102E600098FC3C20FEF795FC0520FEF792FC102014
:102E700010E0000000100140A0080020000C0140FC
:102E800000023000204C43442049443A25780D0A82
:102E900000000000FEF77DFC0F20FEF77AFC3F20CB
:102EA000FEF777FC3F20FEF774FC0F20FEF771FC65
:102EB0002B20FEF74FFC0020FEF76BFC0020FEF7F6
:102EC00068FC0120FEF765FC3F20FEF762FC2A202B
:102ED000FEF740FC0020FEF75CFC0020FEF759FCEA
:102EE0000020FEF756FCEF20FEF753FC1120FEF702
:102EF00031FCA5E040457CD11120FEF72BFC1420CD
:102F000005F09EF8D020FEF725FC0720FEF741FCD7
:102F10004220FEF73EFC1D20FEF73BFCD120FEF7D1
:102F200019FC0020FEF735FC1A20FEF732FC0920C0
:102F3000FEF72FFCD220FEF70DFC0120FEF729FC46
:102F40002220FEF726FCC020FEF704FC1020FEF72E
:102F500020FC3B20FEF71DFC0020FEF71AFC02209F
:102F6000FEF717FC1120FEF714FCC520FEF7F2FB5C
:102F70000320FEF70EFCC820FEF7ECFB0020FEF756
:102F800008FC2520FEF705FC2120FEF702FC0520A9
:102F9000FEF7FFFB0020FEF7FCFB0A20FEF7F9FB23
:102FA0006520FEF7F6FB2520FEF7F3FB7720FEF702
:102FB000F0FB5020FEF7EDFB0F20FEF7EAFB0020B0
:102FC000FEF7E7FBF820FEF7C5FB0120FEF7E1FB6B
:102FD000FE20FEF7BFFB0020FEF7DBFB0220FEF722
:102FE000D8FB2020FEF7B6FB3620FEF7B3FB082007
:102FF00000E02BE0FEF7CDFB3A20FEF7ABFB5520BF
:10300000FEF7C7FB2B20FEF7A5FB0020FEF7C1FB58
:103010000020FEF7BEFB0120FEF7BBFB3F20FEF7C2
:10302000B8FB2A20FEF796FB0020FEF7B2FB00203B
:10303000FEF7AFFB0120FEF7ACFBDF20FEF7A9FB9C
:10304000782004F0FDFF292001F0FCBE48457CD12A
:10305000ED20FEF77FFB0120FEF79BFBFE20FEF735
:1030600098FBEE20FEF776FBDE20FEF792FB212098
:10307000FEF78FFBF120FEF76DFB0120FEF789FBC9
:10308000DF20FEF767FB1020FEF783FBC420FEF76E
:1030900061FB8F20FEF77DFBC620FEF75BFB002067
:1030A000FEF777FBE220FEF774FBE220FEF771FBF0
:1030B000E220FEF76EFBBF20FEF74CFBAA20FEF7D6
:1030C00068FBB020FEF746FB0D20FEF762FB0020F8
:1030D000FEF75FFB0D20FEF75CFB0020FEF759FBBF
:1030E0001120FEF756FB0020FEF753FB1920FEF7D8
:1030F00050FB0020FEF74DFB2120FEF74AFB00208D
:10310000FEF747FB2D20FEF744FB0020FEF741FBB6
:103110003D20FEF73EFB0020FEF73BFB5D20FEF767
:1031200038FB0020FEF735FB5D20FEF732FB002068
:10313000FEF72FFBB120FEF70DFB8020FEF729FBE9
:103140000020FEF726FB8B2000E0FCE3FEF721FBCE
:103150000020FEF71EFB9620FEF71BFB0020FEF76B
:1031600018FBB220FEF7F6FA0020FEF712FB002053
:10317000FEF70FFB0220FEF70CFB0020FEF709FB19
:103180000320FEF706FB0020FEF703FBB320FEF74B
:10319000E1FA0020FEF7FDFA0020FEF7FAFA00201F
:1031A000FEF7F7FA0020FEF7F4FA0020FEF7F1FA36
:1031B0000020FEF7EEFA0020FEF7EBFA0020FEF703
:1031C000E8FA0020FEF7E5FA0020FEF7E2FA002018
:1031D000FEF7DFFA0020FEF7DCFA0020FEF7D9FA4E
:1031E0000020FEF7D6FA0020FEF7D3FA0020FEF703
:1031F000D0FA0020FEF7CDFA0020FEF7CAFA002030
:10320000FEF7C7FA0020FEF7C4FA0020FEF7C1FA65
:103210000020FEF7BEFA0020FEF7BBFA0020FEF702
:10322000B8FAB420FEF796FA8B20FEF7B2FA002027
:10323000FEF7AFFA9620FEF7ACFA0020FEF7A9FAE7
:10324000A120FEF7A6FA0020FEF7A3FAB520FEF7AC
:1032500081FA0220FEF79DFA0020FEF79AFA032079
:10326000FEF797FA0020FEF794FA0420FEF791FA91
:103270000020FEF78EFAB620FEF76CFA0020FEF76B
:1032800088FA0020FEF785FAB720FEF763FA0020DF
:10329000FEF77FFA0020FEF77CFA3F20FEF779FA6E
:1032A0000020FEF776FA5E20FEF773FA0020FEF7A4
:1032B00070FA6420FEF76DFA0020FEF76AFA8C209F
:1032C000FEF767FA0020FEF764FAAC20FEF761FA19
:1032D0000020FEF75EFADC20FEF75BFA0020FEF726
:1032E00058FA7020FEF755FA0020FEF752FA9020A7
:1032F000FEF74FFA0020FEF74CFAEB20FEF749FAF2
:103300000020FEF746FADC20FEF743FA0020FEF725
:1033100040FAB820FEF71EFA0020FEF73AFA002025
:10332000FEF737FA0020FEF734FA0020FEF731FAF4
:103330000020FEF72EFA0020FEF72BFA0020FEF701
:1033400028FA0020FEF725FABA20FEF703FA242017
:10335000FEF71FFA0020FEF71CFA0020FEF719FA0C
:103360000020FEF716FAC120FEF7F4F92020FEF740
:1033700010FA0020FEF70DFA5420FEF70AFA00209A
:10338000FEF707FAFF20FEF704FA0020FEF701FA25
:10339000C220FEF7DFF90A20FEF7FBF90020FEF756
:1033A000F8F90420FEF7F5F90020FEF7F2F9C32042
:1033B000FEF7D0F93C20FEF7ECF90020FEF7E9F922
:1033C0003A20FEF7E6F90020FEF7E3F93920FEF790
:1033D000E0F90020FEF7DDF93720FEF7DAF90020EA
:1033E000FEF7D7F93C20FEF7D4F90020FEF7D1F91B
:1033F0003620FEF7CEF90020FEF7CBF93220FEF79B
:10340000C8F90020FEF7C5F92F20FEF7C2F9002009
:10341000FEF7BFF92C20FEF7BCF90020FEF7B9F942
:103420002920FEF7B6F90020FEF7B3F92620FEF7B3
:10343000B0F90020FEF7ADF92420FEF7AAF900202C
:10344000FEF7A7F92420FEF7A4F90020FEF7A1F962
:103450002320FEF79EF90020FEF79BF93C20FEF7A3
:1034600098F90020FEF795F93620FEF792F9002032
:10347000FEF78FF93220FEF78CF90020FEF789F96C
:103480002F20FEF786F90020FEF783F92C20FEF7A7
:1034900080F90020FEF77DF92920FEF77AF9002057
:1034A000FEF777F92620FEF774F90020FEF771F990
:1034B0002420FEF76EF90020FEF76BF92420FEF7BA
:1034C00068F90020FEF765F92320FEF762F9002075
:1034D000FEF75FF9C420FEF73DF96220FEF759F9C7
:1034E0000020FEF756F90520FEF753F90020FEF7FD
:1034F00050F98420FEF74DF90020FEF74AF9F0203C
:10350000FEF747F90020FEF744F91820FEF741F9CD
:103510000020FEF73EF9A420FEF73BF90020FEF75D
:1035200038F91820FEF735F90020FEF732F950205F
:10353000FEF72FF90020FEF72CF90C20FEF729F9F1
:103540000020FEF726F91720FEF723F90020FEF7EA
:1035500020F99520FEF71DF90020FEF71AF9F32057
:10356000FEF717F90020FEF714F9E620FEF711F92F
:103570000020FEF70EF9C520FEF7ECF83220FEF72A
:1035800008F90020FEF705F94420FEF702F90020B3
:10359000FEF7FFF86520FEF7FCF80020FEF7F9F8CB
:1035A0007620FEF7F6F80020FEF7F3F88820FEF705
:1035B000F0F80020FEF7EDF8C620FEF7CBF820204B
:1035C000FEF7E7F80020FEF7E4F81720FEF7E1F831
:1035D0000020FEF7DEF80120FEF7DBF80020FEF702
:1035E000D8F8C720FEF7B6F80020FEF7D2F8002082
:1035F000FEF7CFF80020FEF7CCF80020FEF7C9F860
:10360000C820FEF7A7F80020FEF7C3F80020FEF759
:10361000C0F80020FEF7BDF80020FEF7BAF8C92078
:10362000FEF798F80020FEF7B4F80020FEF7B1F896
:103630000020FEF7AEF80020FEF7ABF80020FEF702
:10364000A8F80020FEF7A5F80020FEF7A2F8002059
:10365000FEF79FF80020FEF79CF80020FEF799F88F
:103660000020FEF796F80020FEF793F80020FEF702
:1036700090F80020FEF78DF80020FEF78AF8002071
:10368000FEF787F8E020FEF765F81620FEF781F8D0
:103690000020FEF77EF81C20FEF77BF80020FEF7E6
:1036A00078F82120FEF775F80020FEF772F8362032
:1036B000FEF76FF80020FEF76CF84620FEF769F879
:1036C0000020FEF766F85220FEF763F80020FEF7B0
:1036D00060F86420FEF75DF80020FEF75AF87A20C3
:1036E000FEF757F80020FEF754F88B20FEF751F84C
:1036F0000020FEF74EF89920FEF74BF80020FEF769
:1037000048F8A820FEF745F80020FEF742F8B92057
:10371000FEF73FF80020FEF73CF8C420FEF739F82A
:103720000020FEF736F8CA20FEF733F80020FEF737
:1037300030F8D220FEF72DF80020FEF72AF8D92025
:10374000FEF727F80020FEF724F8E020FEF721F826
:103750000020FEF71EF8F320FEF71BF80020FEF70E
:1037600018F8E120FDF7F6FF1620FEF712F800200A
:10377000FEF70FF81C20FEF70CF80020FEF709F802
:103780002220FEF706F80020FEF703F83620FEF7A9
:1037900000F80020FDF7FDFF4520FDF7FAFF0020AF
:1037A000FDF7F7FF5220FDF7F4FF0020FDF7F1FFD2
:1037B0006420FDF7EEFF0020FDF7EBFF7A20FDF718
:1037C000E8FF0020FDF7E5FF8B20FDF7E2FF00207A
:1037D000FDF7DFFF9920FDF7DCFF0020FDF7D9FFA3
:1037E000A820FDF7D6FF0020FDF7D3FFB920FDF795
:1037F000D0FF0020FDF7CDFFC420FDF7CAFF002059
:10380000FDF7C7FFCA20FDF7C4FF0020FDF7C1FF89
:10381000D220FDF7BEFF0020FDF7BBFFD820FDF74B
:10382000B8FF0020FDF7B5FFE020FDF7B2FF002054
:10383000FDF7AFFFF320FDF7ACFF0020FDF7A9FF78
:10384000E220FDF787FF0520FDF7A3FF0020FDF72D
:10385000A0FF0B20FDF79DFF0020FDF79AFF1B2026
:10386000FDF797FF0020FDF794FF3420FDF791FF4F
:103870000020FDF78EFF4420FDF78BFF0020FDF7B1
:1038800088FF4F20FDF785FF0020FDF782FF6120B4
:10389000FDF77FFF0020FDF77CFF7920FDF779FF22
:1038A0000020FDF776FF8820FDF773FF0020FDF76D
:1038B00070FF9720FDF76DFF0020FDF76AFFA6203F
:1038C000FDF767FF0020FDF764FFB720FDF761FFFC
:1038D0000020FDF75EFFC220FDF75BFF0020FDF733
:1038E00058FFC720FDF755FF0020FDF752FFD120FC
:1038F000FDF74FFF0020FDF74CFFD620FDF749FFF5
:103900000020FDF746FFDD20FDF743FF0020FDF717
:1039100040FFF320FDF73DFF0020FDF73AFFE320D5
:10392000FDF718FF0520FDF734FF0020FDF731FFFC
:103930000A20FDF72EFF0020FDF72BFF1C20FDF7CE
:1039400028FF002000E0FDE2FDF723FF3320FDF714
:1039500020FF0020FDF71DFF4420FDF71AFF002087
:10396000FDF717FF5020FDF714FF0020FDF711FFB2
:103970006220FDF70EFF0020FDF70BFF7820FDF71A
:1039800008FF0020FDF705FF8820FDF702FF00205B
:10399000FDF7FFFE9720FDF7FCFE0020FDF7F9FE86
:1039A000A620FDF7F6FE0020FDF7F3FEB720FDF799
:1039B000F0FE0020FDF7EDFEC220FDF7EAFE00203C
:1039C000FDF7E7FEC720FDF7E4FE0020FDF7E1FE6E
:1039D000D120FDF7DEFE0020FDF7DBFED520FDF750
:1039E000D8FE0020FDF7D5FEDD20FDF7D2FE002039
:1039F000FDF7CFFEF320FDF7CCFE0020FDF7C9FE5A
:103A0000E420FDF7A7FE0120FDF7C3FE0020FDF72F
:103A1000C0FE0120FDF7BDFE0020FDF7BAFE02202A
:103A2000FDF7B7FE0020FDF7B4FE2A20FDF7B1FE3A
:103A30000020FDF7AEFE3C20FDF7ABFE0020FDF7B9
:103A4000A8FE4B20FDF7A5FE0020FDF7A2FE5D209D
:103A5000FDF79FFE0020FDF79CFE7420FDF799FE08
:103A60000020FDF796FE8420FDF793FE0020FDF771
:103A700090FE9320FDF78DFE0020FDF78AFEA22028
:103A8000FDF787FE0020FDF784FEB320FDF781FEE1
:103A90000020FDF77EFEBE20FDF77BFE0020FDF737
:103AA00078FEC420FDF775FE0020FDF772FECD20E4
:103AB000FDF76FFE0020FDF76CFED320FDF769FED9
:103AC0000020FDF766FEDD20FDF763FE0020FDF718
:103AD00060FEF320FDF75DFE0020FDF75AFEE520B5
:103AE000FDF738FE0020FDF754FE0020FDF751FEE3
:103AF0000020FDF74EFE0020FDF74BFE0220FDF7F3
:103B000048FE0020FDF745FE2920FDF742FE00207B
:103B1000FDF73FFE3C20FDF73CFE0020FDF739FE9F
:103B20004B20FDF736FE0020FDF733FE5D20FDF74C
:103B300030FE0020FDF72DFE7420FDF72AFE002048
:103B4000FDF727FE8420FDF724FE0020FDF721FE6F
:103B50009320FDF71EFE0020FDF71BFEA220FDF7BF
:103B600018FE0020FDF715FEB320FDF712FE002021
:103B7000FDF70FFEBE20FDF70CFE0020FDF709FE4D
:103B8000C420FDF706FE0020FDF703FECD20FDF763
:103B900000FE0020FDF7FDFDD320FDF7FAFD00201B
:103BA000FDF7F7FDDC20FDF7F4FD0020FDF7F1FD4A
:103BB000F320FDF7EEFD0020FDF7EBFDE620FDF71D
:103BC000C9FD1120FDF7E5FD0020FDF7E2FD3420E1
:103BD000FDF7DFFD0020FDF7DCFD5620FDF7D9FDE8
:103BE0000020FDF7D6FD7620FDF7D3FD0020FDF780
:103BF000D0FD7720FDF7CDFD0020FDF7CAFD662042
:103C0000FDF7C7FD0020FDF7C4FD8820FDF7C1FDCD
:103C10000020FDF7BEFD9920FDF7BBFD0020FDF75C
:103C2000B8FDBB20FDF7B5FD0020FDF7B2FD9920E2
:103C3000FDF7AFFD0020FDF7ACFD6620FDF7A9FD07
:103C40000020FDF7A6FD5520FDF7A3FD0020FDF7A0
:103C5000A0FD5520FDF79DFD0020FDF79AFD4520B4
:103C6000FDF797FD0020FDF794FD4320FDF791FD42
:103C70000020FDF78EFD4420FDF78BFD0020FDF7B1
:103C800088FDE720FDF766FD3220FDF782FD00206C
:103C9000FDF77FFD5520FDF77CFD0020FDF779FD48
:103CA0007620FDF776FD0020FDF773FD6620FDF719
:103CB00070FD0020FDF76DFD6720FDF76AFD002017
:103CC000FDF767FD6720FDF764FD0020FDF761FD4E
:103CD0008720FDF75EFD0020FDF75BFD9920FDF7D5
:103CE00058FD0020FDF755FDBB20FDF752FD0020DB
:103CF000FDF74FFD9920FDF74CFD0020FDF749FD34
:103D00007720FDF746FD0020FDF743FD4420FDF739
:103D100040FD0020FDF73DFD5620FDF73AFD002057
:103D2000FDF737FD2320FDF734FD0020FDF731FDC1
:103D30003320FDF72EFD0020FDF72BFD4520FDF77C
:103D400028FD0020FDF725FDE820FDF703FD0020FC
:103D5000FDF71FFD0020FDF71CFD9920FDF719FD63
:103D60000020FDF716FD8720FDF713FD0020FDF76D
:103D700010FD8820FDF70DFD0020FDF70AFD7720DE
:103D8000FDF707FD0020FDF704FD6620FDF701FDAE
:103D90000020FDF7FEFC8820FDF7FBFC0020FDF76E
:103DA000F8FCAA20FDF7F5FC0020FDF7F2FCBB2093
:103DB000FDF7EFFC0020FDF7ECFC9920FDF7E9FC96
:103DC0000020FDF7E6FC6620FDF7E3FC0020FDF790
:103DD000E0FC5520FDF7DDFC0020FDF7DAFC552066
:103DE000FDF7D7FC0020FDF7D4FC4420FDF7D1FC03
:103DF0000020FDF7CEFC4420FDF7CBFC0020FDF7B2
:103E0000C8FC5520FDF7C5FC0020FDF7C2FCE920E9
:103E1000FDF7A0FCAA20FDF7BCFC0020FDF7B9FCD3
:103E20000020FDF7B6FC0020FDF7B3FC0020FDF7F5
:103E300091FCAA20FDF7ADFCCF20FDF78BFC002004
:103E4000FDF7A7FC0020FDF7A4FC0020FDF7A1FC76
:103E50000020FDF79EFC0020FDF79BFC0020FDF7F5
:103E600098FC0020FDF795FC0020FDF792FC002057
:103E7000FDF78FFC0020FDF78CFC0020FDF789FC8E
:103E80000020FDF786FC0020FDF783FC0020FDF7F5
:103E900080FC0020FDF77DFC0020FDF77AFC00206F
:103EA000FDF777FCF020FDF755FC0020FDF771FCD5
:103EB0005020FDF76EFC0020FDF76BFC0020FDF7A5
:103EC00068FC0020FDF765FCF320FDF743FC0020B3
:103ED000FDF75FFCF920FDF73DFC0620FDF759FCDE
:103EE0001020FDF756FC2920FDF753FC0020FDF7BC
:103EF00050FC3A20FDF72EFC5520FDF74AFC11201E
:103F0000FDF728FC642004F09BF82920FDF722FC33
:103F10003520FDF71FFC0020FDF73BFC5120FDF78D
:103F200019FCFF20FDF735FC5320FDF713FC2C2076
:103F3000FDF72FFC5520FDF70DFC8220FDF729FC35
:103F40002C20FCE3B8427DD14FF47044552120462B
:103F5000FDF778FC661CAA213046FDF773FCA71C10
:103F600052213846FDF76EFC4FF203080821404607
:103F7000FDF768FC4FF2040901214846FDF762FC99
:103F80000D214FF43040FDF75DFC0D214BF2010097
:103F9000FDF758FC0D214BF20200FDF753FC4FF4E6
:103FA000364A34215046FDF74DFC34214BF2016076
:103FB000FDF748FC34214BF20260FDF743FC4FF45F
:103FC000314B0D215846FDF73DFC0D214BF2011000
:103FD000FDF738FC0D214BF20210FDF733FC3421C4
:103FE0004FF43740FDF72EFC34214BF20170FDF702
:103FF00029FC34214BF20270FDF724FC00214FF420
:104000003240FDF71FFC00214BF20120FDF71AFCA6
:1040100000214BF20220FDF715FC24214FF438401B
:10402000FDF710FC24214BF60100FDF70BFC2421C9
:104030004BF60200FDF706FC01214FF43F40FDF76F
:1040400001FC00E0FEE30F214FF43340FDF7FAFBE3
:104050000F214BF20130FDF7F5FB0F214BF202303F
:10406000FDF7F0FB34214FF43940FDF7EBFB342131
:104070004BF60110FDF7E6FB34214BF60210FDF77D
:10408000E1FB08214FF43540FDF7DCFB08214BF242
:104090000150FDF7D7FB08214BF20250FDF7D2FB90
:1040A00003214FF44240FDF7CDFB24214FF43A4069
:1040B000FDF7C8FB24214BF60120FDF7C3FB2421AB
:1040C0004BF60220FDF7BEFB00214FF43C40FDF70C
:1040D000B9FB78214BF60140FDF7B4FB00214BF60C
:1040E0000240FDF7AFFB00214FF43D40FDF7AAFB76
:1040F00078214BF60150FDF7A5FB00214BF602504D
:10410000FDF7A0FB00214FF43E40FDF79BFB64212F
:104110004BF60160FDF796FB00214FF45140FDF78F
:1041200091FB33214DF20110FDF78CFB00214DF284
:104130000210FDF787FB34214DF20310FDF782FBDF
:1041400000214DF20410FDF77DFB3A214DF20510E0
:10415000FDF778FB00214DF20610FDF773FB4A21B5
:104160004DF20710FDF76EFB00214DF20810FDF730
:1041700069FB5C214DF20910FDF764FB00214DF253
:104180000A10FDF75FFB81214DF20B10FDF75AFB82
:1041900000214DF20C10FDF755FBA6214DF20D103C
:1041A000FDF750FB00214DF20E10FDF74BFBE52112
:1041B0004DF20F10FDF746FB01214DF21010FDF7F7
:1041C00041FB13214DF21110FDF73CFB01214DF293
:1041D0001210FDF737FB54214DF21310FDF732FB9F
:1041E00001214DF21410FDF72DFB82214DF2151027
:1041F000FDF728FB01214DF21610FDF723FBCA2124
:104200004DF21710FDF71EFB02214DF21810FDF7BD
:1042100019FB00214DF21910FDF714FB02214DF29C
:104220001A10FDF70FFB01214DF21B10FDF70AFBE1
:1042300002214DF21C10FDF705FB34214DF21D103B
:10424000FDF700FB02214DF21E10FDF7FBFA67217E
:104250004DF21F10FDF7F6FA02214DF22010FDF786
:10426000F1FA84214DF22110FDF7ECFA02214DF212
:104270002210FDF7E7FAA4214DF22310FDF7E2FA30
:1042800002214DF22410FDF7DDFAB7214DF2251081
:10429000FDF7D8FA02214DF22610FDF7D3FACF210F
:1042A0004DF22710FDF7CEFA02214DF22810FDF74E
:1042B000C9FADE214DF22910FDF7C4FA02214DF2B0
:1042C0002A10FDF7BFFAF2214DF22B10FDF7BAFAD2
:1042D00002214DF22C10FDF7B5FAFE214DF22D1002
:1042E000FDF7B0FA03214DF22E10FDF7ABFA1021C5
:1042F0004DF22F10FDF7A6FA03214DF23010FDF715
:10430000A1FA33214DF23110FDF79CFA03214DF251
:104310003210FDF797FA6D214DF23310FDF792FA46
:1043200000214FF45240FDF78DFA33214DF2012068
:10433000FDF788FA00214DF20220FDF783FA3421BF
:104340004DF20320FDF77EFA00214DF20420FDF727
:1043500079FA3A214DF20520FDF774FA00214DF269
:104360000620FDF76FFA4A214DF20720FDF76AFAA1
:1043700000214DF20820FDF765FA5C214DF209207D
:10438000FDF760FA00214DF20A20FDF75BFA81216A
:104390004DF20B20FDF756FA00214DF20C20FDF7EF
:1043A00051FAA6214DF20D20FDF74CFA00214DF2F5
:1043B0000E20FDF747FAE5214DF20F20FDF742FAF6
:1043C00001214DF21020FDF73DFA13214DF211208D
:1043D000FDF738FA01214DF21220FDF733FA54218E
:1043E0004DF21320FDF72EFA01214DF21420FDF7B6
:1043F00029FA82214DF21520FDF724FA01214DF210
:104400001620FDF71FFACA214DF21720FDF71AFA00
:1044100002214DF21820FDF715FA00214DF2192066
:10442000FDF710FA02214DF21A20FDF70BFA0121D7
:104430004DF21B20FDF706FA02214DF21C20FDF77C
:1044400001FA34214DF21D20FDF7FCF902214DF255
:104450001E20FDF7F7F967214DF21F20FDF7F2F955
:1044600002214DF22020FDF7EDF984214DF22120AB
:10447000FDF7E8F902214DF22220FDF7E3F9A4212E
:104480004DF22320FDF7DEF902214DF22420FDF745
:10449000D9F9B7214DF22520FDF7D4F902214DF2CB
:1044A0002620FDF7CFF9CF214DF22720FDF7CAF9DD
:1044B00002214DF22820FDF7C5F9DE214DF2292019
:1044C000FDF7C0F902214DF22A20FDF7BBF9F221D8
:1044D0004DF22B20FDF7B6F902214DF22C20FDF70D
:1044E000B1F9FE214DF22D20FDF7ACF903214DF27B
:1044F0002E20FDF7A7F910214DF22F20FDF7A2F98C
:1045000003214DF23020FDF79DF933214DF231208A
:10451000FDF798F903214DF23220FDF793F96D2153
:104520004DF23320FDF78EF900214FF45340FDF793
:1045300089F933214DF20130FDF784F900214DF264
:104540000230FDF77FF934214DF20330FDF77AF99F
:1045500000214DF20430FDF775F93A214DF2053096
:10456000FDF770F900214DF20630FDF76BF94A2195
:104570004DF20730FDF766F900214DF20830FDF7E6
:1045800061F95C214DF20930FDF75CF900214DF233
:104590000A30FDF757F981214DF20B30FDF752F942
:1045A00000214DF20C30FDF74DF9A6214DF20D30F2
:1045B000FDF748F900214DF20E30FDF743F9E521F2
:1045C0004DF20F30FDF73EF901214DF21030FDF7AD
:1045D00039F913214DF21130FDF734F901214DF273
:1045E0001230FDF72FF954214DF21330FDF72AF95F
:1045F00001214DF21430FDF725F982214DF21530DD
:10460000FDF720F901214DF21630FDF71BF9CA2103
:104610004DF21730FDF716F902214DF21830FDF773
:1046200011F900214DF21930FDF70CF902214DF27C
:104630001A30FDF707F901214DF21B30FDF702F9A1
:1046400002214DF21C30FDF7FDF834214DF21D30F2
:10465000FDF7F8F802214DF21E30FDF7F3F867215F
:104660004DF21F30FDF7EEF802214DF22030FDF73C
:10467000E9F884214DF22130FDF7E4F802214DF2F2
:104680002230FDF7DFF8A4214DF22330FDF7DAF8F0
:1046900002214DF22430FDF7D5F8B7214DF2253037
:1046A000FDF7D0F802214DF22630FDF7CBF8CF21EF
:1046B0004DF22730FDF7C6F802214DF22830FDF704
:1046C000C1F8DE214DF22930FDF7BCF802214DF290
:1046D0002A30FDF7B7F8F2214DF22B30FDF7B2F892
:1046E00002214DF22C30FDF7ADF8FE214DF22D30B8
:1046F000FDF7A8F803214DF22E30FDF7A3F81021A5
:104700004DF22F30FDF79EF803214DF23030FDF7CA
:1047100099F833214DF23130FDF794F803214DF231
:104720003230FDF78FF86D214DF23330FDF78AF806
:1047300000214FF45440FDF785F8332100E081E378
:104740004DF20140FDF77EF800214DF20240FDF7E9
:1047500079F834214DF20340FDF774F800214DF251
:104760000440FDF76FF83A214DF20540FDF76AF875
:1047700000214DF20640FDF765F84A214DF2074051
:10478000FDF760F800214DF20840FDF75BF85C2171
:104790004DF20940FDF756F800214DF20A40FDF7B1
:1047A00051F881214DF20B40FDF74CF800214DF2FC
:1047B0000C40FDF747F8A6214DF20D40FDF742F8F9
:1047C00000214DF20E40FDF73DF8E5214DF20F407E
:1047D000FDF738F801214DF21040FDF733F81321B1
:1047E0004DF21140FDF72EF801214DF21240FDF778
:1047F00029F854214DF21340FDF724F801214DF220
:104800001440FDF71FF882214DF21540FDF71AF80C
:1048100001214DF21640FDF715F8CA214DF217405F
:10482000FDF710F802214DF21840FDF70BF80021BA
:104830004DF21940FDF706F802214DF21A40FDF73E
:1048400001F800E001E301214DF21B40FCF7FAFF03
:1048500002214DF21C40FCF7F5FF34214DF21D40C2
:10486000FCF7F0FF02214DF21E40FCF7EBFF672141
:104870004DF21F40FCF7E6FF02214DF22040FCF70D
:10488000E1FF84214DF22140FCF7DCFF02214DF2D3
:104890002240FCF7D7FFA4214DF22340FCF7D2FFC2
:1048A00002214DF22440FCF7CDFFB7214DF2254007
:1048B000FCF7C8FF02214DF22640FCF7C3FFCF21D1
:1048C0004DF22740FCF7BEFF02214DF22840FCF7D5
:1048D000B9FFDE214DF22940FCF7B4FF02214DF271
:1048E0002A40FCF7AFFFF2214DF22B40FCF7AAFF64
:1048F00002214DF22C40FCF7A5FFFE214DF22D4088
:10490000FCF7A0FF03214DF22E40FCF79BFF102186
:104910004DF22F40FCF796FF03214DF23040FCF79B
:1049200091FF33214DF23140FCF78CFF03214DF212
:104930003240FCF787FF6D214DF23340FCF782FFD8
:1049400000214FF45540FCF77DFF33214DF201501B
:10495000FCF778FF00214DF20250FCF773FF342181
:104960004DF20350FCF76EFF00214DF20450FCF7AE
:1049700069FF3A214DF20550FCF764FF00214DF22A
:104980000650FCF75FFF4A214DF20750FCF75AFF33
:1049900000214DF20850FCF755FF5C214DF2095003
:1049A000FCF750FF00214DF20A50FCF74BFF81212C
:1049B0004DF20B50FCF746FF00214DF20C50FCF776
:1049C00041FFA6214DF20D50FCF73CFF00214DF2B6
:1049D0000E50FCF737FFE5214DF20F50FCF732FF88
:1049E00001214DF21050FCF72DFF13214DF2115013
:1049F000FCF728FF01214DF21250FCF723FF542150
:104A00004DF21350FCF71EFF01214DF21450FCF73C
:104A100019FF82214DF21550FCF714FF01214DF2D0
:104A20001650FCF70FFFCA214DF21750FCF70AFF92
:104A300002214DF21850FCF705FF00214DF21950EC
:104A4000FCF700FF02214DF21A50FCF7FBFE01219A
:104A50004DF21B50FCF7F6FE02214DF21C50FCF704
:104A6000F1FE34214DF21D50FCF7ECFE02214DF217
:104A70001E50FCF7E7FE67214DF21F50FCF7E2FEE7
:104A800002214DF22050FCF7DDFE84214DF2215031
:104A9000FCF7D8FE02214DF22250FCF7D3FEA421F0
:104AA0004DF22350FCF7CEFE02214DF22450FCF7CC
:104AB000C9FEB7214DF22550FCF7C4FE02214DF28C
:104AC0002650FCF7BFFECF214DF22750FCF7BAFE6F
:104AD00002214DF22850FCF7B5FEDE214DF229509F
:104AE000FCF7B0FE02214DF22A50FCF7ABFEF2219A
:104AF0004DF22B50FCF7A6FE02214DF22C50FCF794
:104B0000A1FEFE214DF22D50FCF79CFE03214DF23B
:104B10002E50FCF797FE10214DF22F50FCF792FE1D
:104B200003214DF23050FCF78DFE33214DF2315010
:104B3000FCF788FE03214DF23250FCF783FE6D2115
:104B40004DF23350FCF77EFE00214FF45640FCF747
:104B500079FE33214DF20160FCF774FE00214DF225
:104B60000260FCF76FFE34214DF20360FCF76AFE31
:104B700000214DF20460FCF765FE3A214DF205601C
:104B8000FCF760FE00214DF20660FCF75BFE4A2157
:104B90004DF20760FCF756FE00214DF20860FCF76D
:104BA00051FE5C214DF20960FCF74CFE00214DF2F4
:104BB0000A60FCF747FE81214DF20B60FCF742FED4
:104BC00000214DF20C60FCF73DFEA6214DF20D6078
:104BD000FCF738FE00214DF20E60FCF733FEE521B4
:104BE0004DF20F60FCF72EFE01214DF21060FCF734
:104BF00029FE13214DF21160FCF724FE01214DF234
:104C00001260FCF71FFE54214DF21360FCF71AFEF0
:104C100001214DF21460FCF715FE82214DF2156062
:104C2000FCF710FE01214DF21660FCF70BFECA21C5
:104C30004DF21760FCF706FE02214DF21860FCF7FA
:104C400001FE00214DF21960FCF7FCFD02214DF23E
:104C50001A60FCF7F7FD01214DF21B60FCF7F2FD35
:104C600002214DF21C60FCF7EDFD34214DF21D6078
:104C7000FCF7E8FD02214DF21E60FCF7E3FD672121
:104C80004DF21F60FCF7DEFD02214DF22060FCF7C3
:104C9000D9FD84214DF22160FCF7D4FD02214DF2B3
:104CA0002260FCF7CFFDA4214DF22360FCF7CAFD82
:104CB00002214DF22460FCF7C5FDB7214DF22560BD
:104CC000FCF7C0FD02214DF22660FCF7BBFDCF21B1
:104CD0004DF22760FCF7B6FD02214DF22860FCF78B
:104CE000B1FDDE214DF22960FCF7ACFD02214DF251
:104CF0002A60FCF7A7FDF2214DF22B60FCF7A2FD24
:104D000002214DF22C60FCF79DFDFE214DF22D603D
:104D1000FCF798FD03214DF22E60FCF793FD102166
:104D20004DF22F60FCF78EFD03214DF23060FCF751
:104D300089FD33214DF23160FCF784FD03214DF2F2
:104D40003260FCF77FFD6D214DF23360FCF77AFD98
:104D500055212046FCF776FDAA213046FCF772FD6E
:104D600052213846FCF76EFD08214046FCF76AFDEB
:104D700000214846FCF766FDCC215846FCF762FD51
:104D800000214BF20110FCF75DFD05215046FCF7B8
:104D900059FD70214FF43740FCF754FD70214BF260
:104DA0000170FCF74FFD01214FF43840FCF74AFD3C
:104DB00003214BF60100FCF745FD03214BF60200F1
:104DC000FCF740FD03214BF60300FCF73BFD0221FD
:104DD0004FF43C40FCF736FD00214BF60140FCF758
:104DE00031FD00214BF60240FCF72CFDD0214FF4A1
:104DF0004940FCF727FD02214CF60110FCF722FD8B
:104E000050214CF60210FCF71DFD50214CF603100A
:104E1000FCF718FD50214CF60410FCF713FD00219F
:104E20004FF45450FCF70EFD55214FF46850FCF739
:104E300009FD4FF48850FCF78DFC782003F0E9F869
:104E40004FF42450FCF786FCFEE3A0F513414FF429
:104E500080744FF4E06840F2022940F23F164FF4AC
:104E6000274B253924D04FF4017A40F20777C91E29
:104E70007ED04FF41C5B08317BD011397AD0A0F57D
:104E8000A841083977D0A0F5A851053974D0B1F5FB
:104E9000204172D0B1F5805170D0A0F50941893917
:104EA0006DD0A0F58A4131396AD0091F69D0CBE7AE
:104EB00047F6F001E520FCF7C5FC21460120FCF790
:104EC000C1FC41460220FCF7BDFC41F23001032049
:104ED000FCF7B8FC00210420FCF7B4FC494608208C
:104EE000FCF7B0FC00210920FCF7ACFC00210A20F3
:104EF000FCF7A8FC00210C20FCF7A4FC00210D20ED
:104F0000FCF7A0FC00210F20FCF79CFC00211020E6
:104F1000FCF798FC07211120FCF794FC00211220DB
:104F2000FCF790FC00211320FCF78CFC00210720EB
:104F3000FCF788FC41F290611020FCF783FC40F202
:104F400027211120FCF77EFC9D211220FCF77AFC22
:104F50004FF4C8511320FCF775FC25212920FCF7DC
:104F600071FC0D212B20FCF76DFC0721302009E09E
:104F700074E01DE1C1E193E22EE3FDE3FDE3FDE317
:104F8000FDE3FDE3FCF75EFC40F203313120FCF76A
:104F900059FC03213220FCF755FC40F20621352054
:104FA000FCF750FC08213620FCF74CFC40F206418F
:104FB0003720FCF747FC4FF441713820FCF742FCE6
:104FC00007213920FCF73EFC40F202613C20FCF74F
:104FD00039FC08213D20FCF735FC00215020FCF76E
:104FE00031FCEF215120FCF72DFC00215220FCF771
:104FF00029FC31465320FCF725FC59466020FCF77C
:1050000021FC01216120FCF71DFC00216A20FCF736
:1050100019FC00218020FCF715FC00218120FCF701
:1050200011FC00218220FCF70DFC00218320FCF7FD
:1050300009FC00218420FCF705FC00218520FCF7F9
:1050400001FC10219020FCF7FDFB4FF4C061922081
:10505000FCF7F8FB40F233110720FCE341F28F012B
:10506000EC20FCF7EFFB41F23421EF20FCF7EAFBE8
:1050700021460120FCF7E6FB41460220FCF7E2FB5B
:1050800041F230010320FCF7DDFB00210420FCF796
:10509000D9FB49460820FCF7D5FB00210920FCF785
:1050A000D1FB00210A20FCF7CDFB01210C20FCF7ED
:1050B000C9FB00210D20FCF7C5FB00210F20FCF7E8
:1050C000C1FB00211020FCF7BDFB07211120FCF7DC
:1050D000B9FB00211220FCF7B5FB00211320FCF7DF
:1050E000B1FB01210720FCF7ADFB322002F0A8FF45
:1050F00041F290411020FCF7A5FB40F2272111203E
:10510000FCF7A0FB322002F09BFF8A211220FCF763
:1051100099FB322002F094FF4FF4D0511320FCF79A
:1051200091FB06212920FCF78DFB0D212B20FCF79C
:1051300089FB322002F084FF00212020FCF782FB53
:1051400000212120FCF77EFB322002F079FF0021B4
:105150003020FCF777FB40F204613120FCF772FB52
:1051600040F205313220FCF76DFB00213520FCF7C1
:1051700069FB40F609413620FCF764FB51463720B5
:10518000FCF760FB40F201313820FCF75BFB39464D
:105190003920FCF757FB00213C20FCF753FB40F67D
:1051A0000A213D20FCF74EFB322002F049FF3BE193
:1051B00000210846FCF746FB21460120FCF742FB94
:1051C00041460220FCF73EFB41F230010320FCF790
:1051D00039FB00210420FCF735FB49460820FCF789
:1051E00031FB00210920FCF72DFB00210A20FCF7F0
:1051F00029FB01210C20FCF725FB00210D20FCF7E9
:1052000021FB00210F20FCF71DFB322002F018FFCC
:1052100040F201110720FCF715FB322002F010FFCD
:105220004FF486511020FCF70DFB07211120FCF7ED
:1052300009FB4FF4887421461220FCF703FB4FF45E
:1052400030611320FCF7FEFA00212920FCF7FAFA5E
:1052500044F210012B20FCF7F5FA00215020FCF756
:10526000F1FAEF215120FCF7EDFA00215220FCF772
:10527000E9FA31465320FCF7E5FA59466020FCF77D
:10528000E1FA01216120FCF7DDFA00216A20FCF738
:10529000D9FA00218020FCF7D5FA00218120FCF703
:1052A000D1FA00218220FCF7CDFA00218320FCF7FF
:1052B000C9FA00218420FCF7C5FA00218520FCF7FB
:1052C000C1FA10219020FCF7BDFA00219220FCF7D2
:1052D000B9FA01219320FCF7B5FA21469520FCF795
:1052E000B1FA00219720FCF7ADFA00219820FCF7D5
:1052F000A9FA40F2731107207DE341F21401E7207F
:10530000FCF7A0FA21460120FCF79CFA4FF400714B
:105310000220FCF797FA41F238010320FCF792FAD9
:1053200049460820FCF78EFA00210920FCF78AFA8A
:1053300000210A20FCF786FA00210C20FCF782FAF3
:1053400000210D20FCF77EFA00210F20FCF77AFAED
:1053500000211020FCF776FA07211120FCF772FAE1
:1053600000211220FCF76EFA00211320FCF76AFAE4
:10537000C82002F065FE41F290611020FCF762FA4D
:1053800040F227211120FCF75DFA322002F058FE8E
:105390000C211220FCF756FA322002F051FE4FF495
:1053A00000611320FCF74EFA11212920FCF74AFA7C
:1053B0000B212B20FCF746FA322002F041FE00219F
:1053C0002020FCF73FFA31462120FCF73BFA002170
:1053D0003020FCF737FA4FF4837421463120FCF774
:1053E00031FA00213220FCF72DFA51463520FCF726
:1053F00029FA41F20A613620FCF724FA39463720AF
:10540000FCF720FA21463820FCF71CFA39463920EF
:10541000FCF718FA40F202413C20FCF713FA40F680
:105420000F413D20FCF70EFA00215020FCF70AFA4C
:10543000EF215120FCF706FA00215220FCF702FA76
:1054400031465320FCF7FEF959466020FCF7FAF983
:1054500001216120FCF7F6F900216A20FCF7F2F93E
:1054600000218020FCF7EEF900218120FCF7EAF909
:1054700000218220FCF7E6F900218320FCF7E2F905
:1054800000218420FCF7DEF900218520FCF7DAF901
:1054900010219020FCF7D6F94FF4C0619220FDE373
:1054A00021460120FCF7CEF941460220FCF7CAF95B
:1054B00041F230010320FCF7C5F900210420FCF77C
:1054C000C1F940F207210820FCF7BCF900210920AE
:1054D000FCF7B8F900210A20FCF7B4F900210C20F0
:1054E000FCF7B0F900210D20FCF7ACF900210F20EA
:1054F000FCF7A8F9142002F0A3FD41F2B0611020DE
:10550000FCF7A0F901211120FCF79CF901211720DB
:10551000FCF798F94FF49C711220FCF793F94FF4C3
:1055200000611320FCF78EF909212920FCF78AF984
:1055300009212A20FCF786F90021A420FCF782F932
:1055400000215020FCF77EF9EF215120FCF77AF979
:1055500000215220FCF776F931465320FCF772F90E
:1055600059466020FCF76EF901216120FCF76AF9C9
:1055700000216A20FCF766F900218020FCF762F91F
:1055800000218120FCF75EF900218220FCF75AF906
:1055900000218320FCF756F900218420FCF752F902
:1055A00000218520FCF74EF913219020FCF74AF9E1
:1055B00000219220FCF746F903219320FCF742F9E1
:1055C0004FF488719520FCF73DF940F273110720E4
:1055D000FCF738F9322010E100210720FCF732F9FE
:1055E000322002F02DFD4FF48E711220FCF72AF9C3
:1055F0000121A420FCF726F90F210820FCF722F94D
:1056000008210A20FCF71EF908210D20FCF71AF9E1
:10561000BA4639463020FCF715F907213120FCF74E
:1056200011F940F203613220FCF70CF9474641467C
:105630003320FCF707F949463420FCF703F902212F
:105640003520FCF7FFF800E0FDE341F60F7136204E
:10565000FCF7F8F851463720FCF7F4F80021382021
:10566000FCF7F0F800213920FCF7ECF851463A201D
:10567000FCF7E8F800213B20FCF7E4F807213C2088
:10568000FCF7E0F800213D20FCF7DCF8322002F0C6
:10569000D7FC01210720FCF7D5F801211720FCF7E2
:1056A000D1F8322002F0CCFC4FF4BD511020FCF7B1
:1056B000C9F840F217211120FCF7C4F84FF48F719C
:1056C0001220FCF7BFF84FF470611320FCF7BAF812
:1056D00000212A20FCF7B6F80A212920FCF7B2F8AD
:1056E0004FF49F711220FCF7ADF800215020FCF719
:1056F000A9F8EF215120FCF7A5F800215220FCF772
:10570000A1F831465320FCF79DF859466020FCF77C
:1057100099F801216120FCF795F800216A20FCF737
:1057200091F800218020FCF78DF800218120FCF702
:1057300089F800218220FCF785F800218320FCF7FE
:1057400081F800218420FCF77DF800218520FCF7FA
:1057500079F813219020FCF775F84FF440719220EE
:10576000FCF770F805219320FCF76CF800219520D8
:10577000FCF768F8002104E042E03DE105E2B8E210
:1057800079E39720FCF75EF800219820FCF75AF89F
:1057900021460120FCF756F839460220FCF752F862
:1057A00041F238010320FCF74DF800210420FCF7FA
:1057B00049F800210C20FCF745F800210F20FCF7E8
:1057C00041F800212020FCF73DF800212120FCF7C2
:1057D00039F821210720FCF735F8142002F030FCBD
:1057E00061210720FCF72EF8142002F029FC40F27A
:1057F00073110720FCF726F8142002F021FC2EE399
:1058000000210846FCF71EF800210846FCF71AF8AC
:1058100000210846FCF716F800210846FCF712F8AC
:105820000121A420FCF70EF8142002F009FC5946CF
:105830006020FCF707F84F4649460820FCF702F8BD
:105840004FF405713020FBF7FDFF43F21571312055
:10585000FBF7F8FF00E0CAE040F204613220FBF7FA
:10586000F1FF40F616613320FBF7ECFF42F2112105
:105870003420FBF7E7FF4FF4A8513520FBF7E2FF98
:1058800048F207513620FBF7DDFF41F20741372090
:10589000FBF7D8FF41F203413820FBF7D3FF20216B
:1058A0003920FBF7CFFF1A219020FBF7CBFF002117
:1058B0001020FBF7C7FF07211120FBF7C3FF0021D2
:1058C0001220FBF7BFFF00211320FBF7BBFF1420C2
:1058D00002F0B6FB4FF4E6611020FBF7B3FF40F295
:1058E00037111120FBF7AEFF142002F0A9FB4FF493
:1058F000DC711220FBF7A6FF142002F0A1FB4FF48D
:1059000070611320FBF79EFF80212A20FBF79AFF8E
:1059100048212920FBF796FF142002F091FB214635
:105920000120FBF78FFF41460220FBF78BFF41F27E
:1059300038010320FBF786FF39460820FBF782FF7A
:1059400000210A20FBF77EFF00210C20FBF77AFFE5
:1059500000210D20FBF776FF30210E20FBF772FFB0
:1059600000215020FBF76EFFEF215120FBF76AFF6B
:1059700000215220FBF766FF31465320FBF762FF00
:1059800059466020FBF75EFF01216120FBF75AFFBB
:1059900000216A20FBF756FF11219020FBF752FFF0
:1059A0004FF4C0619220FBF74DFF40F2024193207B
:1059B000FBF748FF02219420FBF744FF142002F07C
:1059C0003FFB01210720FBF73DFF142002F038FBCD
:1059D00061210720FBF736FF40F273110720FBF728
:1059E00031FF00212020FBF72DFF00212120FBF7B4
:1059F00029FF2221002030E200210846FBF722FF88
:105A000000210846FBF71EFF142002F019FB0021BD
:105A10000846FBF717FF00210846FBF713FF00219C
:105A20000846FBF70FFF00210846FBF70BFF01219B
:105A3000A420FBF707FF142002F002FB5946602068
:105A4000FBF700FF40F606010820FBF7FBFE40F2E3
:105A5000037841463020FBF7F5FE01213120FBF7AA
:105A6000F1FE04213220FBF7EDFE4FF4817133206B
:105A7000FBF7E8FE4FF4407739463420FBF7E2FEAF
:105A800040F203113520FBF7DDFE1F213620FBF726
:105A9000D9FE41463720FBF7D5FE01213820FBF720
:105AA000D1FE04213920FBF7CDFE15219020FBF714
:105AB000C9FE4FF482611020FBF7C4FE40F247217B
:105AC0001120FBF7BFFE4FF4DE711220FBF7BAFE88
:105AD0004FF460611320FBF7B5FE782002F0B0FAB6
