:020000040800F2
:1000000058A90020695B0008450100084701000865
:10001000490100084B0100084D01000800000000E4
:100020000000000000000000000000004F01000878
:1000300051010008000000005301000855010008AC
:10004000835B0008835B0008835B0008835B000818
:10005000835B0008835B0008835B0008835B000808
:10006000835B0008835B0008835B0008835B0008F8
:10007000835B0008835B0008835B0008835B0008E8
:10008000835B0008835B0008835B0008835B0008D8
:10009000835B0008835B0008835B0008835B0008C8
:1000A000835B0008835B0008835B0008835B0008B8
:1000B000875100088F500008835B0008835B0008AD
:1000C000835B0008835B0008835B0008835B000898
:1000D000835B0008015B0008835B0008835B00080A
:1000E000835B0008835B0008835B0008835B000878
:1000F000835B0008835B0008835B0008835B000868
:10010000835B0008835B0008835B0008835B000857
:10011000835B0008835B00080B510008835B0008C9
:10012000835B0008835B0008835B0008835B000837
:10013000DFF80CD008F090F800480047911800084C
:1001400058A900207047FEE7FEE7FEE7FEE770478C
:1001500070477047704700000CB500214B48019173
:100160000091026842F4803202604FF4A06302689A
:1001700002F400320092019A521C0192009A12B9C4
:10018000019A9A42F3D10268920333D5012100917A
:100190003F490A6842F010020A600A6822F003022E
:1001A0000A600A6842F002020A60416841604168E0
:1001B0004160416841F480614160416821F47C11F3
:1001C0004160416841F4E8114160016841F080718B
:1001D000016001688901FCD5416821F0030141609B
:1001E000416841F0020141604168C1F38101022987
:1001F000FAD10CBD00910CBD244810B5016841F046
:10020000010101604168234A114041600168224AAE
:1002100011400160016821F480210160416821F4EE
:10022000FE0141604FF41F018160FFF795FF1B49FC
:100230004FF00060086010BD144910B54868184AB6
:1002400010F00C03174803D0042B01D0082B0AD060
:1002500002604968134AC1F30311121D515C026820
:10026000CA40026010BD4A684B6802F470124FF039
:10027000020413F4803F04EB924202D04B689B03CC
:1002800001D5094B00E0064B5A43E1E7001002405C
:10029000002002400000FFF8FFFFF6FE08ED00E03E
:1002A00000127A000000002000093D002DE9FF4700
:1002B000FE4C81462668354611F01CFC80460EF047
:1002C00017FE21684F4200EB47040EF005FE00EBDD
:1002D000470200230227CDE90293CDE90087234698
:1002E0002946304611F03CFAF149086004B0BDE8F7
:1002F000F0871FB540F205400090ED48006811F00E
:10030000EDFB694612F03AF91FBD3EB5144611F0F7
:1003100007FC054611F0C5FBE649884204D1214699
:10032000284608F0BBFE3EBDE349884209D122467B
:10033000E2A168461CF0D2F96946284609F0EAF8BD
:100340003EBDDF498842FBD12146284610F072FAB3
:100350003EBD3EB511F0E4FB044611F0A2FBD849C6
:10036000884203D1204610F00DFA11E0D1498842AD
:1003700003D1204608F043FE0AE0CF49884208D165
:100380000A226946204609F029F8684607F0C3FCAE
:10039000C0B23EBD10B54FF4A871FFF7DAFFC949EE
:1003A000487010BDC7494A784FF4A871ADE770B5E1
:1003B00005464FF48071FFF7CCFFC24C4FF4A87193
:1003C00020712846FFF7C5FF6071607840F2011187
:1003D000012812D002280FD12846FFF7BAFFA071DA
:1003E0004FF481712846FFF7B4FFE07140F25111DC
:1003F0002846FFF7AEFF207270BD2846FFF7A9FF21
:10040000A07170BD70B5AF4C05464FF48071227974
:10041000FFF77BFF62794FF4A8712846FFF775FF5D
:10042000607840F20111012812D0022812D1A2797D
:100430002846FFF76AFFE2794FF481712846FFF7FB
:1004400064FF227A40F251112846BDE870405CE713
:10045000A279F9E770BD70B59A4C954B0546627864
:100460001B1D40F2651101F015F922794FF48171DD
:100470002846FFF74AFF8E4B627936334FF4B3714B
:10048000284601F007F9A27940F203112846FFF748
:100490003CFFE2794FF482712846FFF736FF844B28
:1004A000227A223340F26711284601F0F3F8627A8B
:1004B0004FF480712846FFF728FFA27A2846BDE84E
:1004C000704040F2011120E710B5D0E900210F2A59
:1004D00003D0BDE8104007F071BF084608F05CF992
:1004E00080B16FF07F400CF065FBB0200CF026FB74
:1004F0000022114674480BF083F9BDE8104000203B
:100500000CF01CBB0022BDE8104011466E480BF0F9
:1005100077B92DE9FF470DF134080C9F98E8500298
:100520004FF0000C4FF00208109D03948DE88011ED
:1005300007F0B2FF04469DB30A20034600904A46E6
:100540000021204608F036F96049204608F06CF991
:100550005F4A0021204608F03DF95E4A012120460D
:1005600008F038F95C4A0221204608F033F90022ED
:100570001146204608F098F900220121204608F093
:1005800093F900220221204608F08EF947492046BF
:1005900010F08CFE0121204608F03EF92046A5E629
:1005A000FFE7314608F058F9CEE7F0B585B00AAF5D
:1005B0004FF0020C97E87000CDE9004C002702973D
:1005C000CDE9035610F0FDFC05B04049BDE8F04010
:1005D00010F074BDF0B585B00027DDE90CE5DDE96C
:1005E0000A4C02268DE8D05008F0A0FE04463B4994
:1005F00008F080FF0221204608F0ECFF2B4920463E
:1006000010F054FE2946204608F06CFF204605B045
:10061000F0BD2DE9F04387B00024DDE91095DDE958
:100620000E764FF01E0CCDF814C00294CDE9036590
:100630000226CDE900760FF0CBFF0646234910F0E5
:10064000BFF808E004EB840109EB41012246304683
:1006500010F0CCF8641CAC42F4DB07B03046BDE8C7
:10066000F08301680F2901D011F028B970471CB53B
:100670000EF03EFC04460EF02FFC421E18491948AD
:10068000CDE900010021234608460BF031F9164858
:100690000CF092FA0520002100901E2340F23B123C
:1006A00008460BF029FB002020E000002CA40308E2
:1006B00014000020E98A00085F92000825750000F8
:1006C0001F050108D80800205409030830690308F1
:1006D000B8B8B800E0E0E000C0C0C0006490030813
:1006E0006941E100DDA0DD00D3D3D3000CF064FA52
:1006F000FC480CF081FA02200CF0C0FA072200211D
:10070000F9A00AF0C5FF0722FA21FD480BF078F89E
:1007100007224FF48771FB480BF072F807224FF461
:100720009171F9480BF06CF800200CF045FABDE827
:100730001C40F6480CF060BA10B5D0E9001401294D
:100740000BD00E2921D00F291CD0A1F580711339AF
:100750000FD0BDE8104011F0B1B8204611F0B8FF3D
:1007600020460023BDE810404FF47A72194610F07D
:10077000CDBF04F009FFE64804F0EAFEBDE81040F2
:1007800000F07FBFBDE8104071E710BDF0B5D0E9C3
:10079000001585B04FF4B87601290AD00E2950D043
:1007A0000F2958D026295AD005B0BDE8F04011F0E5
:1007B00085B8284611F08CFF0EF08EFBD549002439
:1007C0001E230968CDE900564F4200EB470078210F
:1007D00001EB6000D0A1CDE902141A46C8210494AF
:1007E000FFF797FE064611F0E9FFCC49304611F0BD
:1007F000DBFE0EF071FB00EB47006FF0590101EBDF
:100800006000C7A14FF4B972CDE90214CDE90052DE
:100810002823049446223C21FFF77BFE0EF05CFB6C
:10082000C3A140F27312CDE90214CDE9005200EBEE
:10083000470040102823049446223C21FFF769FE1C
:10084000E5E6C06800680928FAD105B02846BDE889
:10085000F04011F08BBF05B0BDE8F04007E7C1687C
:100860000229EDD1806811F08CF9B042E8D105B0D1
:10087000BDE8F04000F005BF2DE9F041D0E90015DA
:10088000A34F86B001290AD00E297DD00F297CD034
:1008900026297BD006B0BDE8F04111F00FB82846FC
:1008A00011F016FF0EF018FB9A4900244FF4B872AD
:1008B0000968CDE900524E4200EB4600782101EB79
:1008C000600095A1CDE902141E2304941A46C821A4
:1008D000FFF71FFE804611F071FF9049404611F06E
:1008E00063FE0EF0F9FA00EB46016FF0810808EBA9
:1008F000610093A14FF4B972CDE90214CDE9005221
:100900002823049446223C21FFF703FE0EF0E4FA6C
:1009100000EB460108EB61008DA140F27312CDE9B6
:100920000214CDE900522823049446226E21FFF7D9
:10093000F0FD0EF0D1FA00EB46016FF0270808EB4E
:10094000610087A14FF4BA72CDE90214CDE90052DB
:100950002823049446223C21FFF7DBFD0EF0BCFA6D
:1009600000EB460108EB610081A140F27512CDE970
:100970000214CDE900522823049446226E21FFF789
:10098000C8FD0EF0A9FA02E02CE035E038E000EBFB
:1009900046014FF0320808EB610079A14FF4BB72B9
:1009A000CDE90214CDE900522823049446223C21CB
:1009B000FFF7AFFD0EF090FA00EB460108EB610087
:1009C00073A140F27712CDE90214CDE90052282339
:1009D000049446226E21FFF79CFD0420387006B077
:1009E000BDE8F081C06800680928F8D106B0284643
:1009F000BDE8F04111F0BABE06B0BDE8F04136E600
:100A0000C1680229EBD1806811F0BBF801210222F4
:100A1000A0F5B870082813D2DFE800F00412070927
:100A20000B0D0F1100F02DFE0AE0797308E07A73C8
:100A300006E0B97304E0BA7302E0F97300E0FA73F8
:100A400004F0C9FD06B03248BDE8F04104F052BDE3
:100A50002DE9F04F2F49064685B0D6E90005096813
:100A60004FF4FA784C426FF08B074FF4B87B0F28A5
:100A700035D004DC01280ED00E2806D182E12628CC
:100A80002ED0A0F5807013382BD005B03046BDE8CD
:100A9000F04F10F013BF284611F01AFE0023424613
:100AA0001946284610F032FE0EF016FA00EB44010B
:100AB00007EB61003AA14FF4B0720095CDE9012136
:100AC000B946142341222821FFF76FFD0EF004FAE6
:100AD00000EB44006FF0270707EB600068E05BE184
:100AE00086E176E16C780308E6898BE68C81E992F1
:100AF000BBE5BA8AE68EA7E588B6E599A8000000AE
:100B0000DCF4020888EE020830FB020830690308B2
:100B1000D80800202CA4030800000000C904000825
:100B2000E8838CE58589E8B083E695B40000000091
:100B3000E9A29CE889B2E8BDACE68DA20000000005
:100B4000E5B7A5E4BBB6E5B7A6E8BDAC000000007C
:100B5000E5B7A5E4BBB6E58FB3E8BDAC0000000087
:100B6000E58FB3E8BDACE7BB86E8B08300000000CA
:100B7000E58FB3E8BDACE7B297E8B08300000000B2
:100B8000E8BDACE9809FE5878FE5B09100000000EB
:100B9000E8BDACE9809FE5A29EE58AA000000000C8
:100BA000E8BDACE58AA8E9809FE5BAA60000000090
:100BB000FEA140F261120095CDE9012114234122EA
:100BC0002821FFF7F2FC0EF087F900EB440109EB56
:100BD0006100FAA14FF4B1720095CDE9012114230F
:100BE00041225A21FFF7E1FC0EF076F9F5A140F21F
:100BF00063120095CDE9012100EB440007EB600092
:100C0000142341225A21FFF7D0FC0EF065F900EBC6
:100C100044014FF03C0A0AEB6100EEA14FF4B272BE
:100C20000095CDE90121142341222821FFF7BDFCC5
:100C30000EF052F900EB44016FF0590000EB610037
:100C4000E8A140F265120095CDE90121142341226B
:100C5000D221FFF7AAFC0EF03FF9E4A14FF4B372E2
:100C60000095CDE9012100EB440007EB600014235F
:100C70004122D221FFF799FC0EF02EF900EB44013E
:100C8000142000EB6100DDA140F267120095CDE970
:100C9000012114234122D221FFF787FC0EF01CF919
:100CA0004FF4807200264FF00308CDE9005200EBAC
:100CB0004401CDE9028609EB6100142341223C2165
:100CC000FFF788FC0EF008F940F20112CDE900525E
:100CD000CDE9028600EB440007EB600014234122BB
:100CE0003C21FFF777FC0EF0F7F84FF48172CDE965
:100CF000005200EB4401CDE9028609EB61001423A8
:100D000041226E21FFF766FC0EF0E6F840F2031276
:100D1000CDE90052CDE9028600EB440007EB60000C
:100D2000142341226E21FFF755FC0EF0D5F84FF445
:100D30008272CDE9005200EB4401CDE902860AEB54
:100D40006100142341223C21FFF744FC0EF0C4F85B
:100D500099A2CDE9022600EB44007821CDE9005BA1
:100D600001EB60001E231A46C8210496FFF7D1FB51
:100D7000044611F023FD05B02046BDE8F04FA3491D
:100D800011F012BCF068006809281FD105B0284690
:100D9000BDE8F04F11F0EABCFFF769FC6FF07F404F
:100DA0000BF00AFF0EF098F800EB4400502101EB25
:100DB00060050EF091F8052100EB4400009107EB6F
:100DC0006000E6232A46D2210AF09AFE05B0BDE86B
:100DD000F08F04F0D9FB8E4804F0BAFB2846FFF7E9
:100DE0003AFBF06805B04146BDE8F04F11F08EBB0C
:100DF000F0680228EAD1B06810F0C3FE5845E5D18A
:100E000005B0BDE8F04F00F03CBC2DE9F041D0E961
:100E1000001586B04FF4B8764FF4B97801290AD09E
:100E20000E2952D00F295AD026295DD006B0BDE830
:100E3000F04110F043BD284611F04AFC0EF04CF88A
:100E4000744900241E230968CDE900564F4200EB87
:100E50004701782000EB610057A1CDE902141A4642
:100E6000C8210494FFF755FB064611F0A7FC67491B
:100E7000304611F099FB0EF02FF867A2CDE902245D
:100E8000CDE9005800EB47006FF0590606EB600013
:100E9000282378223C210494FFF73BFB0EF01CF83A
:100EA00061A140F27312CDE90214CDE9005200EBCA
:100EB000470006EB60002823049478226E21FFF798
:100EC00028FB53490220087089E5C068006809289A
:100ED000FAD106B02846BDE8F04111F047BC06B093
:100EE000BDE8F041FFF7C3BBC1680229ECD18068BF
:100EF00010F047FEB04215D0404518D0A0F58070E4
:100F00007338E1D104F067FB414804F0F3FA20287C
:100F10004FF0020216D049A14AA006B0BDE8F04148
:100F20000BF018BD06B0BDE8F04100F0AABB04F01C
:100F30009EFA4FF0000210B140A147A0EDE74CA18E
:100F40004DA0EAE752A154A0E7E72DE9F043D0E92C
:100F500000152F4E85B04FF002084FF4C0740129E0
:100F60000AD00E291ED00F291DD026291CD005B06D
:100F7000BDE8F04310F0A2BC284611F0A9FB0DF02B
:100F8000ABFF2449A1465023096800244F4200EBDF
:100F900047006FF0810101EB60001A463C21CDF85B
:100FA0000C9085E00FE118E11CE10000E992BBE53F
:100FB000AD94E9809FE5BAA600000000E5AD94E697
:100FC00095B00000E689A9E5AD94E6B7B1E5BAA60B
:100FD00000000000E992BBE5AD94E6B7B1E5BAA622
:100FE00000000000E6A8A1E5BC8F0000E5A587E5AC
:100FF00081B6E695B0E68E9200000000E5A4A7E574
:10100000B08FE992BBE5A4B400000000C904000859
:10101000D80800202CA40308E6A8A1E59D97E6A324
:1010200080E6B58B00000000E695B0E68DAEE4BC2E
:10103000A0E8BE93E6A380E6B58B00004572726F10
:101040007200000053656E64204461746120666123
:10105000696C656400000000436C696E6574204E25
:10106000524632344C3031206572726F722100006A
:101070004E6F726D616C0000436C69656E74204E3A
:10108000524632344C3031204E6F726D616C21000B
:101090004E6F726D6F6C000053656E642044617416
:1010A00061205375636365737366756C000000009F
:1010B0000095CDE9018407F0E5FD8046FBA107F02E
:1010C000FAFCFBA1404607F0F6FCFAA1404607F007
:1010D000F2FCF949404607F0B7FF0DF0FDFE00EBCA
:1010E00047016FF0270808EB6100F4A14FF4B972D3
:1010F000CDE90214CDE900522823049450223C216A
:10110000FFF707FA0DF0E8FE00EB470108EB61007E
:10111000ECA140F27312CDE90214CDE9005228236C
:10112000049450227821FFF7F4F90DF0D5FE00EB7E
:1011300047014FF0320808EB6100E4A14FF4BA72A6
:10114000CDE90214CDE900522823049450223C2119
:10115000FFF7DFF90DF0C0FE00EB470108EB61007F
:10116000DCA140F27512CDE90214CDE9005228232A
:10117000049450227821FFF7CCF90DF0ADFE00EB7E
:101180004700782101EB6000AFF2D4114FF4B87240
:10119000CDE90214CDE900521E2304941A46C82159
:1011A000FFF7B7F9044611F009FBCC49204611F0CE
:1011B000FBF903203070B27805B049462846BDE8F7
:1011C000F043FFF7A2B8C0680068092819D105B03C
:1011D0002846BDE8F04311F0C9BA05B0BDE8F043B8
:1011E000FFF745BAC16802290ED0042909D18068E9
:1011F00010F0C7FC2146884203D12846FFF7A9F822
:10120000B07005B0BDE8F083806810F0BAFC012131
:10121000A0F5B870062810D2DFE800F0030F06082A
:101220000B0D00F02EFA08E0317406E086F810800D
:1012300003E0717401E086F8118004F0CCF905B088
:10124000A748BDE8F04304F055B97FB504460DF05A
:1012500043FEA4496FF0810609684D4200EB45004A
:1012600006EB6000AFF2A42140F261120094CDE9D8
:101270000121142350226E21FFF797F90DF02CFE67
:1012800001210391032240F201130094CDE90132C0
:1012900000EB450006EB6000192350228C21FFF77C
:1012A00099F97FBDF0B5D0E9001485B04FF4B87658
:1012B00001290AD00E2967D00F296FD0262972D0B4
:1012C00005B0BDE8F04010F0F9BA204611F000FA80
:1012D0000DF002FE83494FF4B0726FF059070968B0
:1012E00000944D4280A1CDE9012100EB450007EBC0
:1012F0006000142350223221FFF757F90DF0ECFD66
:1013000003217D4A4FF4A87300940391CDE9013283
:10131000502300EB450007EB60001A461946FFF723
:1013200078F92046FFF73EF80DF0D6FD00EB4500BA
:1013300007EB6000002771A1CDE90217CDE9004657
:1013400028235022BE210497FFF7E3F80DF0C4FDD7
:1013500000EB4500782101EB600066A140F27112BC
:10136000CDE90217CDE900421E2304971A46C82191
:10137000FFF7CFF8044611F021FA05B02046BDE88A
:10138000F040564911F010B9C0680068092826D10C
:1013900005B02046BDE8F04011F0E8B905B0BDE861
:1013A000F040FFF764B9C168022918D1806810F0D5
:1013B000E8FBB04208D0A0F5807071380FD105B0BD
:1013C000BDE8F04000F05DB92046FEF7E3FF00F015
:1013D00058F905B04B48BDE8F040FEF767BF05B0CF
:1013E000F0BDF0B5D0E9001585B04FF4B87601290D
:1013F0000AD00E2956D00F2955D0262954D005B031
:10140000BDE8F04010F05ABA284611F061F90DF02D
:1014100063FD3449002428230968CDE900564F4272
:1014200000EB47006FF0590101EB600036A1CDE9F8
:1014300002145022BE210494FFF76BF80DF04CFD0E
:1014400000EB4700782101EB60002AA140F2711205
:10145000CDE90214CDE900521E2304941A46C82196
:10146000FFF757F8064611F0A9F91C49304611F06C
:101470009BF8284600F096F9194E7078012802D0A2
:10148000022804D009E02846FFF7DFFE05E02846E1
:10149000FFF7DBFE284600F048F92846FEF7B2FFCA
:1014A00034709CE734E03DE041E000004D31000045
:1014B0004D3200004D33000064A30308E5AE9AE40A
:1014C000BD8D0000E689A9E5AD940000E4B88AE589
:1014D0008D870000E4B88BE9998D0000C9040008ED
:1014E000D80800202CA40308E6A8A1E5BC8FE98059
:1014F00089E68BA90000000018000020E8AEBEE7D6
:10150000BDAE0000E3130008E689A7E8A18C000047
:10151000C06800680928C4D105B02846BDE8F0407D
:1015200011F024B905B0BDE8F040FFF7A0B8C168DC
:101530000229B6D1806810F024FBB04207D0A0F594
:1015400080707138ADD100F09CF8B74818E028469B
:10155000FEF72DFF04F03FF8B44803F0CBFF20283E
:101560000BD000F08EF80222AFF23051AFF22C50C7
:1015700005B0BDE8F0400BF0EDB900F082F8AC48E2
:1015800005B0BDE8F040FEF791BE2DE9FC410446F0
:101590004FF41476D4E9000501280AD00E281FD094
:1015A0000F2826D0262828D02046BDE8FC4110F080
:1015B00085B9284611F08CF80DF09AFC9D49096810
:1015C0004F4200EB47040DF087FCCDE9005600EBDD
:1015D00047021E212346084600F071F8BDE8FC8151
:1015E000E06800680928F9D12846BDE8FC4111F0FF
:1015F000BDB8BDE8FC41FFF73AB8E0680228EDD17C
:10160000A06810F0BEFAB042E8D1A0680DF090F9E1
:101610000628E3D2884951F82000BDE8FC41FEF7D6
:1016200045BE10B5042011F041F884480EF0EEFEDE
:10163000834808F0EDFB81480EF0E8FE814807F092
:10164000DDF8814807F0D6F9804807F0EFFC8048C4
:101650000FF07CFB7F480FF073FC7F480DF03EF8E5
:101660007E480FF09FF800F079F910F043FA7C49BA
:1016700010F09AFF7B48FEF719FEBDE810400BF012
:1016800087BD10B56C4C4C3C206810F04BF9002025
:10169000206010BD70B51C46154610F041FA064694
:1016A00010F0FFF97049884208D105EB850004EB82
:1016B00040013046BDE870400FF012BD70BDF0B57E
:1016C00087B00227DDE90C5650240297CDE9036468
:1016D00005940324CDE900540DF0D2F80646634981
:1016E0000DF04AF9624A012130460DF02EF90A2226
:1016F000012130460DF06EF90A22012130460DF02D
:101700004DF95C4D002400BF05EBC40055F83410C2
:10171000426830460CF0F0FF641C062CF4D33046CF
:1017200010F0D6FF07B03046F0BD7FB504460DF08F
:10173000D3FB4049404A40F2511309682A3A4D42CE
:1017400000EB4500322101EB60000221039100947F
:10175000CDE90132462350223221FEF75AFF0DF027
:10176000BBFB45A14FF4B1720094CDE9012100EB20
:1017700045004010142350226E21FEF716FF0DF095
:10178000ABFB0121039103224FF481730094CDE957
:10179000013200EB45004010192350228C21FEF746
:1017A00019FF7FBD7FB504460DF096FB21494FF42C
:1017B000B0726FF08106096800944D4232A1CDE904
:1017C000012100EB450006EB600014235022282184
:1017D000FEF7EBFE0DF080FB01210B0203910322CB
:1017E0000094CDE9013200EB450006EB60001923BF
:1017F00050224621FEF7EEFE0DF06EFB00EB450099
:101800006FF0270101EB600002210B4A0391163AA9
:101810004FF4A8730094CDE90132462350223221BF
:10182000FEF7F7FE7FBD0000A5120008D8080020D3
:10183000390700082CA40308600000208903010870
:10184000599900086185000805890008558D000830
:10185000710B0108150E01089DE60008CD06010870
:10186000630600088B1500085D0F01083069030846
:101870004050D48020750208E992BBE5AD94E6B7EC
:10188000B1E5BAA600000000E5AD94E695B0000011
:1018900004F092F84FF4A06004F024FA4FF41650CC
:1018A00004F0E0F803F09CFC01F07FFA03F069FB20
:1018B00040F2E7344721204603F0BCFB40F2CF2141
:1018C000204603F0F5FB04F070F90121402004F0FC
:1018D00099FC03F039FD0AF0B7FBFFF7A2FE00BF49
:1018E00003F005FD142009F03DFEF9E72DE9FC4168
:1018F000006814260F282FD10DF0FAFA441E0DF0BF
:10190000EBFA421E28496FF07F40CDE9000100212B
:10191000234608460AF020F800240DF0DDFA00EB1B
:10192000D07040102838214F85B24FF0A008386899
:10193000A04201D11E4801E01D48143842880188A8
:10194000A8EB5202A5EB510109F05AFF641CA8193B
:10195000A4B285B2052CEAD3BDE8FC817CB514495C
:10196000FF241C39D1E90001CDE9000110F0C2F8D3
:10197000104910F019FE05250C4E0CE0C4F1FF00D3
:10198000B0FBF5F105FB11003060684610F040FC3B
:10199000C82009F0E7FD03F06AFD002802D0641EAC
:1019A000E4B2EBD27CBD0000808080007800002093
:1019B000A4E60208ED18000870B5F84D04464FF48F
:1019C0008071284604F0ADFA6E153146284604F0C1
:1019D000A8FA2146F24804F0ABFAB40121462846A1
:1019E00004F09FFA2146284604F099FA3146284629
:1019F000BDE8704004F093BA70B5E84D04464FF46A
:101A00008071284604F08BFA6E153146284604F0A2
:101A100088FA2146E24804F08BFAB40121462846B0
:101A200004F07FFA2146284604F079FA3146284628
:101A3000BDE8704004F073BA2DE9F047D84C4FF080
:101A400088302060261D3060D54F00200C3738606C
:101A5000D24DA115284604F062FA4FF4007A51469F
:101A6000284604F05EFA4FF480494946284604F0BF
:101A700058FACC488088A0F50941893902D1022062
:101A800003F0B1FF204604F03DFA8046494628465F
:101A900004F045FA5146284604F041FA4FF033303D
:101AA000206030604FF6FF7038604046BDE8F08738
:101AB00070B50E46FFF780FFB84C4FF4807120469A
:101AC00004F02DFA65152946204604F02AFA31461D
:101AD000B34804F02DFAAE013146204604F021FA55
:101AE0003146204604F01BFA29462046BDE87040E6
:101AF00004F015BA10B5FFF75FFFBDE810409BE793
:101B0000A848008958E770B5A44D04464FF4807189
:101B1000284604F004FA6E153146284604F001FA0E
:101B200021469F4804F004FAB4012146284604F0F7
:101B3000F8F92146284604F0F2F931462846BDE876
:101B4000704004F0ECB9C0F34511C20AC00200EBCA
:101B50004110104480B270472DE9FC5F914C0E4655
:101B60000546A088090A0091290A01912146DFF85B
:101B70002C82DFF82CA24A89A0F513434FF4007998
:101B80004FF4004B413B15D0A0F5A641103911D0C0
:101B90002346A0F5D04C99791B885B1B5B1EBCF1DA
:101BA000040C15D0A0F5A04CBCF5A26C75D0012991
:101BB00072D0EAE01046FFF7FFFE4FF48071404616
:101BC00004F0ADF94946404604F0ABF901990FE045
:101BD000012900D19DB21046FFF7EEFE4FF480714F
:101BE000404604F09CF94946404604F09AF9290A17
:101BF0005446504604F09CF95F465946404604F06E
:101C000090F93946404604F08AF94946404604F0C6
:101C100086F94FF48071404604F081F94946404608
:101C200004F07FF9E9B2204604F082F939464046D3
:101C300004F077F93946404604F071F949464046C8
:101C400004F06DF957488089FFF7B6FE4FF48071B4
:101C5000404604F064F94946404604F062F92046E3
:101C6000009904F065F93946404604F05AF93946BE
:101C7000404604F054F94946404604F050F94FF408
:101C80008071404604F04BF94946404604F049F95A
:101C9000F1B2204668E000E076E01046FFF78CFEE7
:101CA0004FF48071404604F03AF94946404604F04A
:101CB00038F95046019904F03BF95F4659464046D1
:101CC00004F02FF93946404604F029F949464046C8
:101CD00004F025F96089401C80B2FFF76DFE4FF4D7
:101CE0008071404604F01BF94946404604F019F95A
:101CF000E9B2504604F01CF93946404604F011F9A7
:101D00003946404604F00BF94946404604F007F9CD
:101D1000A089FFF751FE4FF48071404604F0FFF8B0
:101D20004946404604F0FDF85046009904F000F999
:101D30003946404604F0F5F83946404604F0EFF8DD
:101D40004946404604F0EBF8A089401C80B2FFF7FA
:101D500033FE4FF48071404604F0E1F849464046B6
:101D600004F0DFF8F1B2504604F0E2F8394640469C
:101D700004F0D7F83946404604F0D1F849464046C9
:101D8000BDE8FC5F04F0CBB89DB229461046FFF7D2
:101D90008FFEA0893146BDE8FC5F89E60010014056
:101DA000000C0140F80800202DE9F84FFE4C228875
:101DB000824202D962888A4202D80020BDE8F88FA8
:101DC000FFF7CAFEA088A346A0F5134145F21036DE
:101DD00045F21057413905D0A0F5D041043901D062
:101DE000B04201D12E2005E0B84202D14FF4385064
:101DF00000E02220FFF7E0FDDFF8B0934FF08830DD
:101E0000C9F8000009F104010860E8494FF6FF78BD
:101E10000C31C1F80080E64C8915204604F07FF8AB
:101E20006115204604F07DF84FF480452946204690
:101E300004F077F8012003F0D6FD2946204604F08F
:101E40006EF82946204604F06CF8012003F0CBFD23
:101E5000484604F057F881462946204604F05FF8CA
:101E6000BBF80400A0F51341413903D0B04201D0C2
:101E7000B84210D12946204604F053F8CB4804F06C
:101E800041F800902946204604F049F809F0FF0087
:101E900008EA002A0FE0A0F5D04104390BD1294609
:101EA000204604F03EF82946204604F038F8BF48A2
:101EB00004F028F881464FF40071204604F02FF812
:101EC000BA494FF033300860091D0860B7490C313A
:101ED000C1F80080BBF80400A0F51341253921D0DA
:101EE000A0F58A4135391DD0091D1BD0A0F5094147
:101EF000893917D0A0F53541053913D0A0F5134124
:101F0000413903D0B04201D0B8420DD14FEAD921B6
:101F10004FEAC1214FEA9A2041EA4011009841EA74
:101F2000D0204BE7484649E74846BDE8F84F0AE667
:101F30009D488088A0F5134141390ED0A0F5D041CD
:101F400004390AD0A0F5A641103906D0B1F50071C8
:101F500005D040F273110720AAE5292001E04FF4D3
:101F6000245029E590488088A0F5134141390DD0CF
:101F7000A0F5D041043909D0A0F5A641103905D00B
:101F8000B1F5007104D00021072091E5282001E07F
:101F90004FF4205010E52DE9F047834C00252146F1
:101FA000A379898846F60402012B18D1914216D0F4
:101FB000082814D2DFE800F00406080A0C0E1012FC
:101FC00006200CE007200AE0042008E0052006E0D7
:101FD000012004E0002002E0032000E00220A1F53F
:101FE000134645F2103345F21058413E05D0914258
:101FF00003D0994201D041457ED1082812D2DFE8B2
:1020000000F0110406080A0C0E1080250AE0402595
:1020100008E0C02506E0202504E0602502E0A025B8
:1020200000E0E025414502D14FF4585000E0362051
:10203000994203D0414501D045F00805914201D1B4
:1020400045F002052946FFF733FDA8062088618880
:1020500002D5884202D303E0884201D92180608002
:10206000A088534E4045514F60894FF480754FF41E
:10207000007A4FF400497DD1FFF79EFC2946B04617
:10208000304603F04CFF5146404603F04AFF002122
:10209000384603F04DFF4E464946404603F041FFA7
:1020A0003146404603F03BFF5146404603F037FFC0
:1020B0006089401C80B2FFF77FFC2946404603F050
:1020C0002EFF5146404603F02CFF0021384603F016
:1020D0002FFF3146404603F024FF3146404603F0CF
:1020E0001EFF5146404603F01AFF6089801C80B2F3
:1020F000FFF762FC294600E08AE1404603F00FFF4B
:102100005146404603F00DFF2088401EC0F30F21CA
:10211000384603F00DFF3146404603F002FF3146DA
:10212000404603F0FCFE5146404603F0F8FE60894D
:10213000C01C80B2FFF740FC2946404603F0EFFE8A
:102140005146404603F0EDFE2078401EC1B23846AD
:1021500003F0EEFE3146404603F0E3FE31464046D2
:1021600003F0DDFE5146404603F0D9FEA089FFF79B
:1021700023FC00E079E02946404603F0D0FE5146BA
:10218000404603F0CEFE0021384603F0D1FE314632
:10219000404603F0C6FE3146404603F0C0FE5146BD
:1021A000404603F0BCFE05E0F8080020000C0140AA
:1021B00000100140A089401C80B2FFF7FDFB2946BA
:1021C000404603F0ACFE5146404603F0AAFE002113
:1021D000384603F0ADFE3146404603F0A2FE3146DC
:1021E000404603F09CFE5146404603F098FEA0890D
:1021F000801C80B2FFF7E0FB2946404603F08FFECB
:102200005146404603F08DFE6088401EC0F30F210A
:10221000384603F08DFE3146404603F082FE3146DB
:10222000404603F07CFE5146404603F078FEA0890C
:10223000C01C80B2FFF7C0FB2946404603F06FFE8A
:102240005146404603F06DFEA078401EC1B23846AC
:1022500003F06EFE3146404603F063FE31464046D1
:1022600003F05DFE51464046CEE0FFF7A5FB294650
:10227000304603F054FE5146304603F052FE002132
:10228000B846384603F054FE4F464946304603F000
:1022900048FE3946304603F042FE5146304603F0D0
:1022A0003EFE2946304603F03AFE5146304603F0E2
:1022B00038FE0021404603F03BFE3946304603F02D
:1022C00030FE3946304603F02AFE5146304603F0D0
:1022D00026FE2946304603F022FE5146304603F0E2
:1022E00020FE2088401EC0F30F21404603F020FE50
:1022F0003946304603F015FE3946304603F00FFEEE
:102300005146304603F00BFE2946304603F007FEE7
:102310005146304603F005FE2078401EC1B24046CB
:1023200003F006FE3946304603F0FBFD39463046E1
:1023300003F0F5FD5146304603F0F1FDA089FFF7AB
:102340003BFB2946304603F0EAFD5146304603F098
:10235000E8FD0021404603F0EBFD3946304603F02E
:10236000E0FD3946304603F0DAFD5146304603F0D1
:10237000D6FD2946304603F0D2FD5146304603F0E3
:10238000D0FD0021404603F0D3FD3946304603F02E
:10239000C8FD3946304603F0C2FD5146304603F0D1
:1023A000BEFD2946304603F0BAFD5146304603F0E3
:1023B000B8FD6088401EC0F30F21404603F0B8FD11
:1023C0003946304603F0ADFD3946304603F0A7FDEF
:1023D0005146304603F0A3FD2946304603F09FFDE9
:1023E0005146304603F09DFDA078401EC1B24046E4
:1023F00003F09EFD3946304603F093FD39463046E2
:1024000003F08DFD51463046BDE8F04703F087BD2F
:10241000082812D2DFE800F0040608110A0C0E109A
:1024200030250AE0102508E0202506E0382504E0E4
:10243000282502E0182500E00825A1F50940893883
:1024400006D0032045F48051BDE8F047FFF730BBCC
:10245000112046F240012943F6E770B5FFF77CFBF7
:10246000FFF74EFBFF4C4FF48071204603F057FD01
:1024700065152946204603F054FDFB480188FB48BA
:1024800003F056FDAE013146204603F04AFD3146C9
:10249000204603F044FD29462046BDE8704003F085
:1024A0003EBD2DE9F74FF24C82B00E460546A0889E
:1024B000090A0091290A01912146DFF8A883DFF873
:1024C000ACA34A89A0F513434FF480774FF4007909
:1024D0004FF4004B413B13D0A0F5A64110390FD06B
:1024E000B1F5007119D02346A0F5D04C99791B881D
:1024F0005B1B5B1EBCF1040C68D001297ED0D2E0CE
:102500001046FFF759FA3946404603F008FD4946A0
:10251000404603F006FD019967E01046FFF74CFACC
:102520003946404603F0FBFC4946404603F0F9FCBF
:102530005046019903F0FCFC5946404603F0F1FC7B
:102540005946404603F0EBFC4946404603F0E7FCA1
:102550006089401C80B2FFF72FFA3946404603F0ED
:10256000DEFC4946404603F0DCFCE9B2504603F08D
:10257000DFFC5946404603F0D4FC5946404603F080
:10258000CEFC4946404603F0CAFCA089FFF714FA86
:102590003946404603F0C3FC4946404603F0C1FCBF
:1025A0005046009903F0C4FC5946404603F0B9FC7C
:1025B0005946404603F0B3FC4946404603F0AFFCA1
:1025C000A089401C80B2FFF7F7F952E0012900D141
:1025D0009DB21046FFF7F0F93946404603F09FFCE4
:1025E0004946404603F09DFC290A504603F0A0FCF2
:1025F0005946404603F095FC594600E052E04046FB
:1026000003F08DFC4946404603F089FC39464046BC
:1026100003F085FC4946404603F083FCE9B250468E
:1026200003F086FC5946404603F07BFC5946404681
:1026300003F075FC4946404603F071FCA089FFF7A2
:10264000BBF93946404603F06AFC4946404603F070
:1026500068FC5046009903F06BFC5946404603F075
:1026600060FC5946404603F05AFC4946404603F098
:1026700056FC3946404603F052FC4946404603F0BA
:1026800050FCF1B2504603F053FC5946404603F06B
:1026900048FC5946404603F042FC4946404603F098
:1026A0003EFC08E09DB229461046FFF701FAA089DA
:1026B0003146FFF7FDF94FF480714546404603F07F
:1026C00030FC4E464946284603F02BFC21895446EF
:1026D000504603F02DFC5F465946284603F021FC86
:1026E0003946284603F01BFC3146284603F017FC08
:1026F0004FF48071284603F012FC3146284603F05F
:1027000010FC2046049903F013FC3946284603F0D8
:1027100008FC3946284603F002FC05B0314628463D
:10272000BDE8F04F03F0FBBB2DE9F05F50492C23CF
:102730002A242B2522222126898848F689194FF040
:102740004E0A4FF04F0B45F2105EF02749F2413828
:10275000F8B147484FF0010C414580F806C04FF4EE
:10276000A07CA0F800C047800FD0A1F5A647103F7D
:102770000BD0A1F5D047043F4ED0494550D102813E
:10278000A0F80AB0A0F80CA060E003814481858124
:102790005CE037484FF0000C414580F806C00780E8
:1027A0004FF4A077478011D0A1F5D04CBCF1040CB8
:1027B0000CD0A1F5A04CBCF5447C07D0494514D100
:1027C0000281A0F80AA0A0F80CB055E00381448172
:1027D000A1F5D0428581043A03D0A1F5A642103A72
:1027E0004AD107804FF4F0710FE071450FD14FF4DB
:1027F000305101814FF4285141814FF42C51818196
:102800004FF4F07101804FF44871418034E002814F
:102810002021418186812FE003814581848115E05B
:1028200071450FD14FF4305202814FF4285242814A
:102830004FF42C5282814FF4487202804FF4F072B0
:10284000428003E00281468120228281A1F5D042AC
:10285000043A03D0A1F5A642103A0DD14FF4F0711D
:10286000018007E0001001407C000020000C0140C6
:10287000F8080020A0F802C0BDE8F05F0020FFF7D4
:102880008ABB2DE9F05F05461044401E87B2C81888
:10289000FF4A401E0C4686B24FEA112A9088114624
:1028A000A0F5134349894FF4807B4FEA1529413B3A
:1028B00031D0A0F5A643103B2DD0A0F5D043043B6A
:1028C00029D0A0F5AA43103B7DD0917901297BD076
:1028D000B84629464FEA0407A0F50942893A74D060
:1028E00050204FF0510B4FF0520A53229146FFF700
:1028F000DFF841465846FFF7DBF839465046FFF708
:10290000D7F831464846FFF7D3F821462846BDE8B8
:10291000F05FFFF721B90846FFF74EF85946DD484A
:1029200003F0FDFA4FF40071DA4803F0FAFA494671
:10293000DFF86493484603F0FBFA4FF40048414641
:10294000D44803F0EEFA4146D24803F0E8FA4FF4D7
:102950000071D04803F0E3FA5946CE4803F0DFFA9D
:102960004FF40071CB4803F0DCFAE9B2484603F0BB
:10297000DFFA4146C74803F0D4FA4146C54803F0A0
:10298000CEFA4FF40071C34803F0C9FA5946C14862
:1029900003F0C5FA4FF40071BE4803F0C2FA390AD9
:1029A000484603F0C5FA4146BA4803F0BAFA414630
:1029B000B84803F0B4FA4FF40071B64803F0AFFA28
:1029C0005946B44802E07EE098E18DE103F0A7FAB1
:1029D0004FF40071AF4803F0A4FAF9B2484603F08F
:1029E000A7FA4146AB4803F09CFA4146A94803F0D8
:1029F00096FA4FF40071A74803F091FAA448808931
:102A0000FEF7DAFF5946A34803F089FA4FF4007144
:102A1000A04803F086FA5146484603F089FA414639
:102A20009C4803F07EFA41469A4803F078FA4FF446
:102A30000071984803F073FA5946964803F06FFA0C
:102A40004FF40071934803F06CFAE1B2484603F08A
:102A50006FFA41468F4803F064FA41468D4803F00F
:102A60005EFA4FF400718B4803F059FA59468948D1
:102A700003F055FA4FF40071864803F052FA310A18
:102A8000484603F055FA4146824803F04AFA414667
:102A9000804803F044FA4FF400717E4803F03FFA97
:102AA00059467C4803F03BFA4FF40071794803F033
:102AB00038FAF1B2484603F03BFA4146754803F054
:102AC00030FA414606E190460846FEF775FF4FF49E
:102AD0008071704803F023FA4FF400716D4803F0E1
:102AE00020FADFF8B4B14946584603F021FA4FF412
:102AF00000494946674803F014FA4946654803F01F
:102B00000EFA4FF40071634803F009FAB8F80A00AE
:102B1000401C80B2FEF750FF4FF480715D4803F017
:102B2000FEF94FF400715B4803F0FBF9E9B2584637
:102B300003F0FEF94946574803F0F3F94946554872
:102B400003F0EDF94FF40071524803F0E8F9B8F8DA
:102B50000A00801C80B2FEF72FFF4FF480714D48B1
:102B600003F0DDF94FF400714A4803F0DAF9390A4D
:102B7000584603F0DDF94946464803F0D2F9494684
:102B8000444803F0CCF94FF40071424803F0C7F910
:102B9000B8F80A00C01C80B2FEF70EFF4FF4807137
:102BA0003C4803F0BCF94FF400713A4803F0B9F91E
:102BB000F9B2584603F0BCF94946364803F0B1F97A
:102BC0004946344803F0ABF94FF40071314803F043
:102BD000A6F9B8F80C00FEF7EFFE4FF480712D480F
:102BE00003F09DF94FF400712A4803F09AF9514619
:102BF000584603F09DF94946264803F092F94946A4
:102C0000244803F08CF94FF40071224803F087F94F
:102C1000B8F80C00401C80B2FEF7CEFE4FF4807175
:102C20001C4803F07CF94FF400711A4803F079F95D
:102C3000E1B2584603F07CF94946164803F071F9B1
:102C40004946144803F06BF94FF40071114803F042
:102C500066F9B8F80C00801C80B2FEF7ADFE4FF4A8
:102C600080710C4803F05BF94FF40071094803F0E0
:102C700058F9310A584603F05BF94946054803F014
:102C800050F94946034803F04AF94FF4007105E052
:102C9000F808002000100140000C0140FE4803F03D
:102CA0003EF9B8F80C00C01C80B2FEF785FE4FF468
:102CB0008071F94803F033F94FF40071F64803F0DE
:102CC00030F9F1B2584603F033F94946F24803F0BF
:102CD00028F94946F04803F022F9BDE8F05F4FF4C7
:102CE0000071ED4803F01BB9442041EA082189B284
:102CF000834688464FF0450A4622F7E51288B046DB
:102D0000D31B5B1E521B521E21469FB296B2E3E5B7
:102D10002DE9F05FE14E83460024308875884543F5
:102D2000B088A0F5D041043902D1B07901280ED085
:102D300000210846FEF710FFFEF7E2FED64F4FF4E3
:102D400080797E15DFF858A34FF4004829E0002071
:102D5000B0712A2777814FF02B08A6F80C80014626
:102D6000FEF7FAFE0120B071A6F80A80B781E3E70A
:102D70004946384603F0D3F83146384603F0D1F8D7
:102D80005946504603F0D4F84146384603F0C9F896
:102D90004146384603F0C3F83146384603F0BFF8E1
:102DA000641CAC42E4D3BDE8F09F2DE9F84F01214B
:102DB0001D2003F030FA0121BA4803F0D1F84FF496
:102DC0004070ADF800001024B34E8DF80340032589
:102DD0008DF802506946304603F033F8A803ADF889
:102DE00000008DF8034002208DF80200694630464D
:102DF00003F027F8AC48016841F480710160AB49E9
:102E00000A6A22F001020A62A9490A8822F0010234
:102E10000A80016821F4807101608014ADF800001F
:102E20008DF803408DF802506946A24803F009F876
:102E30009B4C4FF6FF75ADF800506946204603F0F5
:102E400000F82946204603F06AF8322002F0E2FD3D
:102E500001210020FEF72CFE322002F0DBFD0020D5
:102E6000FEF748FE8D4C49F2413645F21057A080DE
:102E7000FF2804D3A84202D0B0F5134F5AD1D32073
:102E8000FEF79AFDFEF7D8FDFEF7D6FDFEF7D4FD5E
:102E900005EA0020A080FEF7CFFDA1880843A080AE
:102EA000B04247D0BF20FEF787FDFEF7C5FDFEF715
:102EB000C3FDFEF7C1FDFEF7BFFD05EA0020A080BF
:102EC000FEF7BAFDA1880843A0F5D041A0800439DF
:102ED00030D0D420FEF770FDFEF7AEFDFEF7ACFD5E
:102EE000FEF7AAFD05EA0020A080FEF7A5FDA18857
:102EF0000843A0F5A641A08010391BD04FF45A40DA
:102F0000FEF75AFDFEF798FD4FF45B40FEF754FDC7
:102F1000FEF792FD05EA0020A0804FF45C40FEF72A
:102F20004BFDFEF789FDA1880843A080B0F5004F56
:102F300000D1A780A18860A019F0C0FBA088B04292
:102F40007ED1CF20FEF738FD0020FEF755FDC120D1
:102F5000FEF752FD3020FEF74FFDED20FEF72CFD71
:102F60006420FEF749FD0320FEF746FD1220FEF720
:102F700043FD8120FEF740FDE820FEF71DFD852082
:102F8000FEF73AFD1020FEF737FD7A20FEF734FDFC
:102F9000CB20FEF711FD3920FEF72EFD2C20FEF789
:102FA0002BFD0020FEF728FD3420FEF725FD022032
:102FB000FEF722FDF720FEF7FFFC2020FEF71CFDA8
:102FC000EA20FEF7F9FC0020FEF716FD0020FEF7D0
:102FD00013FDC020FEF7F0FC1B20FEF70DFDC12005
:102FE000FEF7EAFC0120FEF707FDC520FEF7E4FC32
:102FF0003020FEF701FD3020FEF7FEFCC720FEF773
:10300000DBFCB720FEF7F8FC3620FEF7D5FC4820A5
:10301000FEF7F2FC3A20FEF7CFFC5520FEF7ECFC61
:10302000B120FEF7C9FC0020FEF7E6FC1A20FEF7EF
:10303000E3FCB620FEF7C0FC0A20FEF7DDFC00E052
:10304000ADE0A220FEF7D8FCF220FEF7B5FC002090
:10305000FEF7D2FC2620FEF7AFFC0120FEF7CCFCE9
:10306000E020FEF7A9FC0F20FEF7C6FC2A20FEF7A1
:10307000C3FC2820FEF7C0FC0820FEF7BDFC0E2094
:10308000FEF7BAFC0820FEF7B7FC5420FEF7B4FCAC
:10309000A920FEF7B1FC17E000100140F80800205D
:1030A000000C01400002300000700040001002409F
:1030B000306C004000080140204C43442049443A11
:1030C00025780D0A000000004320FEF795FC0A2039
:1030D000FEF792FC0F20FEF78FFC0020FEF78CFC21
:1030E0000020FEF789FC0020FEF786FC0020FEF79A
:1030F00083FCE120FEF760FC0020FEF77DFC15203C
:10310000FEF77AFC1720FEF777FC0720FEF774FC29
:103110001120FEF771FC0620FEF76EFC2B20FEF757
:103120006BFC5620FEF768FC3C20FEF765FC052092
:10313000FEF762FC1020FEF75FFC0F20FEF75CFC40
:103140003F20FEF759FC3F20FEF756FC0F20FEF70C
:1031500053FC2B20FEF730FC0020FEF74DFC002036
:10316000FEF74AFC0120FEF747FC3F20FEF744FC37
:103170002A20FEF721FC0020FEF73EFC0020FEF78F
:103180003BFC0020FEF738FCEF20FEF735FC112059
:10319000FEF712FC782002F03DFC2920FEE3B84245
:1031A0007ED14FF4704455212046FEF781FC661C09
:1031B000AA213046FEF77CFCA71C52213846FEF7B8
:1031C00077FC4FF2030808214046FEF771FC4FF2EE
:1031D000040901214846FEF76BFC0D214FF43040F5
:1031E000FEF766FC0D214BF20100FEF761FC0D219C
:1031F0004BF20200FEF75CFC4FF4364A3421504695
:10320000FEF756FC34214BF20160FEF751FC3421ED
:103210004BF20260FEF74CFC4FF4314B0D21584647
:10322000FEF746FC0D214BF20110FEF741FC0D218B
:103230004BF20210FEF73CFC34214FF43740FEF70E
:1032400037FC34214BF20170FEF732FC34214BF293
:103250000270FEF72DFC00214FF43240FEF728FCEF
:1032600000214BF20120FEF723FC00214BF202204B
:10327000FEF71EFC24214FF43840FEF719FC2421F0
:103280004BF60100FEF714FC24214BF60200FEF77A
:103290000FFC01214FF43F40FEF70AFC0F2100E034
:1032A000FEE34FF43340FEF703FC0F214BF20130F5
:1032B000FEF7FEFB0F214BF20230FEF7F9FB342143
:1032C0004FF43940FEF7F4FB34214BF60110FEF7C2
:1032D000EFFB34214BF60210FEF7EAFB08214FF416
:1032E0003540FEF7E5FB08214BF20150FEF7E0FB0D
:1032F00008214BF20250FEF7DBFB03214FF4424062
:10330000FEF7D6FB24214FF43A40FEF7D1FB2421EF
:103310004BF60120FEF7CCFB24214BF60220FEF7F2
:10332000C7FB00214FF43C40FEF7C2FB78214BF66F
:103330000140FEF7BDFB00214BF60240FEF7B8FB53
:1033400000214FF43D40FEF7B3FB78214BF60150CE
:10335000FEF7AEFB00214BF60250FEF7A9FB002161
:103360004FF43E40FEF7A4FB64214BF60160FEF7EC
:103370009FFB00214FF45140FEF79AFB33214DF2A1
:103380000110FEF795FB00214DF20210FEF790FBB5
:1033900034214DF20310FEF78BFB00214DF2041097
:1033A000FEF786FB3A214DF20510FEF781FB002166
:1033B0004DF20610FEF77CFB4A214DF20710FEF796
:1033C00077FB00214DF20810FEF772FB5C214DF2F5
:1033D0000910FEF76DFB00214DF20A10FEF768FBA5
:1033E00081214DF20B10FEF763FB00214DF20C1012
:1033F000FEF75EFBA6214DF20D10FEF759FB0021F2
:103400004DF20E10FEF754FBE5214DF20F10FEF7C2
:103410004FFB01214DF21010FEF74AFB13214DF234
:103420001110FEF745FB01214DF21210FEF740FB93
:1034300054214DF21310FEF73BFB01214DF2141005
:10344000FEF736FB82214DF21510FEF731FB01210C
:103450004DF21610FEF72CFBCA214DF21710FEF7A5
:1034600027FB02214DF21810FEF722FB00214DF23E
:103470001910FEF71DFB02214DF21A10FEF718FB82
:1034800001214DF21B10FEF713FB02214DF21C101F
:10349000FEF70EFB34214DF21D10FEF709FB022151
:1034A0004DF21E10FEF704FB67214DF21F10FEF7D0
:1034B000FFFA02214DF22010FEF7FAFA84214DF2B4
:1034C0002110FEF7F5FA02214DF22210FEF7F0FA74
:1034D000A4214DF22310FEF7EBFA02214DF2241045
:1034E000FEF7E6FAB7214DF22510FEF7E1FA0221C8
:1034F0004DF22610FEF7DCFACF214DF22710FEF731
:10350000D7FA02214DF22810FEF7D2FADE214DF251
:103510002910FEF7CDFA02214DF22A10FEF7C8FA63
:10352000F2214DF22B10FEF7C3FA02214DF22C10BE
:10353000FEF7BEFAFE214DF22D10FEF7B9FA032177
:103540004DF22E10FEF7B4FA10214DF22F10FEF7B7
:10355000AFFA03214DF23010FEF7AAFA33214DF2F3
:103560003110FEF7A5FA03214DF23210FEF7A0FA52
:103570006D214DF23310FEF79BFA00214FF45240BB
:10358000FEF796FA33214DF20120FEF791FA002161
:103590004DF20220FEF78CFA34214DF20320FEF7A3
:1035A00087FA00214DF20420FEF782FA3A214DF20B
:1035B0000520FEF77DFA00214DF20620FEF778FA8D
:1035C0004A214DF20720FEF773FA00214DF2082040
:1035D000FEF76EFA5C214DF20920FEF769FA002130
:1035E0004DF20A20FEF764FA81214DF20B20FEF71E
:1035F0005FFA00214DF20C20FEF75AFAA6214DF297
:103600000D20FEF755FA00214DF20E20FEF750FA7C
:10361000E5214DF20F20FEF74BFA01214DF210206B
:10362000FEF746FA13214DF21120FEF741FA01216F
:103630004DF21220FEF73CFA54214DF21320FEF712
:1036400037FA01214DF21420FEF732FA82214DF2B1
:103650001520FEF72DFA01214DF21620FEF728FA6B
:10366000CA214DF21720FEF723FA02214DF218204D
:10367000FEF71EFA00214DF21920FEF719FA022179
:103680004DF21A20FEF714FA01214DF21B20FEF72D
:103690000FFA02214DF21C20FEF70AFA34214DF2F6
:1036A0001D20FEF705FA02214DF21E20FEF700FA5A
:1036B00067214DF21F20FEF7FBF902214DF2202079
:1036C000FEF7F6F984214DF22120FEF7F1F90221EF
:1036D0004DF22220FEF7ECF9A4214DF22320FEF753
:1036E000E7F902214DF22420FEF7E2F9B7214DF26D
:1036F0002520FEF7DDF902214DF22620FEF7D8F94C
:10370000CF214DF22720FEF7D3F902214DF22820D8
:10371000FEF7CEF9DE214DF22920FEF7C9F902218C
:103720004DF22A20FEF7C4F9F2214DF22B20FEF7CC
:10373000BFF902214DF22C20FEF7BAF9FE214DF21D
:103740002D20FEF7B5F903214DF22E20FEF7B0F93A
:1037500010214DF22F20FEF7ABF903214DF230205E
:10376000FEF7A6F933214DF23120FEF7A1F903212E
:103770004DF23220FEF79CF96D214DF23320FEF719
:1037800097F900214FF45340FEF792F933214DF29F
:103790000130FEF78DF900214DF20230FEF788F975
:1037A00034214DF20330FEF783F900214DF204304D
:1037B000FEF77EF93A214DF20530FEF779F9002146
:1037C0004DF20630FEF774F94A214DF20730FEF74C
:1037D0006FF900214DF20830FEF76AF95C214DF2D5
:1037E0000930FEF765F900214DF20A30FEF760F965
:1037F00081214DF20B30FEF75BF900214DF20C30C8
:10380000FEF756F9A6214DF20D30FEF751F90021D1
:103810004DF20E30FEF74CF9E5214DF20F30FEF778
:1038200047F901214DF21030FEF742F913214DF214
:103830001130FEF73DF901214DF21230FEF738F953
:1038400054214DF21330FEF733F901214DF21430BB
:10385000FEF72EF982214DF21530FEF729F90121EC
:103860004DF21630FEF724F9CA214DF21730FEF75B
:103870001FF902214DF21830FEF71AF900214DF21E
:103880001930FEF715F902214DF21A30FEF710F942
:1038900001214DF21B30FEF70BF902214DF21C30D5
:1038A000FEF706F934214DF21D30FEF701F9022131
:1038B0004DF21E30FEF7FCF867214DF21F30FEF787
:1038C000F7F802214DF22030FEF7F2F884214DF294
:1038D0002130FEF7EDF802214DF22230FEF7E8F834
:1038E000A4214DF22330FEF7E3F802214DF22430FB
:1038F000FEF7DEF8B7214DF22530FEF7D9F80221A8
:103900004DF22630FEF7D4F8CF214DF22730FEF7E6
:10391000CFF802214DF22830FEF7CAF8DE214DF231
:103920002930FEF7C5F802214DF22A30FEF7C0F823
:10393000F2214DF22B30FEF7BBF802214DF22C3074
:10394000FEF7B6F8FE214DF22D30FEF7B1F8032157
:103950004DF22E30FEF7ACF810214DF22F30FEF76D
:10396000A7F803214DF23030FEF7A2F833214DF2D3
:103970003130FEF79DF803214DF23230FEF798F812
:103980006D214DF23330FEF793F800214FF454408F
:10399000FEF78EF833214DF2014000E07FE3FEF7A1
:1039A00087F800214DF20240FEF782F834214DF2F3
:1039B0000340FEF77DF800214DF20440FEF778F851
:1039C0003A214DF20540FEF773F800214DF2064012
:1039D000FEF76EF84A214DF20740FEF769F8002124
:1039E0004DF20840FEF764F85C214DF20940FEF705
:1039F0005FF800214DF20A40FEF75AF881214DF29E
:103A00000B40FEF755F800214DF20C40FEF750F840
:103A1000A6214DF20D40FEF74BF800214DF20E406D
:103A2000FEF746F8E5214DF20F40FEF741F801217F
:103A30004DF21040FEF73CF813214DF21140FEF715
:103A400037F801214DF21240FEF732F854214DF2C1
:103A50001340FEF72DF801214DF21440FEF728F82F
:103A600082214DF21540FEF723F801214DF2164058
:103A7000FEF71EF8CA214DF21740FEF719F8022191
:103A80004DF21840FEF714F800214DF21940FEF7F0
:103A90000FF802214DF21A40FEF70AF8012100E06A
:103AA000FFE24DF21B40FEF703F802214DF21C40ED
:103AB000FDF7FEFF34214DF21D40FDF7F9FF022115
:103AC0004DF21E40FDF7F4FF67214DF21F40FDF758
:103AD000EFFF02214DF22040FDF7EAFF84214DF275
:103AE0002140FDF7E5FF02214DF22240FDF7E0FF06
:103AF000A4214DF22340FDF7DBFF02214DF22440CB
:103B0000FDF7D6FFB7214DF22540FDF7D1FF022189
:103B10004DF22640FDF7CCFFCF214DF22740FDF7B7
:103B2000C7FF02214DF22840FDF7C2FFDE214DF212
:103B30002940FDF7BDFF02214DF22A40FDF7B8FFF5
:103B4000F2214DF22B40FDF7B3FF02214DF22C4044
:103B5000FDF7AEFFFE214DF22D40FDF7A9FF032139
:103B60004DF22E40FDF7A4FF10214DF22F40FDF73E
:103B70009FFF03214DF23040FDF79AFF33214DF2B4
:103B80003140FDF795FF03214DF23240FDF790FFE4
:103B90006D214DF23340FDF78BFF00214FF455406E
:103BA000FDF786FF33214DF20150FDF781FF002123
:103BB0004DF20250FDF77CFF34214DF20350FDF72A
:103BC00077FF00214DF20450FDF772FF3A214DF2CC
:103BD0000550FDF76DFF00214DF20650FDF768FF1F
:103BE0004A214DF20750FDF763FF00214DF20850C6
:103BF000FDF75EFF5C214DF20950FDF759FF0021F2
:103C00004DF20A50FDF754FF81214DF20B50FDF7A4
:103C10004FFF00214DF20C50FDF74AFFA6214DF257
:103C20000D50FDF745FF00214DF20E50FDF740FF0E
:103C3000E5214DF20F50FDF73BFF01214DF21050F1
:103C4000FDF736FF13214DF21150FDF731FF012131
:103C50004DF21250FDF72CFF54214DF21350FDF799
:103C600027FF01214DF21450FDF722FF82214DF272
:103C70001550FDF71DFF01214DF21650FDF718FFFD
:103C8000CA214DF21750FDF713FF02214DF21850D3
:103C9000FDF70EFF00214DF21950FDF709FF02213B
:103CA0004DF21A50FDF704FF01214DF21B50FDF7B4
:103CB000FFFE02214DF21C50FDF7FAFE34214DF2B9
:103CC0001D50FDF7F5FE02214DF21E50FDF7F0FEEE
:103CD00067214DF21F50FDF7EBFE02214DF22050FF
:103CE000FDF7E6FE84214DF22150FDF7E1FE0221B1
:103CF0004DF22250FDF7DCFEA4214DF22350FDF7DA
:103D0000D7FE02214DF22450FDF7D2FEB7214DF22D
:103D10002550FDF7CDFE02214DF22650FDF7C8FEDD
:103D2000CF214DF22750FDF7C3FE02214DF228505E
:103D3000FDF7BEFEDE214DF22950FDF7B9FE02214E
:103D40004DF22A50FDF7B4FEF2214DF22B50FDF753
:103D5000AFFE02214DF22C50FDF7AAFEFE214DF2DE
:103D60002D50FDF7A5FE03214DF22E50FDF7A0FECC
:103D700010214DF22F50FDF79BFE03214DF23050E4
:103D8000FDF796FE33214DF23150FDF791FE0321F0
:103D90004DF23250FDF78CFE6D214DF23350FDF7A0
:103DA00087FE00214FF45640FDF782FE33214DF28D
:103DB0000160FDF77DFE00214DF20260FDF778FE07
:103DC00034214DF20360FDF773FE00214DF20460D3
:103DD000FDF76EFE3A214DF20560FDF769FE002108
:103DE0004DF20660FDF764FE4A214DF20760FDF7D3
:103DF0005FFE00214DF20860FDF75AFE5C214DF296
:103E00000960FDF755FE00214DF20A60FDF750FEF6
:103E100081214DF20B60FDF74BFE00214DF20C604D
:103E2000FDF746FEA6214DF20D60FDF741FE002193
:103E30004DF20E60FDF73CFEE5214DF20F60FDF7FF
:103E400037FE01214DF21060FDF732FE13214DF2D5
:103E50001160FDF72DFE01214DF21260FDF728FEE5
:103E600054214DF21360FDF723FE01214DF2146041
:103E7000FDF71EFE82214DF21560FDF719FE0121AE
:103E80004DF21660FDF714FECA214DF21760FDF7E2
:103E90000FFE02214DF21860FDF70AFE00214DF2DF
:103EA0001960FDF705FE02214DF21A60FDF700FED4
:103EB00001214DF21B60FDF7FBFD02214DF21C605C
:103EC000FDF7F6FD34214DF21D60FDF7F1FD0221F5
:103ED0004DF21E60FDF7ECFD67214DF21F60FDF70E
:103EE000E7FD02214DF22060FDF7E2FD84214DF255
:103EF0002160FDF7DDFD02214DF22260FDF7D8FDC6
:103F0000A4214DF22360FDF7D3FD02214DF2246080
:103F1000FDF7CEFDB7214DF22560FDF7C9FD022169
:103F20004DF22660FDF7C4FDCF214DF22760FDF76D
:103F3000BFFD02214DF22860FDF7BAFDDE214DF2F2
:103F40002960FDF7B5FD02214DF22A60FDF7B0FDB5
:103F5000F2214DF22B60FDF7ABFD02214DF22C60FA
:103F6000FDF7A6FDFE214DF22D60FDF7A1FD032119
:103F70004DF22E60FDF79CFD10214DF22F60FDF7F4
:103F800097FD03214DF23060FDF792FD33214DF294
:103F90003160FDF78DFD03214DF23260FDF788FDA4
:103FA0006D214DF23360FDF783FD55212046FDF76D
:103FB0007FFDAA213046FDF77BFD52213846FDF7F3
:103FC00077FD08214046FDF773FD00214846FDF7C7
:103FD0006FFDCC215846FDF76BFD00214BF201101F
:103FE000FDF766FD05215046FDF762FD70214FF497
:103FF0003740FDF75DFD70214BF20170FDF758FD74
:1040000001214FF43840FDF753FD03214BF6010029
:10401000FDF74EFD03214BF60200FDF749FD03219C
:104020004BF60300FDF744FD02214FF43C40FDF741
:104030003FFD00214BF60140FDF73AFD00214BF614
:104040000240FDF735FDD0214FF44940FDF730FD2A
:1040500002214CF60110FDF72BFD50214CF6021009
:10406000FDF726FD50214CF60310FDF721FD5021F0
:104070004CF60410FDF71CFD00214FF45450FDF7E1
:1040800017FD55214FF46850FDF712FD4FF488508D
:10409000FDF792FC782001F0A6FC4FF42450FDF7C8
:1040A0008BFC0120FEF740FBFE490120C1F8B00166
:1040B0002846FEF72DFEBDE8F88F2DE9F84FFA4CA3
:1040C0001E468346A388A3F5D040043802D1A079C8
:1040D00001280BD0A2EB0B00401C84B20D46DFF888
:1040E000CC834FF400794FF4004A40E0258808461D
:1040F000A91AA5EB0B030025A57132462A25658177
:104100002B26A681491E5B1E0A9F89B29BB200978F
:10411000FFF7D3FF0120A0716681A581CBE7294677
:104120005846FDF719FDFDF7EBFC00271BE000BF2B
:104130004FF48071404601F0F2FE4946404601F0DE
:10414000F0FEDB480A9901F0F3FE5146404601F0CB
:10415000E8FE5146404601F0E2FE4946404601F085
:10416000DEFE7F1CBFB2A742E2D36D1CADB2B542EA
:10417000D5D9A0E72DE9FF5F8B460098101A401CA7
:1041800086B2A3EB0B00401C87B2002433E000BFD3
:104190000BEB040081B20098FDF7DEFCFDF7B0FCEC
:1041A0000025DFF808934FF4007A4FF400481EE032
:1041B0004FF48071484601F0B2FE5146484601F086
:1041C000B0FE04FB06510E9830F81110B84801F00B
:1041D000AFFE4146484601F0A4FE4146484601F084
:1041E0009EFE5146484601F09AFE6D1CADB2B542A6
:1041F000DED3641CA4B2BC42CAD3BDE8FF9F2DE944
:10420000FE4F161ACDE900104FF000085D1A474620
:104210004FF0FF30002E02DD4FF0010102E003D12C
:104220004FF000018B4602E08346C6F10006002DE8
:1042300002DD4FF0010002E003D14FF000008246A2
:1042400002E08246C5F10005AE4201DD344600E0E1
:104250002C46601C4FF00009029018E0009881B2D3
:10426000019880B2FEF7F9F8B0442F44A04504DD70
:104270000198A8EB040858440190A74203DD009878
:104280003F1B5044009009F101001FFA80F9029988
:104290008945E3DDBDE8FE8F2DE9F0411C4615465A
:1042A0000E4607460B46FFF7AAFF3A46234631461D
:1042B0001046FFF7A4FF23462A4619463846FFF763
:1042C0009EFF2A4623463146BDE8F041104696E758
:1042D0002DE9FC5F07460025144603200E46A0EB9F
:1042E000440858E0A6EB0509A7EB040A1FFA89F178
:1042F0001FFA8AF0FEF7B1F8381901901FFA89F118
:1043000080B2FEF7AAF8301981B2A7EB050B009036
:104310001FFA8BF0FEF7A1F81FFA89F11FFA8AF055
:10432000FEF79BF8A6EB04091FFA89F11FFA8BF040
:10433000FEF793F8019806EB050B1FFA8BF180B29C
:10434000FEF78BF81FFA89F107EB05091FFA89F0D0
:10435000FEF783F8009881B21FFA89F0FEF77DF826
:104360001FFA8BF11FFA8AF0FEF777F86D1CB8F18F
:10437000000F04DA08EB850000F1060805E0291BB0
:1043800008EB810000F10A08641E301981B2781927
:1043900080B2FEF762F8A542A4DDBDE8FC9F2DE9DE
:1043A000FF5F80461D460C468B46580700D0012013
:1043B00000EBD50069084843203A00F0FF0AD0B26C
:1043C0000026029045E00C2D12D0102D15D0182D8E
:1043D00041D10298374900EBC00000BF01EB8000DB
:1043E0004FF00009875D38060CD5334802880DE090
:1043F0000298324900EB4000F0E73149029801EBA6
:104400000010EDE70E9828B92B4842882146404617
:10441000FEF747F87806070E2348641CA4B201880B
:10442000414518D9A4EB0B00A84209D108F10100BD
:104430001FFA80F81C485C46018841450BD906E00C
:1044400009F1010000F0FF09B9F1080FCBD3761C88
:10445000F6B25645B7D3D0E60246012000E05043FD
:10446000491EC9B2FBD270472DE9FF4F81B000262B
:10447000DDF838A01D46934681463446B0464FEAE3
:104480005A0738E0281B401EC1B20A20FFF7E4FF9C
:10449000BBFBF0F00A21B0FBF1F201FB1200AEB958
:1044A000691E0FE000002142F808002000100140C2
:1044B000000C0140204C03087C000020BC41030894
:1044C000304603088C4201DA48B101263030C2B2CE
:1044D00007FB049080B25346CDF8008006E007FB4E
:1044E000049080B253462022CDF800800299FFF755
:1044F00056FF641CE4B2AC42C4D305B0BDE8F08FF3
:104500002DE9FF4F81B04FF00008DDE90EBA1E46DD
:10451000814644460AF001054FEA5B072CE0301B58
:10452000401EC1B20A20FFF797FF0399B1FBF0F0DC
:104530000A21B0FBF1F201FB1200B8F1000F05D126
:10454000711E8C4202DA48B14FF001083030C2B21D
:1045500007FB049080B25B46009508E05FEA0A60C2
:1045600007FB049080B25B46009508D53022029983
:10457000FFF715FF641CE4B2B442D0D3BDE720229C
:10458000F5E72DE9F84F044600F0FF0910190D4634
:10459000DDE90AB61FFA80F8581987B24FF0000A11
:1045A00012E0444503D305EB0B004C4685B2BD42F7
:1045B0000FD25B4629462046CDF800A0FFF7EFFE5C
:1045C00004EB5B0084B2761C3278A2F120005E28F6
:1045D000E7D970E570B506460024334D03E0641C4E
:1045E000E4B2C82C0FD80221284601F070FF002841
:1045F000F5D03146284601F026FF002405E0641C72
:10460000E4B2C82C01D9002070BD0121284601F078
:104610005EFF0028F3D0284601F017FFC0B270BD3E
:1046200038B5012141F2040001F0F5FDE020ADF8BC
:10463000000018208DF8030003201C4C8DF80200A8
:104640006946204601F0FDFBE021204601F067FCB1
:10465000174800214FF4827201804280818002223B
:10466000C280012202815202428138228281C181AC
:10467000072101820C4C0146204601F03FFE01213A
:10468000204601F0B8FEFF20FFF7A4FF38BD064921
:104690000A8822F038020A800A8802430A800888C1
:1046A00040F04000088070470030014000080140A1
:1046B0000609002030B50021FF4A0B4601240506FB
:1046C00002D5C2F8A04101E0C2F8A0314006000EB8
:1046D000C2F8AC31C2F8AC41491CC9B20829EED3CA
:1046E00030BD2DE9F0410027F34C3E463D46C4F86D
:1046F000AC71C4F8A071C4F8BC7104F5D074FFF7B4
:10470000D9FF062001F06FF9E560012001F06BF997
:104710000121E160E560E94A4FF6FF70A4F5D0742D
:1047200000EA4606C4F8AC51C4F8AC11D2F82831FE
:104730000BB1761CB6B27F1CFFB2102FF0D330093C
:10474000C4F8BC11BDE8F081FEB5064600256C46F4
:104750003046FFF7C6FF24F815006D1CADB2052DDD
:10476000F6D30020431C99B20CE000BF34F81020AF
:1047700034F81150AA4203D924F8105024F811201B
:10478000491C89B20529F1D398B20428EAD3002143
:104790005FF0010034F81020401C114480B289B24F
:1047A0000428F7D30320B1FBF0F0FEBD2DE9F04162
:1047B000C34C06460D462078FFF7C6FF07466078D3
:1047C000FFF7C2FF378028800120BBE77FB50C468A
:1047D0000546694602A8FFF7E9FF00282FD001A986
:1047E00003A8FFF7E3FF002829D0BDF80C30BDF87F
:1047F0000820934203D803F13200824205D39A4243
:104800001FD802F1320083421BD2BDF80410BDF85C
:104810000000814203D801F13206B04204D388423D
:104820000FD8323081420CD2D01840082880BDF811
:104830000000BDF80410084440082080012004B0A6
:1048400070BD0020FBE72DE9F04104469D480D4670
:104850000B46028004F10D0082B2193880B2FFF7D6
:10486000CEFC05F10D0083B2193881B22246104604
:10487000FFF7C5FC6E1C04F10108B1B21FFA88F005
:10488000FDF7EBFDB1B2661EB0B2FDF7E6FD6F1E9F
:10489000B9B21FFA88F0FDF7E0FDB9B2B0B2FDF78A
:1048A000DCFD29462046BDE8F0410622FFF710BD99
:1048B00070B5064683480C4602803046FDF7CDFDB4
:1048C000751CA8B22146FDF7C8FD641CA1B2304694
:1048D000FDF7C3FDA1B2A8B2BDE87040FDF7BDBDB4
:1048E00070B502467548D0F83401754C083440B1B3
:1048F00094F8200001063ED520F0800084F82000C6
:1049000040E06F48083000F116010C3012B1FFF79B
:104910005DFF24E0FFF75AFF08B3B4F92C0003F061
:10492000DBFA0546A08903F0E0FA616A03F058FA61
:10493000294603F0FDF903F003FBA081B4F92E0032
:1049400003F0CAFA0546E08A03F0CFFAA16A03F041
:1049500047FA294603F0ECF903F0F2FAE08294F802
:10496000200000060ED4C02084F82000A089A08278
:10497000E08AE08306E00020A082E0834FF6FF702B
:10498000A081E08294F8200000F0800070BD10B596
:104990004B4C042208342820616A00F09BFE04225C
:1049A0002C20A16A00F096FEA18D0222302000F09A
:1049B00091FEE18D0222322000F08CFE94F830103E
:1049C000342000F068FE0A21BDE81040352000F0D8
:1049D00062BE10B5352000F03DFE044601463AA007
:1049E00017F06CFE0A2C01D0002010BD04212820F5
:1049F00000F085FE324C0421083460622C2000F067
:104A00007EFEA0620221302000F079FEA085022106
:104A1000322000F074FEE085342000F01BFE90226E
:104A2000274984F83000D02310B10A704B7001E0A0
:104A30000B704A70012010BD2DE9FF4F83B00E4668
:104A4000DDE910A81F4907464FF47840DDF8509083
:104A500008801EA01025CDE900501D4C9346A021D2
:104A6000638822882820FFF78CFD1AA0CDE900502A
:104A700063882288A0217820FFF783FD16A0CDE966
:104A8000005063882288B4212820FFF77AFD13A004
:104A9000CDE9005063882288B4217820FFF771FDAA
:104AA0000FA0CDE9005063882288C8212820FFF795
:104AB00068FD0CA018E00000000021420000224226
:104AC000800000207C00002025750A0078313A0023
:104AD000F808002079313A0078323A0079323A0009
:104AE00078333A0079333A00CDE900506388228860
:104AF000C8217820FFF745FDFEA0CDE9005063886E
:104B00002288DC212820FFF73CFDFBA0CDE90050E6
:104B100063882288DC217820FFF733FDF7A0CDE9F8
:104B2000005063882288F0212820FFF72AFD042303
:104B30003A46A02140200095FFF796FC0423324618
:104B4000A02190200095FFF78FFC04235A46B42142
:104B500040200095FFF788FC04230095B4219020A5
:104B6000069AFFF781FC04235246C8214020009595
:104B7000FFF77AFC04234246C82190200095FFF7F6
:104B800073FC04230095DC214020129AFFF76CFC93
:104B900004230095DC219020139AFFF765FC009513
:104BA000218803234A466020FFF75EFC07B0BDE87A
:104BB000F08F2DE9F04F002689B034464FF6FF7094
:104BC000FEF7A6F8CF484FF01F0B4FF01009A0F8E2
:104BD00000B0CD486423A0224168CDE9009128218E
:104BE0000846FFF7CEFC14214FF478420846FFF741
:104BF0002AFEC54800210830824680F82010416214
:104C0000DAF8041055460120884795F82010012055
:104C1000B0EB911F49D121F0400185F8201005A982
:104C2000AA8921F8262001EB8602761C0024E88A56
:104C3000F6B2AA465080012E06D0022E12D0032EC4
:104C400020D0042E31D13CE014214FF6FF720846EB
:104C5000FFF7F9FDAD484FF478420088143880B270
:104C6000142120E0A94D4FF6FF7214212888143832
:104C700080B2FFF7E8FD68884FF47842143881B2BB
:104C8000142010E0A14D4FF6FF726888143881B2ED
:104C90001420FFF7D8FD68884FF47842143881B2A9
:104CA0002888143880B2FFF7CEFD0A2000F0B2FE4B
:104CB000641CA4B2B4F57A7FA2D9FFF78AFE09B0CA
:104CC00075E70026924805AD00EB860710F8262010
:104CD000787835F8221035F82030C91A00D54942C5
:104CE00005EB820205EB800052884088101A00D53F
:104CF000404249434043084403F0FCF817F06BFF7F
:104D000003F032F91FFA80F8B878FA7835F82010F5
:104D100035F82230C91A00D5494205EB800005EB71
:104D2000820240885288801A00D54042494340435D
:104D3000084403F0DFF817F04EFF03F015F987B2CF
:104D4000384603F0D2F80546404603F0CEF829462F
:104D500003F078F86F49054688427DDD6E4885424C
:104D60007ADCB8F1000F77D0002F75D0761CF6B240
:104D7000032EA7D3BDF81870BDF81460B81B03F05C
:104D8000ABF805466148008802908046283803F059
:104D9000A3F8294603F056F8CAF824000090B81981
:104DA00003F0A3F8009903F01BF80546404603F012
:104DB0009CF8294603F00EF84FF0FF3103F080F81D
:104DC00003F0A5F8AAF82C00BDF81E70BDF8160077
:104DD0000190381A03F080F806464C484588A5F142
:104DE000280003F079F8314603F02CF88046064697
:104DF000CAF828000198384403F077F8314602F0E9
:104E0000EFFF0646284603F070F8314602F0E2FF55
:104E10004FF0FF3103F054F803F079F8AAF82E00B0
:104E2000009803F074F8002800DA4042022807DCFA
:104E3000404603F06CF8002800DA4042022858DDB2
:104E40000298143D14380026304FA9B280B24FF6B4
:104E5000FF72FFF7F8FC00E01AE014214FF47842EB
:104E60000846FFF7F0FC2DA1CDE900917B883A8838
:104E70001A212820FFF785FB9AF83010B9B30021DA
:104E80008AF83010A1B3204890210170D0215AE057
:104E90001E4800264FF6FF724188008814391438E6
:104EA00089B280B2FFF7CFFC14214FF47842084654
:104EB000FFF7C9FC1E49284602F092FF03F040F8B4
:104EC00080B2BDF82220BDF82030BDF81E10CDE91B
:104ED0000320CDE90113BDF81C000090BDF81A3085
:104EE000BDF81820BDF81610BDF8140022E024E02B
:104EF00025E02AE078343A0079343A00666163208C
:104F000069733A007C00002080000020F80800202F
:104F10007C5903083333733F6666863F5450204EF6
:104F200065656420726561646A75737421000000B0
:104F30000000C842FFF780FD62E60121A0E7324889
:104F4000D0210170902141705AE630494FF6FF742C
:104F50002046A1F800B0FDF7DBFE2DA1CDE90091C0
:104F600031486E21438802882320FFF70AFB4FF463
:104F70007A7000F04FFDFFF70AFD2046FDF7C8FEEE
:104F80009DE638B50121142001F045F94FF40940A0
:104F9000ADF8000010208DF8030003208DF802000A
:104FA0006946224800F04DFF4FF48060ADF80000E4
:104FB00048201F4C8DF803006946204600F041FF51
:104FC0006014ADF8000004208DF803006946204607
:104FD00000F037FF0C491E31A1F10A00FFF7E6FB94
:104FE00000F036FBFFF7F5FC08B1002038BD4FF4A8
:104FF0007840FDF78DFEFFF7DCFDFFF7C8FCFFF7FB
:10500000E8FC012038BD0000800000207C0000206A
:10501000546F7563682053637265656E2041646ADE
:10502000757374204F4B2100F808002000080140E0
:10503000001001407FB50C4605460121022001F019
:10504000F3F8ADF80040ADF804500024554DADF82C
:105050000240ADF806406946284601F0FDFA0122FB
:105060001146284601F0B6FD1D208DF80C008DF884
:105070000D4003208DF80E0001208DF80F0003A8CD
:1050800000F035FE0121284601F08FFD7FBD10B5EF
:10509000444C0121204601F0B2FF18B14249086892
:1050A000401C08602046BDE81040012101F0B3BF5C
:1050B0007FB50D4604460121102001F0B5F800200F
:1050C000ADF80440ADF80050384CADF80200ADF832
:1050D00006006946204601F0BFFA01224121204620
:1050E00001F078FD36208DF80C0001218DF80D10AF
:1050F00003208DF80E008DF80F1003A800F0F7FDC7
:105100000121204601F051FD7FBD10B5274C012142
:10511000204601F074FF08B107F040FF2046BDE8CB
:105120001040012101F077BF7FB50D4604460121F3
:10513000084601F079F80020ADF80440ADF80050C1
:10514000ADF80200ADF806004FF0804469462046F5
:1051500001F082FA01221146204601F03BFD1C209D
:105160008DF80C0002208DF80D0003208DF80E0044
:1051700001208DF80F0003A800F0B9FD01212046A1
:1051800001F013FD7FBD10B501218C07204601F011
:1051900036FF08B1FBF7ADF82046BDE8104001210D
:1051A00001F039BF00040040000100200010004061
:1051B0006248016800210160016841F033310160FB
:1051C000C16801F47F41C160C16841F0F001C16074
:1051D000016889B201600168594A11430160704752
:1051E00010B50121102001F016F8BDE81040DFE7EE
:1051F00070B52A25FFF7DCFF504CA068A068C0F30B
:1052000003100F2871D0642000F0EDFBA068A168A6
:1052100080B2C1F303110F2967D000F0F0012068BC
:1052200000202060206840F033302060E06800F407
:105230007F40E060E06840F00F00E06020686FF3BE
:105240000F002060206848F6880210432060A068A4
:1052500000F00F0001433B48D7293DD012DCB729AD
:105260003CD008DC77293BD07B2931D07D2927D061
:105270007E2936D11CE0BB2928D0BD291ED0BE29ED
:105280002FD113E0E72925D006DCDB291CD0DD294E
:1052900012D0DE2925D107E0EB2913D0ED2909D062
:1052A000EE291ED1C57B1CE0857B1AE0457B18E00A
:1052B000057B16E0C57A14E0857A12E0457A10E0A5
:1052C000057A0EE0C5790CE085790AE0457908E0B9
:1052D000057906E0C57804E0857802E0457800E0CD
:1052E0000578A068C0430007FBD1284670BD10B503
:1052F000FFF77EFF452813D006DC2A281CD0432860
:1053000011D0442804D108E04D2803D059280DD0ED
:1053100001210DE001211D200AE00121122007E0FA
:105320000121092004E00121082001E001210D20D4
:10533000BDE8104007F0F4BB10BD000000100140B4
:1053400000008888BC00002070B586B001212420B0
:1053500000F061FF1024ADF80040B54E8DF8034019
:1053600003258DF802506946304600F06AFD08209A
:10537000ADF800008DF803408DF8025069463046C4
:1053800000F05FFD0821304600F0C9FD0420ADF8B3
:10539000000048208DF803008DF802506946A548AA
:1053A00000F04FFD1821304600F0B9FDFFF738F945
:1053B000A14D0021284601F01EF80024ADF804405C
:1053C0004FF48270ADF80600ADF80C406815ADF8EA
:1053D0000E003820ADF810000720ADF80840ADF8F9
:1053E0001400ADF80A40ADF8124001A9284600F0BB
:1053F00085FF9248C0F890410121C0F88C1106B099
:1054000070BD2DE9F0418D4E884600211546C6F845
:105410008C11FFF7DFF80746002406E0FF20FFF7B6
:10542000D9F808F80400641CE4B2AC42F6D30120B9
:10543000C6F88C013846BDE8F0812DE9F0417F4F78
:105440000D4600211646C7F88C11FFF7C3F88046B9
:10545000002405E015F8010BFFF7BCF8641CE4B26A
:10546000B442F7D30120C7F88C014046E3E71CB5EE
:1054700073A1D1E90001CDE900011020FFF707F980
:10548000052269463020FFF7D8FF05226946102023
:10549000FFF7B7FF002069460A5CA52A03D1401C2C
:1054A000C0B20528F8D3052801D001201CBD00207A
:1054B0001CBD70B5614C0E460021C4F88C1104F57A
:1054C000C674FFF787F805463046FFF783F80120DA
:1054D0002060284670BD10B5584C0021C4F88C11CE
:1054E00004F5C674FFF776F8FF20FFF773F8012183
:1054F000216010BD70B505461020FFF7C8F84F4C6D
:105500000020C4F8900120222946A02004F5C87488
:10551000FFF793FF012020604B4800BFD0F808112F
:105520000029FBD10720FFF7D6FF044601462720BC
:10553000FFF7BFFFE00605D5FF21E120FFF7B9FF28
:10554000102070BDA00601D5202070BDFF2070BDC9
:1055500070B505461020FFF79AF80720FFF7BBFF4C
:10556000044601462720FFF7A4FF60060AD5202243
:1055700029466120FFF745FFFF21E220FFF799FF51
:10558000002070BD012070BD10B52C4C0020C4F867
:10559000900105222D492A2004F5C874FFF74DFF1C
:1055A00001212120FFF785FF01212220FFF781FF44
:1055B00028212520FFF77DFF20213120FFF779FFEB
:1055C0000F212620FFF775FF0F212020FFF771FF25
:1055D0000120206010BD10B5184C0020C4F89001C7
:1055E0001A490522491F302004F5C874FFF725FF2A
:1055F000052216492A20FFF720FF01212120FFF76D
:1056000058FF01212220FFF754FF1A212420FFF721
:1056100050FF28212520FFF74CFF0F212620FFF700
:1056200048FF0E212020FFF744FF0120206010BD1D
:1056300000080140001401400030014000002142F8
:10564000A5A5A5A5A5000000008022428D5903084C
:1056500000F09EB810B5044600F0B4F8200AA0216E
:1056600001EB4000C0B200F045F900F0E4F8E0B210
:1056700000F040F900F0DFF800F0A4F8A12000F0FD
:1056800039F900F0D8F8002000F05FF9044600F086
:10569000B5F8204610BD70B50D46044600F092F8EE
:1056A000200AA02101EB4000C0B200F023F900F075
:1056B000C2F8E0B200F01EF900F0BDF8284600F094
:1056C00019F900F0B8F800F099F8BDE870400A2028
:1056D00000F0A0B92DE9F04116460D46074600241A
:1056E00009E0E00025FA00F0C1B2381980B2FFF7F6
:1056F000D2FF641CE4B2B442F3D3BDE8F0812DE9DB
:10570000F0410D460146002004464E1908E007020C
:10571000301B401E80B2FFF79DFF641C3844E4B28A
:10572000AC42F4D3E9E710B5FF20FFF793FF55280B
:105730000AD05521FF20FFF7AEFFFF20FFF78AFFB9
:10574000552801D0012010BD002010BD70B51446B1
:105750000D46064608E03046711C8EB2FFF77AFF10
:10576000641E05F8010BA4B2002CF4D170BD70B515
:1057700016460C46054606E021782846FFF78BFFC3
:105780006D1CADB2641C761EB6B2F5D270BD0000C1
:1057900008B50121102000F03EFD4FF4C050ADF8D7
:1057A000000010208DF8030003208DF802006946E8
:1057B0007F4800F046FB7F480121C0F8AC11C0F8DB
:1057C000B01108BD70B57A48416821F4702141607C
:1057D000416841F440314160764C0120C4F8B00189
:1057E000C4F8AC01042004F5D67400F0FCF80025E0
:1057F0006560042000F0F7F8256070BD6C4810B5B6
:10580000416821F470214160416841F440314160B8
:10581000684C0020C4F8AC01C4F8B001042004F5C1
:10582000D67400F0E0F8012020606060BDE8104010
:10583000042000F0D8B870B55D480024416821F418
:1058400070214160416841F400214160594D0126B9
:10585000C5F8B061304600F0C6F8C5F8AC6101206B
:1058600000F0C1F807E0641CE4B2FA2C03D9FFF79A
:10587000C5FF012070BDD5F830010028F3D1C5F86F
:10588000AC0170BD70B54B4C0025C4F8AC51484814
:10589000416821F470214160416841F44031416028
:1058A000C4F8B051022004F5D67400F09CF8012031
:1058B0002060022000F097F8256070BD70B53D4C67
:1058C0000025C4F8AC513A48416821F47021416088
:1058D000416841F4403141600126C4F8B0610220C2
:1058E00004F5D67400F07FF82660022000F07BF803
:1058F000256070BD2DE9F04106462D48416821F430
:1059000070214160416841F440314160294C0027D9
:10591000C4F8AC713D464FF00108F009C4F8B0017D
:105920007006060E022000F05EF8C4F8AC8102207A
:1059300000F059F8C4F8AC71022000F054F86D1C66
:10594000EDB2082DE9D3BDE8F0812DE9F04781469D
:1059500017480024416821F470214160416841F4F6
:1059600000214160134E254627464FF0010800BF35
:10597000C6F8AC71022000F036F8C6F8AC816006BB
:10598000040ED6F8300108B1641CE4B2012000F026
:105990002AF86D1CEDB2082DEAD3B9F1000F04D03E
:1059A000FFF770FF2046BDE8F087FFF787FFF9E7B4
:1059B000001001400000224210B56FF0040000F01A
:1059C000D6F9204820490068B0FBF1F0C1B21F4869
:1059D00001EB41020170C2EBC1114FF6FF7202EA06
:1059E000C101418010BD1949097848434FF0E021B9
:1059F000486100228A61086940F001000861086975
:105A0000C30701D0C003FAD5086920F0010008617E
:105A10008A6170470D49498848434FF0E021486149
:105A200000228A61086940F0010008610869C30723
:105A300001D0C003FAD5086920F0010008618A612D
:105A4000704700000000002000127A00CC00002007
:105A5000704741490A885206FCD53F4AC1B2121D1F
:105A600011807047F0B5054687B0012144F204006B
:105A700000F0D1FB384E304601F0D0FA7015ADF889
:105A8000100003248DF812401820344F8DF81300B5
:105A900004A9384600F0D5F93015ADF810000420FF
:105AA0008DF8130004A9384600F0CBF925208DF8B5
:105AB00014008DF815408DF8164001208DF8170060
:105AC00005A800F014F90020ADF80400ADF80600B8
:105AD000ADF80800ADF80C000C20ADF80A000095F8
