:020000040800F2
:1000000058A90020895E0008450100084701000842
:10001000490100084B0100084D01000800000000E4
:100020000000000000000000000000004F01000878
:1000300051010008000000005301000855010008AC
:10004000A35E0008A35E0008A35E0008A35E00088C
:10005000A35E0008A35E0008A35E0008A35E00087C
:10006000A35E0008A35E0008A35E0008A35E00086C
:10007000A35E0008A35E0008A35E0008A35E00085C
:10008000A35E0008A35E0008A35E0008A35E00084C
:10009000A35E0008A35E0008A35E0008A35E00083C
:1000A000A35E0008A35E0008A35E0008A35E00082C
:1000B0003F55000847540008A35E0008A35E0008EF
:1000C000A35E0008A35E0008A35E0008A35E00080C
:1000D000A35E0008215E0008A35E0008A35E00087E
:1000E000A35E0008A35E0008A35E0008A35E0008EC
:1000F000A35E0008A35E0008A35E0008A35E0008DC
:10010000A35E0008A35E0008A35E0008A35E0008CB
:10011000A35E0008A35E0008C3540008A35E0008A5
:10012000A35E0008A35E0008A35E0008A35E0008AB
:10013000DFF80CD008F020FA00480047BD1B00088B
:1001400058A900207047FEE7FEE7FEE7FEE770478C
:1001500070477047704700000CB500214B48019173
:100160000091026842F4803202604FF4A06302689A
:1001700002F400320092019A521C0192009A12B9C4
:10018000019A9A42F3D10268920333D5012100917A
:100190003F490A6842F010020A600A6822F003022E
:1001A0000A600A6842F002020A60416841604168E0
:1001B0004160416841F480614160416821F47C11F3
:1001C0004160416841F4E8114160016841F080718B
:1001D000016001688901FCD5416821F0030141609B
:1001E000416841F0020141604168C1F38101022987
:1001F000FAD10CBD00910CBD244810B5016841F046
:10020000010101604168234A114041600168224AAE
:1002100011400160016821F480210160416821F4EE
:10022000FE0141604FF41F018160FFF795FF1B49FC
:100230004FF00060086010BD144910B54868184AB6
:1002400010F00C03174803D0042B01D0082B0AD060
:1002500002604968134AC1F30311121D515C026820
:10026000CA40026010BD4A684B6802F470124FF039
:10027000020413F4803F04EB924202D04B689B03CC
:1002800001D5094B00E0064B5A43E1E7001002405C
:10029000002002400000FFF8FFFFF6FE08ED00E03E
:1002A00000127A000000002000093D002DE9FF4700
:1002B000FC4C81462668354611F06CFD80460EF0F8
:1002C00067FF21684F4200EB47040EF055FF00EB3B
:1002D000470200230227CDE90293CDE90087234698
:1002E0002946304611F08CFBEF49086004B0BDE8A8
:1002F000F0873EB5144611F063FD054611F021FD6F
:10030000EA49884204D12146284609F035F83EBD25
:10031000E74988420AD14CB12246E6A168461CF062
:1003200041FB6946284609F063FA3EBDE24988422E
:10033000FBD12146284610F0CDFB3EBD3EB511F065
:100340003FFD044611F0FDFCDB49884203D1204605
:1003500010F068FB11E0D549884203D1204608F02F
:10036000BCFF0AE0D249884208D10A2269462046E9
:1003700009F0A2F9684607F05EFEC0B23EBD10B5B6
:100380004FF4A871FFF7DAFFCC49487010BDCB4994
:100390004A784FF4A871ACE770B505464FF4807108
:1003A000FFF7CCFFC54C4FF4A87120712846FFF72A
:1003B000C5FF6071607840F20111012812D0022857
:1003C0000FD12846FFF7BAFFA0714FF4817128467C
:1003D000FFF7B4FFE07140F251112846FFF7AEFF7E
:1003E000207270BD2846FFF7A9FFA07170BD70B5DF
:1003F000B24C05464FF480712279FFF77AFF62799B
:100400004FF4A8712846FFF774FF607840F201119D
:10041000012812D0022812D1A2792846FFF769FFDD
:10042000E2794FF481712846FFF763FF227A40F2A8
:1004300051112846BDE870405BE7A279F9E770BD2D
:1004400070B59E4C984B05466278083340F26511B2
:1004500001F09BFA22794FF481712846FFF749FF9A
:10046000914B62793A334FF4B371284601F08DFA1B
:10047000A27940F203112846FFF73BFFE2794FF4DF
:1004800082712846FFF735FF874B227A263340F2E8
:100490006711284601F079FA627A4FF48071284694
:1004A000FFF727FFA27A2846BDE8704040F201110D
:1004B0001FE77FB5D0E900140F2902D008F00EF92C
:1004C0007FBD01A811F04AFC042203A9204608F0D0
:1004D000F3FA204608F0F3FA05246FF07F4508B1DF
:1004E000774E00E0774E30460CF0D2FC0094BDF918
:1004F0000A30BDF90820BDF90610BDF904000BF063
:1005000067FD30460CF0C2FC28460CF0C1FC6E487A
:100510000CF0DEFC0E2201A903A80BF02DFA7FBD22
:1005200010B5D0E9001486B00F2903D008F0D6F832
:1005300006B010BD14226946204608F0BDFA2046D8
:1005400008F0BDFA78B16FF07F400CF09FFCB0204E
:100550000CF060FC0022114668460BF0BDFA00204A
:100560000CF058FCE4E70022114668460BF0B4FAA0
:10057000DEE72DE9F04385B04FF0000CDDE90F46D2
:10058000DDE90C754FF00208DDF838908DE8801138
:10059000CDE9035408F040F905462246494608F0E3
:1005A0001BFB284612F05AFA3146284612F04CF945
:1005B0000021284608F0B4FA284605B0BDE8F083CB
:1005C0002DE9FF410027DDE90BC50A9C02268DE8D5
:1005D000D01008F0F1F804463C4908F0A9FA294681
:1005E000204608F0BDFA3A4A0021204608F075FA84
:1005F000384A0121204608F070FA374A0221204685
:1006000008F06BFA00221146204608F0D1FA0022C9
:100610000121204608F0CCFA00220221204608F0F1
:10062000C7FA2049204610F091FF0121204608F02A
:1006300077FA04B02046BDE8F081F0B585B00AAF86
:100640004FF0020C97E87000CDE9004C00270297AC
:10065000CDE9035610F005FE05B01C49BDE8F04099
:1006600010F07CBEF0B585B00027DDE90CE5DDE9D2
:100670000A4C02268DE8D05008F0C6FF0446174900
:1006800009F0A6F80221204609F012F90549204692
:1006900010F05CFF2946204609F092F8204605B08C
:1006A000F0BD000078CF030814000020C58D0008BD
:1006B0003B95000825750000BF070108D4080020FD
:1006C000404040008080FF00B09803082477030872
:1006D000B8B8B800E0E0E000C0C0C000F8A8030867
:1006E0002DE9F04387B00024DDE91095DDE90E76B1
:1006F0004FF01E0CCDF814C00294CDE9036502261C
:10070000CDE9007610F0B4F80646FE4910F0A8F9DD
:1007100009E000BF04EB840109EB410122463046A9
:1007200010F0B4F9641CAC42F4DB304607B045E786
:1007300001680F2901D011F011BA70471CB50EF0F5
:1007400027FD04460EF018FD421EEF49EF48CDE9A3
:1007500000010021234608460BF036FAEC480CF065
:1007600097FB0520002100901E2340F23B12084613
:100770000BF02EFC00200CF08BFBE6480CF0A8FBE5
:1007800002200CF0E7FB07220021E3A00BF0D2F8D7
:100790000722FA21E6480BF09FF907224FF48771F0
:1007A000E4480BF099F907224FF49171E2480BF0FD
:1007B00093F900200CF06CFBBDE81C40D1480CF014
:1007C00087BB2DE9F043D0E9001485B04FF4BB7925
:1007D00040F2791801290AD00E297DD00F297CD04A
:1007E00026297BD005B0BDE8F04311F0B7B9D4A0FD
:1007F0004FF4B8710094CDE90110D04D0226CDE937
:1008000003651E23282205210020FFF7B2FECDA09C
:1008100040F271110094CDE90110CDE90365282261
:100820001E2305211046FFF7A4FEC7A04FF4B9719F
:100830000094CDE90110CDE903651E23282205218E
:100840005020FFF796FEC1A040F273110094CDE94D
:100850000110CDE903651E23282205217820FFF72A
:1008600088FE01AFBAA14FF4BA700495009487E8EE
:1008700043001E2328220521A020FFF77AFEB5A001
:10088000B1020094CDE901100427CDE903751E23C0
:1008900028220521C820FFF76CFEAFA040F2751199
:1008A0000094CDE90110CDE9036528221E231146ED
:1008B0000020FFF75EFEA9A1CDE902162822CDE9AE
:1008C00000491E23049511461046FFF752FEA4A0CE
:1008D00040F277111E2302E034E03DE044E0009452
:1008E000CDE90110CDE90365282211465020FFF71C
:1008F00040FE9CA04FF4BC710094CDE90110CDE9FD
:10090000036528221E2311467820FFF732FE96A1A8
:10091000CDE90216CDE9004828221E230495114690
:10092000A020FFF726FE91A040F601010094CDE93A
:100930000110CDE9037528221E231146C820FFF7B8
:1009400018FE3AE6C06800680928FAD105B02046CA
:10095000BDE8F04312F05AB86D480CF097FA05B0B4
:10096000BDE8F0430AF0D6BDC1680229E9D180682C
:1009700011F057FA484512D008DCA0F5B8700628E7
:10098000DFD2DFE800F01B1E210C0C0CA0F2791165
:10099000404504D006DC881C01D00128D1D10121BA
:1009A000332006E0A1F5C061873910D00129C8D1F4
:1009B000082005B0BDE8F0430CF01EBA012130203C
:1009C000F7E701213120F4E701213220F1E7684CFB
:1009D000606811F0F7F800206060EEE510B5D0E92E
:1009E000001401290BD00E2921D00F291CD0A1F50C
:1009F000807113390FD0BDE8104011F0AFB8204618
:100A000011F0B6FF20460023BDE810404FF47A7283
:100A1000194610F0CBBF04F047FF564804F028FFFA
:100A2000BDE8104000F0A8BFBDE8104086E610BD4C
:100A3000F0B5D0E900144FF4B8752E1D85B001292A
:100A40000AD00E295AD00F2959D0262958D005B0DE
:100A5000BDE8F04011F082B8204611F089FF0EF099
:100A60008BFB45491422464B0968CDE902324F42BF
:100A700000EB4700782101EB6000404904911E2300
:100A80001A46C821CDE90045FFF773FD0EF074FB4F
:100A90003CA14FF4B9720094CDE9012100EB47006D
:100AA0006FF0590505EB6000282346223C21FFF733
:100AB00087FD0EF061FB37A140F273120094CDE97F
:100AC000012100EB47004010282346223C21FFF77C
:100AD00077FD0EF051FB33A10094CDE9016100EBED
:100AE000470005EB6000282346226E21FFF768FDD2
:100AF0000EF042FB00EB470040105BE066E06FE069
:100B000072E00000247703086941E100DDA0DD0008
:100B1000D3D3D30060860308E6898BE68C81E99203
:100B2000BBE5BA8AE68EA7E588B6E599A80000007D
:100B300050F10208A4F70208F8FD0208B304000807
:100B400030000000310000003200000033000000DF
:100B500034000000596573003500000036000000C5
:100B600037000000380000003900000044656C00C8
:100B700014000020D408002078CF030821050008C5
:100B80001C0C0308E8838CE58589E8B083E695B4FE
:100B900000000000E9A29CE889B2E8BDACE68DA2A5
:100BA00000000000E5B18FE5B995E6A0A1E58786D4
:100BB00000000000FEA140F275120094CDE9012171
:100BC000282346226E21FFF7FBFC68E5C068006819
:100BD0000928FAD105B02046BDE8F04011F016BF53
:100BE00005B0BDE8F040A9E5C1680229EDD18068F3
:100BF00011F017F9A84212D0B042E6D16FF07F4051
:100C00000CF044F90AF086FC04F0AFF904F09BF80C
:100C1000EA48006805B0BDE8F04011F096BC05B0A8
:100C2000BDE8F04000F0A8BE2DE9F041D0E9001485
:100C3000E34D86B04FF0040801290AD00E297DD07B
:100C40000F297CD026297BD006B0BDE8F04110F0FA
:100C500085BF204611F08CFE0EF08EFAD949142281
:100C6000DA4B0968CDE902324E4200EB46007821AA
:100C700001EB60004FF4B877D349CDE90047049108
:100C80001E231A46C821FFF774FC0EF075FAD0A196
:100C90004FF4B9720094CDE9012100EB46006FF0EA
:100CA000810707EB6000282346223C21FFF788FCE0
:100CB0000EF062FACAA140F273120094CDE901214C
:100CC00000EB460007EB6000282346226E21FFF769
:100CD00077FC0EF051FAC6A14FF4BA720094CDE938
:100CE000012100EB46006FF0270707EB6000282387
:100CF00046223C21FFF764FC0EF03EFAC0A140F210
:100D000075120094CDE9012100EB460007EB60006D
:100D1000282346226E21FFF753FC0EF02DFABCA1CA
:100D20004FF4BB720094CDE90121322700EB46005D
:100D30002823462207EB60003C2102E018E021E076
:100D400024E0FFF73DFC0EF017FAB5A140F2771250
:100D50000094CDE9012100EB460007EB6000282359
:100D600046226E21FFF72CFC85F8008006B062E475
:100D7000C06800680928F9D106B02046BDE8F041F6
:100D800011F044BE06B0BDE8F041D7E4C1680229C5
:100D90001DD1806811F045F8A0F5B870082811D26F
:100DA000DFE800F0041007090C0E181A00F0E4FD4B
:100DB00008E0012000E00220687303E00320FBE765
:100DC00085F80D8004F097FD7D4804F023FD002098
:100DD0006873CBE70520EFE70620EDE72DE9F04F3C
:100DE0007849064685B0D6E9000509684FF4FA78D7
:100DF0004C426FF08B070F287DD004DC01280ED009
:100E00000E2806D193E1262876D0A0F580701338FD
:100E100073D005B03046BDE8F04F10F09FBE2846B5
:100E200011F0A6FD002342461946284610F0BEFDEB
:100E30000EF0A2F900EB440107EB61007CA14FF436
:100E4000B0720095CDE90121B94614234122282131
:100E5000FFF7F3FB0EF090F979A140F261120095D3
:100E6000CDE9012100EB44006FF0270606EB60009E
:100E7000142341222821FFF7E0FB0EF07DF900EB5F
:100E8000440109EB610072A14FF4B1720095CDE904
:100E90000121142341225A21FFF7CFFB0EF06CF9F8
:100EA0006DA140F263120095CDE9012100EB4400F1
:100EB00006EB6000142341225A21FFF7BEFB0EF01F
:100EC0005BF900EB44014FF03C0A0AEB610066A1BC
:100ED0004FF4B2720095CDE901211423412228215B
:100EE000FFF7ABFB0EF048F900EB44016FF059003F
:100EF00000EB610002E024E14DE13DE15EA140F242
:100F000065120095CDE9012114234122D221FFF77A
:100F100094FB0EF031F95AA14FF4B3720095CDE96C
:100F2000012100EB440006EB600014234122D22192
:100F3000FFF783FB0EF020F94FF0140B00EB440198
:100F40000BEB610052A140F267120095CDE901213F
:100F50005B464122D221FFF770FB0EF00DF94FF4F2
:100F6000807200274FF00308CDE9005200EB4401E6
:100F7000CDE9028709EB6100142341223C21FFF7F0
:100F800071FB0EF0F9F840F20112CDE90052CDE903
:100F9000028700EB440006EB6000142341223C2151
:100FA000FFF760FB0EF0E8F800EB440178E000008A
:100FB000E6A8AAE7AB96E5B18F0000001400002078
:100FC000D408002078CF0308210500081C0C030872
:100FD000E5B7A5E4BBB6E5B7A6E8BDAC00000000E8
:100FE000E5B7A5E4BBB6E58FB3E8BDAC00000000F3
:100FF000E58FB3E8BDACE7BB86E8B0830000000036
:10100000E58FB3E8BDACE7B297E8B083000000001D
:10101000E8BDACE9809FE5878FE5B0910000000056
:10102000E8BDACE9809FE5A29EE58AA00000000033
:10103000E8BDACE58AA8E9809FE5BAA600000000FB
:10104000E992BBE5AD94E9809FE5BAA600000000F7
:10105000E5AD94E695B00000E689A9E5AD94E6B764
:10106000B1E5BAA600000000E992BBE5AD94E6B791
:10107000B1E5BAA600000000E6A8A1E5BC8F00001B
:10108000E5A587E581B6E695B0E68E920000000002
:10109000E5A4A7E5B08FE992BBE5A4B40000000089
:1010A0004FF48172CDE90052CDE9028709EB61006E
:1010B000142341226E21FFF7D5FA0EF05DF840F2BD
:1010C0000312CDE90052CDE9028700EB440006EBA4
:1010D0006000142341226E21FFF7C4FA0EF04CF891
:1010E0004FF48272CDE9005200EB4401CDE9028752
:1010F0000AEB6100142341223C21FFF7B3FA0EF002
:101100003BF800EB4401FF4B0095CDE903B3FE4CE7
:101110004FF4B872CDE90124782000EB61001E2362
:101120001A46C821FFF725FA05B0BDE8F08FF06830
:1011300000680928F8D105B02846BDE8F04F11F045
:1011400065BCFFF7FBFA6FF07F400BF0A1FE0EF0DD
:1011500013F800EB4400502101EB60050EF00CF891
:10116000052100EB4400009107EB6000E6232A46CE
:10117000D2210AF031FED7E704F096FBE34804F0F1
:1011800077FB2846FFF75CF9F06805B04146BDE8FB
:10119000F04F11F00BBBF0680228C5D1B06810F019
:1011A00040FEB0F5B87FBFD105B0BDE8F04F00F00C
:1011B000E3BBF0B5D0E900144FF4B875AE1C85B0B0
:1011C00001290AD00E2948D00F2950D0262953D002
:1011D00005B0BDE8F04010F0C1BC204611F0C8FBDE
:1011E0000DF0CAFFCA491422C74B0968CDE9023283
:1011F0004F4200EB4700782101EB6000C1490491A8
:101200001E231A46C821CDE90045FFF7B2F90DF0BB
:10121000B3FFC0A10094CDE9016100EB47006FF07E
:10122000590505EB6000282378223C21FFF7C8F917
:101230000DF0A2FFBBA140F273120094CDE9012191
:1012400000EB470005EB6000282378226E21FFF7B2
:10125000B7F9AE4902200870B7E4C06800680928F1
:10126000FAD105B02046BDE8F04011F0CFBB05B083
:10127000BDE8F040FFF762BAC1680229ECD180688E
:1012800010F0CFFDA84215D0B04218D0A0F5807064
:101290007338E1D104F02FFB9C4804F0BBFA2028FE
:1012A0004FF0020216D0A4A1A5A005B0BDE8F04001
:1012B0000BF0BCBC05B0BDE8F04000F05DBB04F035
:1012C00066FA4FF0000210B19BA1A2A0EDE7A7A122
:1012D000A8A0EAE7ADA1AFA0E7E72DE9F04FD0E97C
:1012E00000158A4C85B04FF000094FF0020A4FF00C
:1012F000030B4FF4C07601290AD00E297DD00F29A7
:101300007CD026297BD005B0BDE8F04F10F026BC7C
:10131000284611F02DFB0DF02FFF7D495023B046DC
:101320000968CDE9005A4F4200EB47006FF0810198
:10133000CDE9029601EB60001A463C2107F010FE51
:1013400006469AA107F025FD99A1304607F021FD38
:1013500098A1304607F01DFD9749304607F0E2FF9F
:101360000DF00AFF95A14FF4B9720095CDE9012166
:1013700000EB47006FF0270606EB600028235022A1
:101380003C21FFF71DF90DF0F7FE8EA140F273121C
:101390000095CDE9012100EB470006EB6000282312
:1013A00050227821FFF70CF90DF0E6FE87A14FF4EB
:1013B000BA720095CDE9012100EB4700322606EB19
:1013C0006000282350223C21FFF7FAF80DF0D4FEEC
:1013D00080A140F275120095CDE9012100EB470094
:1013E00006EB6000282350227821FFF7E9F80DF082
:1013F000C3FE00EB4700782102E01CE025E029E075
:101400001422414BCDE9023201EB60004FF4B87673
:101410003C49CDE9005604911E231A46C821FFF726
:10142000A8F884F800B0A27805B041462846BDE887
:10143000F04FFEF75EBFC068006809283BD105B0D9
:101440002846BDE8F04F11F0E1BA05B0BDE8F04F15
:10145000FFF774B9C168022902D004291AD028E024
:10146000806810F0DEFCA0F5B87006281CD2DFE81A
:1014700000F0031B06080B0E00F07EFA14E00120BA
:1014800006E084F810A00FE084F810B00CE004200F
:10149000207409E0806810F0C4FC3146884203D112
:1014A0002846FEF74BFFA07004F025FA174804F019
:1014B000B1F984F8109037E67FB504460DF05CFE74
:1014C00013496FF0810609684D4200EB450006EBB9
:1014D0006000AFF27C4140F261120094CDE901213D
:1014E000142350226E21FFF7A8F80DF045FE0121CC
:1014F00000EB450006EB6000032240F2011300946C
:1015000003916BE0210500081C0C0308D40800209F
:1015100078CF0308E6A8A1E59D97E6A380E6B58B02
:1015200000000000E695B0E68DAEE4BCA0E8BE93F6
:10153000E6A380E6B58B00004572726F7200000072
:1015400053656E642044617461206661696C6564F2
:1015500000000000436C696E6574204E52463234C0
:101560004C3031206572726F722100004E6F726DC7
:10157000616C0000436C69656E74204E52463234D3
:101580004C3031204E6F726D616C21004E6F726D68
:101590006F6C000053656E64204461746120537564
:1015A000636365737366756C000000004D31000065
:1015B0004D3200004D330000B0CE0308E5AE9AE492
:1015C000BD8D0000E689A9E5AD940000E4B88AE588
:1015D0008D870000E4B88BE9998D0000CDE90132D8
:1015E000192350228C21FFF73DF87FBDF0B5D0E9DB
:1015F000001485B04FF4B87601290AD00E295DD0C9
:101600000F2965D0262968D005B0BDE8F04010F05C
:10161000A5BA204611F0ACF90DF0AEFDFE494FF42D
:10162000B0726FF05907096800944D42FBA1CDE9F3
:10163000012100EB450007EB60001423502232210A
:10164000FEF7FBFF0DF098FD0321F84A4FF4A87355
:1016500000940391CDE90132502300EB450007EBE4
:1016600060001A461946FFF73BF82046FEF78FFE4A
:101670000DF082FDEEA10094CDE9016100EB450083
:1016800007EB600028235022BE21FEF799FF0DF0E2
:1016900073FD00EB45001422E84B7821CDE90232BE
:1016A00001EB6000E44940F2711504911E231A46D3
:1016B000C821CDE90045FEF75CFFCDE5C0680068B4
:1016C0000928FAD105B02046BDE8F04011F09EB9D6
:1016D00005B0BDE8F040FFF731B8C1680229ECD190
:1016E000806810F09EFBB04208D0A0F58070713881
:1016F000E3D105B0BDE8F04000F03EB92046FEF76A
:101700003EFE00F039F905B0CD48BDE8F040FEF7E7
:10171000CDBD2DE9F041C049D0E90024096800267B
:101720004D4286B04FF4B878012A0AD00E2A4DD027
:101730000F2A55D0262A58D006B0BDE8F04110F047
:101740000DBA204611F014F90DF016FDBDA200945B
:10175000CDE9018200EB45006FF0590101EB60001B
:1017600028235022BE21FEF72BFF0DF005FD00EBD4
:1017700045001422B14B7821CDE9023201EB600023
:10178000AD4940F2711504911E231A46C821CDE9D6
:101790000045FEF7EEFE204600F0BFF9AB4D68783D
:1017A000012802D0022804D009E02046FFF784FE79
:1017B00005E02046FFF780FE204600F072F9204643
:1017C000FEF715FE2E7006B0BDE8F081C068006817
:1017D0000928F8D106B02046BDE8F04111F016B94D
:1017E00006B0BDE8F041FEF7A9BFC1680229EAD101
:1017F000806810F016FB8D4F083FB0F5817F07D051
:101800001FDCB0F5807F03D0A0F580700138DAD1FD
:101810000DF0B2FC00EB45006FF07C0101EB6000C5
:101820008B49022203960094CDE901214623F02240
:10183000AA2110F0E5F8786006B0BDE8F04110F09C
:10184000DBBE404508D0A0F580707138BBD100F0F8
:1018500093F880487E6018E02046FEF79DFD04F076
:101860004AF87A4803F0D6FF20280BD000F084F81D
:101870000222AFF23C31AFF2383006B0BDE8F041A1
:101880000BF0D4B900F078F8734806B0BDE8F04129
:10189000FEF70CBD7CB504464FF41476D4E9000580
:1018A00001280AD00E2815D00F281CD026281ED0BB
:1018B0002046BDE87C4010F051B9284611F058F898
:1018C000CDE90056AA2340F213123221142000F071
:1018D00071F87CBDE06800680928FAD12846BDE8A7
:1018E0007C4011F093B8BDE87C40FEF727BFA068AC
:1018F00010F097FAB042ECD1E0680228E9D1A06874
:101900000DF082F90628E4D24849483151F8200008
:10191000BDE87C40FEF7CABC10B5042011F016F8F3
:101920004E480EF0C3FE4E4808F0E0FB4B480EF068
:10193000BDFE4C4807F0E6F84B4807F0C9F94B48A4
:1019400007F0E2FC4A480FF051FB4A480FF048FC10
:1019500049480DF02FF849480FF074F800F0B9F934
:1019600010F018FA464910F06FFF4648FEF79EFC4B
:10197000BDE810400BF078BD10B52C4C083C206839
:1019800010F020F90020206010BD70B51C461546EF
:1019900010F016FA064610F0D4F93B49884208D1F7
:1019A00005EB850004EB40013046BDE870400FF0C8
:1019B000E7BC70BDF0B587B00227DDE90C564124C5
:1019C0000297CDE9036405940324CDE900540DF09A
:1019D000C3F806462D490DF03BF92D4A012130464A
:1019E0000DF01FF91E22012130460DF043F91E2291
:1019F000002130460DF03EF9264D002405EBC400D1
:101A000055F83410426830460CF0E2FF641C062C96
:101A1000F4D3304640E0000078CF0308E6A8A1E503
:101A2000BC8FE98089E68BA9000000001C00002023
:101A3000E8AEBEE7BDAE0000210500081C0C03089F
:101A400013170008E689A7E8A18C0000D40800203D
:101A5000C3070008ED150008DD0900082906010884
:101A6000359C000881880008E18B0008319000084F
:101A7000110E0108B510010875E900086D0901088B
:101A80003107000895180008FD11010824770308A4
:101A90004050D480E877020810F06AFF07B0304663
:101AA000F0BD7FB504460DF067FB3C493C4A40F26F
:101AB0005113096800944D4200EB4500322101EBBF
:101AC000600002210391CDE90132462350223221E8
:101AD000FEF706FE0DF050FB32A14FF4B1720094F8
:101AE000CDE9012100EB45004010142350226E2166
:101AF000FEF7A3FD0DF040FB0121039103224FF4FB
:101B000081730094CDE9013200EB450040101923A8
:101B100050228C21FEF7A6FD7FBD7FB504460DF057
:101B20002BFB1E494FF4B0726FF0810609680094D8
:101B30004D4220A1CDE9012100EB450006EB6000FC
:101B4000142350222821FEF778FD0DF015FB01210A
:101B50000B02039103220094CDE9013200EB450012
:101B600006EB6000192350224621FEF77BFD0DF0A5
:101B700003FB00EB45006FF0270101EB6000022141
:101B8000074A039114324FF4A8730094CDE901324F
:101B9000462350223221FEF7A3FD7FBD78CF0308F4
:101BA0003A000020E992BBE5AD94E6B7B1E5BAA6EC
:101BB00000000000E5AD94E695B0000004F08CF85C
:101BC0004FF4A06004F01EFA4FF4165004F0DAF857
:101BD00003F0E0FC01F0C5FA03F0AFFB40F2E7349C
:101BE0004721204603F002FC40F2CF25294620463B
:101BF00003F03AFC294642F20F7003F071FC04F046
:101C000064F90121402004F08DFC03F02DFD0AF061
:101C100087FBFFF781FE00BF03F00DFD142009F0E4
:101C2000F3FDF9E72DE9FC41006814260F284ED199
:101C300042480BF04DF900200BF02AF902200BF07E
:101C400089F90DF0A5FA441E0DF096FA421E3C49A2
:101C50006FF07F40CDE9000100212346084609F0DE
:101C6000E7FF384F387858B13C22A02136A009F060
:101C700069FE39480BF02CF95A22A021374821E09F
:101C800000240DF079FA00EBD0704010283885B2AE
:101C90004FF0A0087868A04201D1314801E03048F7
:101CA000143842880188A8EB5202A5EB510109F0D3
:101CB00013FF641CA819A4B285B2052CEAD33C22F8
:101CC000A02128A002B0BDE8F04109F03BBEBDE86C
:101CD000FC817CB5224932241C39D1E90001CDE9CF
:101CE000000110F057F8214910F0AEFD154D052602
:101CF0000FE000BFC4F1320090FBF6F106FB1100CB
:101D0000641E6860E4B2684610F0D2FBC82009F097
:101D10007BFD03F03CFD10B1002CEBD100E00CB9D1
:101D20000120287010F036F810F00FFCC82009F0E0
:101D30006BFD28780028FDD17CBD0000B0BB0308F6
:101D4000808080007C0000204E524632344C30317E
:101D5000206572726F722100B0980308ECF30308DB
:101D60006CE9020857656C636F6D6500251C0008FF
:101D700070B5F84D04464FF48071284604F061FABE
:101D80006E153146284604F05CFA2146F24804F00C
:101D90005FFAB4012146284604F053FA214628464A
:101DA00004F04DFA31462846BDE8704004F047BAC9
:101DB00070B5E84D04464FF48071284604F03FFAB0
:101DC0006E153146284604F03CFA2146E24804F0FC
:101DD0003FFAB4012146284604F033FA214628464A
:101DE00004F02DFA31462846BDE8704004F027BAC9
:101DF0002DE9F047D84C4FF088302060261D306028
:101E0000D54F00200C373860D24DA115284604F07C
:101E100016FA4FF4007A5146284604F012FA4FF4AD
:101E200080494946284604F00CFACC488088A0F541
:101E30000941893902D1022003F065FF204604F0F0
:101E4000F1F980464946284604F0F9F951462846FA
:101E500004F0F5F94FF03330206030604FF6FF703A
:101E600038604046BDE8F08770B50E46FFF780FF4A
:101E7000B84C4FF48071204604F0E1F9651529460D
:101E8000204604F0DEF93146B34804F0E1F9AE0132
:101E90003146204604F0D5F93146204604F0CFF90A
:101EA00029462046BDE8704004F0C9B910B5FFF7D7
:101EB0005FFFBDE810409BE7A848008958E770B570
:101EC000A44D04464FF48071284604F0B8F96E150D
:101ED0003146284604F0B5F921469F4804F0B8F988
:101EE000B4012146284604F0ACF92146284604F006
:101EF000A6F931462846BDE8704004F0A0B9C0F309
:101F00004511C20AC00200EB4110104480B2704774
:101F10002DE9FC5F914C0E460546A088090A009108
:101F2000290A01912146DFF82C82DFF82CA24A8988
:101F3000A0F513434FF400794FF4004B413B15D00B
:101F4000A0F5A641103911D02346A0F5D04C9979BF
:101F50001B885B1B5B1EBCF1040C15D0A0F5A04CCC
:101F6000BCF5A26C75D0012972D0EAE01046FFF7EB
:101F7000FFFE4FF48071404604F061F94946404647
:101F800004F05FF901990FE0012900D19DB21046DC
:101F9000FFF7EEFE4FF48071404604F050F94946D9
:101FA000404604F04EF9290A5446504604F050F9D0
:101FB0005F465946404604F044F93946404604F02D
:101FC0003EF94946404604F03AF94FF480714046E4
:101FD00004F035F94946404604F033F9E9B22046A9
:101FE00004F036F93946404604F02BF939464046AC
:101FF00004F025F94946404604F021F95748808904
:10200000FFF7B6FE4FF48071404604F018F94946D8
:10201000404604F016F92046009904F019F93946B3
:10202000404604F00EF93946404604F008F94946A6
:10203000404604F004F94FF48071404604F0FFF884
:102040004946404604F0FDF8F1B2204668E000E061
:1020500076E01046FFF78CFE4FF48071404604F0A6
:10206000EEF84946404604F0ECF85046019904F079
:10207000EFF85F465946404604F0E3F839464046DB
:1020800004F0DDF84946404604F0D9F86089401C68
:1020900080B2FFF76DFE4FF48071404604F0CFF838
:1020A0004946404604F0CDF8E9B2504604F0D0F875
:1020B0003946404604F0C5F83946404604F0BFF8BA
:1020C0004946404604F0BBF8A089FFF751FE4FF4A3
:1020D0008071404604F0B3F84946404604F0B1F838
:1020E0005046009904F0B4F83946404604F0A9F887
:1020F0003946404604F0A3F84946404604F09FF8AC
:10210000A089401C80B2FFF733FE4FF48071404637
:1021100004F095F84946404604F093F8F1B2504671
:1021200004F096F83946404604F08BF839464046AC
:1021300004F085F849464046BDE8FC5F04F07FB8EE
:102140009DB229461046FFF78FFEA0893146BDE8B3
:10215000FC5F89E600100140000C0140F4080020FB
:102160002DE9F84FFE4C2288824202D962888A42C9
:1021700002D80020BDE8F88FFFF7CAFEA088A3466A
:10218000A0F5134145F2103645F21057413905D0FC
:10219000A0F5D041043901D0B04201D12E2005E094
:1021A000B84202D14FF4385000E02220FFF7E0FDA2
:1021B000DFF8B0934FF08830C9F8000009F104014E
:1021C0000860E8494FF6FF780C31C1F80080E64C12
:1021D0008915204604F033F86115204604F031F8E3
:1021E0004FF480452946204604F02BF8012003F0E7
:1021F0008AFD2946204604F022F82946204604F0AC
:1022000020F8012003F07FFD484604F00BF88146DA
:102210002946204604F013F8BBF80400A0F513414A
:10222000413903D0B04201D0B84210D129462046EE
:1022300004F007F8CB4803F0F5FF0090294620464C
:1022400003F0FDFF09F0FF0008EA002A0FE0A0F507
:10225000D04104390BD12946204603F0F2FF29462C
:10226000204603F0ECFFBF4803F0DCFF81464FF44B
:102270000071204603F0E3FFBA494FF033300860A5
:10228000091D0860B7490C31C1F80080BBF8040093
:10229000A0F51341253921D0A0F58A4135391DD04B
:1022A000091D1BD0A0F50941893917D0A0F535418A
:1022B000053913D0A0F51341413903D0B04201D004
:1022C000B8420DD14FEAD9214FEAC1214FEA9A20F5
:1022D00041EA4011009841EAD0204BE7484649E7DF
:1022E0004846BDE8F84F0AE69D488088A0F51341AE
:1022F00041390ED0A0F5D04104390AD0A0F5A6414D
:10230000103906D0B1F5007105D040F273110720E5
:10231000AAE5292001E04FF4245029E5904880885F
:10232000A0F5134141390DD0A0F5D041043909D0B1
:10233000A0F5A641103905D0B1F5007104D00021F7
:10234000072091E5282001E04FF4205010E52DE909
:10235000F047834C00252146A379898846F604027C
:10236000012B18D1914216D0082814D2DFE800F0D2
:102370000406080A0C0E101206200CE007200AE0E2
:10238000042008E0052006E0012004E0002002E02F
:10239000032000E00220A1F5134645F2103345F278
:1023A0001058413E05D0914203D0994201D0414599
:1023B0007ED1082812D2DFE800F0110406080A0CCA
:1023C0000E1080250AE0402508E0C02506E0202503
:1023D00004E0602502E0A02500E0E025414502D1AF
:1023E0004FF4585000E03620994203D0414501D0C7
:1023F00045F00805914201D145F002052946FFF755
:1024000033FDA8062088618802D5884202D303E004
:10241000884201D921806080A088534E4045514FA9
:1024200060894FF480754FF4007A4FF400497DD1F4
:10243000FFF79EFC2946B046304603F000FF5146A8
:10244000404603F0FEFE0021384603F001FF4E46F1
:102450004946404603F0F5FE3146404603F0EFFEA4
:102460005146404603F0EBFE6089401C80B2FFF706
:102470007FFC2946404603F0E2FE5146404603F009
:10248000E0FE0021384603F0E3FE3146404603F00B
:10249000D8FE3146404603F0D2FE5146404603F096
:1024A000CEFE6089801C80B2FFF762FC294600E006
:1024B0008AE1404603F0C3FE5146404603F0C1FEA8
:1024C0002088401EC0F30F21384603F0C1FE31467C
:1024D000404603F0B6FE3146404603F0B0FE51469A
:1024E000404603F0ACFE6089C01C80B2FFF740FCA0
:1024F0002946404603F0A3FE5146404603F0A1FEA4
:102500002078401EC1B2384603F0A2FE3146404654
:1025100003F097FE3146404603F091FE5146404697
:1025200003F08DFEA089FFF723FC00E079E0294647
:10253000404603F084FE5146404603F082FE0021EF
:10254000384603F085FE3146404603F07AFE3146B8
:10255000404603F074FE5146404603F070FE05E02D
:10256000F4080020000C014000100140A089401C2C
:1025700080B2FFF7FDFB2946404603F060FE51465E
:10258000404603F05EFE0021384603F061FE31460E
:10259000404603F056FE3146404603F050FE514699
:1025A000404603F04CFEA089801C80B2FFF7E0FBA0
:1025B0002946404603F043FE5146404603F041FEA3
:1025C0006088401EC0F30F21384603F041FE3146BB
:1025D000404603F036FE3146404603F030FE514699
:1025E000404603F02CFEA089C01C80B2FFF7C0FB60
:1025F0002946404603F023FE5146404603F021FEA3
:10260000A078401EC1B2384603F022FE3146404653
:1026100003F017FE3146404603F011FE5146404696
:10262000CEE0FFF7A5FB2946304603F008FE5146F1
:10263000304603F006FE0021B846384603F008FE97
:102640004F464946304603F0FCFD3946304603F01C
:10265000F6FD5146304603F0F2FD2946304603F0C0
:10266000EEFD5146304603F0ECFD0021404603F0FC
:10267000EFFD3946304603F0E4FD3946304603F0BD
:10268000DEFD5146304603F0DAFD2946304603F0C0
:10269000D6FD5146304603F0D4FD2088401EC0F3DD
:1026A0000F21404603F0D4FD3946304603F0C9FD02
:1026B0003946304603F0C3FD5146304603F0BFFDB6
:1026C0002946304603F0BBFD5146304603F0B9FDC4
:1026D0002078401EC1B2404603F0BAFD394630466C
:1026E00003F0AFFD3946304603F0A9FD51463046B0
:1026F00003F0A5FDA089FFF73BFB2946304603F018
:102700009EFD5146304603F09CFD0021404603F0FB
:102710009FFD3946304603F094FD3946304603F0BC
:102720008EFD5146304603F08AFD2946304603F0BF
:1027300086FD5146304603F084FD0021404603F0FB
:1027400087FD3946304603F07CFD3946304603F0BC
:1027500076FD5146304603F072FD2946304603F0BF
:102760006EFD5146304603F06CFD6088401EC0F39C
:102770000F21404603F06CFD3946304603F061FD01
:102780003946304603F05BFD5146304603F057FDB5
:102790002946304603F053FD5146304603F051FDC3
:1027A000A078401EC1B2404603F052FD3946304683
:1027B00003F047FD3946304603F041FD51463046AF
:1027C000BDE8F04703F03BBD082812D2DFE800F077
:1027D000040608110A0C0E1030250AE0102508E046
:1027E000202506E0382504E0282502E0182500E031
:1027F0000825A1F50940893806D0032045F4805109
:10280000BDE8F047FFF730BB112046F240012943F5
:10281000F6E770B5FFF77CFBFFF74EFBFF4C4FF47C
:102820008071204603F00BFD65152946204603F014
:1028300008FDFB480188FB4803F00AFDAE01314664
:10284000204603F0FEFC3146204603F0F8FC294602
:102850002046BDE8704003F0F2BC2DE9F74FF24C82
:1028600082B00E460546A088090A0091290A019106
:102870002146DFF8A883DFF8ACA34A89A0F513430B
:102880004FF480774FF400794FF4004B413B13D065
:10289000A0F5A64110390FD0B1F5007119D023462B
:1028A000A0F5D04C99791B885B1B5B1EBCF1040C16
:1028B00068D001297ED0D2E01046FFF759FA394698
:1028C000404603F0BCFC4946404603F0BAFC01997F
:1028D00067E01046FFF74CFA3946404603F0AFFC7C
:1028E0004946404603F0ADFC5046019903F0B0FC68
:1028F0005946404603F0A5FC5946404603F09FFC6C
:102900004946404603F09BFC6089401C80B2FFF7BB
:102910002FFA3946404603F092FC4946404603F000
:1029200090FCE9B2504603F093FC5946404603F050
:1029300088FC5946404603F082FC4946404603F075
:102940007EFCA089FFF714FA3946404603F077FC75
:102950004946404603F075FC5046009903F078FC68
:102960005946404603F06DFC5946404603F067FC6B
:102970004946404603F063FCA089401C80B2FFF743
:10298000F7F952E0012900D19DB21046FFF7F0F9A6
:102990003946404603F053FC4946404603F051FC9B
:1029A000290A504603F054FC5946404603F049FCBE
:1029B000594600E052E0404603F041FC494640469B
:1029C00003F03DFC3946404603F039FC4946404699
:1029D00003F037FCE9B2504603F03AFC5946404652
:1029E00003F02FFC5946404603F029FC4946404677
:1029F00003F025FCA089FFF7BBF93946404603F0F8
:102A00001EFC4946404603F01CFC5046009903F06A
:102A10001FFC5946404603F014FC5946404603F05B
:102A20000EFC4946404603F00AFC3946404603F096
:102A300006FC4946404603F004FCF1B2504603F060
:102A400007FC5946404603F0FCFB5946404603F05C
:102A5000F6FB4946404603F0F2FB08E09DB22946EA
:102A60001046FFF701FAA0893146FFF7FDF94FF450
:102A700080714546404603F0E4FB4E4649462846F1
:102A800003F0DFFB21895446504603F0E1FB5F462B
:102A90005946284603F0D5FB3946284603F0CFFBBC
:102AA0003146284603F0CBFB4FF48071284603F0F3
:102AB000C6FB3146284603F0C4FB2046049903F0C8
:102AC000C7FB3946284603F0BCFB3946284603F0CD
:102AD000B6FB05B031462846BDE8F04F03F0AFBB6A
:102AE0002DE9F05F50492C232A242B252222212670
:102AF000898848F689194FF04E0A4FF04F0B45F27E
:102B0000105EF02749F24138F8B147484FF0010C08
:102B1000414580F806C04FF4A07CA0F800C0478073
:102B20000FD0A1F5A647103F0BD0A1F5D047043F29
:102B30004ED0494550D10281A0F80AB0A0F80CA0AF
:102B400060E00381448185815CE037484FF0000CF0
:102B5000414580F806C007804FF4A077478011D028
:102B6000A1F5D04CBCF1040C0CD0A1F5A04CBCF5E7
:102B7000447C07D0494514D10281A0F80AA0A0F8EE
:102B80000CB055E003814481A1F5D0428581043A1F
:102B900003D0A1F5A642103A4AD107804FF4F07154
:102BA0000FE071450FD14FF4305101814FF428519E
:102BB00041814FF42C5181814FF4F07101804FF429
:102BC0004871418034E002812021418186812FE0DB
:102BD00003814581848115E071450FD14FF4305256
:102BE00002814FF4285242814FF42C5282814FF4DB
:102BF000487202804FF4F072428003E00281468105
:102C000020228281A1F5D042043A03D0A1F5A64248
:102C1000103A0DD14FF4F071018007E0001001402F
:102C200084000020000C0140F4080020A0F802C03D
:102C3000BDE8F05F0020FFF78ABB2DE9F05F054695
:102C40001044401E87B2C818FF4A401E0C4686B288
:102C50004FEA112A90881146A0F5134349894FF491
:102C6000807B4FEA1529413B31D0A0F5A643103BAC
:102C70002DD0A0F5D043043B29D0A0F5AA43103BAA
:102C80007DD0917901297BD0B84629464FEA0407C7
:102C9000A0F50942893A74D050204FF0510B4FF003
:102CA000520A53229146FFF7DFF841465846FFF794
:102CB000DBF839465046FFF7D7F831464846FFF76C
:102CC000D3F821462846BDE8F05FFFF721B9084652
:102CD000FFF74EF85946DD4803F0B1FA4FF40071A2
:102CE000DA4803F0AEFA4946DFF86493484603F049
:102CF000AFFA4FF400484146D44803F0A2FA4146E7
:102D0000D24803F09CFA4FF40071D04803F097FAD0
:102D10005946CE4803F093FA4FF40071CB4803F0C4
:102D200090FAE9B2484603F093FA4146C74803F0E7
:102D300088FA4146C54803F082FA4FF40071C3484F
:102D400003F07DFA5946C14803F079FA4FF4007157
:102D5000BE4803F076FA390A484603F079FA41464C
:102D6000BA4803F06EFA4146B84803F068FA4FF4E7
:102D70000071B64803F063FA5946B44802E07EE0B9
:102D800098E18DE103F05BFA4FF40071AF4803F076
:102D900058FAF9B2484603F05BFA4146AB4803F0F3
:102DA00050FA4146A94803F04AFA4FF40071A74887
:102DB00003F045FAA4488089FEF7DAFF5946A34894
:102DC00003F03DFA4FF40071A04803F03AFA51467F
:102DD000484603F03DFA41469C4803F032FA41462A
:102DE0009A4803F02CFA4FF40071984803F027FA40
:102DF0005946964803F023FA4FF40071934803F0C4
:102E000020FAE1B2484603F023FA41468F4803F026
:102E100018FA41468D4803F012FA4FF400718B48BE
:102E200003F00DFA5946894803F009FA4FF400718E
:102E3000864803F006FA310A484603F009FA41468B
:102E4000824803F0FEF94146804803F0F8F94FF458
:102E500000717E4803F0F3F959467C4803F0EFF91E
:102E60004FF40071794803F0ECF9F1B2484603F0F1
:102E7000EFF94146754803F0E4F9414606E1904612
:102E80000846FEF775FF4FF48071704803F0D7F9DC
:102E90004FF400716D4803F0D4F9DFF8B4B149463E
:102EA000584603F0D5F94FF400494946674803F006
:102EB000C8F94946654803F0C2F94FF40071634808
:102EC00003F0BDF9B8F80A00401C80B2FEF750FFCD
:102ED0004FF480715D4803F0B2F94FF400715B4824
:102EE00003F0AFF9E9B2584603F0B2F94946574842
:102EF00003F0A7F94946554803F0A1F94FF40071D2
:102F0000524803F09CF9B8F80A00801C80B2FEF722
:102F10002FFF4FF480714D4803F091F94FF4007189
:102F20004A4803F08EF9390A584603F091F94946A8
:102F3000464803F086F94946444803F080F94FF4C7
:102F40000071424803F07BF9B8F80A00C01C80B257
:102F5000FEF70EFF4FF480713C4803F070F94FF418
:102F600000713A4803F06DF9F9B2584603F070F970
:102F70004946364803F065F94946344803F05FF99D
:102F80004FF40071314803F05AF9B8F80C00FEF71D
:102F9000EFFE4FF480712D4803F051F94FF40071AA
:102FA0002A4803F04EF95146584603F051F9494674
:102FB000264803F046F94946244803F040F94FF407
:102FC0000071224803F03BF9B8F80C00401C80B2B5
:102FD000FEF7CEFE4FF480711C4803F030F94FF439
:102FE00000711A4803F02DF9E1B2584603F030F9A8
:102FF0004946164803F025F94946144803F01FF9DD
:103000004FF40071114803F01AF9B8F80C00801C55
:1030100080B2FEF7ADFE4FF480710C4803F00FF95B
:103020004FF40071094803F00CF9310A584603F0D7
:103030000FF94946054803F004F94946034803F0EF
:10304000FEF84FF4007105E0F40800200010014084
:10305000000C0140FE4803F0F2F8B8F80C00C01C68
:1030600080B2FEF785FE4FF48071F94803F0E7F86F
:103070004FF40071F64803F0E4F8F1B2584603F05B
:10308000E7F84946F24803F0DCF84946F04803F017
:10309000D6F8BDE8F05F4FF40071ED4803F0CFB80B
:1030A000442041EA082189B2834688464FF0450A08
:1030B0004622F7E51288B046D31B5B1E521B521EF8
:1030C00021469FB296B2E3E52DE9F05FE14E8346DB
:1030D0000024308875884543B088A0F5D041043974
:1030E00002D1B07901280ED000210846FEF710FF6A
:1030F000FEF7E2FED64F4FF480797E15DFF858A335
:103100004FF4004829E00020B0712A2777814FF062
:103110002B08A6F80C800146FEF7FAFE0120B071DC
:10312000A6F80A80B781E3E74946384603F087F8F6
:103130003146384603F085F85946504603F088F882
:103140004146384603F07DF84146384603F077F8AB
:103150003146384603F073F8641CAC42E4D3BDE852
:10316000F09F2DE9F84F01211D2003F0E4F9012122
:10317000BA4803F085F84FF44070ADF80000102411
:10318000B34E8DF8034003258DF802506946304652
:1031900002F0E7FFA803ADF800008DF8034002201D
:1031A0008DF802006946304602F0DBFFAC4801684A
:1031B00041F480710160AB490A6A22F001020A629F
:1031C000A9490A8822F001020A80016821F480716D
:1031D00001608014ADF800008DF803408DF80250B6
:1031E0006946A24802F0BDFF9B4C4FF6FF75ADF853
:1031F00000506946204602F0B4FF2946204603F0FD
:103200001EF8322002F096FD01210020FEF72CFE70
:10321000322002F08FFD0020FEF748FE8D4C49F26F
:10322000413645F21057A080FF2804D3A84202D0AF
:10323000B0F5134F5AD1D320FEF79AFDFEF7D8FD13
:10324000FEF7D6FDFEF7D4FD05EA0020A080FEF7CC
:10325000CFFDA1880843A080B04247D0BF20FEF731
:1032600087FDFEF7C5FDFEF7C3FDFEF7C1FDFEF7C6
:10327000BFFD05EA0020A080FEF7BAFDA188084343
:10328000A0F5D041A080043930D0D420FEF770FDE5
:10329000FEF7AEFDFEF7ACFDFEF7AAFD05EA002045
:1032A000A080FEF7A5FDA1880843A0F5A641A08057
:1032B00010391BD04FF45A40FEF75AFDFEF798FD27
:1032C0004FF45B40FEF754FDFEF792FD05EA002047
:1032D000A0804FF45C40FEF74BFDFEF789FDA1880E
:1032E0000843A080B0F5004F00D1A780A18860A05E
:1032F00019F048FBA088B0427ED1CF20FEF738FD00
:103300000020FEF755FDC120FEF752FD3020FEF7EC
:103310004FFDED20FEF72CFD6420FEF749FD032054
:10332000FEF746FD1220FEF743FD8120FEF740FD2B
:10333000E820FEF71DFD8520FEF73AFD1020FEF780
:1033400037FD7A20FEF734FDCB20FEF711FD392042
:10335000FEF72EFD2C20FEF72BFD0020FEF728FDAA
:103360003420FEF725FD0220FEF722FDF720FEF7B0
:10337000FFFC2020FEF71CFDEA20FEF7F9FC0020F0
:10338000FEF716FD0020FEF713FDC020FEF7F0FC4F
:103390001B20FEF70DFDC120FEF7EAFC0120FEF721
:1033A00007FDC520FEF7E4FC3020FEF701FD3020CC
:1033B000FEF7FEFCC720FEF7DBFCB720FEF7F8FCAB
:1033C0003620FEF7D5FC4820FEF7F2FC3A20FEF747
:1033D000CFFC5520FEF7ECFCB120FEF7C9FC002025
:1033E000FEF7E6FC1A20FEF7E3FCB620FEF7C0FC71
:1033F0000A20FEF7DDFC00E0ADE0A220FEF7D8FCDD
:10340000F220FEF7B5FC0020FEF7D2FC2620FEF7E6
:10341000AFFC0120FEF7CCFCE020FEF7A9FC0F205A
:10342000FEF7C6FC2A20FEF7C3FC2820FEF7C0FCEE
:103430000820FEF7BDFC0E20FEF7BAFC0820FEF7C0
:10344000B7FC5420FEF7B4FCA920FEF7B1FC17E04E
:1034500000100140F4080020000C01400002300080
:103460000070004000100240306C00400008014035
:10347000204C43442049443A25780D0A00000000BE
:103480004320FEF795FC0A20FEF792FC0F20FEF782
:103490008FFC0020FEF78CFC0020FEF789FC00204A
:1034A000FEF786FC0020FEF783FCE120FEF760FCBF
:1034B0000020FEF77DFC1520FEF77AFC1720FEF7B2
:1034C00077FC0720FEF774FC1120FEF771FC062044
:1034D000FEF76EFC2B20FEF76BFC5620FEF768FC17
:1034E0003C20FEF765FC0520FEF762FC1020FEF78D
:1034F0005FFC0F20FEF75CFC3F20FEF759FC3F20ED
:10350000FEF756FC0F20FEF753FC2B20FEF730FC95
:103510000020FEF74DFC0020FEF74AFC0120FEF7DC
:1035200047FC3F20FEF744FC2A20FEF721FC002048
:10353000FEF73EFC0020FEF73BFC0020FEF738FCC7
:10354000EF20FEF735FC1120FEF712FC782002F088
:10355000F1FB2920FEE3B8427ED14FF4704455219F
:103560002046FEF781FC661CAA213046FEF77CFC53
:10357000A71C52213846FEF777FC4FF203080821BA
:103580004046FEF771FC4FF2040901214846FEF760
:103590006BFC0D214FF43040FEF766FC0D214BF221
:1035A0000100FEF761FC0D214BF20200FEF75CFC0E
:1035B0004FF4364A34215046FEF756FC34214BF284
:1035C0000160FEF751FC34214BF20260FEF74CFC27
:1035D0004FF4314B0D215846FEF746FC0D214BF2BE
:1035E0000110FEF741FC0D214BF20210FEF73CFCEE
:1035F00034214FF43740FEF737FC34214BF2017091
:10360000FEF732FC34214BF20270FEF72DFC002154
:103610004FF43240FEF728FC00214BF20120FEF768
:1036200023FC00214BF20220FEF71EFC24214FF464
:103630003840FEF719FC24214BF60100FEF714FC7C
:1036400024214BF60200FEF70FFC01214FF43F400E
:10365000FEF70AFC0F2100E0FEE34FF43340FEF7D3
:1036600003FC0F214BF20130FEF7FEFB0F214BF262
:103670000230FEF7F9FB34214FF43940FEF7F4FB3A
:1036800034214BF60110FEF7EFFB34214BF602100C
:10369000FEF7EAFB08214FF43540FEF7E5FB082171
:1036A0004BF20150FEF7E0FB08214BF20250FEF70F
:1036B000DBFB03214FF44240FEF7D6FB24214FF4FD
:1036C0003A40FEF7D1FB24214BF60120FEF7CCFB5C
:1036D00024214BF60220FEF7C7FB00214FF43C40AB
:1036E000FEF7C2FB78214BF60140FEF7BDFB00213F
:1036F0004BF60240FEF7B8FB00214FF43D40FEF7C9
:10370000B3FB78214BF60150FEF7AEFB00214BF6E0
:103710000250FEF7A9FB00214FF43E40FEF7A4FB48
:1037200064214BF60160FEF79FFB00214FF45140EE
:10373000FEF79AFB33214DF20110FEF795FB0021B5
:103740004DF20210FEF790FB34214DF20310FEF70C
:103750008BFB00214DF20410FEF786FB3A214DF25F
:103760000510FEF781FB00214DF20610FEF77CFBF1
:103770004A214DF20710FEF777FB00214DF20810A9
:10378000FEF772FB5C214DF20910FEF76DFB002184
:103790004DF20A10FEF768FB81214DF20B10FEF787
:1037A00063FB00214DF20C10FEF75EFBA6214DF2EB
:1037B0000D10FEF759FB00214DF20E10FEF754FBE1
:1037C000E5214DF20F10FEF74FFB01214DF21010D5
:1037D000FEF74AFB13214DF21110FEF745FB0121C4
:1037E0004DF21210FEF740FB54214DF21310FEF77C
:1037F0003BFB01214DF21410FEF736FB82214DF206
:103800001510FEF731FB01214DF21610FEF72CFBCF
:10381000CA214DF21710FEF727FB02214DF21810B6
:10382000FEF722FB00214DF21910FEF71DFB0221CD
:103830004DF21A10FEF718FB01214DF21B10FEF796
:1038400013FB02214DF21C10FEF70EFB34214DF24A
:103850001D10FEF709FB02214DF21E10FEF704FBBE
:1038600067214DF21F10FEF7FFFA02214DF22010E2
:10387000FEF7FAFA84214DF22110FEF7F5FA022143
:103880004DF22210FEF7F0FAA4214DF22310FEF7BC
:10389000EBFA02214DF22410FEF7E6FAB7214DF2C1
:1038A0002510FEF7E1FA02214DF22610FEF7DCFAB0
:1038B000CF214DF22710FEF7D7FA02214DF2281042
:1038C000FEF7D2FADE214DF22910FEF7CDFA0221E1
:1038D0004DF22A10FEF7C8FAF2214DF22B10FEF736
:1038E000C3FA02214DF22C10FEF7BEFAFE214DF272
:1038F0002D10FEF7B9FA03214DF22E10FEF7B4FA9F
:1039000010214DF22F10FEF7AFFA03214DF23010C7
:10391000FEF7AAFA33214DF23110FEF7A5FA032182
:103920004DF23210FEF7A0FA6D214DF23310FEF782
:103930009BFA00214FF45240FEF796FA33214DF2E4
:103940000120FEF791FA00214DF20220FEF78CFAD9
:1039500034214DF20320FEF787FA00214DF20420B6
:10396000FEF782FA3A214DF20520FEF77DFA00219A
:103970004DF20620FEF778FA4A214DF20720FEF7B5
:1039800073FA00214DF20820FEF76EFA5C214DF229
:103990000920FEF769FA00214DF20A20FEF764FAC9
:1039A00081214DF20B20FEF75FFA00214DF20C2031
:1039B000FEF75AFAA6214DF20D20FEF755FA002126
:1039C0004DF20E20FEF750FAE5214DF20F20FEF7E2
:1039D0004BFA01214DF21020FEF746FA13214DF269
:1039E0001120FEF741FA01214DF21220FEF73CFAB8
:1039F00054214DF21320FEF737FA01214DF2142025
:103A0000FEF732FA82214DF21520FEF72DFA012140
:103A10004DF21620FEF728FACA214DF21720FEF7C4
:103A200023FA02214DF21820FEF71EFA00214DF272
:103A30001920FEF719FA02214DF21A20FEF714FAA6
:103A400001214DF21B20FEF70FFA02214DF21C203E
:103A5000FEF70AFA34214DF21D20FEF705FA022185
:103A60004DF21E20FEF700FA67214DF21F20FEF7EF
:103A7000FBF902214DF22020FEF7F6F984214DF2E8
:103A80002120FEF7F1F902214DF22220FEF7ECF998
:103A9000A4214DF22320FEF7E7F902214DF2242064
:103AA000FEF7E2F9B7214DF22520FEF7DDF90221FC
:103AB0004DF22620FEF7D8F9CF214DF22720FEF750
:103AC000D3F902214DF22820FEF7CEF9DE214DF286
:103AD0002920FEF7C9F902214DF22A20FEF7C4F988
:103AE000F2214DF22B20FEF7BFF902214DF22C20DE
:103AF000FEF7BAF9FE214DF22D20FEF7B5F90321AC
:103B00004DF22E20FEF7B0F910214DF22F20FEF7D6
:103B1000ABF903214DF23020FEF7A6F933214DF227
:103B20003120FEF7A1F903214DF23220FEF79CF976
:103B30006D214DF23320FEF797F900214FF45340E9
:103B4000FEF792F933214DF20130FEF78DF9002195
:103B50004DF20230FEF788F934214DF20330FEF7C2
:103B600083F900214DF20430FEF77EF93A214DF23F
:103B70000530FEF779F900214DF20630FEF774F9B1
:103B80004A214DF20730FEF76FF900214DF208305F
:103B9000FEF76AF95C214DF20930FEF765F9002164
:103BA0004DF20A30FEF760F981214DF20B30FEF73D
:103BB0005BF900214DF20C30FEF756F9A6214DF2CB
:103BC0000D30FEF751F900214DF20E30FEF74CF9A1
:103BD000E5214DF20F30FEF747F901214DF210308B
:103BE000FEF742F913214DF21130FEF73DF90121A4
:103BF0004DF21230FEF738F954214DF21330FEF732
:103C000033F901214DF21430FEF72EF982214DF2E5
:103C10001530FEF729F901214DF21630FEF724F98F
:103C2000CA214DF21730FEF71FF902214DF218306C
:103C3000FEF71AF900214DF21930FEF715F90221AD
:103C40004DF21A30FEF710F901214DF21B30FEF74C
:103C50000BF902214DF21C30FEF706F934214DF22A
:103C60001D30FEF701F902214DF21E30FEF7FCF87F
:103C700067214DF21F30FEF7F7F802214DF2203098
:103C8000FEF7F2F884214DF22130FEF7EDF8022123
:103C90004DF22230FEF7E8F8A4214DF22330FEF772
:103CA000E3F802214DF22430FEF7DEF8B7214DF2A1
:103CB0002530FEF7D9F802214DF22630FEF7D4F870
:103CC000CF214DF22730FEF7CFF802214DF22830F8
:103CD000FEF7CAF8DE214DF22930FEF7C5F80221C1
:103CE0004DF22A30FEF7C0F8F2214DF22B30FEF7EC
:103CF000BBF802214DF22C30FEF7B6F8FE214DF252
:103D00002D30FEF7B1F803214DF22E30FEF7ACF85E
:103D100010214DF22F30FEF7A7F803214DF230307D
:103D2000FEF7A2F833214DF23130FEF79DF8032162
:103D30004DF23230FEF798F86D214DF23330FEF738
:103D400093F800214FF45440FEF78EF833214DF2E2
:103D5000014000E07FE3FEF787F800214DF20240CA
:103D6000FEF782F834214DF20340FEF77DF8002182
:103D70004DF20440FEF778F83A214DF20540FEF787
:103D800073F800214DF20640FEF76EF84A214DF21D
:103D90000740FEF769F800214DF20840FEF764F88D
:103DA0005C214DF20940FEF75FF800214DF20A4018
:103DB000FEF75AF881214DF20B40FEF755F800212D
:103DC0004DF20C40FEF750F8A6214DF20D40FEF7E3
:103DD0004BF800214DF20E40FEF746F8E5214DF27A
:103DE0000F40FEF741F801214DF21040FEF73CF87C
:103DF00013214DF21140FEF737F801214DF2124028
:103E0000FEF732F854214DF21340FEF72DF8012150
:103E10004DF21440FEF728F882214DF21540FEF7CE
:103E200023F801214DF21640FEF71EF8CA214DF28B
:103E30001740FEF719F802214DF21840FEF714F86A
:103E400000214DF21940FEF70FF802214DF21A4001
:103E5000FEF70AF8012100E0FFE24DF21B40FEF7F9
:103E600003F802214DF21C40FDF7FEFF34214DF214
:103E70001D40FDF7F9FF02214DF21E40FDF7F4FF52
:103E800067214DF21F40FDF7EFFF02214DF2204068
:103E9000FDF7EAFF84214DF22140FDF7E5FF022105
:103EA0004DF22240FDF7E0FFA4214DF22340FDF743
:103EB000DBFF02214DF22440FDF7D6FFB7214DF282
:103EC0002540FDF7D1FF02214DF22640FDF7CCFF42
:103ED000CF214DF22740FDF7C7FF02214DF22840C8
:103EE000FDF7C2FFDE214DF22940FDF7BDFF0221A3
:103EF0004DF22A40FDF7B8FFF2214DF22B40FDF7BD
:103F0000B3FF02214DF22C40FDF7AEFFFE214DF232
:103F10002D40FDF7A9FF03214DF22E40FDF7A4FF30
:103F200010214DF22F40FDF79FFF03214DF230404D
:103F3000FDF79AFF33214DF23140FDF795FF032144
:103F40004DF23240FDF790FF6D214DF23340FDF709
:103F50008BFF00214FF45540FDF786FF33214DF2D2
:103F60000150FDF781FF00214DF20250FDF77CFF6B
:103F700034214DF20350FDF777FF00214DF204503C
:103F8000FDF772FF3A214DF20550FDF76DFF00215C
:103F90004DF20650FDF768FF4A214DF20750FDF73C
:103FA00063FF00214DF20850FDF75EFF5C214DF2EA
:103FB0000950FDF759FF00214DF20A50FDF754FF5B
:103FC00081214DF20B50FDF74FFF00214DF20C50B7
:103FD000FDF74AFFA6214DF20D50FDF745FF0021E8
:103FE0004DF20E50FDF740FFE5214DF20F50FDF769
:103FF0003BFF01214DF21050FDF736FF13214DF22A
:104000001150FDF731FF01214DF21250FDF72CFF49
:1040100054214DF21350FDF727FF01214DF21450AA
:10402000FDF722FF82214DF21550FDF71DFF012102
:104030004DF21650FDF718FFCA214DF21750FDF74B
:1040400013FF02214DF21850FDF70EFF00214DF233
:104050001950FDF709FF02214DF21A50FDF704FF38
:1040600001214DF21B50FDF7FFFE02214DF21C50C5
:10407000FDF7FAFE34214DF21D50FDF7F5FE022149
:104080004DF21E50FDF7F0FE67214DF21F50FDF777
:10409000EBFE02214DF22050FDF7E6FE84214DF2A9
:1040A0002150FDF7E1FE02214DF22250FDF7DCFE2A
:1040B000A4214DF22350FDF7D7FE02214DF22450EA
:1040C000FDF7D2FEB7214DF22550FDF7CDFE0221BE
:1040D0004DF22650FDF7C8FECF214DF22750FDF7D7
:1040E000C3FE02214DF22850FDF7BEFEDE214DF247
:1040F0002950FDF7B9FE02214DF22A50FDF7B4FE1A
:10410000F2214DF22B50FDF7AFFE02214DF22C5063
:10411000FDF7AAFEFE214DF22D50FDF7A5FE03216D
:104120004DF22E50FDF7A0FE10214DF22F50FDF75D
:104130009BFE03214DF23050FDF796FE33214DF2E8
:104140003150FDF791FE03214DF23250FDF78CFE08
:104150006D214DF23350FDF787FE00214FF456409C
:10416000FDF782FE33214DF20160FDF77DFE002157
:104170004DF20260FDF778FE34214DF20360FDF749
:1041800073FE00214DF20460FDF76EFE3A214DF200
:104190000560FDF769FE00214DF20660FDF764FE43
:1041A0004A214DF20760FDF75FFE00214DF20860E5
:1041B000FDF75AFE5C214DF20960FDF755FE002126
:1041C0004DF20A60FDF750FE81214DF20B60FDF7C4
:1041D0004BFE00214DF20C60FDF746FEA6214DF28C
:1041E0000D60FDF741FE00214DF20E60FDF73CFE33
:1041F000E5214DF20F60FDF737FE01214DF2106011
:10420000FDF732FE13214DF21160FDF72DFE012165
:104210004DF21260FDF728FE54214DF21360FDF7B8
:1042200023FE01214DF21460FDF71EFE82214DF2A6
:104230001560FDF719FE01214DF21660FDF714FE21
:10424000CA214DF21760FDF70FFE02214DF21860F2
:10425000FDF70AFE00214DF21960FDF705FE02216F
:104260004DF21A60FDF700FE01214DF21B60FDF7D3
:10427000FBFD02214DF21C60FDF7F6FD34214DF2ED
:104280001D60FDF7F1FD02214DF21E60FDF7ECFD12
:1042900067214DF21F60FDF7E7FD02214DF220601E
:1042A000FDF7E2FD84214DF22160FDF7DDFD0221E5
:1042B0004DF22260FDF7D8FDA4214DF22360FDF7F9
:1042C000D3FD02214DF22460FDF7CEFDB7214DF262
:1042D0002560FDF7C9FD02214DF22660FDF7C4FD02
:1042E000CF214DF22760FDF7BFFD02214DF228607E
:1042F000FDF7BAFDDE214DF22960FDF7B5FD022183
:104300004DF22A60FDF7B0FDF2214DF22B60FDF772
:10431000ABFD02214DF22C60FDF7A6FDFE214DF212
:104320002D60FDF7A1FD03214DF22E60FDF79CFDF0
:1043300010214DF22F60FDF797FD03214DF2306003
:10434000FDF792FD33214DF23160FDF78DFD032124
:104350004DF23260FDF788FD6D214DF23360FDF7BF
:1043600083FD55212046FDF77FFDAA213046FDF74C
:104370007BFD52213846FDF777FD08214046FDF7C9
:1043800073FD00214846FDF76FFDCC215846FDF72F
:104390006BFD00214BF20110FDF766FD0521504633
:1043A000FDF762FD70214FF43740FDF75DFD702190
:1043B0004BF20170FDF758FD01214FF43840FDF735
:1043C00053FD03214BF60100FDF74EFD03214BF693
:1043D0000200FDF749FD03214BF60300FDF744FD04
:1043E00002214FF43C40FDF73FFD00214BF6014018
:1043F000FDF73AFD00214BF60240FDF735FDD021D7
:104400004FF44940FDF730FD02214CF60110FDF755
:104410002BFD50214CF60210FDF726FD50214CF6E5
:104420000310FDF721FD50214CF60410FDF71CFD93
:1044300000214FF45450FDF717FD55214FF46850FB
:10444000FDF712FD4FF48850FDF792FC782001F043
:104450005AFC4FF42450FDF78BFC0120FEF740FB83
:10446000FE490120C1F8B0012846FEF72DFEBDE847
:10447000F88F2DE9F84FFA4C1E468346A388A3F522
:10448000D040043802D1A07901280BD0A2EB0B0058
:10449000401C84B20D46DFF8CC834FF400794FF412
:1044A000004A40E025880846A91AA5EB0B03002521
:1044B000A57132462A2565812B26A681491E5B1EE1
:1044C0000A9F89B29BB20097FFF7D3FF0120A0712A
:1044D0006681A581CBE729465846FDF719FDFDF712
:1044E000EBFC00271BE000BF4FF48071404601F059
:1044F000A6FE4946404601F0A4FEDB480A9901F0B9
:10450000A7FE5146404601F09CFE5146404601F050
:1045100096FE4946404601F092FE7F1CBFB2A7427C
:10452000E2D36D1CADB2B542D5D9A0E72DE9FF5F4E
:104530008B460098101A401C86B2A3EB0B00401C5F
:1045400087B2002433E000BF0BEB040081B2009877
:10455000FDF7DEFCFDF7B0FC0025DFF808934FF413
:10456000007A4FF400481EE04FF48071484601F095
:1045700066FE5146484601F064FE04FB06510E9863
:1045800030F81110B84801F063FE4146484601F08A
:1045900058FE4146484601F052FE5146484601F059
:1045A0004EFE6D1CADB2B542DED3641CA4B2BC425B
:1045B000CAD3BDE8FF9F2DE9FE4F161ACDE90010C2
:1045C0004FF000085D1A47464FF0FF30002E02DD25
:1045D0004FF0010102E003D14FF000018B4602E0F1
:1045E0008346C6F10006002D02DD4FF0010002E017
:1045F00003D14FF00000824602E08246C5F100057B
:10460000AE4201DD344600E02C46601C4FF000094C
:10461000029018E0009881B2019880B2FEF7F9F894
:10462000B0442F44A04504DD0198A8EB0408584489
:104630000190A74203DD00983F1B5044009009F110
:1046400001001FFA80F902998945E3DDBDE8FE8F7C
:104650002DE9F0411C4615460E4607460B46FFF76E
:10466000AAFF3A46234631461046FFF7A4FF2346E9
:104670002A4619463846FFF79EFF2A46234631460A
:10468000BDE8F041104696E72DE9FC5F074600259E
:10469000144603200E46A0EB440858E0A6EB05099B
:1046A000A7EB040A1FFA89F11FFA8AF0FEF7B1F8A6
:1046B000381901901FFA89F180B2FEF7AAF8301973
:1046C00081B2A7EB050B00901FFA8BF0FEF7A1F863
:1046D0001FFA89F11FFA8AF0FEF79BF8A6EB04098E
:1046E0001FFA89F11FFA8BF0FEF793F8019806EB99
:1046F000050B1FFA8BF180B2FEF78BF81FFA89F1D8
:1047000007EB05091FFA89F0FEF783F8009881B2DC
:104710001FFA89F0FEF77DF81FFA8BF11FFA8AF075
:10472000FEF777F86D1CB8F1000F04DA08EB85008E
:1047300000F1060805E0291B08EB810000F10A08DA
:10474000641E301981B2781980B2FEF762F8A54272
:10475000A4DDBDE8FC9F2DE9FF5F80461D460C46A9
:104760008B46580700D0012000EBD500690848436C
:10477000203A00F0FF0AD0B20026029045E00C2D4E
:1047800012D0102D15D0182D41D10298374900EBC9
:10479000C00000BF01EB80004FF00009875D3806C4
:1047A0000CD5334802880DE00298324900EB4000F6
:1047B000F0E73149029801EB0010EDE70E9828B9B7
:1047C0002B48428821464046FEF747F87806070EF8
:1047D0002348641CA4B20188414518D9A4EB0B00FE
:1047E000A84209D108F101001FFA80F81C485C4674
:1047F000018841450BD906E009F1010000F0FF09ED
:10480000B9F1080FCBD3761CF6B25645B7D3D0E634
:104810000246012000E05043491EC9B2FBD2704756
:104820002DE9FF4F81B00026DDF838A01D469346E4
:1048300081463446B0464FEA5A0738E0281B401EEE
:10484000C1B20A20FFF7E4FFBBFBF0F00A21B0FB86
:10485000F1F201FB1200AEB9691E0FE00000214227
:10486000F408002000100140000C0140E84E03084D
:104870008400002084440308F84803088C4201DACD
:1048800048B101263030C2B207FB049080B25346D3
:10489000CDF8008006E007FB049080B2534620224A
:1048A000CDF800800299FFF756FF641CE4B2AC42D9
:1048B000C4D305B0BDE8F08F2DE9FF4F81B04FF0B4
:1048C0000008DDE90EBA1E46814644460AF001059D
:1048D0004FEA5B072CE0301B401EC1B20A20FFF7F5
:1048E00097FF0399B1FBF0F00A21B0FBF1F201FB55
:1048F0001200B8F1000F05D1711E8C4202DA48B1E6
:104900004FF001083030C2B207FB049080B25B4622
:10491000009508E05FEA0A6007FB049080B25B46FE
:10492000009508D530220299FFF715FF641CE4B208
:10493000B442D0D3BDE72022F5E72DE9F84F044675
:1049400000F0FF0910190D46DDE90AB61FFA80F8DC
:10495000581987B24FF0000A12E0444503D305EB23
:104960000B004C4685B2BD420FD25B46294620461D
:10497000CDF800A0FFF7EFFE04EB5B0084B2761CDD
:104980003278A2F120005E28E7D970E570B50646BE
:104990000024334D03E0641CE4B2C82C0FD802217C
:1049A000284601F024FF0028F5D03146284601F0C2
:1049B000DAFE002405E0641CE4B2C82C01D9002012
:1049C00070BD0121284601F012FF0028F3D02846CF
:1049D00001F0CBFEC0B270BD38B5012141F2040038
:1049E00001F0A9FDE020ADF8000018208DF80300CB
:1049F00003201C4C8DF802006946204601F0B1FBF3
:104A0000E021204601F01BFC174800214FF4827280
:104A10000180428081800222C280012202815202F2
:104A2000428138228281C181072101820C4C0146DA
:104A3000204601F0F3FD0121204601F06CFEFF202D
:104A4000FFF7A4FF38BD06490A8822F038020A8021
:104A50000A8802430A80088840F0400008807047B6
:104A600000300140000801400209002030B500215B
:104A7000FF4A0B460124050602D5C2F8A04101E019
:104A8000C2F8A0314006000EC2F8AC31C2F8AC4109
:104A9000491CC9B20829EED330BD2DE9F0410027E9
:104AA000F34C3E463D46C4F8AC71C4F8A071C4F85E
:104AB000BC7104F5D074FFF7D9FF062001F023F98B
:104AC000E560012001F01FF90121E160E560E94A9C
:104AD0004FF6FF70A4F5D07400EA4606C4F8AC5156
:104AE000C4F8AC11D2F828310BB1761CB6B27F1CD9
:104AF000FFB2102FF0D33009C4F8BC11BDE8F0812B
:104B0000FEB5064600256C463046FFF7C6FF24F882
:104B100015006D1CADB2052DF6D30020431C99B2D3
:104B20000CE000BF34F8102034F81150AA4203D929
:104B300024F8105024F81120491C89B20529F1D31A
:104B400098B20428EAD300215FF0010034F8102065
:104B5000401C114480B289B20428F7D30320B1FB72
:104B6000F0F0FEBD2DE9F041C34C06460D4620781D
:104B7000FFF7C6FF07466078FFF7C2FF378028803F
:104B80000120BBE77FB50C460546694602A8FFF742
:104B9000E9FF00282FD001A903A8FFF7E3FF0028B1
:104BA00029D0BDF80C30BDF80820934203D803F19A
:104BB0003200824205D39A421FD802F1320083426A
:104BC0001BD2BDF80410BDF80000814203D801F1EA
:104BD0003206B04204D388420FD8323081420CD220
:104BE000D01840082880BDF80000BDF80410084423
:104BF00040082080012004B070BD0020FBE72DE9B3
:104C0000F04104469D480D460B46028004F10D001C
:104C100082B2193880B2FFF7CEFC05F10D0083B2E5
:104C2000193881B222461046FFF7C5FC6E1C04F10C
:104C30000108B1B21FFA88F0FDF7EBFDB1B2661EB4
:104C4000B0B2FDF7E6FD6F1EB9B21FFA88F0FDF7AE
:104C5000E0FDB9B2B0B2FDF7DCFD29462046BDE863
:104C6000F0410622FFF710BD70B5064683480C469A
:104C700002803046FDF7CDFD751CA8B22146FDF738
:104C8000C8FD641CA1B23046FDF7C3FDA1B2A8B2B5
:104C9000BDE87040FDF7BDBD70B502467548D0F85F
:104CA0003401754C083440B194F8200001063ED51B
:104CB00020F0800084F8200040E06F48083000F1C8
:104CC00016010C3012B1FFF75DFF24E0FFF75AFF29
:104CD00008B3B4F92C0003F08FFA0546A08903F05D
:104CE00094FA616A03F00CFA294603F0B1F903F073
:104CF000B7FAA081B4F92E0003F07EFA0546E08AE7
:104D000003F083FAA16A03F0FBF9294603F0A0F946
:104D100003F0A6FAE08294F8200000060ED4C0202A
:104D200084F82000A089A082E08AE08306E00020C9
:104D3000A082E0834FF6FF70A081E08294F820000B
:104D400000F0800070BD10B54B4C042208342820C0
:104D5000616A00F04FFE04222C20A16A00F04AFE96
:104D6000A18D0222302000F045FEE18D022232208A
:104D700000F040FE94F83010342000F01CFE0A21B0
:104D8000BDE81040352000F016BE10B5352000F00B
:104D9000F1FD044601463AA017F0F4FD0A2C01D0BB
:104DA000002010BD0421282000F039FE324C0421DF
:104DB000083460622C2000F032FEA0620221302014
:104DC00000F02DFEA0850221322000F028FEE085B3
:104DD000342000F0CFFD9022274984F83000D02302
:104DE00010B10A704B7001E00B704A70012010BDC9
:104DF0002DE9FF4F83B00E46DDE910A81F49074695
:104E00004FF47840DDF8509008801EA01025CDE9C1
:104E100000501D4C9346A021638822882820FFF76C
:104E20008CFD1AA0CDE9005063882288A02178204B
:104E3000FFF783FD16A0CDE9005063882288B421D6
:104E40002820FFF77AFD13A0CDE90050638822885F
:104E5000B4217820FFF771FD0FA0CDE900506388E1
:104E60002288C8212820FFF768FD0CA018E0000068
:104E7000000021420000224288000020840000201F
:104E800025750A0078313A00F408002079313A009B
:104E900078323A0079323A0078333A0079333A007E
:104EA000CDE9005063882288C8217820FFF745FDAE
:104EB000FEA0CDE9005063882288DC212820FFF77E
:104EC0003CFDFBA0CDE9005063882288DC217820DE
:104ED000FFF733FDF7A0CDE9005063882288F02169
:104EE0002820FFF72AFD04233A46A0214020009500
:104EF000FFF796FC04233246A02190200095FFF78F
:104F00008FFC04235A46B42140200095FFF788FC0B
:104F100004230095B4219020069AFFF781FC042316
:104F20005246C82140200095FFF77AFC04234246F0
:104F3000C82190200095FFF773FC04230095DC2125
:104F40004020129AFFF76CFC04230095DC2190208E
:104F5000139AFFF765FC0095218803234A466020D9
:104F6000FFF75EFC07B0BDE8F08F2DE9F04F00269B
:104F700089B034464FF6FF70FEF7A6F8CF484FF0E1
:104F80001F0B4FF01009A0F800B0CD486423A022F9
:104F90004168CDE9009128210846FFF7CEFC142195
:104FA0004FF478420846FFF72AFEC5480021083032
:104FB000824680F820104162DAF80410554601203C
:104FC000884795F820100120B0EB911F49D121F0BE
:104FD000400185F8201005A9AA8921F8262001EBB7
:104FE0008602761C0024E88AF6B2AA465080012E7A
:104FF00006D0022E12D0032E20D0042E31D13CE058
:1050000014214FF6FF720846FFF7F9FDAD484FF443
:1050100078420088143880B2142120E0A94D4FF660
:10502000FF7214212888143880B2FFF7E8FD6888E1
:105030004FF47842143881B2142010E0A14D4FF69D
:10504000FF726888143881B21420FFF7D8FD688891
:105050004FF47842143881B22888143880B2FFF7B0
:10506000CEFD0A2000F066FE641CA4B2B4F57A7F7F
:10507000A2D9FFF78AFE09B075E70026924805AD70
:1050800000EB860710F82620787835F8221035F8DE
:105090002030C91A00D5494205EB820205EB800099
:1050A00052884088101A00D5404249434043084482
:1050B00003F0B0F817F0F3FE03F0E6F81FFA80F8FB
:1050C000B878FA7835F8201035F82230C91A00D5AA
:1050D000494205EB800005EB820240885288801A25
:1050E00000D5404249434043084403F093F817F089
:1050F000D6FE03F0C9F887B2384603F086F80546B5
:10510000404603F082F8294603F02CF86F49054623
:1051100088427DDD6E4885427ADCB8F1000F77D099
:10512000002F75D0761CF6B2032EA7D3BDF81870E9
:10513000BDF81460B81B03F05FF8054661480088AD
:1051400002908046283803F057F8294603F00AF801
:10515000CAF824000090B81903F057F8009902F03B
:10516000CFFF0546404603F050F8294602F0C2FF43
:105170004FF0FF3103F034F803F059F8AAF82C008F
:10518000BDF81E70BDF816000190381A03F034F80F
:1051900006464C484588A5F1280003F02DF8314615
:1051A00002F0E0FF80460646CAF82800019838441D
:1051B00003F02BF8314602F0A3FF0646284603F021
:1051C00024F8314602F096FF4FF0FF3103F008F863
:1051D00003F02DF8AAF82E00009803F028F8002814
:1051E00000DA4042022807DC404603F020F800289D
:1051F00000DA4042022858DD0298143D1438002697
:10520000304FA9B280B24FF6FF72FFF7F8FC00E012
:105210001AE014214FF478420846FFF7F0FC2DA164
:10522000CDE900917B883A881A212820FFF785FB79
:105230009AF83010B9B300218AF83010A1B3204891
:1052400090210170D0215AE01E4800264FF6FF72CF
:10525000418800881439143889B280B2FFF7CFFC36
:1052600014214FF478420846FFF7C9FC1E4928462E
:1052700002F046FF02F0F4FF80B2BDF82220BDF834
:105280002030BDF81E10CDE90320CDE90113BDF893
:105290001C000090BDF81A30BDF81820BDF816109B
:1052A000BDF8140022E024E025E02AE078343A003A
:1052B00079343A006661632069733A008400002003
:1052C00088000020F4080020445C03083333733F57
:1052D0006666863F5450204E656564207265616441
:1052E0006A757374210000000000C842FFF780FD5A
:1052F00062E60121A0E73248D0210170902141707F
:105300005AE630494FF6FF742046A1F800B0FDF789
:10531000DBFE2DA1CDE9009131486E214388028842
:105320002320FFF70AFB4FF47A7000F003FDFFF72C
:105330000AFD2046FDF7C8FE9DE638B50121142080
:1053400001F0F9F84FF40940ADF8000010208DF895
:10535000030003208DF802006946224800F001FF97
:105360004FF48060ADF8000048201F4C8DF803001A
:105370006946204600F0F5FE6014ADF800000420F8
:105380008DF803006946204600F0EBFE0C491E3103
:10539000A1F10A00FFF7E6FB00F0EAFAFFF7F5FCDF
:1053A00008B1002038BD4FF47840FDF78DFEFFF7BF
:1053B000DCFDFFF7C8FCFFF7E8FC012038BD00006A
:1053C0008800002084000020546F756368205363B8
:1053D0007265656E2041646A757374204F4B2100BD
:1053E000F408002000080140001001407FB50C4681
:1053F00005460121022001F0A7F8ADF80040ADF804
:1054000004500024544DADF80240ADF80640694602
:10541000284601F0B1FA01221146284601F06AFD42
:105420001D208DF80C008DF80D4003208DF80E0026
:1054300001208DF80F0003A800F0E9FD01212846A6
:1054400001F043FD7FBD10B5434C0121204601F022
:1054500066FF18B141490868401C08602046BDE855
:105460001040012101F067BF7FB50D4604460121C0
:10547000102001F069F80020ADF80440ADF80050AC
:10548000374CADF80200ADF806006946204601F041
:1054900073FA01224121204601F02CFD36208DF8BF
:1054A0000C0001218DF80D1003208DF80E008DF8F1
:1054B0000F1003A800F0ABFD0121204601F005FD0F
:1054C0007FBD10B5264C0121204601F028FF08B110
:1054D00007F0D0FE2046BDE81040012101F02BBFAF
:1054E0007FB50D4604460121084601F02DF8002045
:1054F000ADF80440ADF80050ADF80200ADF806007C
:105500004FF080446946204601F036FA01221146E8
:10551000204601F0EFFC1C208DF80C0002208DF8D5
:105520000D0003208DF80E0001208DF80F0003A858
:1055300000F06DFD0121204601F0C7FC7FBD10B5D4
:1055400001218C07204601F0EAFE2046BDE810400C
:10555000012101F0F0BE000000040040FC0000202A
:10556000001000403D48016800210160016841F0E1
:1055700033310160C16801F47F41C160C16841F00D
:10558000F001C160016889B201600168344A1143C9
:105590000160704710B50121102000F0CCFFBDE87C
:1055A0001040DFE770B52A25FFF7DCFF2B4CA06821
:1055B000A068C0F303100F283BD0642000F0A3FBC9
:1055C000A068A16880B2C1F303110F2931D000F0A7
:1055D000F001206800202060206840F03330206017
:1055E000E06800F47F40E060E06840F00F00E060B9
:1055F00020686FF30F002060206848F6880210438F
:105600002060A06800F00F000143164875290BD0F8
:10561000B52907D0D52903D0E52906D1C57804E0FE
:10562000857802E0457800E00578A068C04300076F
:10563000FBD1284670BD10B5FFF7B4FF2A280CD067
:10564000542807D0592808D101210D20BDE8104069
:1056500007F0D2BB01210920F8E710BD001001407E
:1056600000008888C400002070B586B00121242085
:1056700000F061FF1024ADF80040B54E8DF80340F6
:1056800003258DF802506946304600F06AFD082077
:10569000ADF800008DF803408DF8025069463046A1
:1056A00000F05FFD0821304600F0C9FD0420ADF890
:1056B000000048208DF803008DF802506946A54887
:1056C00000F04FFD1821304600F0B9FDFFF784F9D6
:1056D000A14D0021284601F01EF80024ADF8044039
:1056E0004FF48270ADF80600ADF80C406815ADF8C7
:1056F0000E003820ADF810000720ADF80840ADF8D6
:105700001400ADF80A40ADF8124001A9284600F097
:1057100085FF9248C0F890410121C0F88C1106B075
:1057200070BD2DE9F0418D4E884600211546C6F822
:105730008C11FFF72BF90746002406E0FF20FFF746
:1057400025F908F80400641CE4B2AC42F6D3012049
:10575000C6F88C013846BDE8F0812DE9F0417F4F55
:105760000D4600211646C7F88C11FFF70FF9804649
:10577000002405E015F8010BFFF708F9641CE4B2FA
:10578000B442F7D30120C7F88C014046E3E71CB5CB
:1057900073A1D1E90001CDE900011020FFF753F911
:1057A000052269463020FFF7D8FF05226946102000
:1057B000FFF7B7FF002069460A5CA52A03D1401C09
:1057C000C0B20528F8D3052801D001201CBD002057
:1057D0001CBD70B5614C0E460021C4F88C1104F557
:1057E000C674FFF7D3F805463046FFF7CFF801201F
:1057F0002060284670BD10B5584C0021C4F88C11AB
:1058000004F5C674FFF7C2F8FF20FFF7BFF80121C7
:10581000216010BD70B505461020FFF714F94F4CFC
:105820000020C4F8900120222946A02004F5C87465
:10583000FFF793FF012020604B4800BFD0F808110C
:105840000029FBD10720FFF7D6FF04460146272099
:10585000FFF7BFFFE00605D5FF21E120FFF7B9FF05
:10586000102070BDA00601D5202070BDFF2070BDA6
:1058700070B505461020FFF7E6F80720FFF7BBFFDD
:10588000044601462720FFF7A4FF60060AD5202220
:1058900029466120FFF745FFFF21E220FFF799FF2E
:1058A000002070BD012070BD10B52C4C0020C4F844
:1058B000900105222D492A2004F5C874FFF74DFFF9
:1058C00001212120FFF785FF01212220FFF781FF21
:1058D00028212520FFF77DFF20213120FFF779FFC8
:1058E0000F212620FFF775FF0F212020FFF771FF02
:1058F0000120206010BD10B5184C0020C4F89001A4
:105900001A490522491F302004F5C874FFF725FF06
:10591000052216492A20FFF720FF01212120FFF749
:1059200058FF01212220FFF754FF1A212420FFF7FE
:1059300050FF28212520FFF74CFF0F212620FFF7DD
:1059400048FF0E212020FFF744FF0120206010BDFA
:1059500000080140001401400030014000002142D5
:10596000A5A5A5A5A500000000802242555C03085E
:1059700000F09EB810B5044600F0B4F8200AA0214B
:1059800001EB4000C0B200F045F900F0E4F8E0B2ED
:1059900000F040F900F0DFF800F0A4F8A12000F0DA
:1059A00039F900F0D8F8002000F05FF9044600F063
:1059B000B5F8204610BD70B50D46044600F092F8CB
:1059C000200AA02101EB4000C0B200F023F900F052
:1059D000C2F8E0B200F01EF900F0BDF8284600F071
:1059E00019F900F0B8F800F099F8BDE870400A2005
:1059F00000F0A0B92DE9F04116460D4607460024F7
:105A000009E0E00025FA00F0C1B2381980B2FFF7D2
:105A1000D2FF641CE4B2B442F3D3BDE8F0812DE9B7
:105A2000F0410D460146002004464E1908E00702E9
:105A3000301B401E80B2FFF79DFF641C3844E4B267
:105A4000AC42F4D3E9E710B5FF20FFF793FF5528E8
:105A50000AD05521FF20FFF7AEFFFF20FFF78AFF96
:105A6000552801D0012010BD002010BD70B514468E
:105A70000D46064608E03046711C8EB2FFF77AFFED
:105A8000641E05F8010BA4B2002CF4D170BD70B5F2
:105A900016460C46054606E021782846FFF78BFFA0
:105AA0006D1CADB2641C761EB6B2F5D270BD00009E
:105AB00008B50121102000F03EFD4FF4C050ADF8B4
:105AC000000010208DF8030003208DF802006946C5
:105AD0007F4800F046FB7F480121C0F8AC11C0F8B8
